{
  "address": "0xF0F3B11F9e04fA03A321486012C28a98939439eC",
  "abi": [
    {
      "inputs": [],
      "stateMutability": "nonpayable",
      "type": "constructor"
    },
    {
      "inputs": [
        {
          "internalType": "address",
          "name": "caller",
          "type": "address"
        },
        {
          "internalType": "bytes32",
          "name": "role",
          "type": "bytes32"
        }
      ],
      "name": "AddressDoesNotHaveRequiredRole",
      "type": "error"
    },
    {
      "inputs": [
        {
          "internalType": "address",
          "name": "caller",
          "type": "address"
        }
      ],
      "name": "DisputeResolution__AlreadyVoted",
      "type": "error"
    },
    {
      "inputs": [
        {
          "internalType": "uint256",
          "name": "disputeId",
          "type": "uint256"
        }
      ],
      "name": "DisputeResolution__DisputeEscalated_UnableToVote",
      "type": "error"
    },
    {
      "inputs": [
        {
          "internalType": "uint256",
          "name": "disputeId",
          "type": "uint256"
        }
      ],
      "name": "DisputeResolution__DisputeNotEscalated",
      "type": "error"
    },
    {
      "inputs": [
        {
          "internalType": "uint256",
          "name": "disputeId",
          "type": "uint256"
        }
      ],
      "name": "DisputeResolution__DisputeStatusNotPending",
      "type": "error"
    },
    {
      "inputs": [],
      "name": "DisputeResolution__DisputeStatusNotPendingOrEscalated",
      "type": "error"
    },
    {
      "inputs": [],
      "name": "DisputeResolution__InvalidDisputeDefendantAddress",
      "type": "error"
    },
    {
      "inputs": [],
      "name": "DisputeResolution__InvalidDisputeDetails",
      "type": "error"
    },
    {
      "inputs": [],
      "name": "DisputeResolution__InvalidDisputeEvidence",
      "type": "error"
    },
    {
      "inputs": [],
      "name": "DisputeResolution__InvalidDisputeIdOrNotFound",
      "type": "error"
    },
    {
      "inputs": [],
      "name": "DisputeResolution__InvalidMineralIdOrNotFound",
      "type": "error"
    },
    {
      "inputs": [],
      "name": "DisputeResolution__InvalidResolutionDetails",
      "type": "error"
    },
    {
      "inputs": [
        {
          "internalType": "address",
          "name": "caller",
          "type": "address"
        }
      ],
      "name": "DisputeResolution__NotEligibleToVote",
      "type": "error"
    },
    {
      "inputs": [],
      "name": "DisputeResolution__VotingPeriodStillActive",
      "type": "error"
    },
    {
      "inputs": [
        {
          "internalType": "address",
          "name": "token",
          "type": "address"
        },
        {
          "internalType": "uint256",
          "name": "tokenAmount",
          "type": "uint256"
        }
      ],
      "name": "ERC20TokenTransferFailed",
      "type": "error"
    },
    {
      "inputs": [
        {
          "internalType": "address",
          "name": "caller",
          "type": "address"
        }
      ],
      "name": "InsufficientPermissionsToPerformAction",
      "type": "error"
    },
    {
      "inputs": [],
      "name": "InvalidAccountAddress",
      "type": "error"
    },
    {
      "inputs": [
        {
          "internalType": "string",
          "name": "mineralId",
          "type": "string"
        }
      ],
      "name": "InvalidMineralIdOrNotFound",
      "type": "error"
    },
    {
      "inputs": [],
      "name": "InvalidPaymentMethods",
      "type": "error"
    },
    {
      "inputs": [
        {
          "internalType": "string",
          "name": "currentStatus",
          "type": "string"
        },
        {
          "internalType": "string",
          "name": "attemptedStatus",
          "type": "string"
        }
      ],
      "name": "InvalidTransportStateTransition",
      "type": "error"
    },
    {
      "inputs": [
        {
          "internalType": "string",
          "name": "mineralId",
          "type": "string"
        }
      ],
      "name": "MineralNotMarketReady",
      "type": "error"
    },
    {
      "inputs": [
        {
          "internalType": "string",
          "name": "mineralId",
          "type": "string"
        }
      ],
      "name": "MineralNotReadyToTrade",
      "type": "error"
    },
    {
      "inputs": [],
      "name": "MineralRegistry__InvalidMineralDestination",
      "type": "error"
    },
    {
      "inputs": [],
      "name": "MineralRegistry__InvalidMineralDetails",
      "type": "error"
    },
    {
      "inputs": [
        {
          "internalType": "string",
          "name": "mineralId",
          "type": "string"
        }
      ],
      "name": "MineralRegistry__InvalidMineralIdOrNotFound",
      "type": "error"
    },
    {
      "inputs": [],
      "name": "MineralRegistry__InvalidMineralLocation",
      "type": "error"
    },
    {
      "inputs": [],
      "name": "MineralRegistry__InvalidMineralName",
      "type": "error"
    },
    {
      "inputs": [],
      "name": "MineralRegistry__InvalidMineralOrigin",
      "type": "error"
    },
    {
      "inputs": [],
      "name": "MineralRegistry__InvalidMineralPurityPercentage",
      "type": "error"
    },
    {
      "inputs": [],
      "name": "MineralRegistry__InvalidMineralStatus",
      "type": "error"
    },
    {
      "inputs": [],
      "name": "MineralRegistry__InvalidMineralStorageConditions",
      "type": "error"
    },
    {
      "inputs": [],
      "name": "MineralRegistry__InvalidMineralType",
      "type": "error"
    },
    {
      "inputs": [],
      "name": "MineralRegistry__InvalidMineralWeight",
      "type": "error"
    },
    {
      "inputs": [],
      "name": "MineralRegistry__InvalidReceivingPartyAddress",
      "type": "error"
    },
    {
      "inputs": [],
      "name": "MineralRegistry__MineralAlreadyAudited",
      "type": "error"
    },
    {
      "inputs": [],
      "name": "MineralRegistry__MineralAlreadyInspected",
      "type": "error"
    },
    {
      "inputs": [],
      "name": "MineralRegistry__MineralAlreadyPurchased",
      "type": "error"
    },
    {
      "inputs": [],
      "name": "MineralRegistry__MineralNotAudited",
      "type": "error"
    },
    {
      "inputs": [],
      "name": "MineralRegistry__MineralNotInspected",
      "type": "error"
    },
    {
      "inputs": [
        {
          "internalType": "string",
          "name": "mineralId",
          "type": "string"
        }
      ],
      "name": "MineralRegistry__MineralNotRegistered",
      "type": "error"
    },
    {
      "inputs": [],
      "name": "MineralWarehouse__ETHTransferFailed",
      "type": "error"
    },
    {
      "inputs": [],
      "name": "MineralWarehouse__IncorrectETHAmount",
      "type": "error"
    },
    {
      "inputs": [],
      "name": "MineralWarehouse__InvalidETHPrice",
      "type": "error"
    },
    {
      "inputs": [],
      "name": "MineralWarehouse__InvalidMineralPrice",
      "type": "error"
    },
    {
      "inputs": [],
      "name": "MineralWarehouse__InvalidNumberOfPrices",
      "type": "error"
    },
    {
      "inputs": [
        {
          "internalType": "address",
          "name": "tokenAddress",
          "type": "address"
        }
      ],
      "name": "MineralWarehouse__InvalidTokenAddress",
      "type": "error"
    },
    {
      "inputs": [],
      "name": "MineralWarehouse__InvalidTokenPrice",
      "type": "error"
    },
    {
      "inputs": [
        {
          "internalType": "string",
          "name": "mineralId",
          "type": "string"
        }
      ],
      "name": "MineralWarehouse__MineralAlreadySold",
      "type": "error"
    },
    {
      "inputs": [
        {
          "internalType": "string",
          "name": "mineralId",
          "type": "string"
        }
      ],
      "name": "MineralWarehouse__MineralNotFoundInWarehouse",
      "type": "error"
    },
    {
      "inputs": [
        {
          "internalType": "string",
          "name": "mineralId",
          "type": "string"
        }
      ],
      "name": "MineralWarehouse__MineralNotMarketReady",
      "type": "error"
    },
    {
      "inputs": [
        {
          "internalType": "string",
          "name": "mineralId",
          "type": "string"
        }
      ],
      "name": "MineralWarehouse__MineralNotRefined",
      "type": "error"
    },
    {
      "inputs": [],
      "name": "MineralWarehouse__MismatchedArrays",
      "type": "error"
    },
    {
      "inputs": [
        {
          "internalType": "address",
          "name": "tokenAddress",
          "type": "address"
        }
      ],
      "name": "MineralWarehouse__TokenNotAccepted",
      "type": "error"
    },
    {
      "inputs": [
        {
          "internalType": "address",
          "name": "tokenAddress",
          "type": "address"
        }
      ],
      "name": "MineralWarehouse__UnacceptedToken",
      "type": "error"
    },
    {
      "inputs": [
        {
          "internalType": "address[]",
          "name": "tokenAddresses",
          "type": "address[]"
        }
      ],
      "name": "MineralWarehouse__UnacceptedTokens",
      "type": "error"
    },
    {
      "inputs": [
        {
          "internalType": "address",
          "name": "seller",
          "type": "address"
        }
      ],
      "name": "MineralWarehouse__UnauthorizedSeller",
      "type": "error"
    },
    {
      "inputs": [
        {
          "internalType": "string",
          "name": "mineralId",
          "type": "string"
        },
        {
          "internalType": "address",
          "name": "caller",
          "type": "address"
        }
      ],
      "name": "NotAssignedTransporter",
      "type": "error"
    },
    {
      "inputs": [],
      "name": "RolesManager__AccountAlreadyHasRole",
      "type": "error"
    },
    {
      "inputs": [],
      "name": "RolesManager__AccountDoesNotHaveRole",
      "type": "error"
    },
    {
      "inputs": [],
      "name": "RolesManager__InvalidAddress",
      "type": "error"
    },
    {
      "inputs": [],
      "name": "RolesManager__InvalidMineralDestination",
      "type": "error"
    },
    {
      "inputs": [],
      "name": "RolesManager__InvalidMineralIdOrNotFound",
      "type": "error"
    },
    {
      "inputs": [],
      "name": "RolesManager__InvalidMineralName",
      "type": "error"
    },
    {
      "inputs": [],
      "name": "RolesManager__InvalidMineralOrigin",
      "type": "error"
    },
    {
      "inputs": [],
      "name": "RolesManager__InvalidMineralPurityPercentage",
      "type": "error"
    },
    {
      "inputs": [],
      "name": "RolesManager__InvalidMineralStorageConditions",
      "type": "error"
    },
    {
      "inputs": [],
      "name": "RolesManager__InvalidMineralType",
      "type": "error"
    },
    {
      "inputs": [],
      "name": "RolesManager__InvalidMineralWeight",
      "type": "error"
    },
    {
      "inputs": [],
      "name": "RolesManager__InvalidReceivingPartyAddress",
      "type": "error"
    },
    {
      "inputs": [],
      "name": "RolesManager__InvalidRole",
      "type": "error"
    },
    {
      "inputs": [
        {
          "internalType": "string",
          "name": "mineralId",
          "type": "string"
        }
      ],
      "name": "RolesManager__MineralAlreadyAudited",
      "type": "error"
    },
    {
      "inputs": [
        {
          "internalType": "string",
          "name": "mineralId",
          "type": "string"
        }
      ],
      "name": "RolesManager__MineralAlreadyInspected",
      "type": "error"
    },
    {
      "inputs": [
        {
          "internalType": "string",
          "name": "mineralId",
          "type": "string"
        }
      ],
      "name": "RolesManager__MineralAlreadyPurchased",
      "type": "error"
    },
    {
      "inputs": [
        {
          "internalType": "string",
          "name": "mineralId",
          "type": "string"
        }
      ],
      "name": "RolesManager__MineralAlreadyRefined",
      "type": "error"
    },
    {
      "inputs": [
        {
          "internalType": "string",
          "name": "mineralId",
          "type": "string"
        }
      ],
      "name": "RolesManager__MineralNotMarketReady",
      "type": "error"
    },
    {
      "inputs": [
        {
          "internalType": "uint256",
          "name": "purityPercentage",
          "type": "uint256"
        }
      ],
      "name": "RolesManager__MineralPurityPercentageTooLowToRegister",
      "type": "error"
    },
    {
      "inputs": [
        {
          "internalType": "address",
          "name": "caller",
          "type": "address"
        }
      ],
      "name": "RolesManager__NotTheAssignedBuyer",
      "type": "error"
    },
    {
      "inputs": [
        {
          "internalType": "string",
          "name": "mineralId",
          "type": "string"
        }
      ],
      "name": "SupplychainValidator__InvalidMineralIdOrNotFound",
      "type": "error"
    },
    {
      "inputs": [],
      "name": "SupplychainValidator__InvalidMineralOwnershipChain",
      "type": "error"
    },
    {
      "inputs": [],
      "name": "SupplychainValidator__InvalidMineralTransactionHistory",
      "type": "error"
    },
    {
      "inputs": [
        {
          "internalType": "uint256",
          "name": "tokenId",
          "type": "uint256"
        },
        {
          "internalType": "address",
          "name": "caller",
          "type": "address"
        }
      ],
      "name": "Tokenization__CallerNotMineralTokenOwner",
      "type": "error"
    },
    {
      "inputs": [
        {
          "internalType": "uint256",
          "name": "tokenId",
          "type": "uint256"
        }
      ],
      "name": "Tokenization__InvalidTokenId",
      "type": "error"
    },
    {
      "inputs": [
        {
          "internalType": "uint256",
          "name": "tokenId",
          "type": "uint256"
        }
      ],
      "name": "Tokenization__InvalidTokenIdOrNotFound",
      "type": "error"
    },
    {
      "inputs": [
        {
          "internalType": "uint256",
          "name": "tokenId",
          "type": "uint256"
        }
      ],
      "name": "Tokenization__TokenAlreadyExists",
      "type": "error"
    },
    {
      "inputs": [
        {
          "internalType": "uint256",
          "name": "tokenId",
          "type": "uint256"
        }
      ],
      "name": "Tokenization__TokenIsAlreadyMinted",
      "type": "error"
    },
    {
      "inputs": [
        {
          "internalType": "uint256",
          "name": "index",
          "type": "uint256"
        }
      ],
      "name": "TransactionLog__InvalidOperationIndex",
      "type": "error"
    },
    {
      "inputs": [],
      "name": "TransactionLog__InvalidOperationType",
      "type": "error"
    },
    {
      "inputs": [
        {
          "internalType": "uint256",
          "name": "transactionId",
          "type": "uint256"
        }
      ],
      "name": "TransactionLog__InvalidTransactionIdOrNotFound",
      "type": "error"
    },
    {
      "inputs": [
        {
          "internalType": "string",
          "name": "mineralId",
          "type": "string"
        }
      ],
      "name": "TransportRequestAlreadyExists",
      "type": "error"
    },
    {
      "anonymous": false,
      "inputs": [
        {
          "indexed": true,
          "internalType": "address",
          "name": "assignee",
          "type": "address"
        },
        {
          "indexed": false,
          "internalType": "uint256",
          "name": "timestamp",
          "type": "uint256"
        }
      ],
      "name": "AdminRoleAssigned",
      "type": "event"
    },
    {
      "anonymous": false,
      "inputs": [
        {
          "indexed": true,
          "internalType": "address",
          "name": "revokee",
          "type": "address"
        },
        {
          "indexed": false,
          "internalType": "string",
          "name": "reason",
          "type": "string"
        },
        {
          "indexed": false,
          "internalType": "uint256",
          "name": "timestamp",
          "type": "uint256"
        }
      ],
      "name": "AdminRoleRevoked",
      "type": "event"
    },
    {
      "anonymous": false,
      "inputs": [
        {
          "indexed": true,
          "internalType": "address",
          "name": "assignee",
          "type": "address"
        },
        {
          "indexed": false,
          "internalType": "uint256",
          "name": "timestamp",
          "type": "uint256"
        }
      ],
      "name": "AuditorRoleAssigned",
      "type": "event"
    },
    {
      "anonymous": false,
      "inputs": [
        {
          "indexed": true,
          "internalType": "address",
          "name": "revokee",
          "type": "address"
        },
        {
          "indexed": false,
          "internalType": "string",
          "name": "reason",
          "type": "string"
        },
        {
          "indexed": false,
          "internalType": "uint256",
          "name": "timestamp",
          "type": "uint256"
        }
      ],
      "name": "AuditorRoleRevoked",
      "type": "event"
    },
    {
      "anonymous": false,
      "inputs": [
        {
          "indexed": true,
          "internalType": "address",
          "name": "assignee",
          "type": "address"
        },
        {
          "indexed": false,
          "internalType": "uint256",
          "name": "timestamp",
          "type": "uint256"
        }
      ],
      "name": "BuyerRoleAssigned",
      "type": "event"
    },
    {
      "anonymous": false,
      "inputs": [
        {
          "indexed": true,
          "internalType": "address",
          "name": "revokee",
          "type": "address"
        },
        {
          "indexed": false,
          "internalType": "string",
          "name": "reason",
          "type": "string"
        },
        {
          "indexed": false,
          "internalType": "uint256",
          "name": "timestamp",
          "type": "uint256"
        }
      ],
      "name": "BuyerRoleRevoked",
      "type": "event"
    },
    {
      "anonymous": false,
      "inputs": [
        {
          "indexed": false,
          "internalType": "address",
          "name": "closedBy",
          "type": "address"
        },
        {
          "indexed": false,
          "internalType": "uint256",
          "name": "disputeId",
          "type": "uint256"
        },
        {
          "indexed": false,
          "internalType": "string",
          "name": "mineralId",
          "type": "string"
        },
        {
          "indexed": false,
          "internalType": "address",
          "name": "complainant",
          "type": "address"
        },
        {
          "indexed": false,
          "internalType": "address",
          "name": "defendant",
          "type": "address"
        },
        {
          "indexed": false,
          "internalType": "string",
          "name": "details",
          "type": "string"
        },
        {
          "indexed": false,
          "internalType": "uint256",
          "name": "closedUnresolvedAt",
          "type": "uint256"
        }
      ],
      "name": "DisputeClosedUnresolved",
      "type": "event"
    },
    {
      "anonymous": false,
      "inputs": [
        {
          "indexed": true,
          "internalType": "uint256",
          "name": "disputeId",
          "type": "uint256"
        },
        {
          "indexed": false,
          "internalType": "uint256",
          "name": "timestamp",
          "type": "uint256"
        }
      ],
      "name": "DisputeEscalated",
      "type": "event"
    },
    {
      "anonymous": false,
      "inputs": [
        {
          "indexed": true,
          "internalType": "uint256",
          "name": "disputeId",
          "type": "uint256"
        },
        {
          "indexed": false,
          "internalType": "string",
          "name": "mineralId",
          "type": "string"
        },
        {
          "indexed": true,
          "internalType": "address",
          "name": "complainant",
          "type": "address"
        },
        {
          "indexed": false,
          "internalType": "address",
          "name": "defendant",
          "type": "address"
        },
        {
          "indexed": false,
          "internalType": "string",
          "name": "details",
          "type": "string"
        },
        {
          "indexed": false,
          "internalType": "uint256",
          "name": "raisedAt",
          "type": "uint256"
        }
      ],
      "name": "DisputeRaised",
      "type": "event"
    },
    {
      "anonymous": false,
      "inputs": [
        {
          "indexed": true,
          "internalType": "uint256",
          "name": "disputeId",
          "type": "uint256"
        },
        {
          "indexed": false,
          "internalType": "string",
          "name": "reason",
          "type": "string"
        },
        {
          "indexed": false,
          "internalType": "uint256",
          "name": "timestamp",
          "type": "uint256"
        }
      ],
      "name": "DisputeRejected",
      "type": "event"
    },
    {
      "anonymous": false,
      "inputs": [
        {
          "indexed": true,
          "internalType": "uint256",
          "name": "disputeId",
          "type": "uint256"
        },
        {
          "indexed": false,
          "internalType": "string",
          "name": "resolutionDetails",
          "type": "string"
        },
        {
          "indexed": false,
          "internalType": "uint256",
          "name": "timestamp",
          "type": "uint256"
        }
      ],
      "name": "DisputeResolved",
      "type": "event"
    },
    {
      "anonymous": false,
      "inputs": [
        {
          "indexed": true,
          "internalType": "address",
          "name": "assignee",
          "type": "address"
        },
        {
          "indexed": false,
          "internalType": "uint256",
          "name": "timestamp",
          "type": "uint256"
        }
      ],
      "name": "InspectorRoleAssigned",
      "type": "event"
    },
    {
      "anonymous": false,
      "inputs": [
        {
          "indexed": true,
          "internalType": "address",
          "name": "revokee",
          "type": "address"
        },
        {
          "indexed": false,
          "internalType": "string",
          "name": "reason",
          "type": "string"
        },
        {
          "indexed": false,
          "internalType": "uint256",
          "name": "timestamp",
          "type": "uint256"
        }
      ],
      "name": "InspectorRoleRevoked",
      "type": "event"
    },
    {
      "anonymous": false,
      "inputs": [
        {
          "indexed": true,
          "internalType": "address",
          "name": "assignee",
          "type": "address"
        },
        {
          "indexed": false,
          "internalType": "uint256",
          "name": "timestamp",
          "type": "uint256"
        }
      ],
      "name": "MinerRoleAssigned",
      "type": "event"
    },
    {
      "anonymous": false,
      "inputs": [
        {
          "indexed": true,
          "internalType": "address",
          "name": "revokee",
          "type": "address"
        },
        {
          "indexed": false,
          "internalType": "string",
          "name": "reason",
          "type": "string"
        },
        {
          "indexed": false,
          "internalType": "uint256",
          "name": "timestamp",
          "type": "uint256"
        }
      ],
      "name": "MinerRoleRevoked",
      "type": "event"
    },
    {
      "anonymous": false,
      "inputs": [
        {
          "indexed": false,
          "internalType": "string",
          "name": "mineralId",
          "type": "string"
        },
        {
          "indexed": false,
          "internalType": "string",
          "name": "status",
          "type": "string"
        },
        {
          "indexed": true,
          "internalType": "address",
          "name": "auditor",
          "type": "address"
        },
        {
          "indexed": false,
          "internalType": "uint256",
          "name": "auditedAt",
          "type": "uint256"
        }
      ],
      "name": "MineralAudited",
      "type": "event"
    },
    {
      "anonymous": false,
      "inputs": [
        {
          "indexed": false,
          "internalType": "string",
          "name": "mineralId",
          "type": "string"
        },
        {
          "indexed": false,
          "internalType": "string",
          "name": "mineralStatus",
          "type": "string"
        },
        {
          "indexed": true,
          "internalType": "address",
          "name": "inspector",
          "type": "address"
        },
        {
          "indexed": false,
          "internalType": "uint256",
          "name": "inspectedAt",
          "type": "uint256"
        }
      ],
      "name": "MineralInspected",
      "type": "event"
    },
    {
      "anonymous": false,
      "inputs": [
        {
          "indexed": false,
          "internalType": "string",
          "name": "mineralId",
          "type": "string"
        },
        {
          "indexed": true,
          "internalType": "address",
          "name": "buyer",
          "type": "address"
        },
        {
          "indexed": false,
          "internalType": "uint256",
          "name": "purchasedAt",
          "type": "uint256"
        }
      ],
      "name": "MineralPurchased",
      "type": "event"
    },
    {
      "anonymous": false,
      "inputs": [
        {
          "indexed": false,
          "internalType": "string",
          "name": "mineralId",
          "type": "string"
        },
        {
          "indexed": true,
          "internalType": "address",
          "name": "ApprovedBy",
          "type": "address"
        },
        {
          "indexed": false,
          "internalType": "string",
          "name": "status",
          "type": "string"
        },
        {
          "indexed": false,
          "internalType": "uint256",
          "name": "inspectionDate",
          "type": "uint256"
        }
      ],
      "name": "MineralReadyToTrade",
      "type": "event"
    },
    {
      "anonymous": false,
      "inputs": [
        {
          "indexed": false,
          "internalType": "string",
          "name": "mineralId",
          "type": "string"
        },
        {
          "indexed": false,
          "internalType": "string",
          "name": "refineryReport",
          "type": "string"
        },
        {
          "indexed": true,
          "internalType": "address",
          "name": "refiner",
          "type": "address"
        },
        {
          "indexed": false,
          "internalType": "uint256",
          "name": "refinedAt",
          "type": "uint256"
        }
      ],
      "name": "MineralRefined",
      "type": "event"
    },
    {
      "anonymous": false,
      "inputs": [
        {
          "indexed": false,
          "internalType": "string",
          "name": "mineralId",
          "type": "string"
        },
        {
          "indexed": false,
          "internalType": "string",
          "name": "mineralName",
          "type": "string"
        },
        {
          "indexed": false,
          "internalType": "string",
          "name": "mineralType",
          "type": "string"
        },
        {
          "indexed": false,
          "internalType": "string",
          "name": "origin",
          "type": "string"
        },
        {
          "indexed": false,
          "internalType": "uint256",
          "name": "weight",
          "type": "uint256"
        },
        {
          "indexed": false,
          "internalType": "uint256",
          "name": "purityPercentage",
          "type": "uint256"
        },
        {
          "indexed": true,
          "internalType": "address",
          "name": "miner",
          "type": "address"
        },
        {
          "indexed": false,
          "internalType": "uint256",
          "name": "registeredAt",
          "type": "uint256"
        }
      ],
      "name": "MineralRegistered",
      "type": "event"
    },
    {
      "anonymous": false,
      "inputs": [
        {
          "indexed": false,
          "internalType": "string",
          "name": "mineralId",
          "type": "string"
        },
        {
          "indexed": true,
          "internalType": "address",
          "name": "transporter",
          "type": "address"
        },
        {
          "indexed": false,
          "internalType": "address",
          "name": "receivingParty",
          "type": "address"
        },
        {
          "indexed": false,
          "internalType": "string",
          "name": "origin",
          "type": "string"
        },
        {
          "indexed": false,
          "internalType": "string",
          "name": "destination",
          "type": "string"
        },
        {
          "indexed": false,
          "internalType": "uint256",
          "name": "transportedAt",
          "type": "uint256"
        }
      ],
      "name": "MineralTransported",
      "type": "event"
    },
    {
      "anonymous": false,
      "inputs": [
        {
          "indexed": true,
          "internalType": "address",
          "name": "assignee",
          "type": "address"
        },
        {
          "indexed": false,
          "internalType": "uint256",
          "name": "timestamp",
          "type": "uint256"
        }
      ],
      "name": "RefinerRoleAssigned",
      "type": "event"
    },
    {
      "anonymous": false,
      "inputs": [
        {
          "indexed": true,
          "internalType": "address",
          "name": "revokee",
          "type": "address"
        },
        {
          "indexed": false,
          "internalType": "string",
          "name": "reason",
          "type": "string"
        },
        {
          "indexed": false,
          "internalType": "uint256",
          "name": "timestamp",
          "type": "uint256"
        }
      ],
      "name": "RefinerRoleRevoked",
      "type": "event"
    },
    {
      "anonymous": false,
      "inputs": [
        {
          "indexed": true,
          "internalType": "bytes32",
          "name": "role",
          "type": "bytes32"
        },
        {
          "indexed": true,
          "internalType": "bytes32",
          "name": "previousAdminRole",
          "type": "bytes32"
        },
        {
          "indexed": true,
          "internalType": "bytes32",
          "name": "newAdminRole",
          "type": "bytes32"
        }
      ],
      "name": "RoleAdminChanged",
      "type": "event"
    },
    {
      "anonymous": false,
      "inputs": [
        {
          "indexed": true,
          "internalType": "address",
          "name": "account",
          "type": "address"
        },
        {
          "indexed": true,
          "internalType": "bytes32",
          "name": "role",
          "type": "bytes32"
        },
        {
          "indexed": false,
          "internalType": "uint256",
          "name": "roleAssignedAt",
          "type": "uint256"
        }
      ],
      "name": "RoleAssigned",
      "type": "event"
    },
    {
      "anonymous": false,
      "inputs": [
        {
          "indexed": true,
          "internalType": "bytes32",
          "name": "role",
          "type": "bytes32"
        },
        {
          "indexed": true,
          "internalType": "address",
          "name": "account",
          "type": "address"
        },
        {
          "indexed": true,
          "internalType": "address",
          "name": "sender",
          "type": "address"
        }
      ],
      "name": "RoleGranted",
      "type": "event"
    },
    {
      "anonymous": false,
      "inputs": [
        {
          "indexed": true,
          "internalType": "bytes32",
          "name": "role",
          "type": "bytes32"
        },
        {
          "indexed": true,
          "internalType": "address",
          "name": "account",
          "type": "address"
        },
        {
          "indexed": true,
          "internalType": "address",
          "name": "sender",
          "type": "address"
        }
      ],
      "name": "RoleRevoked",
      "type": "event"
    },
    {
      "anonymous": false,
      "inputs": [
        {
          "indexed": false,
          "internalType": "bytes32",
          "name": "role",
          "type": "bytes32"
        },
        {
          "indexed": false,
          "internalType": "address",
          "name": "account",
          "type": "address"
        },
        {
          "indexed": false,
          "internalType": "address",
          "name": "revoker",
          "type": "address"
        },
        {
          "indexed": false,
          "internalType": "uint256",
          "name": "roleRevokedAt",
          "type": "uint256"
        }
      ],
      "name": "RoleRevoked",
      "type": "event"
    },
    {
      "anonymous": false,
      "inputs": [
        {
          "indexed": true,
          "internalType": "address",
          "name": "assignee",
          "type": "address"
        },
        {
          "indexed": false,
          "internalType": "uint256",
          "name": "timestamp",
          "type": "uint256"
        }
      ],
      "name": "TransporterRoleAssigned",
      "type": "event"
    },
    {
      "anonymous": false,
      "inputs": [
        {
          "indexed": true,
          "internalType": "address",
          "name": "revokee",
          "type": "address"
        },
        {
          "indexed": false,
          "internalType": "string",
          "name": "reason",
          "type": "string"
        },
        {
          "indexed": false,
          "internalType": "uint256",
          "name": "timestamp",
          "type": "uint256"
        }
      ],
      "name": "TransporterRoleRevoked",
      "type": "event"
    },
    {
      "inputs": [],
      "name": "AUDITOR_ROLE",
      "outputs": [
        {
          "internalType": "bytes32",
          "name": "",
          "type": "bytes32"
        }
      ],
      "stateMutability": "view",
      "type": "function"
    },
    {
      "inputs": [],
      "name": "BUYER_ROLE",
      "outputs": [
        {
          "internalType": "bytes32",
          "name": "",
          "type": "bytes32"
        }
      ],
      "stateMutability": "view",
      "type": "function"
    },
    {
      "inputs": [],
      "name": "DEFAULT_ADMIN_ROLE",
      "outputs": [
        {
          "internalType": "bytes32",
          "name": "",
          "type": "bytes32"
        }
      ],
      "stateMutability": "view",
      "type": "function"
    },
    {
      "inputs": [],
      "name": "INSPECTOR_ROLE",
      "outputs": [
        {
          "internalType": "bytes32",
          "name": "",
          "type": "bytes32"
        }
      ],
      "stateMutability": "view",
      "type": "function"
    },
    {
      "inputs": [],
      "name": "MINER_ROLE",
      "outputs": [
        {
          "internalType": "bytes32",
          "name": "",
          "type": "bytes32"
        }
      ],
      "stateMutability": "view",
      "type": "function"
    },
    {
      "inputs": [],
      "name": "REFINER_ROLE",
      "outputs": [
        {
          "internalType": "bytes32",
          "name": "",
          "type": "bytes32"
        }
      ],
      "stateMutability": "view",
      "type": "function"
    },
    {
      "inputs": [],
      "name": "TRANSPORTER_ROLE",
      "outputs": [
        {
          "internalType": "bytes32",
          "name": "",
          "type": "bytes32"
        }
      ],
      "stateMutability": "view",
      "type": "function"
    },
    {
      "inputs": [
        {
          "internalType": "string",
          "name": "mineralId",
          "type": "string"
        },
        {
          "internalType": "string",
          "name": "report",
          "type": "string"
        }
      ],
      "name": "_auditMineral",
      "outputs": [],
      "stateMutability": "nonpayable",
      "type": "function"
    },
    {
      "inputs": [
        {
          "internalType": "address",
          "name": "account",
          "type": "address"
        }
      ],
      "name": "assignAuditor",
      "outputs": [],
      "stateMutability": "nonpayable",
      "type": "function"
    },
    {
      "inputs": [
        {
          "internalType": "address",
          "name": "account",
          "type": "address"
        }
      ],
      "name": "assignBuyer",
      "outputs": [],
      "stateMutability": "nonpayable",
      "type": "function"
    },
    {
      "inputs": [
        {
          "internalType": "address",
          "name": "account",
          "type": "address"
        }
      ],
      "name": "assignInspector",
      "outputs": [],
      "stateMutability": "nonpayable",
      "type": "function"
    },
    {
      "inputs": [
        {
          "internalType": "address",
          "name": "account",
          "type": "address"
        }
      ],
      "name": "assignMiner",
      "outputs": [],
      "stateMutability": "nonpayable",
      "type": "function"
    },
    {
      "inputs": [
        {
          "internalType": "address",
          "name": "account",
          "type": "address"
        }
      ],
      "name": "assignRefiner",
      "outputs": [],
      "stateMutability": "nonpayable",
      "type": "function"
    },
    {
      "inputs": [
        {
          "internalType": "address",
          "name": "account",
          "type": "address"
        }
      ],
      "name": "assignTransporter",
      "outputs": [],
      "stateMutability": "nonpayable",
      "type": "function"
    },
    {
      "inputs": [
        {
          "internalType": "uint256",
          "name": "disputeId",
          "type": "uint256"
        }
      ],
      "name": "checkAndEscalateDispute",
      "outputs": [],
      "stateMutability": "nonpayable",
      "type": "function"
    },
    {
      "inputs": [
        {
          "internalType": "string",
          "name": "mineralId",
          "type": "string"
        }
      ],
      "name": "checkAuditAndInspectionStatus",
      "outputs": [
        {
          "internalType": "bool",
          "name": "isAudited",
          "type": "bool"
        },
        {
          "internalType": "bool",
          "name": "isInspected",
          "type": "bool"
        }
      ],
      "stateMutability": "nonpayable",
      "type": "function"
    },
    {
      "inputs": [],
      "name": "disputeCount",
      "outputs": [
        {
          "internalType": "uint256",
          "name": "",
          "type": "uint256"
        }
      ],
      "stateMutability": "view",
      "type": "function"
    },
    {
      "inputs": [
        {
          "internalType": "uint256",
          "name": "",
          "type": "uint256"
        }
      ],
      "name": "disputes",
      "outputs": [
        {
          "internalType": "uint256",
          "name": "disputeId",
          "type": "uint256"
        },
        {
          "internalType": "string",
          "name": "mineralId",
          "type": "string"
        },
        {
          "internalType": "address",
          "name": "complainant",
          "type": "address"
        },
        {
          "internalType": "address",
          "name": "defendant",
          "type": "address"
        },
        {
          "internalType": "string",
          "name": "details",
          "type": "string"
        },
        {
          "internalType": "string",
          "name": "evidence",
          "type": "string"
        },
        {
          "internalType": "enum DisputeResolution.DisputeStatus",
          "name": "status",
          "type": "uint8"
        },
        {
          "internalType": "uint256",
          "name": "createdAt",
          "type": "uint256"
        },
        {
          "internalType": "uint256",
          "name": "resolvedAt",
          "type": "uint256"
        },
        {
          "internalType": "uint256",
          "name": "approveVotes",
          "type": "uint256"
        },
        {
          "internalType": "uint256",
          "name": "rejectVotes",
          "type": "uint256"
        },
        {
          "internalType": "uint256",
          "name": "votingDeadline",
          "type": "uint256"
        }
      ],
      "stateMutability": "view",
      "type": "function"
    },
    {
      "inputs": [],
      "name": "getAllRoleCounts",
      "outputs": [
        {
          "internalType": "uint256",
          "name": "minerCount",
          "type": "uint256"
        },
        {
          "internalType": "uint256",
          "name": "refinerCount",
          "type": "uint256"
        },
        {
          "internalType": "uint256",
          "name": "transporterCount",
          "type": "uint256"
        },
        {
          "internalType": "uint256",
          "name": "auditorCount",
          "type": "uint256"
        },
        {
          "internalType": "uint256",
          "name": "inspectorCount",
          "type": "uint256"
        },
        {
          "internalType": "uint256",
          "name": "buyerCount",
          "type": "uint256"
        }
      ],
      "stateMutability": "view",
      "type": "function"
    },
    {
      "inputs": [
        {
          "internalType": "string",
          "name": "mineralId",
          "type": "string"
        }
      ],
      "name": "getMineralHistory",
      "outputs": [
        {
          "components": [
            {
              "internalType": "string",
              "name": "id",
              "type": "string"
            },
            {
              "internalType": "string",
              "name": "fieldChanged",
              "type": "string"
            },
            {
              "internalType": "string",
              "name": "newValue",
              "type": "string"
            },
            {
              "internalType": "address",
              "name": "updatedBy",
              "type": "address"
            },
            {
              "internalType": "uint256",
              "name": "timestamp",
              "type": "uint256"
            }
          ],
          "internalType": "struct RolesManager.MineralHistory[]",
          "name": "",
          "type": "tuple[]"
        }
      ],
      "stateMutability": "view",
      "type": "function"
    },
    {
      "inputs": [
        {
          "internalType": "bytes32",
          "name": "role",
          "type": "bytes32"
        }
      ],
      "name": "getRoleAdmin",
      "outputs": [
        {
          "internalType": "bytes32",
          "name": "",
          "type": "bytes32"
        }
      ],
      "stateMutability": "view",
      "type": "function"
    },
    {
      "inputs": [
        {
          "internalType": "bytes32",
          "name": "role",
          "type": "bytes32"
        }
      ],
      "name": "getRoleMemberCount",
      "outputs": [
        {
          "internalType": "uint256",
          "name": "count",
          "type": "uint256"
        }
      ],
      "stateMutability": "view",
      "type": "function"
    },
    {
      "inputs": [
        {
          "internalType": "address",
          "name": "account",
          "type": "address"
        }
      ],
      "name": "getRolesForAddress",
      "outputs": [
        {
          "internalType": "string[]",
          "name": "roles",
          "type": "string[]"
        }
      ],
      "stateMutability": "view",
      "type": "function"
    },
    {
      "inputs": [
        {
          "internalType": "bytes32",
          "name": "role",
          "type": "bytes32"
        },
        {
          "internalType": "address",
          "name": "account",
          "type": "address"
        }
      ],
      "name": "grantRole",
      "outputs": [],
      "stateMutability": "nonpayable",
      "type": "function"
    },
    {
      "inputs": [
        {
          "internalType": "address",
          "name": "account",
          "type": "address"
        }
      ],
      "name": "hasAdminRole",
      "outputs": [
        {
          "internalType": "bool",
          "name": "",
          "type": "bool"
        }
      ],
      "stateMutability": "view",
      "type": "function"
    },
    {
      "inputs": [
        {
          "internalType": "address",
          "name": "account",
          "type": "address"
        }
      ],
      "name": "hasAuditorRole",
      "outputs": [
        {
          "internalType": "bool",
          "name": "",
          "type": "bool"
        }
      ],
      "stateMutability": "view",
      "type": "function"
    },
    {
      "inputs": [
        {
          "internalType": "address",
          "name": "account",
          "type": "address"
        }
      ],
      "name": "hasBuyerRole",
      "outputs": [
        {
          "internalType": "bool",
          "name": "",
          "type": "bool"
        }
      ],
      "stateMutability": "view",
      "type": "function"
    },
    {
      "inputs": [
        {
          "internalType": "address",
          "name": "account",
          "type": "address"
        }
      ],
      "name": "hasInspectorRole",
      "outputs": [
        {
          "internalType": "bool",
          "name": "",
          "type": "bool"
        }
      ],
      "stateMutability": "view",
      "type": "function"
    },
    {
      "inputs": [
        {
          "internalType": "address",
          "name": "account",
          "type": "address"
        }
      ],
      "name": "hasMinerRole",
      "outputs": [
        {
          "internalType": "bool",
          "name": "",
          "type": "bool"
        }
      ],
      "stateMutability": "view",
      "type": "function"
    },
    {
      "inputs": [
        {
          "internalType": "address",
          "name": "account",
          "type": "address"
        }
      ],
      "name": "hasRefinerRole",
      "outputs": [
        {
          "internalType": "bool",
          "name": "",
          "type": "bool"
        }
      ],
      "stateMutability": "view",
      "type": "function"
    },
    {
      "inputs": [
        {
          "internalType": "bytes32",
          "name": "role",
          "type": "bytes32"
        },
        {
          "internalType": "address",
          "name": "account",
          "type": "address"
        }
      ],
      "name": "hasRole",
      "outputs": [
        {
          "internalType": "bool",
          "name": "",
          "type": "bool"
        }
      ],
      "stateMutability": "view",
      "type": "function"
    },
    {
      "inputs": [
        {
          "internalType": "address",
          "name": "account",
          "type": "address"
        }
      ],
      "name": "hasTransporterRole",
      "outputs": [
        {
          "internalType": "bool",
          "name": "",
          "type": "bool"
        }
      ],
      "stateMutability": "view",
      "type": "function"
    },
    {
      "inputs": [
        {
          "internalType": "string",
          "name": "mineralId",
          "type": "string"
        },
        {
          "internalType": "string",
          "name": "report",
          "type": "string"
        }
      ],
      "name": "inspectMineral",
      "outputs": [],
      "stateMutability": "nonpayable",
      "type": "function"
    },
    {
      "inputs": [
        {
          "internalType": "string",
          "name": "mineralId",
          "type": "string"
        }
      ],
      "name": "isMineralRegistered",
      "outputs": [
        {
          "internalType": "bool",
          "name": "",
          "type": "bool"
        }
      ],
      "stateMutability": "nonpayable",
      "type": "function"
    },
    {
      "inputs": [
        {
          "internalType": "string",
          "name": "",
          "type": "string"
        }
      ],
      "name": "mineralDetails",
      "outputs": [
        {
          "internalType": "string",
          "name": "id",
          "type": "string"
        },
        {
          "internalType": "string",
          "name": "name",
          "type": "string"
        },
        {
          "internalType": "string",
          "name": "origin",
          "type": "string"
        },
        {
          "internalType": "string",
          "name": "mineralType",
          "type": "string"
        },
        {
          "internalType": "uint256",
          "name": "weight",
          "type": "uint256"
        },
        {
          "internalType": "uint256",
          "name": "purityPercentage",
          "type": "uint256"
        },
        {
          "internalType": "string",
          "name": "storageConditions",
          "type": "string"
        },
        {
          "internalType": "address",
          "name": "registeredBy",
          "type": "address"
        },
        {
          "internalType": "string",
          "name": "currentStatus",
          "type": "string"
        },
        {
          "internalType": "string",
          "name": "currentLocation",
          "type": "string"
        },
        {
          "internalType": "address",
          "name": "currentHandler",
          "type": "address"
        },
        {
          "internalType": "bool",
          "name": "isPurchased",
          "type": "bool"
        },
        {
          "internalType": "bool",
          "name": "isRefined",
          "type": "bool"
        },
        {
          "internalType": "bool",
          "name": "isAudited",
          "type": "bool"
        },
        {
          "internalType": "bool",
          "name": "isInspected",
          "type": "bool"
        },
        {
          "internalType": "uint256",
          "name": "timestamp",
          "type": "uint256"
        }
      ],
      "stateMutability": "view",
      "type": "function"
    },
    {
      "inputs": [
        {
          "internalType": "string",
          "name": "",
          "type": "string"
        },
        {
          "internalType": "uint256",
          "name": "",
          "type": "uint256"
        }
      ],
      "name": "mineralHistories",
      "outputs": [
        {
          "internalType": "string",
          "name": "id",
          "type": "string"
        },
        {
          "internalType": "string",
          "name": "fieldChanged",
          "type": "string"
        },
        {
          "internalType": "string",
          "name": "newValue",
          "type": "string"
        },
        {
          "internalType": "address",
          "name": "updatedBy",
          "type": "address"
        },
        {
          "internalType": "uint256",
          "name": "timestamp",
          "type": "uint256"
        }
      ],
      "stateMutability": "view",
      "type": "function"
    },
    {
      "inputs": [
        {
          "internalType": "string",
          "name": "mineralId",
          "type": "string"
        }
      ],
      "name": "purchaseMineral",
      "outputs": [],
      "stateMutability": "nonpayable",
      "type": "function"
    },
    {
      "inputs": [
        {
          "internalType": "string",
          "name": "mineralId",
          "type": "string"
        },
        {
          "internalType": "address",
          "name": "defendant",
          "type": "address"
        },
        {
          "internalType": "string",
          "name": "details",
          "type": "string"
        },
        {
          "internalType": "string",
          "name": "evidence",
          "type": "string"
        }
      ],
      "name": "raiseDispute",
      "outputs": [],
      "stateMutability": "nonpayable",
      "type": "function"
    },
    {
      "inputs": [
        {
          "internalType": "string",
          "name": "mineralId",
          "type": "string"
        },
        {
          "internalType": "string",
          "name": "report",
          "type": "string"
        }
      ],
      "name": "refineMineral",
      "outputs": [],
      "stateMutability": "nonpayable",
      "type": "function"
    },
    {
      "inputs": [
        {
          "internalType": "string",
          "name": "_name",
          "type": "string"
        },
        {
          "internalType": "string",
          "name": "_mineralType",
          "type": "string"
        },
        {
          "internalType": "uint256",
          "name": "_weight",
          "type": "uint256"
        },
        {
          "internalType": "string",
          "name": "_origin",
          "type": "string"
        },
        {
          "internalType": "uint256",
          "name": "_purityPercentage",
          "type": "uint256"
        },
        {
          "internalType": "string",
          "name": "_storageConditions",
          "type": "string"
        }
      ],
      "name": "registerMineral",
      "outputs": [
        {
          "internalType": "string",
          "name": "",
          "type": "string"
        }
      ],
      "stateMutability": "nonpayable",
      "type": "function"
    },
    {
      "inputs": [
        {
          "internalType": "bytes32",
          "name": "role",
          "type": "bytes32"
        },
        {
          "internalType": "address",
          "name": "account",
          "type": "address"
        }
      ],
      "name": "renounceRole",
      "outputs": [],
      "stateMutability": "nonpayable",
      "type": "function"
    },
    {
      "inputs": [
        {
          "internalType": "uint256",
          "name": "disputeId",
          "type": "uint256"
        },
        {
          "internalType": "string",
          "name": "resolutionDetails",
          "type": "string"
        }
      ],
      "name": "resolveDispute",
      "outputs": [],
      "stateMutability": "nonpayable",
      "type": "function"
    },
    {
      "inputs": [
        {
          "internalType": "uint256",
          "name": "disputeId",
          "type": "uint256"
        },
        {
          "internalType": "string",
          "name": "resolutionDetails",
          "type": "string"
        }
      ],
      "name": "resolveEscalatedDisputes",
      "outputs": [],
      "stateMutability": "nonpayable",
      "type": "function"
    },
    {
      "inputs": [
        {
          "internalType": "address",
          "name": "account",
          "type": "address"
        },
        {
          "internalType": "string",
          "name": "reason",
          "type": "string"
        }
      ],
      "name": "revokeAuditor",
      "outputs": [],
      "stateMutability": "nonpayable",
      "type": "function"
    },
    {
      "inputs": [
        {
          "internalType": "address",
          "name": "account",
          "type": "address"
        },
        {
          "internalType": "string",
          "name": "reason",
          "type": "string"
        }
      ],
      "name": "revokeBuyer",
      "outputs": [],
      "stateMutability": "nonpayable",
      "type": "function"
    },
    {
      "inputs": [
        {
          "internalType": "address",
          "name": "account",
          "type": "address"
        },
        {
          "internalType": "string",
          "name": "reason",
          "type": "string"
        }
      ],
      "name": "revokeInspector",
      "outputs": [],
      "stateMutability": "nonpayable",
      "type": "function"
    },
    {
      "inputs": [
        {
          "internalType": "address",
          "name": "account",
          "type": "address"
        },
        {
          "internalType": "string",
          "name": "reason",
          "type": "string"
        }
      ],
      "name": "revokeMiner",
      "outputs": [],
      "stateMutability": "nonpayable",
      "type": "function"
    },
    {
      "inputs": [
        {
          "internalType": "address",
          "name": "account",
          "type": "address"
        },
        {
          "internalType": "string",
          "name": "reason",
          "type": "string"
        }
      ],
      "name": "revokeRefiner",
      "outputs": [],
      "stateMutability": "nonpayable",
      "type": "function"
    },
    {
      "inputs": [
        {
          "internalType": "bytes32",
          "name": "role",
          "type": "bytes32"
        },
        {
          "internalType": "address",
          "name": "account",
          "type": "address"
        }
      ],
      "name": "revokeRole",
      "outputs": [],
      "stateMutability": "nonpayable",
      "type": "function"
    },
    {
      "inputs": [
        {
          "internalType": "address",
          "name": "account",
          "type": "address"
        },
        {
          "internalType": "string",
          "name": "reason",
          "type": "string"
        }
      ],
      "name": "revokeTransporter",
      "outputs": [],
      "stateMutability": "nonpayable",
      "type": "function"
    },
    {
      "inputs": [
        {
          "internalType": "bytes32",
          "name": "",
          "type": "bytes32"
        }
      ],
      "name": "roleMemberCount",
      "outputs": [
        {
          "internalType": "uint256",
          "name": "",
          "type": "uint256"
        }
      ],
      "stateMutability": "view",
      "type": "function"
    },
    {
      "inputs": [
        {
          "internalType": "bytes4",
          "name": "interfaceId",
          "type": "bytes4"
        }
      ],
      "name": "supportsInterface",
      "outputs": [
        {
          "internalType": "bool",
          "name": "",
          "type": "bool"
        }
      ],
      "stateMutability": "view",
      "type": "function"
    },
    {
      "inputs": [
        {
          "internalType": "string",
          "name": "mineralId",
          "type": "string"
        },
        {
          "internalType": "address",
          "name": "_receivingParty",
          "type": "address"
        },
        {
          "internalType": "string",
          "name": "_origin",
          "type": "string"
        },
        {
          "internalType": "string",
          "name": "_destination",
          "type": "string"
        }
      ],
      "name": "transferMineral",
      "outputs": [],
      "stateMutability": "nonpayable",
      "type": "function"
    },
    {
      "inputs": [
        {
          "internalType": "uint256",
          "name": "disputeId",
          "type": "uint256"
        },
        {
          "internalType": "bool",
          "name": "approve",
          "type": "bool"
        }
      ],
      "name": "voteOnDispute",
      "outputs": [],
      "stateMutability": "nonpayable",
      "type": "function"
    },
    {
      "inputs": [],
      "name": "votingDuration",
      "outputs": [
        {
          "internalType": "uint256",
          "name": "",
          "type": "uint256"
        }
      ],
      "stateMutability": "view",
      "type": "function"
    },
    {
      "inputs": [],
      "name": "votingThreshold",
      "outputs": [
        {
          "internalType": "uint256",
          "name": "",
          "type": "uint256"
        }
      ],
      "stateMutability": "view",
      "type": "function"
    }
  ],
  "transactionHash": "0xb5f9e14b565b3a5cef172efaee28c2ad7d2825042e6a7edeef4ad7b2e33ef5a4",
  "args": [],
  "numDeployments": 2,
  "solcInputHash": "7c3d72a177373b46b126c9cb9d71da65",
  "bytecode": "0x60806040908082523462000592574342018042116200057c5760019081556000808052602092818452848220338352845260ff8086842054161562000545575b82805260049182865286842090815491600019928381146200041f578701905584805283875285888620554281527f458ea7e03b3466b3cf9bc2d66ddea8b11fe9469982816f42666888e6c8c6e664873392a27fa952726ef2588ad078edf35b066f7c7406e207cb0003bbaba8cb53eba9553e728085528487528785203386528752828886205416156200050e575b80855283875287852080548381146200041f57870190558452828652848785205586514281527f593f046317558c2857b92915c62c99f2d2108f7bc6f1e1b3c5376cd559abf559873392a27f59a1c48e5837ad7a7f3dcedcbe129bf3249ec4fbf651fd4f5e2600ead39fe2f5808552848752878520338652875282888620541615620004d7575b80855283875287852080548381146200041f57870190558452828652848785205586514281527f4a02edd19f09212e54b2ac85d7d3a4a2e3fbf424e6710c3f817d9b4cecc9cdb3873392a27f273dcf2136c7d8ef632bb8ef13dbca69a8f36fa620c7468671b3153d46a211c0808552848752878520338652875282888620541615620004a0575b80855283875287852080548381146200041f57870190558452828652848785205586514281527f49cc27c2a068c01cf703c3923dfc679109b5f6c27bd1f61b542c159e3a73e092873392a27ff8cd32ed93fc2f9fc78152a14807c9609af3d99c5fe4dc6b106a801aaddfe90e80855284875287852033865287528288862054161562000469575b80855283875287852080548381146200041f57870190558452828652848785205586514281527ff8ed9ac482b0f7c12999b3f157f758f84e39cd339fa301ea203823ac29e97505873392a27fa977e1a3444218ff332edf735c56487bbe59922b15c88777d443eb8b78020f4d80855284875287852033865287528288862054161562000432575b80855283875287852080548381146200041f57870190558452828652848785205586514281527f4e3eede475de92d3e23765b737dbb67646352b3328c1a437d7f089766d7be751873392a27fddaa901e2fe3bda354fe0ede2785152d5c109282a613fe024a056a3e66c41bb3918285528487528785203386528752878520541615620003e8575b818452828652868420908154908114620003d557850190558252835283902055815142815233917f964e50cb3bdb84c00a30f56ae15d538d23dc6db14f891d7d819761b161e990a691a26003600855620d2f0060095551614f1d9081620005988239f35b634e487b7160e01b855260118452602485fd5b81845283865286842033855286528684208560ff19825416179055333383600080516020620054b58339815191528780a462000371565b634e487b7160e01b875260118652602487fd5b80855284875287852033865287528785208660ff19825416179055333382600080516020620054b58339815191528880a4620002ea565b80855284875287852033865287528785208660ff19825416179055333382600080516020620054b58339815191528880a462000263565b80855284875287852033865287528785208660ff19825416179055333382600080516020620054b58339815191528880a4620001dc565b80855284875287852033865287528785208660ff19825416179055333382600080516020620054b58339815191528880a462000155565b80855284875287852033865287528785208660ff19825416179055333382600080516020620054b58339815191528880a4620000ce565b82805282855285832033845285528583208460ff19825416179055333384600080516020620054b58339815191528180a46200003f565b634e487b7160e01b600052601160045260246000fd5b600080fdfe608080604052600436101561001357600080fd5b60003560e01c90816301ffc9a714614394575080630958fc2d146142eb5780630dacad2e14614242578063126ee33814613f0d578063132002fc14613eef578063248a9ca314613ec05780632f2ff15d14613e0d578063309514df14613d995780633499c3a214613d3757806335ba620714613c3157806336568abe14613b9f5780633a7adea514612c9e5780633cee830814612bbc578063480d1dd314612b135780634e2a310914612a085780634eabbe77146129df578063564a565d146128a65780635aee1b151461268357806362827733146126655780636377741d146125bc5780636394f6e6146125935780636e1d616e1461256a57806370e22e421461250857806375a2b0d41461233457806379451cd71461230b5780637a01a1da146122e25780637ae9c1601461226e5780637cde2b99146121635780637fd9579b14612040578063826fe0f514611e1b5780638850845f14611db957806391d1485414611d6c5780639969119414611c5c5780639b188dd614611be85780639c16b33a1461178e578063a217fddf14611772578063a28889e114611754578063a4f5df1214611491578063a917601b146113e8578063abaa536f14611386578063ac851dfd146112b4578063b6ba1ca714611288578063b9c5b83314611163578063beae461514611101578063c395fcb3146110b1578063ca15c87314610fc7578063cc82b09014610eb0578063cf51b45d14610d68578063d547741f14610d27578063de7ce39114610cc5578063df422bf21461079e578063e3a3c52214610775578063e438fdf814610701578063f17f3523146104f4578063f5716a85146103cf5763fc1032eb1461028757600080fd5b346103ca57610295366144db565b61029d61482f565b6102a68261473b565b156103b85761034e7f93e936184fad9f80c7000aa987f91be0cd621bacde11839fdc7139f3d9c2407b91600080516020614e8883398151915280600052602090600082526102fb600160406000200154614a12565b600081815280835260408082206001600160a01b0390981680835297845290205460ff1661036b575b600052600481526040600020805480610359575b505060405192839260408452604084019061462c565b9042908301520390a2005b61036290614b96565b90553880610338565b80600052600082526040600020866000528252604060002060ff1981541690553386827ff6391f5c32d9c69d2a47ea670b442974b53935d1edc7fd64eb21e047a839171b600080a4610324565b604051632ac1560560e21b8152600490fd5b600080fd5b346103ca576103dd366144db565b6103e561482f565b6103ee82614778565b156103b85761034e7f4614600adaea632b1e4c381ad24471dab7b587dca104c8dd4da76bc64f19716f91600080516020614ea88339815191528060005260209060008252610443600160406000200154614a12565b600081815280835260408082206001600160a01b0390981680835297845290205460ff166104a7575b60005260048152604060002080548061049557505060405192839260408452604084019061462c565b61049e90614b96565b90558580610338565b80600052600082526040600020866000528252604060002060ff1981541690553386827ff6391f5c32d9c69d2a47ea670b442974b53935d1edc7fd64eb21e047a839171b600080a461046c565b346103ca5760803660031901126103ca576001600160401b036004358181116103ca57610525903690600401614485565b9061052e6143fd565b906044358181116103ca57610547903690600401614485565b906064359081116103ca57610560903690600401614485565b90600080516020614e0883398151915260005260209260008452604060002033600052845260ff60406000205416156106e9576001600160a01b031680156106d7578151156106c5578251156106b357604051600160ff600a8851938881818c01966105cd81838a61451d565b81016002815203019020015460a01c1615151461068d579361067e939261067092600a610628847f55b00b3c29344a545244b18d70b135e423405427088bd5425f13d690b82310b4998b60405193849283925192839161451d565b8101600281520301902001336bffffffffffffffffffffffff60a01b82541617905561065f6040519860a08a5260a08a019061462c565b92880152868203604088015261462c565b90848203606086015261462c565b914260808201528033930390a2005b604051632072bb0160e11b815260048101869052806106af602482018961462c565b0390fd5b604051635dbef47560e01b8152600490fd5b6040516326813e6f60e01b8152600490fd5b60405163bea3fd2f60e01b8152600490fd5b604051630568555f60e41b8152336004820152602490fd5b346103ca5761070f366144db565b61071761482f565b610720826147f2565b156103b85761034e7f352e14c53d161e2481e65145b53265d1608f979a93a06df66d4c99b2a84ddc6391600080516020614e288339815191528060005260209060008252610443600160406000200154614a12565b346103ca5760003660031901126103ca576020604051600080516020614e288339815191528152f35b346103ca576020806003193601126103ca576001600160a01b036107c06143e7565b168015610cb3576000906000805260008352604060002081600052835260ff8060406000205416610caa575b600080516020614e6883398151915291826000526000855260406000208160005285528160406000205416610c9a575b600080516020614ea8833981519152806000526000865260406000208260005286528260406000205416610c8a575b600080516020614e08833981519152806000526000875260406000208360005287528360406000205416610c7a575b600080516020614e88833981519152806000526000885260406000208460005288528460406000205416610c6a575b600080516020614e2883398151915291826000526000895260406000208560005289528560406000205416610c5a575b600080516020614e48833981519152938460005260008a526040600020866000528a528660406000205416610c4a575b61091289614d2d565b986109206040519a8b614464565b808a5261092f601f1991614d2d565b018a8a60005b838110610c3957505050506000976000805260008b526040600020876000528b528760406000205416610bfe575b60005260008a526040600020866000528a528660406000205416610bc1575b6000526000895260406000208560005289528560406000205416610b82575b6000526000885260406000208460005288528460406000205416610b3f575b6000526000875260406000208360005287528360406000205416610b00575b6000526000865260406000208260005286528260406000205416610abf575b60005260008552604060002090600052845260406000205416610a7c575b506040519082820192808352815180945260408301938160408260051b8601019301916000955b828710610a505785850386f35b909192938280610a6c600193603f198a8203018652885161462c565b9601920196019592919092610a43565b610ab890604051610a8c8161442e565b6005815264212aaca2a960d91b85820152610aa78285614d51565b52610ab28184614d51565b50614d1e565b5082610a1c565b92610afa90604051610ad08161442e565b600981526824a729a822a1aa27a960b91b88820152610aef8288614d51565b52610ab28187614d51565b926109fe565b93610b3990604051610b118161442e565b600781526620aaa224aa27a960c91b89820152610b2e8289614d51565b52610ab28188614d51565b936109df565b94610b7c90604051610b508161442e565b600b81526a2a2920a729a827a92a22a960a91b8a820152610b71828a614d51565b52610ab28189614d51565b946109c0565b95610bbb90604051610b938161442e565b60078152662922a324a722a960c91b8b820152610bb0828b614d51565b52610ab2818a614d51565b956109a1565b96610bf890604051610bd28161442e565b600581526426a4a722a960d91b8c820152610bed828c614d51565b52610ab2818b614d51565b96610982565b9750604051610c0c8161442e565b600581526420a226a4a760d91b8b820152610c268a614d44565b52610c3089614d44565b50600197610963565b606083828194010152018b90610935565b97610c5490614d1e565b97610909565b96610c6490614d1e565b966108d9565b95610c7490614d1e565b956108a9565b94610c8490614d1e565b9461087a565b93610c9490614d1e565b9361084b565b92610ca490614d1e565b9261081c565b600192506107ec565b60405163200db56f60e11b8152600490fd5b346103ca5760203660031901126103ca57610cde6143e7565b6001600160a01b031660009081527f4130a4caca6023b0ba21488ee680ce5c3df22860b1cd8b02cd2a0bcb0de98851602090815260409182902054915160ff9092161515825290f35b346103ca5760403660031901126103ca57610d66600435610d466143fd565b90806000526000602052610d61600160406000200154614a12565b614b11565b005b346103ca5760403660031901126103ca576004356024356001600160401b0381116103ca57610d9b903690600401614694565b336000908152600080516020614ec8833981519152602052604090205490919060ff16156106e95782600052600660205260406000209183835403610e9e578015610e8c57600683019283549360ff85166004811015610e7657801590811591610e6a575b50610e585760017f619a485783a3870e8a79daa87da1f5dc43342edeb762bd43a859a89c36dc00259560ff1916179055600842910155610e4d604051928392604084526040840191614de6565b4260208301520390a2005b60405163cb6f8af560e01b8152600490fd5b60039150141587610e00565b634e487b7160e01b600052602160045260246000fd5b60405163868ff73d60e01b8152600490fd5b604051630c9ae81f60e21b8152600490fd5b346103ca576020806003193601126103ca57610eca6143e7565b6001600160a01b03811691908215610cb357610eed90610ee861482f565b6147f2565b610fb5577f49cc27c2a068c01cf703c3923dfc679109b5f6c27bd1f61b542c159e3a73e09290600080516020614e288339815191528060005260008252604060002084600052825260ff6040600020541615610f65575b600052600481526040600020610f5a8154614d1e565b9055604051428152a2005b806000526000825260406000208460005282526040600020600160ff198254161790553384827f2f8788117e7eff1d82e926ec794901d17c78024a50270940304540a733656f0d600080a4610f44565b6040516314726de560e21b8152600490fd5b346103ca5760203660031901126103ca57600435600080516020614e688339815191528114801561109a575b8015611083575b801561106c575b8015611055575b801561103e575b1561102c5760005260046020526020604060002054604051908152f35b604051636b9c461160e01b8152600490fd5b50600080516020614e48833981519152811461100f565b50600080516020614e288339815191528114611008565b50600080516020614e888339815191528114611001565b50600080516020614e088339815191528114610ffa565b50600080516020614ea88339815191528114610ff3565b346103ca5760203660031901126103ca576110ca6143e7565b6001600160a01b03166000908152600080516020614ec8833981519152602090815260409182902054915160ff9092161515825290f35b346103ca5760203660031901126103ca5761111a6143e7565b6001600160a01b031660009081527ff3fa603c74bfe2a4719960e47343678c3dc690d2b27a2295acc6fc430833aaf9602090815260409182902054915160ff9092161515825290f35b346103ca5760003660031901126103ca57600460209081527f973ccc145476ef147b966a44694f8b2d26bac5a3d44a844fec6be696fe5fea70547f02ff85b9f193a3a7824cbaf5a79db262c0bac955152adf2752c6413d76b2d3c7547f0e08e55c6329ca2d4f38429c472032b4e97537c869a64c376bb7e702721eb8c3547fa792fa383e6bd9c6b4465bbfd8031f4b47377210fa121067c03906e9afac6246547f9d423956391424a558206d539d4c7b96f2596f9d71b6fe92efe1f071a870ba9454600080516020614e488339815191526000527f5455ba4b8a75b33fa0f1f7affd9817680912f06b7b194bcf9ac01183c4930020546040805196875296860194909452948401919091526060830152608082019290925260a081019190915260c090f35b346103ca5760203660031901126103ca5760043560005260046020526020604060002054604051908152f35b346103ca576020806003193601126103ca576004356001600160401b0381116103ca576112e5903690600401614485565b8051156113635760405161131f61132683519285818187019561130981838961451d565b8101600281520301902060405192838092614596565b0382614464565b838151910120908251902003611340575060405160018152f35b906106af6040519283926311bb0bc960e31b84526004840152602483019061462c565b906106af60405192839263f855236d60e01b84526004840152602483019061462c565b346103ca5760203660031901126103ca5761139f6143e7565b6001600160a01b031660009081527f0d2d6a5d08cb5d871289c0a3ca855d9da72909a111c24cce2d5c2b34a20daa54602090815260409182902054915160ff9092161515825290f35b346103ca576020806003193601126103ca576114026143e7565b6001600160a01b03811691908215610cb3576114259061142061482f565b6147b5565b610fb5577f964e50cb3bdb84c00a30f56ae15d538d23dc6db14f891d7d819761b161e990a690600080516020614e088339815191528060005260008252604060002084600052825260ff6040600020541615610f6557600052600481526040600020610f5a8154614d1e565b346103ca5760403660031901126103ca576004356024803580151581036103ca578260005260209160068352604060002091600683019160ff835416600481101561173f5761172957600b8401903360005281865260ff6040600020541661171457600080516020614e8883398151915260005260008652604060002033600052865260ff6040600020541615806116e3575b806116c0575b6116ab57600c85015442101561166b57503360005284521561165657600982016115548154614d1e565b90555b60098201546008549081116115db5750916080917f619a485783a3870e8a79daa87da1f5dc43342edeb762bd43a859a89c36dc002593600160ff198254161790556008429101556040519060408252601b60408301527f417070726f766564206279206d616a6f7269747920766f74696e67000000000060608301524290820152a2005b9091600a015410156115e957005b7f66e6fff3b5dd3c33ccb5596403903d31b44bf59342b0a32d9925a86d0d6efeb791608091600260ff198254161790556040519060408252601b60408301527f52656a6563746564206279206d616a6f7269747920766f74696e67000000000060608301524290820152a2005b600a82016116648154614d1e565b9055611557565b86807f366e7dd2cab048eaff199cb82b06661733696643e03b462e0b2635552275ed1488604051428152a26040519063544b484760e11b82526004820152fd5b6040516312081e4d60e21b8152336004820152fd5b506000805260008652604060002033600052865260ff604060002054161561152a565b50600080516020614e2883398151915260005260008652604060002033600052865260ff6040600020541615611524565b60405163f7a8a48560e01b8152336004820152fd5b60405163396c029560e11b815260048101879052fd5b50634e487b7160e01b60009081526021600452fd5b346103ca5760003660031901126103ca576020600754604051908152f35b346103ca5760003660031901126103ca57602060405160008152f35b346103ca5760803660031901126103ca576004356001600160401b0381116103ca576117be903690600401614485565b6117c66143fd565b6044356001600160401b0381116103ca576117e5903690600401614694565b916064356001600160401b0381116103ca57611805903690600401614694565b919093855115611bd6576001600160a01b03821615611bc4578015611bb2578215611ba0576007549461183786614d1e565b60075585600052600660205260406000209386855587516001600160401b038111611a9f576118768161186d600189015461455c565b60018901614c9c565b806020601f8211600114611b3257600091611b27575b508160011b916000199060031b1c19161760018601555b6002850180546001600160a01b031990811633179091556003860180549091166001600160a01b038616179055600485016001600160401b038411611a9f576118f6846118f0835461455c565b83614c9c565b836000601f8211600114611ac057600091611ab5575b508460011b906000198660031b1c19161790555b60058501916001600160401b038211611a9f57819061194982611943865461455c565b86614c9c565b600090601f8311600114611a3457600092611a29575b50508160011b916000199060031b1c19161790555b6006830160ff19815416905542600784015560006008840155600060098401556000600a840155600954420193844211611a13577f848fa50545e34cd118bff432e9d1019f47b0ff1bbffdf5a5bcbe704985d98cd094600c611a049501556119e76040519760808952608089019061462c565b6001600160a01b0390931660208801528683036040880152614de6565b924260608201528033940390a3005b634e487b7160e01b600052601160045260246000fd5b01359050898061195f565b909150601f198316918460005260206000209260005b818110611a875750908460019594939210611a6d575b505050811b019055611974565b0135600019600384901b60f8161c19169055898080611a60565b91936020600181928787013581550195019201611a4a565b634e487b7160e01b600052604160045260246000fd5b90508701358a61190c565b60008381526020812092508690601f198216905b8b828210611b0d57505010611af3575b5050600184811b019055611920565b880135600019600387901b60f8161c191690558980611ae4565b840135855560019094019360209384019389935001611ad4565b90508901518a61188c565b91506001870160005260206000206000925b8b601f1984168510611b8957506001935082601f19811610611b70575b5050811b0160018601556118a3565b8b015160001960f88460031b161c191690558a80611b61565b810151825560209384019360019092019101611b44565b60405163eed4219760e01b8152600490fd5b60405163d7a20c5d60e01b8152600490fd5b604051637de702b760e11b8152600490fd5b604051632ad51ee560e21b8152600490fd5b346103ca57611bf6366144db565b611bfe61482f565b611c07826146fe565b156103b85761034e7f69e94e373f69f3f945457a07b335722310788af9cd459a33df6f72cc9e96404391600080516020614e488339815191528060005260209060008252610443600160406000200154614a12565b346103ca57611c6a36614651565b3360009081527facfff8a39fb957d9d1c8e3ef9f08385e3fcf7bb23ab7ba0ad0f8df93dbde6a68602090815260409091205491929160ff16156106e957604051600160ff600a855193858181890196611cc481838a61451d565b81016002815203019020015460b81c16151514611d495791600a611d18611d44937f3a9eebd240f4c9f631531ebc672c4c040de483b868ccebe8a3a1fdad70cde0d99560405180938192875192839161451d565b8101600281520301902001600160b81b60ff60b81b198254161790556040519182913395429184614cf0565b0390a2005b506106af604051928392636f5f944160e11b84526004840152602483019061462c565b346103ca5760403660031901126103ca57611d856143fd565b600435600052600060205260406000209060018060a01b0316600052602052602060ff604060002054166040519015158152f35b346103ca5760203660031901126103ca57611dd26143e7565b6001600160a01b031660009081527facfff8a39fb957d9d1c8e3ef9f08385e3fcf7bb23ab7ba0ad0f8df93dbde6a68602090815260409182902054915160ff9092161515825290f35b346103ca576020806003193601126103ca576004356001600160401b0381116103ca57611e4c903690600401614485565b6040519080519061131f611e8385830193611e6881878761451d565b85019486816002978881520301902060405192838092614596565b8481519101208151908184201490811591612037575b5061202557828491611eb36040519485925192839161451d565b83019282816003958681520301902090815490611ecf82614d2d565b94611edd6040519687614464565b82865284860191829460005285600020916000935b858510611fa357604080518981528a51818b01819052600092600582901b83018101918b918d9085015b828710611f295785850386f35b909192938280600192603f19898203018552875190611f78611f66611f56845160a080865285019061462c565b858501518482038786015261462c565b6040840151838203604085015261462c565b916060868060a01b038183015116908301526080809101519101529601920196019592919092611f1c565b60058860019260409b9a9b51611fb881614413565b604051611fc98161131f818c614596565b8152604051611fde8161131f81898d01614596565b83820152604051611ff58161131f818b8d01614596565b6040820152848060a01b038689015416606082015260048801546080820152815201940194019392979697611ef2565b6040516329d7b10b60e11b8152600490fd5b90501585611e99565b346103ca576020806003193601126103ca576004359081600052600681526040600020906006820180549260ff84166004811015610e765761214a57600080516020614e8883398151915260005260008352604060002033600052835260ff604060002054161580612119575b61210157600c015442106120ef5760037f366e7dd2cab048eaff199cb82b06661733696643e03b462e0b2635552275ed149360ff1916179055604051428152a2005b60405163075c0f0b60e51b8152600490fd5b6040516312081e4d60e21b8152336004820152602490fd5b50600080516020614e2883398151915260005260008352604060002033600052835260ff60406000205416156120ad565b60405163396c029560e11b815260048101869052602490fd5b346103ca5761217136614651565b3360009081527f4130a4caca6023b0ba21488ee680ce5c3df22860b1cd8b02cd2a0bcb0de98851602090815260409091205491929160ff16156106e957604051600160ff600a8551938581818901966121cb81838a61451d565b81016002815203019020015460a81c1615151461224b5791600a61221f611d44937fa214f45af6d86b0d5ff7bb48f888cf4205e4a383da35fcbebfdbd9bd8e6d5a7c9560405180938192875192839161451d565b8101600281520301902001600160a81b60ff60a81b198254161790556040519182913395429184614cf0565b506106af60405192839263701203b760e01b84526004840152602483019061462c565b346103ca5761227c366144db565b61228461482f565b61228d826147b5565b156103b85761034e7f71577b91708c73ee54b43c6709958ff42e4bcc084910648ce7c3d16928b51d5291600080516020614e088339815191528060005260209060008252610443600160406000200154614a12565b346103ca5760003660031901126103ca576020604051600080516020614e488339815191528152f35b346103ca5760003660031901126103ca576020604051600080516020614ea88339815191528152f35b346103ca576020806003193601126103ca576004356001600160401b0381116103ca57612365903690600401614485565b906000805260008152604060002033600052815260ff60406000205416156106e95760405161131f6123a484519284818188019561130981838961451d565b82815191012083519081832014908115916124ff575b506120255760ff600a604051848187516123d581838961451d565b81016002815203019020015460b01c16806124d3575b156124b0579060ff600a61249183604096958751606081527f10f4ba4c7bb6f0c442f54585004a6e24440bea5c2d2e6f36b688e3e624762e22612431606083018a61462c565b916b54726164696e67526561647960a01b85828503948582850152600c81520152428b8201528a33930190a28484895184818b5161247081838961451d565b81016002815203019020015460b01c1696885193849283925192839161451d565b81016002815203019020015460b81c1683519215158352151590820152f35b506106af6040519283926348cddbdb60e11b84526004840152602483019061462c565b5060ff600a604051848187516124ea81838961451d565b81016002815203019020015460b81c166123eb565b905015846123ba565b346103ca5760203660031901126103ca576125216143e7565b6001600160a01b031660009081527fbce5fd3347e0dc338dcc0e895534dd4af2740eec95f56cd4ca4b4b2ada357ca0602090815260409182902054915160ff9092161515825290f35b346103ca5760003660031901126103ca576020604051600080516020614e888339815191528152f35b346103ca5760003660031901126103ca576020604051600080516020614e688339815191528152f35b346103ca576020806003193601126103ca576125d66143e7565b6001600160a01b03811691908215610cb3576125f9906125f461482f565b614778565b610fb5577f4e3eede475de92d3e23765b737dbb67646352b3328c1a437d7f089766d7be75190600080516020614ea88339815191528060005260008252604060002084600052825260ff6040600020541615610f6557600052600481526040600020610f5a8154614d1e565b346103ca5760003660031901126103ca576020600854604051908152f35b346103ca5760203660031901126103ca576004356001600160401b0381116103ca576126b3903690600401614485565b60405181818093516020819301916126ca9261451d565b810160028152036020019020604051806126e48184614596565b036126ef9082614464565b60405191826127018160018401614596565b0361270c9084614464565b6040518061271d8160028501614596565b036127289082614464565b604051918261273a8160038401614596565b036127459084614464565b600481015460058201546040519491856127628160068701614596565b0361276d9087614464565b60078401546040516001600160a01b03979093918816929091846127948160088a01614596565b0361279f9086614464565b60405195866127b18160098b01614596565b036127bc9088614464565b600a88015497600b0154986040519c8d9c8d61020090818152016127df9161462c565b8d810360208f01526127f09161462c565b8c810360408e01526128019161462c565b8b810360608d01526128129161462c565b9160808b015260a08a015288810360c08a015261282e9161462c565b9060e08801528681036101008801526128469161462c565b8581036101208701526128589161462c565b9281166101408501528060a01c60ff1615156101608501528060a81c60ff1615156101808501528060b01c60ff1615156101a085015260b81c60ff1615156101c08401526101e08301520390f35b346103ca5760203660031901126103ca576004356000526006602052604060002080549060405190818060018301906128de91614596565b036128e99083614464565b600281015460038201546040516001600160a01b039283169490939092909116836129178160048501614596565b036129229085614464565b60405194856129348160058601614596565b0361293f9087614464565b600683015460ff1695600784015495600885015492600986015494600a87015496600c0154976040519b8c528b6101806020819201528c016129809161462c565b9160408c015260608b015289810360808b015261299c9161462c565b88810360a08a01526129ad9161462c565b946004871015610e7657879660c088015260e08701526101008601526101208501526101408401526101608301520390f35b346103ca5760003660031901126103ca576020604051600080516020614e088339815191528152f35b346103ca57612a1636614651565b3360009081527f0d2d6a5d08cb5d871289c0a3ca855d9da72909a111c24cce2d5c2b34a20daa54602090815260409091205491929160ff16156106e957604051600160ff600a855193858181890196612a7081838a61451d565b81016002815203019020015460b01c16151514612af05791600a612ac4611d44937fa9de1934279a83f8cfaaecf6a7002ac10aeaea244c8c763f3752f3fc4c3e631d9560405180938192875192839161451d565b8101600281520301902001600160b01b60ff60b01b198254161790556040519182913395429184614cf0565b506106af60405192839263c817400d60e01b84526004840152602483019061462c565b346103ca576020806003193601126103ca57612b2d6143e7565b6001600160a01b03811691908215610cb357612b5090612b4b61482f565b61473b565b610fb5577f4a02edd19f09212e54b2ac85d7d3a4a2e3fbf424e6710c3f817d9b4cecc9cdb390600080516020614e888339815191528060005260008252604060002084600052825260ff6040600020541615610f6557600052600481526040600020610f5a8154614d1e565b346103ca5760403660031901126103ca576004356024356001600160401b0381116103ca57612bef903690600401614485565b336000908152600080516020614ec8833981519152602052604090205460ff16156106e957816000526006602052604060002060068101805460ff81166004811015610e7657600303612c855760ff1916600117905542600890910155604080518181527f619a485783a3870e8a79daa87da1f5dc43342edeb762bd43a859a89c36dc00259290918291610e4d9183019061462c565b60405163c9f22f9d60e01b815260048101869052602490fd5b346103ca5760c03660031901126103ca576004356001600160401b0381116103ca57612cce903690600401614485565b6024356001600160401b0381116103ca57612ced903690600401614485565b906064356001600160401b0381116103ca57612d0d903690600401614485565b9060a4356001600160401b0381116103ca57612d2d903690600401614485565b3360009081527fbb3fcc25fbffa12ea463b3505377899a4d5ddb4858b9c7bd36764686d9425b36602052604090205490929060ff16156106e957815115613b8d578051156106c557835115613b7b5760443515613b6957608435158015613b5d575b613b4b5760506084351115613b3157825115613b1f57600154612db181614d1e565b600155604051612df960748260208101946020612dd48b8881519384920161451d565b8201903360601b60208301524260348301526054820152036054810184520182614464565b5190209260405193612e0a8561442e565b600a855260203681870137845115613b095760306020860153845160011015613b09576078602186015360005b60048110613a8c575050612e8c602160405180968851612e5e816020850160208d0161451d565b8201602d60f81b6020820152612e7d825180936020878501910161451d565b01036001810187520185614464565b60405190816102008101106001600160401b0361020084011117611a9f576102008201604052848252836020830152826040830152856060830152604435608083015260843560a083015260c08201523360e0820152604051612eee8161442e565b600381526252617760e81b6020820152610100820152604051612f108161442e565b600d81526c26b4b734b7339021b2b73a32b960991b6020820152610120820152336101408201526000610160820152600061018082015260006101a082015260006101c0820152426101e08201526040516020818651612f738183858b0161451d565b810160028152030190209080518051906001600160401b038211611a9f578190612fa782612fa1875461455c565b87614c9c565b602090601f8311600114613a2057600092613a15575b50508160011b916000199060031b1c19161782555b60208101518051906001600160401b038211611a9f57819061300482612ffb600188015461455c565b60018801614c9c565b602090601f83116001146139a357600092613998575b50508160011b916000199060031b1c19161760018301555b60408101518051906001600160401b038211611a9f5781906130648261305b600288015461455c565b60028801614c9c565b602090601f83116001146139265760009261391b575b50508160011b916000199060031b1c19161760028301555b60608101518051906001600160401b038211611a9f5781906130c4826130bb600388015461455c565b60038801614c9c565b602090601f83116001146138a95760009261389e575b50508160011b916000199060031b1c19161760038301555b6080810151600483015560a0810151600583015560c08101518051906001600160401b038211611a9f5781906131388261312f600688015461455c565b60068801614c9c565b602090601f831160011461382c57600092613821575b50508160011b916000199060031b1c19161760068301555b60e08101516007830180546001600160a01b0319166001600160a01b03929092169190911790556101008101518051906001600160401b038211611a9f5781906131c0826131b7600888015461455c565b60088801614c9c565b602090601f83116001146137af576000926137a4575b50508160011b916000199060031b1c19161760088301555b6101208101518051906001600160401b038211611a9f5761321f82613216600987015461455c565b60098701614c9c565b602090601f831160011461372e579180600b94926101e094600092613723575b50508160011b916000199060031b1c19161760098501555b600a840160018060a01b036101408301511681549060ff60a01b610160850151151560a01b1660ff60a81b610180860151151560a81b169060ff60b01b6101a0870151151560b01b169260ff60b81b6101c0880151151560b81b16946001600160401b0360c01b1617171717179055015191015560405160208185516132e08183858a0161451d565b81016003815203019020936040519467027b934b3b4b71d160c51b602087015261332860288785516133188184840160208a0161451d565b8101036008810189520187614464565b6040519561333587614413565b8587526040516133448161442e565b600a815269149959da5cdd195c995960b21b602082015260208801526040870152336060870152426080870152805468010000000000000000811015611a9f5761339391600182018155614540565b61370d5785518051906001600160401b038211611a9f5781906133ba82611943865461455c565b602090601f83116001146136a157600092613696575b50508160011b916000199060031b1c19161781555b60208601518051906001600160401b038211611a9f5781906134178261340e600187015461455c565b60018701614c9c565b602090601f831160011461362457600092613619575b50508160011b916000199060031b1c19161760018201555b60408601519586516001600160401b038111611a9f576134758161346c600286015461455c565b60028601614c9c565b6020601f8211600114613578579260046080610670948461353898957f73c819068ba25b88a32cb91f9b552ab50d9cccb7c4abdeb2a04f44373b7153939a986135699e60009261356d575b50508160011b916000199060031b1c19161760028501555b6003840160018060a01b036060830151166bffffffffffffffffffffffff60a01b825416179055015191015561352a6040519660e0885261351c60e089018a61462c565b9088820360208a015261462c565b90868203604088015261462c565b91604435608082015260843560a08201524260c08201528033930390a260405191829160208352602083019061462c565b0390f35b015190508e806134c0565b6002840160005260206000209860005b601f198416811061360157506080610670946001856135699d7f73c819068ba25b88a32cb91f9b552ab50d9cccb7c4abdeb2a04f44373b7153939b99966004966135389c99601f198116106135e8575b505050811b0160028501556134d8565b015160001960f88460031b161c191690558e80806135d8565b828201518b556001909a019960209283019201613588565b01519050888061342d565b9250600184016000526020600020906000935b601f198416851061367b576001945083601f19811610613662575b505050811b016001820155613445565b015160001960f88460031b161c19169055888080613652565b81810151835560209485019460019093019290910190613637565b0151905088806133d0565b9250836000526020600020906000935b601f19841685106136f2576001945083601f198116106136d9575b505050811b0181556133e5565b015160001960f88460031b161c191690558880806136cc565b818101518355602094850194600190930192909101906136b1565b634e487b7160e01b600052600060045260246000fd5b015190508a8061323f565b906009850160005260206000209160005b601f198516811061378c575092600b94926001926101e09583601f19811610613773575b505050811b016009850155613257565b015160001960f88460031b161c191690558a8080613763565b9192602060018192868501518155019401920161373f565b0151905088806131d6565b9250600885016000526020600020906000935b601f1984168510613806576001945083601f198116106137ed575b505050811b0160088301556131ee565b015160001960f88460031b161c191690558880806137dd565b818101518355602094850194600190930192909101906137c2565b01519050888061314e565b9250600685016000526020600020906000935b601f1984168510613883576001945083601f1981161061386a575b505050811b016006830155613166565b015160001960f88460031b161c1916905588808061385a565b8181015183556020948501946001909301929091019061383f565b0151905088806130da565b9250600385016000526020600020906000935b601f1984168510613900576001945083601f198116106138e7575b505050811b0160038301556130f2565b015160001960f88460031b161c191690558880806138d7565b818101518355602094850194600190930192909101906138bc565b01519050888061307a565b9250600285016000526020600020906000935b601f198416851061397d576001945083601f19811610613964575b505050811b016002830155613092565b015160001960f88460031b161c19169055888080613954565b81810151835560209485019460019093019290910190613939565b01519050888061301a565b9250600185016000526020600020906000935b601f19841685106139fa576001945083601f198116106139e1575b505050811b016001830155613032565b015160001960f88460031b161c191690558880806139d1565b818101518355602094850194600190930192909101906139b6565b015190508880612fbd565b9250846000526020600020906000935b601f1984168510613a71576001945083601f19811610613a58575b505050811b018255612fd2565b015160001960f88460031b161c19169055888080613a4b565b81810151835560209485019460019093019290910190613a30565b6020811015613b095781811a90600f613aa9818460041c16614d65565b908260011b936002848604811485151715611a1357858101809111611a1357613ad9613ae09460001a918c614b85565b5316614d65565b916003908101809111611a1357613afe613b049360001a9189614b85565b53614d1e565b612e37565b634e487b7160e01b600052603260045260246000fd5b60405163bfccc8e960e01b8152600490fd5b60405163d05db01960e01b81526084356004820152602490fd5b604051633abe7db760e21b8152600490fd5b50606460843511612d8f565b60405163fd83f8d960e01b8152600490fd5b60405163a765e58f60e01b8152600490fd5b604051630ac6e45360e31b8152600490fd5b346103ca5760403660031901126103ca57613bb86143fd565b336001600160a01b03821603613bd457610d6690600435614b11565b60405162461bcd60e51b815260206004820152602f60248201527f416363657373436f6e74726f6c3a2063616e206f6e6c792072656e6f756e636560448201526e103937b632b9903337b91039b2b63360891b6064820152608490fd5b346103ca5760403660031901126103ca576004356001600160401b0381116103ca57613c61903690600401614485565b613c7d602060243592816040519382858094519384920161451d565b8101600381520301902080548210156103ca57613d0c91613c9d91614540565b5060405190613cb782613cb08184614596565b0383614464565b604051613ccb8161131f8160018601614596565b613d28604051613ce28161131f8160028801614596565b613d1a600460018060a01b036003870154169501549360405197889760a0895260a089019061462c565b90878203602089015261462c565b90858203604087015261462c565b91606084015260808301520390f35b346103ca5760203660031901126103ca57613d506143e7565b6001600160a01b031660009081527fbb3fcc25fbffa12ea463b3505377899a4d5ddb4858b9c7bd36764686d9425b36602090815260409182902054915160ff9092161515825290f35b346103ca57613da7366144db565b613daf61482f565b613db8826146c1565b156103b85761034e7f125f88db22967983b401f70f6804d47f43cb545fcb725d0b335fe7d43d9b4a4a91600080516020614e688339815191528060005260209060008252610443600160406000200154614a12565b346103ca5760403660031901126103ca57600435613e296143fd565b816000526000602052613e43600160406000200154614a12565b81600052600060205260406000209060018060a01b0316908160005260205260ff6040600020541615613e7257005b8160005260006020526040600020816000526020526040600020600160ff1982541617905533917f2f8788117e7eff1d82e926ec794901d17c78024a50270940304540a733656f0d600080a4005b346103ca5760203660031901126103ca5760043560005260006020526020600160406000200154604051908152f35b346103ca5760003660031901126103ca576020600954604051908152f35b346103ca576020806003193601126103ca576004356001600160401b0381116103ca57613f3e903690600401614485565b90600080516020614e4883398151915260005260008152604060002033600052815260ff918260406000205416156106e95760405181519383830194613f8581848861451d565b8201906001816002938481528588600a97889303019020015460a01c1615151461422057600080526000855260406000203360005285528060406000205416156106e95761131f613ff8604051878180613fe38c8b5192839161451d565b81018781520301902060405192838092614596565b8581519101208451908188201490811591614217575b506120255780836040518781806140298c8b5192839161451d565b810187815203019020015460b01c16806141ec575b156141ca57604051606081527f10f4ba4c7bb6f0c442f54585004a6e24440bea5c2d2e6f36b688e3e624762e22614078606083018761462c565b916b54726164696e67526561647960a01b88828503948582850152600c81520152426040820152604033930190a280836040518781806140bc8c8b5192839161451d565b810187815203019020015460b01c1690836040518781806140e18c8b5192839161451d565b810187815203019020015460b81c16816141c2575b50156141a057837ffed1001c142a7ab386454a2f7d78b013ba7ff40595d10c128f2fb6463ccd7b7a949561416492846040518481895161413781838961451d565b81018581520301902001805460ff60a01b1916600160a01b1790556040518651909485938290859061451d565b8201908152030190200180546001600160a01b0319163317905560408051818152916141929183019061462c565b9242908201528033930390a2005b6040516348cddbdb60e11b815260048101859052806106af602482018661462c565b9050866140f6565b6040516348cddbdb60e11b815260048101869052806106af602482018761462c565b5080836040518781806142038c8b5192839161451d565b810187815203019020015460b81c1661403e565b9050158761400e565b604051632072bb0160e11b815260048101869052806106af602482018761462c565b346103ca576020806003193601126103ca5761425c6143e7565b6001600160a01b03811691908215610cb35761427f9061427a61482f565b6146fe565b610fb5577ff8ed9ac482b0f7c12999b3f157f758f84e39cd339fa301ea203823ac29e9750590600080516020614e488339815191528060005260008252604060002084600052825260ff6040600020541615610f6557600052600481526040600020610f5a8154614d1e565b346103ca576020806003193601126103ca576143056143e7565b6001600160a01b03811691908215610cb3576143289061432361482f565b6146c1565b610fb5577f593f046317558c2857b92915c62c99f2d2108f7bc6f1e1b3c5376cd559abf55990600080516020614e688339815191528060005260008252604060002084600052825260ff6040600020541615610f6557600052600481526040600020610f5a8154614d1e565b346103ca5760203660031901126103ca576004359063ffffffff60e01b82168092036103ca57602091637965db0b60e01b81149081156143d6575b5015158152f35b6301ffc9a760e01b149050836143cf565b600435906001600160a01b03821682036103ca57565b602435906001600160a01b03821682036103ca57565b60a081019081106001600160401b03821117611a9f57604052565b604081019081106001600160401b03821117611a9f57604052565b608081019081106001600160401b03821117611a9f57604052565b90601f801991011681019081106001600160401b03821117611a9f57604052565b81601f820112156103ca578035906001600160401b038211611a9f57604051926144b9601f8401601f191660200185614464565b828452602083830101116103ca57816000926020809301838601378301015290565b9060406003198301126103ca576004356001600160a01b03811681036103ca5791602435906001600160401b0382116103ca5761451a91600401614485565b90565b60005b8381106145305750506000910152565b8181015183820152602001614520565b8054821015613b09576000526005602060002091020190600090565b90600182811c9216801561458c575b602083101461457657565b634e487b7160e01b600052602260045260246000fd5b91607f169161456b565b90600092918054916145a78361455c565b91828252600193848116908160001461460957506001146145c9575b50505050565b90919394506000526020928360002092846000945b8386106145f55750505050010190388080806145c3565b8054858701830152940193859082016145de565b9294505050602093945060ff191683830152151560051b010190388080806145c3565b906020916146458151809281855285808601910161451d565b601f01601f1916010190565b9060406003198301126103ca576001600160401b036004358181116103ca578361467d91600401614485565b926024359182116103ca5761451a91600401614485565b9181601f840112156103ca578235916001600160401b0383116103ca57602083818601950101116103ca57565b6001600160a01b031660009081527fbb3fcc25fbffa12ea463b3505377899a4d5ddb4858b9c7bd36764686d9425b36602052604090205460ff1690565b6001600160a01b031660009081527ff3fa603c74bfe2a4719960e47343678c3dc690d2b27a2295acc6fc430833aaf9602052604090205460ff1690565b6001600160a01b031660009081527f0d2d6a5d08cb5d871289c0a3ca855d9da72909a111c24cce2d5c2b34a20daa54602052604090205460ff1690565b6001600160a01b031660009081527f4130a4caca6023b0ba21488ee680ce5c3df22860b1cd8b02cd2a0bcb0de98851602052604090205460ff1690565b6001600160a01b031660009081527fbce5fd3347e0dc338dcc0e895534dd4af2740eec95f56cd4ca4b4b2ada357ca0602052604090205460ff1690565b6001600160a01b031660009081527facfff8a39fb957d9d1c8e3ef9f08385e3fcf7bb23ab7ba0ad0f8df93dbde6a68602052604090205460ff1690565b336000908152600080516020614ec8833981519152602090815260408083205490929060ff161561485f57505050565b61486833614ba3565b908084519061487682614449565b604282528482019260603685378251156149fe576030845382516001908110156149ea5790607860218501536041915b8083116149905750505061494e5760486106af93869361493293614923985198899376020b1b1b2b9b9a1b7b73a3937b61d1030b1b1b7bab73a1604d1b8a8601526148fa815180928c60378901910161451d565b8401917001034b99036b4b9b9b4b733903937b6329607d1b60378401525180938684019061451d565b01036028810187520185614464565b5192839262461bcd60e51b84526004840152602483019061462c565b60648486519062461bcd60e51b825280600483015260248201527f537472696e67733a20686578206c656e67746820696e73756666696369656e746044820152fd5b909192600f811660108110156149d6576149cf91906f181899199a1a9b1b9c1cb0b131b232b360811b901a6149c58688614b85565b5360041c93614b96565b91906148a6565b634e487b7160e01b84526032600452602484fd5b634e487b7160e01b82526032600452602482fd5b634e487b7160e01b81526032600452602490fd5b600090808252602090828252604092838120338252835260ff848220541615614a3b5750505050565b614a4433614ba3565b91845190614a5182614449565b604282528482019260603685378251156149fe576030845382516001908110156149ea5790607860218501536041915b808311614ad55750505061494e5760486106af93869361493293614923985198899376020b1b1b2b9b9a1b7b73a3937b61d1030b1b1b7bab73a1604d1b8a8601526148fa815180928c60378901910161451d565b909192600f811660108110156149d657614b0a91906f181899199a1a9b1b9c1cb0b131b232b360811b901a6149c58688614b85565b9190614a81565b9060009180835282602052604083209160018060a01b03169182845260205260ff604084205416614b4157505050565b80835282602052604083208284526020526040832060ff1981541690557ff6391f5c32d9c69d2a47ea670b442974b53935d1edc7fd64eb21e047a839171b339380a4565b908151811015613b09570160200190565b8015611a13576000190190565b60405190606082018281106001600160401b03821117611a9f57604052602a8252602082016040368237825115613b0957603090538151600190811015613b0957607860218401536029905b808211614c43575050614bff5790565b606460405162461bcd60e51b815260206004820152602060248201527f537472696e67733a20686578206c656e67746820696e73756666696369656e746044820152fd5b9091600f8116906010821015614c8757614c81916f181899199a1a9b1b9c1cb0b131b232b360811b901a614c778587614b85565b5360041c92614b96565b90614bef565b60246000634e487b7160e01b81526032600452fd5b90601f8111614caa57505050565b600091825260208220906020601f850160051c83019410614ce6575b601f0160051c01915b828110614cdb57505050565b818155600101614ccf565b9092508290614cc6565b939291614d1990614d0b60409360608852606088019061462c565b90868203602088015261462c565b930152565b6000198114611a135760010190565b6001600160401b038111611a9f5760051b60200190565b805115613b095760200190565b8051821015613b095760209160051b010190565b60009060ff16600a811015614d9157603091500160ff8111611a135760f81b6001600160f81b03191690565b60610160ff8111614dd25760ff6009199116019060ff8211614dbe575060f81b6001600160f81b03191690565b634e487b7160e01b81526011600452602490fd5b634e487b7160e01b82526011600452602482fd5b908060209392818452848401376000828201840152601f01601f191601019056feddaa901e2fe3bda354fe0ede2785152d5c109282a613fe024a056a3e66c41bb3273dcf2136c7d8ef632bb8ef13dbca69a8f36fa620c7468671b3153d46a211c0f8cd32ed93fc2f9fc78152a14807c9609af3d99c5fe4dc6b106a801aaddfe90ea952726ef2588ad078edf35b066f7c7406e207cb0003bbaba8cb53eba9553e7259a1c48e5837ad7a7f3dcedcbe129bf3249ec4fbf651fd4f5e2600ead39fe2f5a977e1a3444218ff332edf735c56487bbe59922b15c88777d443eb8b78020f4dad3228b676f7d3cd4284a5443f17f1962b36e491b30a40b2405849e597ba5fb5a26469706673582212208c92feb8753786c4aaa310f9071b7d6410c06fd4ddc74af5d158312f9ae4e11d64736f6c634300081400332f8788117e7eff1d82e926ec794901d17c78024a50270940304540a733656f0d",
  "devdoc": {
    "events": {
      "RoleAdminChanged(bytes32,bytes32,bytes32)": {
        "details": "Emitted when `newAdminRole` is set as ``role``'s admin role, replacing `previousAdminRole` `DEFAULT_ADMIN_ROLE` is the starting admin for all roles, despite {RoleAdminChanged} not being emitted signaling this. _Available since v3.1._"
      },
      "RoleGranted(bytes32,address,address)": {
        "details": "Emitted when `account` is granted `role`. `sender` is the account that originated the contract call, an admin role bearer except when using {AccessControl-_setupRole}."
      },
      "RoleRevoked(bytes32,address,address)": {
        "details": "Emitted when `account` is revoked `role`. `sender` is the account that originated the contract call:   - if using `revokeRole`, it is the admin role bearer   - if using `renounceRole`, it is the role bearer (i.e. `account`)"
      }
    },
    "kind": "dev",
    "methods": {
      "_auditMineral(string,string)": {
        "details": "only the auditor can audit mineralDetails.Logs audit report on every successful audit.",
        "params": {
          "mineralId": "The ID of the mineral under audition.",
          "report": "The audit status report of the mineral under audition."
        }
      },
      "checkAndEscalateDispute(uint256)": {
        "details": "Anyone with role can call this to manually trigger escalation for expired disputesEscalates a dispute to the super admin for final admin"
      },
      "checkAuditAndInspectionStatus(string)": {
        "details": "checks audit and inspection status",
        "params": {
          "mineralId": "The ID of the mineral to check for audit and inspection status Returns (isValid, isInspected) statuses of both audit and inspection of mineral according to mineralId"
        }
      },
      "constructor": {
        "details": "Events to enforce traceability"
      },
      "getAllRoleCounts()": {
        "details": "Returns all role counts in a single call",
        "returns": {
          "auditorCount": "Number of auditors",
          "buyerCount": "Number of buyers",
          "inspectorCount": "Number of inspectors",
          "minerCount": "Number of miners",
          "refinerCount": "Number of refiners",
          "transporterCount": "Number of transporters"
        }
      },
      "getRoleAdmin(bytes32)": {
        "details": "Returns the admin role that controls `role`. See {grantRole} and {revokeRole}. To change a role's admin, use {_setRoleAdmin}."
      },
      "getRoleMemberCount(bytes32)": {
        "details": "Returns the number of accounts that have a specific role",
        "params": {
          "role": "The role to query member count for"
        },
        "returns": {
          "count": "The number of accounts with the role"
        }
      },
      "getRolesForAddress(address)": {
        "details": "Returns all roles assigned to a given address",
        "params": {
          "account": "The address to check roles for"
        },
        "returns": {
          "roles": "An array of role names the address has"
        }
      },
      "grantRole(bytes32,address)": {
        "details": "Grants `role` to `account`. If `account` had not been already granted `role`, emits a {RoleGranted} event. Requirements: - the caller must have ``role``'s admin role. May emit a {RoleGranted} event."
      },
      "hasMinerRole(address)": {
        "details": "Roles helper functionschecks if an account has a specific role",
        "params": {
          "account": "The address of the account to checked with role association"
        }
      },
      "hasRole(bytes32,address)": {
        "details": "Returns `true` if `account` has been granted `role`."
      },
      "inspectMineral(string,string)": {
        "details": "only the inspector can inspect mineralDetailsLogs audit report on every successful inspection",
        "params": {
          "mineralId": "The ID of the mineral under inspection",
          "report": "The inspection status report of the mineral under inspection"
        }
      },
      "isMineralRegistered(string)": {
        "details": "checks if a mineral with the given ID is registered",
        "params": {
          "mineralId": "the ID of the mineral to check"
        },
        "returns": {
          "_0": "A boolean indicating whether the mineral is registered or not"
        }
      },
      "purchaseMineral(string)": {
        "details": "Only the buyer can purchase mineralDetails",
        "params": {
          "mineralId": "The ID of the mineral under purchase"
        }
      },
      "raiseDispute(string,address,string,string)": {
        "details": "Registers a dispute",
        "params": {
          "defendant": "The address of the party being accused",
          "details": "The details of the dispute",
          "evidence": "Evidence supporting the dispute",
          "mineralId": "The ID of the mineral in question"
        }
      },
      "refineMineral(string,string)": {
        "details": "only the refiner can refiner a mineral",
        "params": {
          "mineralId": "The ID of the mineral under refinery"
        }
      },
      "registerMineral(string,string,uint256,string,uint256,string)": {
        "details": "Register a new mineral - only by miner.Every mineral is assigned a unique mineralId.",
        "params": {
          "_mineralType": "The type of a mineral.",
          "_name": "Mineral name.",
          "_origin": "Mineral Origin.",
          "_purityPercentage": "Mineral purity in percentage.",
          "_storageConditions": "Mineral Storage conditions.",
          "_weight": "Mineral weight in uint256."
        }
      },
      "renounceRole(bytes32,address)": {
        "details": "Revokes `role` from the calling account. Roles are often managed via {grantRole} and {revokeRole}: this function's purpose is to provide a mechanism for accounts to lose their privileges if they are compromised (such as when a trusted device is misplaced). If the calling account had been revoked `role`, emits a {RoleRevoked} event. Requirements: - the caller must be `account`. May emit a {RoleRevoked} event."
      },
      "resolveDispute(uint256,string)": {
        "details": "Resolves a dispute",
        "params": {
          "disputeId": "The ID of the dispute to resolve",
          "resolutionDetails": "The details of the resolution"
        }
      },
      "revokeRole(bytes32,address)": {
        "details": "Revokes `role` from `account`. If `account` had been granted `role`, emits a {RoleRevoked} event. Requirements: - the caller must have ``role``'s admin role. May emit a {RoleRevoked} event."
      },
      "supportsInterface(bytes4)": {
        "details": "See {IERC165-supportsInterface}."
      },
      "transferMineral(string,address,string,string)": {
        "details": "only the transporter can transport mineralDetails",
        "params": {
          "_destination": "The Destination area of the mineral(string)",
          "_origin": "The Original location of the mineral under transportation",
          "_receivingParty": "The address of the destination portal",
          "mineralId": "The ID of the mineral under transportation"
        }
      },
      "voteOnDispute(uint256,bool)": {
        "details": "Voting mechanism for resolving disputes",
        "params": {
          "approve": "Whether the voter approves resoluction or rejects it",
          "disputeId": "The ID of the disputet to vote on"
        }
      }
    },
    "version": 1
  },
  "userdoc": {
    "kind": "user",
    "methods": {
      "_auditMineral(string,string)": {
        "notice": "Emits MineralAudited event."
      },
      "inspectMineral(string,string)": {
        "notice": "Emits MineralInspected event on successful inspection"
      },
      "purchaseMineral(string)": {
        "notice": "Emits MineralPurchased event on successful purchase"
      },
      "refineMineral(string,string)": {
        "notice": "Emits MineralRefined event on successfl refining process"
      },
      "registerMineral(string,string,uint256,string,uint256,string)": {
        "notice": "Emits MineralRegistered event on successful registration."
      },
      "resolveDispute(uint256,string)": {
        "notice": "Emits DisputeResolved event on successful dispute resolution"
      },
      "transferMineral(string,address,string,string)": {
        "notice": "Emits MineralTransported on successful transportation"
      }
    },
    "version": 1
  },
  "storageLayout": {
    "storage": [
      {
        "astId": 24,
        "contract": "contracts/governance/DisputeResolution.sol:DisputeResolution",
        "label": "_roles",
        "offset": 0,
        "slot": "0",
        "type": "t_mapping(t_bytes32,t_struct(RoleData)19_storage)"
      },
      {
        "astId": 3677,
        "contract": "contracts/governance/DisputeResolution.sol:DisputeResolution",
        "label": "nonce",
        "offset": 0,
        "slot": "1",
        "type": "t_uint256"
      },
      {
        "astId": 3682,
        "contract": "contracts/governance/DisputeResolution.sol:DisputeResolution",
        "label": "mineralDetails",
        "offset": 0,
        "slot": "2",
        "type": "t_mapping(t_string_memory_ptr,t_struct(MineralDetails)3659_storage)"
      },
      {
        "astId": 3688,
        "contract": "contracts/governance/DisputeResolution.sol:DisputeResolution",
        "label": "mineralHistories",
        "offset": 0,
        "slot": "3",
        "type": "t_mapping(t_string_memory_ptr,t_array(t_struct(MineralHistory)3670_storage)dyn_storage)"
      },
      {
        "astId": 3692,
        "contract": "contracts/governance/DisputeResolution.sol:DisputeResolution",
        "label": "roleMemberCount",
        "offset": 0,
        "slot": "4",
        "type": "t_mapping(t_bytes32,t_uint256)"
      },
      {
        "astId": 6004,
        "contract": "contracts/governance/DisputeResolution.sol:DisputeResolution",
        "label": "rolesManager",
        "offset": 0,
        "slot": "5",
        "type": "t_contract(RolesManager)5505"
      },
      {
        "astId": 6096,
        "contract": "contracts/governance/DisputeResolution.sol:DisputeResolution",
        "label": "disputes",
        "offset": 0,
        "slot": "6",
        "type": "t_mapping(t_uint256,t_struct(Dispute)6091_storage)"
      },
      {
        "astId": 6098,
        "contract": "contracts/governance/DisputeResolution.sol:DisputeResolution",
        "label": "disputeCount",
        "offset": 0,
        "slot": "7",
        "type": "t_uint256"
      },
      {
        "astId": 6101,
        "contract": "contracts/governance/DisputeResolution.sol:DisputeResolution",
        "label": "votingThreshold",
        "offset": 0,
        "slot": "8",
        "type": "t_uint256"
      },
      {
        "astId": 6104,
        "contract": "contracts/governance/DisputeResolution.sol:DisputeResolution",
        "label": "votingDuration",
        "offset": 0,
        "slot": "9",
        "type": "t_uint256"
      }
    ],
    "types": {
      "t_address": {
        "encoding": "inplace",
        "label": "address",
        "numberOfBytes": "20"
      },
      "t_array(t_struct(MineralHistory)3670_storage)dyn_storage": {
        "base": "t_struct(MineralHistory)3670_storage",
        "encoding": "dynamic_array",
        "label": "struct RolesManager.MineralHistory[]",
        "numberOfBytes": "32"
      },
      "t_bool": {
        "encoding": "inplace",
        "label": "bool",
        "numberOfBytes": "1"
      },
      "t_bytes32": {
        "encoding": "inplace",
        "label": "bytes32",
        "numberOfBytes": "32"
      },
      "t_contract(RolesManager)5505": {
        "encoding": "inplace",
        "label": "contract RolesManager",
        "numberOfBytes": "20"
      },
      "t_enum(DisputeStatus)6061": {
        "encoding": "inplace",
        "label": "enum DisputeResolution.DisputeStatus",
        "numberOfBytes": "1"
      },
      "t_mapping(t_address,t_bool)": {
        "encoding": "mapping",
        "key": "t_address",
        "label": "mapping(address => bool)",
        "numberOfBytes": "32",
        "value": "t_bool"
      },
      "t_mapping(t_bytes32,t_struct(RoleData)19_storage)": {
        "encoding": "mapping",
        "key": "t_bytes32",
        "label": "mapping(bytes32 => struct AccessControl.RoleData)",
        "numberOfBytes": "32",
        "value": "t_struct(RoleData)19_storage"
      },
      "t_mapping(t_bytes32,t_uint256)": {
        "encoding": "mapping",
        "key": "t_bytes32",
        "label": "mapping(bytes32 => uint256)",
        "numberOfBytes": "32",
        "value": "t_uint256"
      },
      "t_mapping(t_string_memory_ptr,t_array(t_struct(MineralHistory)3670_storage)dyn_storage)": {
        "encoding": "mapping",
        "key": "t_string_memory_ptr",
        "label": "mapping(string => struct RolesManager.MineralHistory[])",
        "numberOfBytes": "32",
        "value": "t_array(t_struct(MineralHistory)3670_storage)dyn_storage"
      },
      "t_mapping(t_string_memory_ptr,t_struct(MineralDetails)3659_storage)": {
        "encoding": "mapping",
        "key": "t_string_memory_ptr",
        "label": "mapping(string => struct RolesManager.MineralDetails)",
        "numberOfBytes": "32",
        "value": "t_struct(MineralDetails)3659_storage"
      },
      "t_mapping(t_uint256,t_struct(Dispute)6091_storage)": {
        "encoding": "mapping",
        "key": "t_uint256",
        "label": "mapping(uint256 => struct DisputeResolution.Dispute)",
        "numberOfBytes": "32",
        "value": "t_struct(Dispute)6091_storage"
      },
      "t_string_memory_ptr": {
        "encoding": "bytes",
        "label": "string",
        "numberOfBytes": "32"
      },
      "t_string_storage": {
        "encoding": "bytes",
        "label": "string",
        "numberOfBytes": "32"
      },
      "t_struct(Dispute)6091_storage": {
        "encoding": "inplace",
        "label": "struct DisputeResolution.Dispute",
        "members": [
          {
            "astId": 6063,
            "contract": "contracts/governance/DisputeResolution.sol:DisputeResolution",
            "label": "disputeId",
            "offset": 0,
            "slot": "0",
            "type": "t_uint256"
          },
          {
            "astId": 6065,
            "contract": "contracts/governance/DisputeResolution.sol:DisputeResolution",
            "label": "mineralId",
            "offset": 0,
            "slot": "1",
            "type": "t_string_storage"
          },
          {
            "astId": 6067,
            "contract": "contracts/governance/DisputeResolution.sol:DisputeResolution",
            "label": "complainant",
            "offset": 0,
            "slot": "2",
            "type": "t_address"
          },
          {
            "astId": 6069,
            "contract": "contracts/governance/DisputeResolution.sol:DisputeResolution",
            "label": "defendant",
            "offset": 0,
            "slot": "3",
            "type": "t_address"
          },
          {
            "astId": 6071,
            "contract": "contracts/governance/DisputeResolution.sol:DisputeResolution",
            "label": "details",
            "offset": 0,
            "slot": "4",
            "type": "t_string_storage"
          },
          {
            "astId": 6073,
            "contract": "contracts/governance/DisputeResolution.sol:DisputeResolution",
            "label": "evidence",
            "offset": 0,
            "slot": "5",
            "type": "t_string_storage"
          },
          {
            "astId": 6076,
            "contract": "contracts/governance/DisputeResolution.sol:DisputeResolution",
            "label": "status",
            "offset": 0,
            "slot": "6",
            "type": "t_enum(DisputeStatus)6061"
          },
          {
            "astId": 6078,
            "contract": "contracts/governance/DisputeResolution.sol:DisputeResolution",
            "label": "createdAt",
            "offset": 0,
            "slot": "7",
            "type": "t_uint256"
          },
          {
            "astId": 6080,
            "contract": "contracts/governance/DisputeResolution.sol:DisputeResolution",
            "label": "resolvedAt",
            "offset": 0,
            "slot": "8",
            "type": "t_uint256"
          },
          {
            "astId": 6082,
            "contract": "contracts/governance/DisputeResolution.sol:DisputeResolution",
            "label": "approveVotes",
            "offset": 0,
            "slot": "9",
            "type": "t_uint256"
          },
          {
            "astId": 6084,
            "contract": "contracts/governance/DisputeResolution.sol:DisputeResolution",
            "label": "rejectVotes",
            "offset": 0,
            "slot": "10",
            "type": "t_uint256"
          },
          {
            "astId": 6088,
            "contract": "contracts/governance/DisputeResolution.sol:DisputeResolution",
            "label": "hasVoted",
            "offset": 0,
            "slot": "11",
            "type": "t_mapping(t_address,t_bool)"
          },
          {
            "astId": 6090,
            "contract": "contracts/governance/DisputeResolution.sol:DisputeResolution",
            "label": "votingDeadline",
            "offset": 0,
            "slot": "12",
            "type": "t_uint256"
          }
        ],
        "numberOfBytes": "416"
      },
      "t_struct(MineralDetails)3659_storage": {
        "encoding": "inplace",
        "label": "struct RolesManager.MineralDetails",
        "members": [
          {
            "astId": 3628,
            "contract": "contracts/governance/DisputeResolution.sol:DisputeResolution",
            "label": "id",
            "offset": 0,
            "slot": "0",
            "type": "t_string_storage"
          },
          {
            "astId": 3630,
            "contract": "contracts/governance/DisputeResolution.sol:DisputeResolution",
            "label": "name",
            "offset": 0,
            "slot": "1",
            "type": "t_string_storage"
          },
          {
            "astId": 3632,
            "contract": "contracts/governance/DisputeResolution.sol:DisputeResolution",
            "label": "origin",
            "offset": 0,
            "slot": "2",
            "type": "t_string_storage"
          },
          {
            "astId": 3634,
            "contract": "contracts/governance/DisputeResolution.sol:DisputeResolution",
            "label": "mineralType",
            "offset": 0,
            "slot": "3",
            "type": "t_string_storage"
          },
          {
            "astId": 3636,
            "contract": "contracts/governance/DisputeResolution.sol:DisputeResolution",
            "label": "weight",
            "offset": 0,
            "slot": "4",
            "type": "t_uint256"
          },
          {
            "astId": 3638,
            "contract": "contracts/governance/DisputeResolution.sol:DisputeResolution",
            "label": "purityPercentage",
            "offset": 0,
            "slot": "5",
            "type": "t_uint256"
          },
          {
            "astId": 3640,
            "contract": "contracts/governance/DisputeResolution.sol:DisputeResolution",
            "label": "storageConditions",
            "offset": 0,
            "slot": "6",
            "type": "t_string_storage"
          },
          {
            "astId": 3642,
            "contract": "contracts/governance/DisputeResolution.sol:DisputeResolution",
            "label": "registeredBy",
            "offset": 0,
            "slot": "7",
            "type": "t_address"
          },
          {
            "astId": 3644,
            "contract": "contracts/governance/DisputeResolution.sol:DisputeResolution",
            "label": "currentStatus",
            "offset": 0,
            "slot": "8",
            "type": "t_string_storage"
          },
          {
            "astId": 3646,
            "contract": "contracts/governance/DisputeResolution.sol:DisputeResolution",
            "label": "currentLocation",
            "offset": 0,
            "slot": "9",
            "type": "t_string_storage"
          },
          {
            "astId": 3648,
            "contract": "contracts/governance/DisputeResolution.sol:DisputeResolution",
            "label": "currentHandler",
            "offset": 0,
            "slot": "10",
            "type": "t_address"
          },
          {
            "astId": 3650,
            "contract": "contracts/governance/DisputeResolution.sol:DisputeResolution",
            "label": "isPurchased",
            "offset": 20,
            "slot": "10",
            "type": "t_bool"
          },
          {
            "astId": 3652,
            "contract": "contracts/governance/DisputeResolution.sol:DisputeResolution",
            "label": "isRefined",
            "offset": 21,
            "slot": "10",
            "type": "t_bool"
          },
          {
            "astId": 3654,
            "contract": "contracts/governance/DisputeResolution.sol:DisputeResolution",
            "label": "isAudited",
            "offset": 22,
            "slot": "10",
            "type": "t_bool"
          },
          {
            "astId": 3656,
            "contract": "contracts/governance/DisputeResolution.sol:DisputeResolution",
            "label": "isInspected",
            "offset": 23,
            "slot": "10",
            "type": "t_bool"
          },
          {
            "astId": 3658,
            "contract": "contracts/governance/DisputeResolution.sol:DisputeResolution",
            "label": "timestamp",
            "offset": 0,
            "slot": "11",
            "type": "t_uint256"
          }
        ],
        "numberOfBytes": "384"
      },
      "t_struct(MineralHistory)3670_storage": {
        "encoding": "inplace",
        "label": "struct RolesManager.MineralHistory",
        "members": [
          {
            "astId": 3661,
            "contract": "contracts/governance/DisputeResolution.sol:DisputeResolution",
            "label": "id",
            "offset": 0,
            "slot": "0",
            "type": "t_string_storage"
          },
          {
            "astId": 3663,
            "contract": "contracts/governance/DisputeResolution.sol:DisputeResolution",
            "label": "fieldChanged",
            "offset": 0,
            "slot": "1",
            "type": "t_string_storage"
          },
          {
            "astId": 3665,
            "contract": "contracts/governance/DisputeResolution.sol:DisputeResolution",
            "label": "newValue",
            "offset": 0,
            "slot": "2",
            "type": "t_string_storage"
          },
          {
            "astId": 3667,
            "contract": "contracts/governance/DisputeResolution.sol:DisputeResolution",
            "label": "updatedBy",
            "offset": 0,
            "slot": "3",
            "type": "t_address"
          },
          {
            "astId": 3669,
            "contract": "contracts/governance/DisputeResolution.sol:DisputeResolution",
            "label": "timestamp",
            "offset": 0,
            "slot": "4",
            "type": "t_uint256"
          }
        ],
        "numberOfBytes": "160"
      },
      "t_struct(RoleData)19_storage": {
        "encoding": "inplace",
        "label": "struct AccessControl.RoleData",
        "members": [
          {
            "astId": 16,
            "contract": "contracts/governance/DisputeResolution.sol:DisputeResolution",
            "label": "members",
            "offset": 0,
            "slot": "0",
            "type": "t_mapping(t_address,t_bool)"
          },
          {
            "astId": 18,
            "contract": "contracts/governance/DisputeResolution.sol:DisputeResolution",
            "label": "adminRole",
            "offset": 0,
            "slot": "1",
            "type": "t_bytes32"
          }
        ],
        "numberOfBytes": "64"
      },
      "t_uint256": {
        "encoding": "inplace",
        "label": "uint256",
        "numberOfBytes": "32"
      }
    }
  }
}