{
  "address": "0x03F3FABEc0EA3618625fb3af7EcBb471B530c810",
  "abi": [
    {
      "inputs": [
        {
          "internalType": "address",
          "name": "caller",
          "type": "address"
        },
        {
          "internalType": "bytes32",
          "name": "role",
          "type": "bytes32"
        }
      ],
      "name": "AddressDoesNotHaveRequiredRole",
      "type": "error"
    },
    {
      "inputs": [
        {
          "internalType": "address",
          "name": "caller",
          "type": "address"
        }
      ],
      "name": "DisputeResolution__AlreadyVoted",
      "type": "error"
    },
    {
      "inputs": [
        {
          "internalType": "uint256",
          "name": "disputeId",
          "type": "uint256"
        }
      ],
      "name": "DisputeResolution__DisputeEscalated_UnableToVote",
      "type": "error"
    },
    {
      "inputs": [
        {
          "internalType": "uint256",
          "name": "disputeId",
          "type": "uint256"
        }
      ],
      "name": "DisputeResolution__DisputeNotEscalated",
      "type": "error"
    },
    {
      "inputs": [
        {
          "internalType": "uint256",
          "name": "disputeId",
          "type": "uint256"
        }
      ],
      "name": "DisputeResolution__DisputeStatusNotPending",
      "type": "error"
    },
    {
      "inputs": [],
      "name": "DisputeResolution__DisputeStatusNotPendingOrEscalated",
      "type": "error"
    },
    {
      "inputs": [],
      "name": "DisputeResolution__InvalidDisputeDefendantAddress",
      "type": "error"
    },
    {
      "inputs": [],
      "name": "DisputeResolution__InvalidDisputeDetails",
      "type": "error"
    },
    {
      "inputs": [],
      "name": "DisputeResolution__InvalidDisputeEvidence",
      "type": "error"
    },
    {
      "inputs": [],
      "name": "DisputeResolution__InvalidDisputeIdOrNotFound",
      "type": "error"
    },
    {
      "inputs": [],
      "name": "DisputeResolution__InvalidMineralIdOrNotFound",
      "type": "error"
    },
    {
      "inputs": [],
      "name": "DisputeResolution__InvalidResolutionDetails",
      "type": "error"
    },
    {
      "inputs": [
        {
          "internalType": "address",
          "name": "caller",
          "type": "address"
        }
      ],
      "name": "DisputeResolution__NotEligibleToVote",
      "type": "error"
    },
    {
      "inputs": [],
      "name": "DisputeResolution__VotingPeriodStillActive",
      "type": "error"
    },
    {
      "inputs": [
        {
          "internalType": "address",
          "name": "token",
          "type": "address"
        },
        {
          "internalType": "uint256",
          "name": "tokenAmount",
          "type": "uint256"
        }
      ],
      "name": "ERC20TokenTransferFailed",
      "type": "error"
    },
    {
      "inputs": [
        {
          "internalType": "address",
          "name": "caller",
          "type": "address"
        }
      ],
      "name": "InsufficientPermissionsToPerformAction",
      "type": "error"
    },
    {
      "inputs": [],
      "name": "InvalidAccountAddress",
      "type": "error"
    },
    {
      "inputs": [
        {
          "internalType": "string",
          "name": "mineralId",
          "type": "string"
        }
      ],
      "name": "InvalidMineralIdOrNotFound",
      "type": "error"
    },
    {
      "inputs": [],
      "name": "InvalidPaymentMethods",
      "type": "error"
    },
    {
      "inputs": [
        {
          "internalType": "string",
          "name": "currentStatus",
          "type": "string"
        },
        {
          "internalType": "string",
          "name": "attemptedStatus",
          "type": "string"
        }
      ],
      "name": "InvalidTransportStateTransition",
      "type": "error"
    },
    {
      "inputs": [
        {
          "internalType": "string",
          "name": "mineralId",
          "type": "string"
        }
      ],
      "name": "MineralNotMarketReady",
      "type": "error"
    },
    {
      "inputs": [
        {
          "internalType": "string",
          "name": "mineralId",
          "type": "string"
        }
      ],
      "name": "MineralNotReadyToTrade",
      "type": "error"
    },
    {
      "inputs": [],
      "name": "MineralRegistry__InvalidMineralDestination",
      "type": "error"
    },
    {
      "inputs": [],
      "name": "MineralRegistry__InvalidMineralDetails",
      "type": "error"
    },
    {
      "inputs": [
        {
          "internalType": "string",
          "name": "mineralId",
          "type": "string"
        }
      ],
      "name": "MineralRegistry__InvalidMineralIdOrNotFound",
      "type": "error"
    },
    {
      "inputs": [],
      "name": "MineralRegistry__InvalidMineralLocation",
      "type": "error"
    },
    {
      "inputs": [],
      "name": "MineralRegistry__InvalidMineralName",
      "type": "error"
    },
    {
      "inputs": [],
      "name": "MineralRegistry__InvalidMineralOrigin",
      "type": "error"
    },
    {
      "inputs": [],
      "name": "MineralRegistry__InvalidMineralPurityPercentage",
      "type": "error"
    },
    {
      "inputs": [],
      "name": "MineralRegistry__InvalidMineralStatus",
      "type": "error"
    },
    {
      "inputs": [],
      "name": "MineralRegistry__InvalidMineralStorageConditions",
      "type": "error"
    },
    {
      "inputs": [],
      "name": "MineralRegistry__InvalidMineralType",
      "type": "error"
    },
    {
      "inputs": [],
      "name": "MineralRegistry__InvalidMineralWeight",
      "type": "error"
    },
    {
      "inputs": [],
      "name": "MineralRegistry__InvalidReceivingPartyAddress",
      "type": "error"
    },
    {
      "inputs": [],
      "name": "MineralRegistry__MineralAlreadyAudited",
      "type": "error"
    },
    {
      "inputs": [],
      "name": "MineralRegistry__MineralAlreadyInspected",
      "type": "error"
    },
    {
      "inputs": [],
      "name": "MineralRegistry__MineralAlreadyPurchased",
      "type": "error"
    },
    {
      "inputs": [],
      "name": "MineralRegistry__MineralNotAudited",
      "type": "error"
    },
    {
      "inputs": [],
      "name": "MineralRegistry__MineralNotInspected",
      "type": "error"
    },
    {
      "inputs": [
        {
          "internalType": "string",
          "name": "mineralId",
          "type": "string"
        }
      ],
      "name": "MineralRegistry__MineralNotRegistered",
      "type": "error"
    },
    {
      "inputs": [],
      "name": "MineralWarehouse__ETHTransferFailed",
      "type": "error"
    },
    {
      "inputs": [],
      "name": "MineralWarehouse__IncorrectETHAmount",
      "type": "error"
    },
    {
      "inputs": [],
      "name": "MineralWarehouse__InvalidETHPrice",
      "type": "error"
    },
    {
      "inputs": [],
      "name": "MineralWarehouse__InvalidMineralPrice",
      "type": "error"
    },
    {
      "inputs": [],
      "name": "MineralWarehouse__InvalidNumberOfPrices",
      "type": "error"
    },
    {
      "inputs": [
        {
          "internalType": "address",
          "name": "tokenAddress",
          "type": "address"
        }
      ],
      "name": "MineralWarehouse__InvalidTokenAddress",
      "type": "error"
    },
    {
      "inputs": [],
      "name": "MineralWarehouse__InvalidTokenPrice",
      "type": "error"
    },
    {
      "inputs": [
        {
          "internalType": "string",
          "name": "mineralId",
          "type": "string"
        }
      ],
      "name": "MineralWarehouse__MineralAlreadySold",
      "type": "error"
    },
    {
      "inputs": [
        {
          "internalType": "string",
          "name": "mineralId",
          "type": "string"
        }
      ],
      "name": "MineralWarehouse__MineralNotFoundInWarehouse",
      "type": "error"
    },
    {
      "inputs": [
        {
          "internalType": "string",
          "name": "mineralId",
          "type": "string"
        }
      ],
      "name": "MineralWarehouse__MineralNotMarketReady",
      "type": "error"
    },
    {
      "inputs": [
        {
          "internalType": "string",
          "name": "mineralId",
          "type": "string"
        }
      ],
      "name": "MineralWarehouse__MineralNotRefined",
      "type": "error"
    },
    {
      "inputs": [],
      "name": "MineralWarehouse__MismatchedArrays",
      "type": "error"
    },
    {
      "inputs": [
        {
          "internalType": "address",
          "name": "tokenAddress",
          "type": "address"
        }
      ],
      "name": "MineralWarehouse__TokenNotAccepted",
      "type": "error"
    },
    {
      "inputs": [
        {
          "internalType": "address",
          "name": "tokenAddress",
          "type": "address"
        }
      ],
      "name": "MineralWarehouse__UnacceptedToken",
      "type": "error"
    },
    {
      "inputs": [
        {
          "internalType": "address[]",
          "name": "tokenAddresses",
          "type": "address[]"
        }
      ],
      "name": "MineralWarehouse__UnacceptedTokens",
      "type": "error"
    },
    {
      "inputs": [
        {
          "internalType": "address",
          "name": "seller",
          "type": "address"
        }
      ],
      "name": "MineralWarehouse__UnauthorizedSeller",
      "type": "error"
    },
    {
      "inputs": [
        {
          "internalType": "string",
          "name": "mineralId",
          "type": "string"
        },
        {
          "internalType": "address",
          "name": "caller",
          "type": "address"
        }
      ],
      "name": "NotAssignedTransporter",
      "type": "error"
    },
    {
      "inputs": [],
      "name": "PrivacyGuard__AccessDenied",
      "type": "error"
    },
    {
      "inputs": [],
      "name": "PrivacyGuard__DataAlreadyExists",
      "type": "error"
    },
    {
      "inputs": [],
      "name": "PrivacyGuard__InvalidDataOrNotFound",
      "type": "error"
    },
    {
      "inputs": [],
      "name": "PrivacyGuard__InvalidEncryptedContent",
      "type": "error"
    },
    {
      "inputs": [],
      "name": "RolesManager__AccountAlreadyHasRole",
      "type": "error"
    },
    {
      "inputs": [],
      "name": "RolesManager__AccountDoesNotHaveRole",
      "type": "error"
    },
    {
      "inputs": [],
      "name": "RolesManager__InvalidAddress",
      "type": "error"
    },
    {
      "inputs": [],
      "name": "RolesManager__InvalidMineralDestination",
      "type": "error"
    },
    {
      "inputs": [],
      "name": "RolesManager__InvalidMineralIdOrNotFound",
      "type": "error"
    },
    {
      "inputs": [],
      "name": "RolesManager__InvalidMineralName",
      "type": "error"
    },
    {
      "inputs": [],
      "name": "RolesManager__InvalidMineralOrigin",
      "type": "error"
    },
    {
      "inputs": [],
      "name": "RolesManager__InvalidMineralPurityPercentage",
      "type": "error"
    },
    {
      "inputs": [],
      "name": "RolesManager__InvalidMineralStorageConditions",
      "type": "error"
    },
    {
      "inputs": [],
      "name": "RolesManager__InvalidMineralType",
      "type": "error"
    },
    {
      "inputs": [],
      "name": "RolesManager__InvalidMineralWeight",
      "type": "error"
    },
    {
      "inputs": [],
      "name": "RolesManager__InvalidReceivingPartyAddress",
      "type": "error"
    },
    {
      "inputs": [],
      "name": "RolesManager__InvalidRole",
      "type": "error"
    },
    {
      "inputs": [
        {
          "internalType": "string",
          "name": "mineralId",
          "type": "string"
        }
      ],
      "name": "RolesManager__MineralAlreadyAudited",
      "type": "error"
    },
    {
      "inputs": [
        {
          "internalType": "string",
          "name": "mineralId",
          "type": "string"
        }
      ],
      "name": "RolesManager__MineralAlreadyInspected",
      "type": "error"
    },
    {
      "inputs": [
        {
          "internalType": "string",
          "name": "mineralId",
          "type": "string"
        }
      ],
      "name": "RolesManager__MineralAlreadyPurchased",
      "type": "error"
    },
    {
      "inputs": [
        {
          "internalType": "string",
          "name": "mineralId",
          "type": "string"
        }
      ],
      "name": "RolesManager__MineralAlreadyRefined",
      "type": "error"
    },
    {
      "inputs": [
        {
          "internalType": "string",
          "name": "mineralId",
          "type": "string"
        }
      ],
      "name": "RolesManager__MineralNotMarketReady",
      "type": "error"
    },
    {
      "inputs": [
        {
          "internalType": "uint256",
          "name": "purityPercentage",
          "type": "uint256"
        }
      ],
      "name": "RolesManager__MineralPurityPercentageTooLowToRegister",
      "type": "error"
    },
    {
      "inputs": [
        {
          "internalType": "address",
          "name": "caller",
          "type": "address"
        }
      ],
      "name": "RolesManager__NotTheAssignedBuyer",
      "type": "error"
    },
    {
      "inputs": [
        {
          "internalType": "string",
          "name": "mineralId",
          "type": "string"
        }
      ],
      "name": "SupplychainValidator__InvalidMineralIdOrNotFound",
      "type": "error"
    },
    {
      "inputs": [],
      "name": "SupplychainValidator__InvalidMineralOwnershipChain",
      "type": "error"
    },
    {
      "inputs": [],
      "name": "SupplychainValidator__InvalidMineralTransactionHistory",
      "type": "error"
    },
    {
      "inputs": [
        {
          "internalType": "uint256",
          "name": "tokenId",
          "type": "uint256"
        },
        {
          "internalType": "address",
          "name": "caller",
          "type": "address"
        }
      ],
      "name": "Tokenization__CallerNotMineralTokenOwner",
      "type": "error"
    },
    {
      "inputs": [
        {
          "internalType": "uint256",
          "name": "tokenId",
          "type": "uint256"
        }
      ],
      "name": "Tokenization__InvalidTokenId",
      "type": "error"
    },
    {
      "inputs": [
        {
          "internalType": "uint256",
          "name": "tokenId",
          "type": "uint256"
        }
      ],
      "name": "Tokenization__InvalidTokenIdOrNotFound",
      "type": "error"
    },
    {
      "inputs": [
        {
          "internalType": "uint256",
          "name": "tokenId",
          "type": "uint256"
        }
      ],
      "name": "Tokenization__TokenAlreadyExists",
      "type": "error"
    },
    {
      "inputs": [
        {
          "internalType": "uint256",
          "name": "tokenId",
          "type": "uint256"
        }
      ],
      "name": "Tokenization__TokenIsAlreadyMinted",
      "type": "error"
    },
    {
      "inputs": [
        {
          "internalType": "uint256",
          "name": "index",
          "type": "uint256"
        }
      ],
      "name": "TransactionLog__InvalidOperationIndex",
      "type": "error"
    },
    {
      "inputs": [],
      "name": "TransactionLog__InvalidOperationType",
      "type": "error"
    },
    {
      "inputs": [
        {
          "internalType": "uint256",
          "name": "transactionId",
          "type": "uint256"
        }
      ],
      "name": "TransactionLog__InvalidTransactionIdOrNotFound",
      "type": "error"
    },
    {
      "inputs": [
        {
          "internalType": "string",
          "name": "mineralId",
          "type": "string"
        }
      ],
      "name": "TransportRequestAlreadyExists",
      "type": "error"
    },
    {
      "anonymous": false,
      "inputs": [
        {
          "indexed": true,
          "internalType": "address",
          "name": "assignee",
          "type": "address"
        },
        {
          "indexed": false,
          "internalType": "uint256",
          "name": "timestamp",
          "type": "uint256"
        }
      ],
      "name": "AdminRoleAssigned",
      "type": "event"
    },
    {
      "anonymous": false,
      "inputs": [
        {
          "indexed": true,
          "internalType": "address",
          "name": "revokee",
          "type": "address"
        },
        {
          "indexed": false,
          "internalType": "string",
          "name": "reason",
          "type": "string"
        },
        {
          "indexed": false,
          "internalType": "uint256",
          "name": "timestamp",
          "type": "uint256"
        }
      ],
      "name": "AdminRoleRevoked",
      "type": "event"
    },
    {
      "anonymous": false,
      "inputs": [
        {
          "indexed": true,
          "internalType": "address",
          "name": "assignee",
          "type": "address"
        },
        {
          "indexed": false,
          "internalType": "uint256",
          "name": "timestamp",
          "type": "uint256"
        }
      ],
      "name": "AuditorRoleAssigned",
      "type": "event"
    },
    {
      "anonymous": false,
      "inputs": [
        {
          "indexed": true,
          "internalType": "address",
          "name": "revokee",
          "type": "address"
        },
        {
          "indexed": false,
          "internalType": "string",
          "name": "reason",
          "type": "string"
        },
        {
          "indexed": false,
          "internalType": "uint256",
          "name": "timestamp",
          "type": "uint256"
        }
      ],
      "name": "AuditorRoleRevoked",
      "type": "event"
    },
    {
      "anonymous": false,
      "inputs": [
        {
          "indexed": true,
          "internalType": "address",
          "name": "assignee",
          "type": "address"
        },
        {
          "indexed": false,
          "internalType": "uint256",
          "name": "timestamp",
          "type": "uint256"
        }
      ],
      "name": "BuyerRoleAssigned",
      "type": "event"
    },
    {
      "anonymous": false,
      "inputs": [
        {
          "indexed": true,
          "internalType": "address",
          "name": "revokee",
          "type": "address"
        },
        {
          "indexed": false,
          "internalType": "string",
          "name": "reason",
          "type": "string"
        },
        {
          "indexed": false,
          "internalType": "uint256",
          "name": "timestamp",
          "type": "uint256"
        }
      ],
      "name": "BuyerRoleRevoked",
      "type": "event"
    },
    {
      "anonymous": false,
      "inputs": [
        {
          "indexed": true,
          "internalType": "address",
          "name": "accessor",
          "type": "address"
        },
        {
          "indexed": true,
          "internalType": "uint256",
          "name": "dataId",
          "type": "uint256"
        },
        {
          "indexed": false,
          "internalType": "bool",
          "name": "success",
          "type": "bool"
        }
      ],
      "name": "DataAccessAttempt",
      "type": "event"
    },
    {
      "anonymous": false,
      "inputs": [
        {
          "indexed": true,
          "internalType": "address",
          "name": "assignee",
          "type": "address"
        },
        {
          "indexed": false,
          "internalType": "uint256",
          "name": "timestamp",
          "type": "uint256"
        }
      ],
      "name": "InspectorRoleAssigned",
      "type": "event"
    },
    {
      "anonymous": false,
      "inputs": [
        {
          "indexed": true,
          "internalType": "address",
          "name": "revokee",
          "type": "address"
        },
        {
          "indexed": false,
          "internalType": "string",
          "name": "reason",
          "type": "string"
        },
        {
          "indexed": false,
          "internalType": "uint256",
          "name": "timestamp",
          "type": "uint256"
        }
      ],
      "name": "InspectorRoleRevoked",
      "type": "event"
    },
    {
      "anonymous": false,
      "inputs": [
        {
          "indexed": true,
          "internalType": "address",
          "name": "assignee",
          "type": "address"
        },
        {
          "indexed": false,
          "internalType": "uint256",
          "name": "timestamp",
          "type": "uint256"
        }
      ],
      "name": "MinerRoleAssigned",
      "type": "event"
    },
    {
      "anonymous": false,
      "inputs": [
        {
          "indexed": true,
          "internalType": "address",
          "name": "revokee",
          "type": "address"
        },
        {
          "indexed": false,
          "internalType": "string",
          "name": "reason",
          "type": "string"
        },
        {
          "indexed": false,
          "internalType": "uint256",
          "name": "timestamp",
          "type": "uint256"
        }
      ],
      "name": "MinerRoleRevoked",
      "type": "event"
    },
    {
      "anonymous": false,
      "inputs": [
        {
          "indexed": false,
          "internalType": "string",
          "name": "mineralId",
          "type": "string"
        },
        {
          "indexed": false,
          "internalType": "string",
          "name": "status",
          "type": "string"
        },
        {
          "indexed": true,
          "internalType": "address",
          "name": "auditor",
          "type": "address"
        },
        {
          "indexed": false,
          "internalType": "uint256",
          "name": "auditedAt",
          "type": "uint256"
        }
      ],
      "name": "MineralAudited",
      "type": "event"
    },
    {
      "anonymous": false,
      "inputs": [
        {
          "indexed": false,
          "internalType": "string",
          "name": "mineralId",
          "type": "string"
        },
        {
          "indexed": false,
          "internalType": "string",
          "name": "mineralStatus",
          "type": "string"
        },
        {
          "indexed": true,
          "internalType": "address",
          "name": "inspector",
          "type": "address"
        },
        {
          "indexed": false,
          "internalType": "uint256",
          "name": "inspectedAt",
          "type": "uint256"
        }
      ],
      "name": "MineralInspected",
      "type": "event"
    },
    {
      "anonymous": false,
      "inputs": [
        {
          "indexed": false,
          "internalType": "string",
          "name": "mineralId",
          "type": "string"
        },
        {
          "indexed": true,
          "internalType": "address",
          "name": "buyer",
          "type": "address"
        },
        {
          "indexed": false,
          "internalType": "uint256",
          "name": "purchasedAt",
          "type": "uint256"
        }
      ],
      "name": "MineralPurchased",
      "type": "event"
    },
    {
      "anonymous": false,
      "inputs": [
        {
          "indexed": false,
          "internalType": "string",
          "name": "mineralId",
          "type": "string"
        },
        {
          "indexed": true,
          "internalType": "address",
          "name": "ApprovedBy",
          "type": "address"
        },
        {
          "indexed": false,
          "internalType": "string",
          "name": "status",
          "type": "string"
        },
        {
          "indexed": false,
          "internalType": "uint256",
          "name": "inspectionDate",
          "type": "uint256"
        }
      ],
      "name": "MineralReadyToTrade",
      "type": "event"
    },
    {
      "anonymous": false,
      "inputs": [
        {
          "indexed": false,
          "internalType": "string",
          "name": "mineralId",
          "type": "string"
        },
        {
          "indexed": false,
          "internalType": "string",
          "name": "refineryReport",
          "type": "string"
        },
        {
          "indexed": true,
          "internalType": "address",
          "name": "refiner",
          "type": "address"
        },
        {
          "indexed": false,
          "internalType": "uint256",
          "name": "refinedAt",
          "type": "uint256"
        }
      ],
      "name": "MineralRefined",
      "type": "event"
    },
    {
      "anonymous": false,
      "inputs": [
        {
          "indexed": false,
          "internalType": "string",
          "name": "mineralId",
          "type": "string"
        },
        {
          "indexed": false,
          "internalType": "string",
          "name": "mineralName",
          "type": "string"
        },
        {
          "indexed": false,
          "internalType": "string",
          "name": "mineralType",
          "type": "string"
        },
        {
          "indexed": false,
          "internalType": "string",
          "name": "origin",
          "type": "string"
        },
        {
          "indexed": false,
          "internalType": "uint256",
          "name": "weight",
          "type": "uint256"
        },
        {
          "indexed": false,
          "internalType": "uint256",
          "name": "purityPercentage",
          "type": "uint256"
        },
        {
          "indexed": true,
          "internalType": "address",
          "name": "miner",
          "type": "address"
        },
        {
          "indexed": false,
          "internalType": "uint256",
          "name": "registeredAt",
          "type": "uint256"
        }
      ],
      "name": "MineralRegistered",
      "type": "event"
    },
    {
      "anonymous": false,
      "inputs": [
        {
          "indexed": false,
          "internalType": "string",
          "name": "mineralId",
          "type": "string"
        },
        {
          "indexed": true,
          "internalType": "address",
          "name": "transporter",
          "type": "address"
        },
        {
          "indexed": false,
          "internalType": "address",
          "name": "receivingParty",
          "type": "address"
        },
        {
          "indexed": false,
          "internalType": "string",
          "name": "origin",
          "type": "string"
        },
        {
          "indexed": false,
          "internalType": "string",
          "name": "destination",
          "type": "string"
        },
        {
          "indexed": false,
          "internalType": "uint256",
          "name": "transportedAt",
          "type": "uint256"
        }
      ],
      "name": "MineralTransported",
      "type": "event"
    },
    {
      "anonymous": false,
      "inputs": [
        {
          "indexed": true,
          "internalType": "address",
          "name": "assignee",
          "type": "address"
        },
        {
          "indexed": false,
          "internalType": "uint256",
          "name": "timestamp",
          "type": "uint256"
        }
      ],
      "name": "RefinerRoleAssigned",
      "type": "event"
    },
    {
      "anonymous": false,
      "inputs": [
        {
          "indexed": true,
          "internalType": "address",
          "name": "revokee",
          "type": "address"
        },
        {
          "indexed": false,
          "internalType": "string",
          "name": "reason",
          "type": "string"
        },
        {
          "indexed": false,
          "internalType": "uint256",
          "name": "timestamp",
          "type": "uint256"
        }
      ],
      "name": "RefinerRoleRevoked",
      "type": "event"
    },
    {
      "anonymous": false,
      "inputs": [
        {
          "indexed": true,
          "internalType": "bytes32",
          "name": "role",
          "type": "bytes32"
        },
        {
          "indexed": true,
          "internalType": "bytes32",
          "name": "previousAdminRole",
          "type": "bytes32"
        },
        {
          "indexed": true,
          "internalType": "bytes32",
          "name": "newAdminRole",
          "type": "bytes32"
        }
      ],
      "name": "RoleAdminChanged",
      "type": "event"
    },
    {
      "anonymous": false,
      "inputs": [
        {
          "indexed": true,
          "internalType": "address",
          "name": "account",
          "type": "address"
        },
        {
          "indexed": true,
          "internalType": "bytes32",
          "name": "role",
          "type": "bytes32"
        },
        {
          "indexed": false,
          "internalType": "uint256",
          "name": "roleAssignedAt",
          "type": "uint256"
        }
      ],
      "name": "RoleAssigned",
      "type": "event"
    },
    {
      "anonymous": false,
      "inputs": [
        {
          "indexed": true,
          "internalType": "bytes32",
          "name": "role",
          "type": "bytes32"
        },
        {
          "indexed": true,
          "internalType": "address",
          "name": "account",
          "type": "address"
        },
        {
          "indexed": true,
          "internalType": "address",
          "name": "sender",
          "type": "address"
        }
      ],
      "name": "RoleGranted",
      "type": "event"
    },
    {
      "anonymous": false,
      "inputs": [
        {
          "indexed": true,
          "internalType": "bytes32",
          "name": "role",
          "type": "bytes32"
        },
        {
          "indexed": true,
          "internalType": "address",
          "name": "account",
          "type": "address"
        },
        {
          "indexed": true,
          "internalType": "address",
          "name": "sender",
          "type": "address"
        }
      ],
      "name": "RoleRevoked",
      "type": "event"
    },
    {
      "anonymous": false,
      "inputs": [
        {
          "indexed": false,
          "internalType": "bytes32",
          "name": "role",
          "type": "bytes32"
        },
        {
          "indexed": false,
          "internalType": "address",
          "name": "account",
          "type": "address"
        },
        {
          "indexed": false,
          "internalType": "address",
          "name": "revoker",
          "type": "address"
        },
        {
          "indexed": false,
          "internalType": "uint256",
          "name": "roleRevokedAt",
          "type": "uint256"
        }
      ],
      "name": "RoleRevoked",
      "type": "event"
    },
    {
      "anonymous": false,
      "inputs": [
        {
          "indexed": true,
          "internalType": "uint256",
          "name": "dataId",
          "type": "uint256"
        },
        {
          "indexed": true,
          "internalType": "address",
          "name": "addedBy",
          "type": "address"
        }
      ],
      "name": "SensitiveDataAdded",
      "type": "event"
    },
    {
      "anonymous": false,
      "inputs": [
        {
          "indexed": true,
          "internalType": "uint256",
          "name": "dataId",
          "type": "uint256"
        },
        {
          "indexed": true,
          "internalType": "address",
          "name": "deletedBy",
          "type": "address"
        }
      ],
      "name": "SensitiveDataDeleted",
      "type": "event"
    },
    {
      "anonymous": false,
      "inputs": [
        {
          "indexed": true,
          "internalType": "address",
          "name": "assignee",
          "type": "address"
        },
        {
          "indexed": false,
          "internalType": "uint256",
          "name": "timestamp",
          "type": "uint256"
        }
      ],
      "name": "TransporterRoleAssigned",
      "type": "event"
    },
    {
      "anonymous": false,
      "inputs": [
        {
          "indexed": true,
          "internalType": "address",
          "name": "revokee",
          "type": "address"
        },
        {
          "indexed": false,
          "internalType": "string",
          "name": "reason",
          "type": "string"
        },
        {
          "indexed": false,
          "internalType": "uint256",
          "name": "timestamp",
          "type": "uint256"
        }
      ],
      "name": "TransporterRoleRevoked",
      "type": "event"
    },
    {
      "inputs": [],
      "name": "AUDITOR_ROLE",
      "outputs": [
        {
          "internalType": "bytes32",
          "name": "",
          "type": "bytes32"
        }
      ],
      "stateMutability": "view",
      "type": "function"
    },
    {
      "inputs": [],
      "name": "BUYER_ROLE",
      "outputs": [
        {
          "internalType": "bytes32",
          "name": "",
          "type": "bytes32"
        }
      ],
      "stateMutability": "view",
      "type": "function"
    },
    {
      "inputs": [],
      "name": "DEFAULT_ADMIN_ROLE",
      "outputs": [
        {
          "internalType": "bytes32",
          "name": "",
          "type": "bytes32"
        }
      ],
      "stateMutability": "view",
      "type": "function"
    },
    {
      "inputs": [],
      "name": "INSPECTOR_ROLE",
      "outputs": [
        {
          "internalType": "bytes32",
          "name": "",
          "type": "bytes32"
        }
      ],
      "stateMutability": "view",
      "type": "function"
    },
    {
      "inputs": [],
      "name": "MINER_ROLE",
      "outputs": [
        {
          "internalType": "bytes32",
          "name": "",
          "type": "bytes32"
        }
      ],
      "stateMutability": "view",
      "type": "function"
    },
    {
      "inputs": [],
      "name": "REFINER_ROLE",
      "outputs": [
        {
          "internalType": "bytes32",
          "name": "",
          "type": "bytes32"
        }
      ],
      "stateMutability": "view",
      "type": "function"
    },
    {
      "inputs": [],
      "name": "TRANSPORTER_ROLE",
      "outputs": [
        {
          "internalType": "bytes32",
          "name": "",
          "type": "bytes32"
        }
      ],
      "stateMutability": "view",
      "type": "function"
    },
    {
      "inputs": [
        {
          "internalType": "string",
          "name": "mineralId",
          "type": "string"
        },
        {
          "internalType": "string",
          "name": "report",
          "type": "string"
        }
      ],
      "name": "_auditMineral",
      "outputs": [],
      "stateMutability": "nonpayable",
      "type": "function"
    },
    {
      "inputs": [
        {
          "internalType": "uint256",
          "name": "dataId",
          "type": "uint256"
        },
        {
          "internalType": "string",
          "name": "encryptedContent",
          "type": "string"
        }
      ],
      "name": "addSensitiveData",
      "outputs": [],
      "stateMutability": "nonpayable",
      "type": "function"
    },
    {
      "inputs": [
        {
          "internalType": "address",
          "name": "account",
          "type": "address"
        }
      ],
      "name": "assignAuditor",
      "outputs": [],
      "stateMutability": "nonpayable",
      "type": "function"
    },
    {
      "inputs": [
        {
          "internalType": "address",
          "name": "account",
          "type": "address"
        }
      ],
      "name": "assignBuyer",
      "outputs": [],
      "stateMutability": "nonpayable",
      "type": "function"
    },
    {
      "inputs": [
        {
          "internalType": "address",
          "name": "account",
          "type": "address"
        }
      ],
      "name": "assignInspector",
      "outputs": [],
      "stateMutability": "nonpayable",
      "type": "function"
    },
    {
      "inputs": [
        {
          "internalType": "address",
          "name": "account",
          "type": "address"
        }
      ],
      "name": "assignMiner",
      "outputs": [],
      "stateMutability": "nonpayable",
      "type": "function"
    },
    {
      "inputs": [
        {
          "internalType": "address",
          "name": "account",
          "type": "address"
        }
      ],
      "name": "assignRefiner",
      "outputs": [],
      "stateMutability": "nonpayable",
      "type": "function"
    },
    {
      "inputs": [
        {
          "internalType": "address",
          "name": "account",
          "type": "address"
        }
      ],
      "name": "assignTransporter",
      "outputs": [],
      "stateMutability": "nonpayable",
      "type": "function"
    },
    {
      "inputs": [
        {
          "internalType": "string",
          "name": "mineralId",
          "type": "string"
        }
      ],
      "name": "checkAuditAndInspectionStatus",
      "outputs": [
        {
          "internalType": "bool",
          "name": "isAudited",
          "type": "bool"
        },
        {
          "internalType": "bool",
          "name": "isInspected",
          "type": "bool"
        }
      ],
      "stateMutability": "nonpayable",
      "type": "function"
    },
    {
      "inputs": [
        {
          "internalType": "uint256",
          "name": "dataId",
          "type": "uint256"
        }
      ],
      "name": "deleteSensitiveData",
      "outputs": [],
      "stateMutability": "nonpayable",
      "type": "function"
    },
    {
      "inputs": [],
      "name": "getAllRoleCounts",
      "outputs": [
        {
          "internalType": "uint256",
          "name": "minerCount",
          "type": "uint256"
        },
        {
          "internalType": "uint256",
          "name": "refinerCount",
          "type": "uint256"
        },
        {
          "internalType": "uint256",
          "name": "transporterCount",
          "type": "uint256"
        },
        {
          "internalType": "uint256",
          "name": "auditorCount",
          "type": "uint256"
        },
        {
          "internalType": "uint256",
          "name": "inspectorCount",
          "type": "uint256"
        },
        {
          "internalType": "uint256",
          "name": "buyerCount",
          "type": "uint256"
        }
      ],
      "stateMutability": "view",
      "type": "function"
    },
    {
      "inputs": [
        {
          "internalType": "string",
          "name": "mineralId",
          "type": "string"
        }
      ],
      "name": "getMineralHistory",
      "outputs": [
        {
          "components": [
            {
              "internalType": "string",
              "name": "id",
              "type": "string"
            },
            {
              "internalType": "string",
              "name": "fieldChanged",
              "type": "string"
            },
            {
              "internalType": "string",
              "name": "newValue",
              "type": "string"
            },
            {
              "internalType": "address",
              "name": "updatedBy",
              "type": "address"
            },
            {
              "internalType": "uint256",
              "name": "timestamp",
              "type": "uint256"
            }
          ],
          "internalType": "struct RolesManager.MineralHistory[]",
          "name": "",
          "type": "tuple[]"
        }
      ],
      "stateMutability": "view",
      "type": "function"
    },
    {
      "inputs": [
        {
          "internalType": "bytes32",
          "name": "role",
          "type": "bytes32"
        }
      ],
      "name": "getRoleAdmin",
      "outputs": [
        {
          "internalType": "bytes32",
          "name": "",
          "type": "bytes32"
        }
      ],
      "stateMutability": "view",
      "type": "function"
    },
    {
      "inputs": [
        {
          "internalType": "bytes32",
          "name": "role",
          "type": "bytes32"
        }
      ],
      "name": "getRoleMemberCount",
      "outputs": [
        {
          "internalType": "uint256",
          "name": "count",
          "type": "uint256"
        }
      ],
      "stateMutability": "view",
      "type": "function"
    },
    {
      "inputs": [
        {
          "internalType": "address",
          "name": "account",
          "type": "address"
        }
      ],
      "name": "getRolesForAddress",
      "outputs": [
        {
          "internalType": "string[]",
          "name": "roles",
          "type": "string[]"
        }
      ],
      "stateMutability": "view",
      "type": "function"
    },
    {
      "inputs": [
        {
          "internalType": "uint256",
          "name": "dataId",
          "type": "uint256"
        }
      ],
      "name": "getSensitiveData",
      "outputs": [
        {
          "internalType": "string",
          "name": "",
          "type": "string"
        }
      ],
      "stateMutability": "nonpayable",
      "type": "function"
    },
    {
      "inputs": [
        {
          "internalType": "bytes32",
          "name": "role",
          "type": "bytes32"
        },
        {
          "internalType": "address",
          "name": "account",
          "type": "address"
        }
      ],
      "name": "grantRole",
      "outputs": [],
      "stateMutability": "nonpayable",
      "type": "function"
    },
    {
      "inputs": [
        {
          "internalType": "address",
          "name": "account",
          "type": "address"
        }
      ],
      "name": "hasAdminRole",
      "outputs": [
        {
          "internalType": "bool",
          "name": "",
          "type": "bool"
        }
      ],
      "stateMutability": "view",
      "type": "function"
    },
    {
      "inputs": [
        {
          "internalType": "address",
          "name": "account",
          "type": "address"
        }
      ],
      "name": "hasAuditorRole",
      "outputs": [
        {
          "internalType": "bool",
          "name": "",
          "type": "bool"
        }
      ],
      "stateMutability": "view",
      "type": "function"
    },
    {
      "inputs": [
        {
          "internalType": "address",
          "name": "account",
          "type": "address"
        }
      ],
      "name": "hasBuyerRole",
      "outputs": [
        {
          "internalType": "bool",
          "name": "",
          "type": "bool"
        }
      ],
      "stateMutability": "view",
      "type": "function"
    },
    {
      "inputs": [
        {
          "internalType": "address",
          "name": "account",
          "type": "address"
        }
      ],
      "name": "hasInspectorRole",
      "outputs": [
        {
          "internalType": "bool",
          "name": "",
          "type": "bool"
        }
      ],
      "stateMutability": "view",
      "type": "function"
    },
    {
      "inputs": [
        {
          "internalType": "address",
          "name": "account",
          "type": "address"
        }
      ],
      "name": "hasMinerRole",
      "outputs": [
        {
          "internalType": "bool",
          "name": "",
          "type": "bool"
        }
      ],
      "stateMutability": "view",
      "type": "function"
    },
    {
      "inputs": [
        {
          "internalType": "address",
          "name": "account",
          "type": "address"
        }
      ],
      "name": "hasRefinerRole",
      "outputs": [
        {
          "internalType": "bool",
          "name": "",
          "type": "bool"
        }
      ],
      "stateMutability": "view",
      "type": "function"
    },
    {
      "inputs": [
        {
          "internalType": "bytes32",
          "name": "role",
          "type": "bytes32"
        },
        {
          "internalType": "address",
          "name": "account",
          "type": "address"
        }
      ],
      "name": "hasRole",
      "outputs": [
        {
          "internalType": "bool",
          "name": "",
          "type": "bool"
        }
      ],
      "stateMutability": "view",
      "type": "function"
    },
    {
      "inputs": [
        {
          "internalType": "address",
          "name": "account",
          "type": "address"
        }
      ],
      "name": "hasTransporterRole",
      "outputs": [
        {
          "internalType": "bool",
          "name": "",
          "type": "bool"
        }
      ],
      "stateMutability": "view",
      "type": "function"
    },
    {
      "inputs": [
        {
          "internalType": "string",
          "name": "mineralId",
          "type": "string"
        },
        {
          "internalType": "string",
          "name": "report",
          "type": "string"
        }
      ],
      "name": "inspectMineral",
      "outputs": [],
      "stateMutability": "nonpayable",
      "type": "function"
    },
    {
      "inputs": [
        {
          "internalType": "string",
          "name": "mineralId",
          "type": "string"
        }
      ],
      "name": "isMineralRegistered",
      "outputs": [
        {
          "internalType": "bool",
          "name": "",
          "type": "bool"
        }
      ],
      "stateMutability": "nonpayable",
      "type": "function"
    },
    {
      "inputs": [
        {
          "internalType": "string",
          "name": "",
          "type": "string"
        }
      ],
      "name": "mineralDetails",
      "outputs": [
        {
          "internalType": "string",
          "name": "id",
          "type": "string"
        },
        {
          "internalType": "string",
          "name": "name",
          "type": "string"
        },
        {
          "internalType": "string",
          "name": "origin",
          "type": "string"
        },
        {
          "internalType": "string",
          "name": "mineralType",
          "type": "string"
        },
        {
          "internalType": "uint256",
          "name": "weight",
          "type": "uint256"
        },
        {
          "internalType": "uint256",
          "name": "purityPercentage",
          "type": "uint256"
        },
        {
          "internalType": "string",
          "name": "storageConditions",
          "type": "string"
        },
        {
          "internalType": "address",
          "name": "registeredBy",
          "type": "address"
        },
        {
          "internalType": "string",
          "name": "currentStatus",
          "type": "string"
        },
        {
          "internalType": "string",
          "name": "currentLocation",
          "type": "string"
        },
        {
          "internalType": "address",
          "name": "currentHandler",
          "type": "address"
        },
        {
          "internalType": "bool",
          "name": "isPurchased",
          "type": "bool"
        },
        {
          "internalType": "bool",
          "name": "isRefined",
          "type": "bool"
        },
        {
          "internalType": "bool",
          "name": "isAudited",
          "type": "bool"
        },
        {
          "internalType": "bool",
          "name": "isInspected",
          "type": "bool"
        },
        {
          "internalType": "uint256",
          "name": "timestamp",
          "type": "uint256"
        }
      ],
      "stateMutability": "view",
      "type": "function"
    },
    {
      "inputs": [
        {
          "internalType": "string",
          "name": "",
          "type": "string"
        },
        {
          "internalType": "uint256",
          "name": "",
          "type": "uint256"
        }
      ],
      "name": "mineralHistories",
      "outputs": [
        {
          "internalType": "string",
          "name": "id",
          "type": "string"
        },
        {
          "internalType": "string",
          "name": "fieldChanged",
          "type": "string"
        },
        {
          "internalType": "string",
          "name": "newValue",
          "type": "string"
        },
        {
          "internalType": "address",
          "name": "updatedBy",
          "type": "address"
        },
        {
          "internalType": "uint256",
          "name": "timestamp",
          "type": "uint256"
        }
      ],
      "stateMutability": "view",
      "type": "function"
    },
    {
      "inputs": [
        {
          "internalType": "string",
          "name": "mineralId",
          "type": "string"
        }
      ],
      "name": "purchaseMineral",
      "outputs": [],
      "stateMutability": "nonpayable",
      "type": "function"
    },
    {
      "inputs": [
        {
          "internalType": "string",
          "name": "mineralId",
          "type": "string"
        },
        {
          "internalType": "string",
          "name": "report",
          "type": "string"
        }
      ],
      "name": "refineMineral",
      "outputs": [],
      "stateMutability": "nonpayable",
      "type": "function"
    },
    {
      "inputs": [
        {
          "internalType": "string",
          "name": "_name",
          "type": "string"
        },
        {
          "internalType": "string",
          "name": "_mineralType",
          "type": "string"
        },
        {
          "internalType": "uint256",
          "name": "_weight",
          "type": "uint256"
        },
        {
          "internalType": "string",
          "name": "_origin",
          "type": "string"
        },
        {
          "internalType": "uint256",
          "name": "_purityPercentage",
          "type": "uint256"
        },
        {
          "internalType": "string",
          "name": "_storageConditions",
          "type": "string"
        }
      ],
      "name": "registerMineral",
      "outputs": [
        {
          "internalType": "string",
          "name": "",
          "type": "string"
        }
      ],
      "stateMutability": "nonpayable",
      "type": "function"
    },
    {
      "inputs": [
        {
          "internalType": "bytes32",
          "name": "role",
          "type": "bytes32"
        },
        {
          "internalType": "address",
          "name": "account",
          "type": "address"
        }
      ],
      "name": "renounceRole",
      "outputs": [],
      "stateMutability": "nonpayable",
      "type": "function"
    },
    {
      "inputs": [
        {
          "internalType": "address",
          "name": "account",
          "type": "address"
        },
        {
          "internalType": "string",
          "name": "reason",
          "type": "string"
        }
      ],
      "name": "revokeAuditor",
      "outputs": [],
      "stateMutability": "nonpayable",
      "type": "function"
    },
    {
      "inputs": [
        {
          "internalType": "address",
          "name": "account",
          "type": "address"
        },
        {
          "internalType": "string",
          "name": "reason",
          "type": "string"
        }
      ],
      "name": "revokeBuyer",
      "outputs": [],
      "stateMutability": "nonpayable",
      "type": "function"
    },
    {
      "inputs": [
        {
          "internalType": "address",
          "name": "account",
          "type": "address"
        },
        {
          "internalType": "string",
          "name": "reason",
          "type": "string"
        }
      ],
      "name": "revokeInspector",
      "outputs": [],
      "stateMutability": "nonpayable",
      "type": "function"
    },
    {
      "inputs": [
        {
          "internalType": "address",
          "name": "account",
          "type": "address"
        },
        {
          "internalType": "string",
          "name": "reason",
          "type": "string"
        }
      ],
      "name": "revokeMiner",
      "outputs": [],
      "stateMutability": "nonpayable",
      "type": "function"
    },
    {
      "inputs": [
        {
          "internalType": "address",
          "name": "account",
          "type": "address"
        },
        {
          "internalType": "string",
          "name": "reason",
          "type": "string"
        }
      ],
      "name": "revokeRefiner",
      "outputs": [],
      "stateMutability": "nonpayable",
      "type": "function"
    },
    {
      "inputs": [
        {
          "internalType": "bytes32",
          "name": "role",
          "type": "bytes32"
        },
        {
          "internalType": "address",
          "name": "account",
          "type": "address"
        }
      ],
      "name": "revokeRole",
      "outputs": [],
      "stateMutability": "nonpayable",
      "type": "function"
    },
    {
      "inputs": [
        {
          "internalType": "address",
          "name": "account",
          "type": "address"
        },
        {
          "internalType": "string",
          "name": "reason",
          "type": "string"
        }
      ],
      "name": "revokeTransporter",
      "outputs": [],
      "stateMutability": "nonpayable",
      "type": "function"
    },
    {
      "inputs": [
        {
          "internalType": "bytes32",
          "name": "",
          "type": "bytes32"
        }
      ],
      "name": "roleMemberCount",
      "outputs": [
        {
          "internalType": "uint256",
          "name": "",
          "type": "uint256"
        }
      ],
      "stateMutability": "view",
      "type": "function"
    },
    {
      "inputs": [
        {
          "internalType": "bytes4",
          "name": "interfaceId",
          "type": "bytes4"
        }
      ],
      "name": "supportsInterface",
      "outputs": [
        {
          "internalType": "bool",
          "name": "",
          "type": "bool"
        }
      ],
      "stateMutability": "view",
      "type": "function"
    },
    {
      "inputs": [
        {
          "internalType": "string",
          "name": "mineralId",
          "type": "string"
        },
        {
          "internalType": "address",
          "name": "_receivingParty",
          "type": "address"
        },
        {
          "internalType": "string",
          "name": "_origin",
          "type": "string"
        },
        {
          "internalType": "string",
          "name": "_destination",
          "type": "string"
        }
      ],
      "name": "transferMineral",
      "outputs": [],
      "stateMutability": "nonpayable",
      "type": "function"
    }
  ],
  "transactionHash": "0x7ad76679e598acdb2186052c730387ec79bc4df3235aa305442f2dfe6fbf455d",
  "args": [],
  "numDeployments": 1,
  "solcInputHash": "7c3d72a177373b46b126c9cb9d71da65",
  "bytecode": "0x6080604090808252346200058657434201804211620005705760019081556000808052602092818452848220338352845260ff8086842054161562000539575b828052600491828652868420908154916000199283811462000413578701905584805283875285888620554281527f458ea7e03b3466b3cf9bc2d66ddea8b11fe9469982816f42666888e6c8c6e664873392a27fa952726ef2588ad078edf35b066f7c7406e207cb0003bbaba8cb53eba9553e7280855284875287852033865287528288862054161562000502575b80855283875287852080548381146200041357870190558452828652848785205586514281527f593f046317558c2857b92915c62c99f2d2108f7bc6f1e1b3c5376cd559abf559873392a27f59a1c48e5837ad7a7f3dcedcbe129bf3249ec4fbf651fd4f5e2600ead39fe2f5808552848752878520338652875282888620541615620004cb575b80855283875287852080548381146200041357870190558452828652848785205586514281527f4a02edd19f09212e54b2ac85d7d3a4a2e3fbf424e6710c3f817d9b4cecc9cdb3873392a27f273dcf2136c7d8ef632bb8ef13dbca69a8f36fa620c7468671b3153d46a211c080855284875287852033865287528288862054161562000494575b80855283875287852080548381146200041357870190558452828652848785205586514281527f49cc27c2a068c01cf703c3923dfc679109b5f6c27bd1f61b542c159e3a73e092873392a27ff8cd32ed93fc2f9fc78152a14807c9609af3d99c5fe4dc6b106a801aaddfe90e8085528487528785203386528752828886205416156200045d575b80855283875287852080548381146200041357870190558452828652848785205586514281527ff8ed9ac482b0f7c12999b3f157f758f84e39cd339fa301ea203823ac29e97505873392a27fa977e1a3444218ff332edf735c56487bbe59922b15c88777d443eb8b78020f4d80855284875287852033865287528288862054161562000426575b80855283875287852080548381146200041357870190558452828652848785205586514281527f4e3eede475de92d3e23765b737dbb67646352b3328c1a437d7f089766d7be751873392a27fddaa901e2fe3bda354fe0ede2785152d5c109282a613fe024a056a3e66c41bb3918285528487528785203386528752878520541615620003dc575b818452828652868420908154908114620003c957850190558252835283902055815142815233917f964e50cb3bdb84c00a30f56ae15d538d23dc6db14f891d7d819761b161e990a691a25161496990816200058c8239f35b634e487b7160e01b855260118452602485fd5b81845283865286842033855286528684208560ff1982541617905533338360008051602062004ef58339815191528780a462000371565b634e487b7160e01b875260118652602487fd5b80855284875287852033865287528785208660ff1982541617905533338260008051602062004ef58339815191528880a4620002ea565b80855284875287852033865287528785208660ff1982541617905533338260008051602062004ef58339815191528880a462000263565b80855284875287852033865287528785208660ff1982541617905533338260008051602062004ef58339815191528880a4620001dc565b80855284875287852033865287528785208660ff1982541617905533338260008051602062004ef58339815191528880a462000155565b80855284875287852033865287528785208660ff1982541617905533338260008051602062004ef58339815191528880a4620000ce565b82805282855285832033845285528583208460ff1982541617905533338460008051602062004ef58339815191528180a46200003f565b634e487b7160e01b600052601160045260246000fd5b600080fdfe608080604052600436101561001357600080fd5b60003560e01c90816301ffc9a714613e9e57508063049c0cc414613b275780630958fc2d14613a7e5780630dacad2e146139d5578063126ee338146136a0578063248a9ca3146136715780632f2ff15d146135be578063309514df1461354a5780633499c3a2146134e857806335ba6207146133e957806336568abe1461335757806336c9db9b1461326d578063372ba1cd1461319d5780633a7adea51461206b578063480d1dd314611fc25780634e2a310914611ec95780634eabbe7714611ea05780635aee1b1514611c7d5780636377741d14611bd45780636394f6e614611bab5780636e1d616e14611b8257806370e22e4214611b2057806375a2b0d41461194c57806379451cd7146119235780637a01a1da146118fa5780637ae9c160146118865780637cde2b991461177b578063826fe0f5146115565780638850845f146114f457806391d14854146114a757806399691194146113975780639b188dd614611323578063a217fddf14611307578063a917601b1461125e578063abaa536f1461120e578063ac851dfd1461113c578063b6ba1ca714611110578063b9c5b83314610feb578063beae461514610f89578063c395fcb314610f27578063ca15c87314610e3d578063cc82b09014610d26578063d547741f14610ce5578063de7ce39114610c83578063df422bf21461075c578063e3a3c52214610733578063e438fdf8146106bf578063f17f3523146104b2578063f5716a851461038d5763fc1032eb1461024557600080fd5b346103885761025336613fe5565b61025b6142fa565b61026482614218565b156103765761030c7f93e936184fad9f80c7000aa987f91be0cd621bacde11839fdc7139f3d9c2407b916000805160206148f483398151915280600052602090600082526102b96001604060002001546144c6565b600081815280835260408082206001600160a01b0390981680835297845290205460ff16610329575b600052600481526040600020805480610317575b5050604051928392604084526040840190614136565b9042908301520390a2005b6103209061464a565b905538806102f6565b80600052600082526040600020866000528252604060002060ff1981541690553386827ff6391f5c32d9c69d2a47ea670b442974b53935d1edc7fd64eb21e047a839171b600080a46102e2565b604051632ac1560560e21b8152600490fd5b600080fd5b346103885761039b36613fe5565b6103a36142fa565b6103ac82614280565b156103765761030c7f4614600adaea632b1e4c381ad24471dab7b587dca104c8dd4da76bc64f19716f9160008051602061491483398151915280600052602090600082526104016001604060002001546144c6565b600081815280835260408082206001600160a01b0390981680835297845290205460ff16610465575b600052600481526040600020805480610453575050604051928392604084526040840190614136565b61045c9061464a565b905585806102f6565b80600052600082526040600020866000528252604060002060ff1981541690553386827ff6391f5c32d9c69d2a47ea670b442974b53935d1edc7fd64eb21e047a839171b600080a461042a565b34610388576080366003190112610388576001600160401b03600435818111610388576104e3903690600401613f63565b906104ec613fcf565b9060443581811161038857610505903690600401613f63565b906064359081116103885761051e903690600401613f63565b9060008051602061487483398151915260005260209260008452604060002033600052845260ff60406000205416156106a7576001600160a01b03168015610695578151156106835782511561067157604051600160ff600a8851938881818c019661058b81838a614027565b81016002815203019020015460a01c1615151461064b579361063c939261062e92600a6105e6847f55b00b3c29344a545244b18d70b135e423405427088bd5425f13d690b82310b4998b604051938492839251928391614027565b8101600281520301902001336bffffffffffffffffffffffff60a01b82541617905561061d6040519860a08a5260a08a0190614136565b928801528682036040880152614136565b908482036060860152614136565b914260808201528033930390a2005b604051632072bb0160e11b8152600481018690528061066d6024820189614136565b0390fd5b604051635dbef47560e01b8152600490fd5b6040516326813e6f60e01b8152600490fd5b60405163bea3fd2f60e01b8152600490fd5b604051630568555f60e41b8152336004820152602490fd5b34610388576106cd36613fe5565b6106d56142fa565b6106de82614243565b156103765761030c7f352e14c53d161e2481e65145b53265d1608f979a93a06df66d4c99b2a84ddc639160008051602061489483398151915280600052602090600082526104016001604060002001546144c6565b346103885760003660031901126103885760206040516000805160206148948339815191528152f35b3461038857602080600319360112610388576001600160a01b0361077e613fb9565b168015610c71576000906000805260008352604060002081600052835260ff8060406000205416610c68575b6000805160206148d483398151915291826000526000855260406000208160005285528160406000205416610c58575b600080516020614914833981519152806000526000865260406000208260005286528260406000205416610c48575b600080516020614874833981519152806000526000875260406000208360005287528360406000205416610c38575b6000805160206148f4833981519152806000526000885260406000208460005288528460406000205416610c28575b60008051602061489483398151915291826000526000895260406000208560005289528560406000205416610c18575b6000805160206148b4833981519152938460005260008a526040600020866000528a528660406000205416610c08575b6108d08961479a565b986108de6040519a8b613f42565b808a526108ed601f199161479a565b018a8a60005b838110610bf757505050506000976000805260008b526040600020876000528b528760406000205416610bbc575b60005260008a526040600020866000528a528660406000205416610b7f575b6000526000895260406000208560005289528560406000205416610b40575b6000526000885260406000208460005288528460406000205416610afd575b6000526000875260406000208360005287528360406000205416610abe575b6000526000865260406000208260005286528260406000205416610a7d575b60005260008552604060002090600052845260406000205416610a3a575b506040519082820192808352815180945260408301938160408260051b8601019301916000955b828710610a0e5785850386f35b909192938280610a2a600193603f198a82030186528851614136565b9601920196019592919092610a01565b610a7690604051610a4a81613f0c565b6005815264212aaca2a960d91b85820152610a6582856147be565b52610a7081846147be565b5061478b565b50826109da565b92610ab890604051610a8e81613f0c565b600981526824a729a822a1aa27a960b91b88820152610aad82886147be565b52610a7081876147be565b926109bc565b93610af790604051610acf81613f0c565b600781526620aaa224aa27a960c91b89820152610aec82896147be565b52610a7081886147be565b9361099d565b94610b3a90604051610b0e81613f0c565b600b81526a2a2920a729a827a92a22a960a91b8a820152610b2f828a6147be565b52610a7081896147be565b9461097e565b95610b7990604051610b5181613f0c565b60078152662922a324a722a960c91b8b820152610b6e828b6147be565b52610a70818a6147be565b9561095f565b96610bb690604051610b9081613f0c565b600581526426a4a722a960d91b8c820152610bab828c6147be565b52610a70818b6147be565b96610940565b9750604051610bca81613f0c565b600581526420a226a4a760d91b8b820152610be48a6147b1565b52610bee896147b1565b50600197610921565b606083828194010152018b906108f3565b97610c129061478b565b976108c7565b96610c229061478b565b96610897565b95610c329061478b565b95610867565b94610c429061478b565b94610838565b93610c529061478b565b93610809565b92610c629061478b565b926107da565b600192506107aa565b60405163200db56f60e11b8152600490fd5b3461038857602036600319011261038857610c9c613fb9565b6001600160a01b031660009081527f4130a4caca6023b0ba21488ee680ce5c3df22860b1cd8b02cd2a0bcb0de98851602090815260409182902054915160ff9092161515825290f35b3461038857604036600319011261038857610d24600435610d04613fcf565b90806000526000602052610d1f6001604060002001546144c6565b6145c5565b005b346103885760208060031936011261038857610d40613fb9565b6001600160a01b03811691908215610c7157610d6390610d5e6142fa565b614243565b610e2b577f49cc27c2a068c01cf703c3923dfc679109b5f6c27bd1f61b542c159e3a73e092906000805160206148948339815191528060005260008252604060002084600052825260ff6040600020541615610ddb575b600052600481526040600020610dd0815461478b565b9055604051428152a2005b806000526000825260406000208460005282526040600020600160ff198254161790553384827f2f8788117e7eff1d82e926ec794901d17c78024a50270940304540a733656f0d600080a4610dba565b6040516314726de560e21b8152600490fd5b34610388576020366003190112610388576004356000805160206148d483398151915281148015610f10575b8015610ef9575b8015610ee2575b8015610ecb575b8015610eb4575b15610ea25760005260046020526020604060002054604051908152f35b604051636b9c461160e01b8152600490fd5b506000805160206148b48339815191528114610e85565b506000805160206148948339815191528114610e7e565b506000805160206148f48339815191528114610e77565b506000805160206148748339815191528114610e70565b506000805160206149148339815191528114610e69565b3461038857602036600319011261038857610f40613fb9565b6001600160a01b031660009081527fad3228b676f7d3cd4284a5443f17f1962b36e491b30a40b2405849e597ba5fb5602090815260409182902054915160ff9092161515825290f35b3461038857602036600319011261038857610fa2613fb9565b6001600160a01b031660009081527ff3fa603c74bfe2a4719960e47343678c3dc690d2b27a2295acc6fc430833aaf9602090815260409182902054915160ff9092161515825290f35b3461038857600036600319011261038857600460209081527f973ccc145476ef147b966a44694f8b2d26bac5a3d44a844fec6be696fe5fea70547f02ff85b9f193a3a7824cbaf5a79db262c0bac955152adf2752c6413d76b2d3c7547f0e08e55c6329ca2d4f38429c472032b4e97537c869a64c376bb7e702721eb8c3547fa792fa383e6bd9c6b4465bbfd8031f4b47377210fa121067c03906e9afac6246547f9d423956391424a558206d539d4c7b96f2596f9d71b6fe92efe1f071a870ba94546000805160206148b48339815191526000527f5455ba4b8a75b33fa0f1f7affd9817680912f06b7b194bcf9ac01183c4930020546040805196875296860194909452948401919091526060830152608082019290925260a081019190915260c090f35b346103885760203660031901126103885760043560005260046020526020604060002054604051908152f35b3461038857602080600319360112610388576004356001600160401b0381116103885761116d903690600401613f63565b8051156111eb576040516111a76111ae835192858181870195611191818389614027565b81016002815203019020604051928380926140a0565b0382613f42565b8381519101209082519020036111c8575060405160018152f35b9061066d6040519283926311bb0bc960e31b845260048401526024830190614136565b9061066d60405192839263f855236d60e01b845260048401526024830190614136565b3461038857602036600319011261038857611227613fb9565b6001600160a01b03166000908152600080516020614854833981519152602090815260409182902054915160ff9092161515825290f35b346103885760208060031936011261038857611278613fb9565b6001600160a01b03811691908215610c715761129b906112966142fa565b6142bd565b610e2b577f964e50cb3bdb84c00a30f56ae15d538d23dc6db14f891d7d819761b161e990a6906000805160206148748339815191528060005260008252604060002084600052825260ff6040600020541615610ddb57600052600481526040600020610dd0815461478b565b3461038857600036600319011261038857602060405160008152f35b346103885761133136613fe5565b6113396142fa565b611342826141db565b156103765761030c7f69e94e373f69f3f945457a07b335722310788af9cd459a33df6f72cc9e964043916000805160206148b483398151915280600052602090600082526104016001604060002001546144c6565b34610388576113a53661415b565b3360009081527facfff8a39fb957d9d1c8e3ef9f08385e3fcf7bb23ab7ba0ad0f8df93dbde6a68602090815260409091205491929160ff16156106a757604051600160ff600a8551938581818901966113ff81838a614027565b81016002815203019020015460b81c161515146114845791600a61145361147f937f3a9eebd240f4c9f631531ebc672c4c040de483b868ccebe8a3a1fdad70cde0d995604051809381928751928391614027565b8101600281520301902001600160b81b60ff60b81b19825416179055604051918291339542918461475d565b0390a2005b5061066d604051928392636f5f944160e11b845260048401526024830190614136565b34610388576040366003190112610388576114c0613fcf565b600435600052600060205260406000209060018060a01b0316600052602052602060ff604060002054166040519015158152f35b346103885760203660031901126103885761150d613fb9565b6001600160a01b031660009081527facfff8a39fb957d9d1c8e3ef9f08385e3fcf7bb23ab7ba0ad0f8df93dbde6a68602090815260409182902054915160ff9092161515825290f35b3461038857602080600319360112610388576004356001600160401b03811161038857611587903690600401613f63565b604051908051906111a76115be858301936115a3818787614027565b850194868160029788815203019020604051928380926140a0565b8481519101208151908184201490811591611772575b50611760578284916115ee60405194859251928391614027565b8301928281600395868152030190209081549061160a8261479a565b946116186040519687613f42565b82865284860191829460005285600020916000935b8585106116de57604080518981528a51818b01819052600092600582901b83018101918b918d9085015b8287106116645785850386f35b909192938280600192603f198982030185528751906116b36116a1611691845160a0808652850190614136565b8585015184820387860152614136565b60408401518382036040850152614136565b916060868060a01b038183015116908301526080809101519101529601920196019592919092611657565b60058860019260409b9a9b516116f381613ef1565b604051611704816111a7818c6140a0565b8152604051611719816111a781898d016140a0565b83820152604051611730816111a7818b8d016140a0565b6040820152848060a01b03868901541660608201526004880154608082015281520194019401939297969761162d565b6040516329d7b10b60e11b8152600490fd5b905015856115d4565b34610388576117893661415b565b3360009081527f4130a4caca6023b0ba21488ee680ce5c3df22860b1cd8b02cd2a0bcb0de98851602090815260409091205491929160ff16156106a757604051600160ff600a8551938581818901966117e381838a614027565b81016002815203019020015460a81c161515146118635791600a61183761147f937fa214f45af6d86b0d5ff7bb48f888cf4205e4a383da35fcbebfdbd9bd8e6d5a7c95604051809381928751928391614027565b8101600281520301902001600160a81b60ff60a81b19825416179055604051918291339542918461475d565b5061066d60405192839263701203b760e01b845260048401526024830190614136565b346103885761189436613fe5565b61189c6142fa565b6118a5826142bd565b156103765761030c7f71577b91708c73ee54b43c6709958ff42e4bcc084910648ce7c3d16928b51d529160008051602061487483398151915280600052602090600082526104016001604060002001546144c6565b346103885760003660031901126103885760206040516000805160206148b48339815191528152f35b346103885760003660031901126103885760206040516000805160206149148339815191528152f35b3461038857602080600319360112610388576004356001600160401b0381116103885761197d903690600401613f63565b906000805260008152604060002033600052815260ff60406000205416156106a7576040516111a76119bc845192848181880195611191818389614027565b8281519101208351908183201490811591611b17575b506117605760ff600a604051848187516119ed818389614027565b81016002815203019020015460b01c1680611aeb575b15611ac8579060ff600a611aa983604096958751606081527f10f4ba4c7bb6f0c442f54585004a6e24440bea5c2d2e6f36b688e3e624762e22611a49606083018a614136565b916b54726164696e67526561647960a01b85828503948582850152600c81520152428b8201528a33930190a28484895184818b51611a88818389614027565b81016002815203019020015460b01c16968851938492839251928391614027565b81016002815203019020015460b81c1683519215158352151590820152f35b5061066d6040519283926348cddbdb60e11b845260048401526024830190614136565b5060ff600a60405184818751611b02818389614027565b81016002815203019020015460b81c16611a03565b905015846119d2565b3461038857602036600319011261038857611b39613fb9565b6001600160a01b031660009081527fbce5fd3347e0dc338dcc0e895534dd4af2740eec95f56cd4ca4b4b2ada357ca0602090815260409182902054915160ff9092161515825290f35b346103885760003660031901126103885760206040516000805160206148f48339815191528152f35b346103885760003660031901126103885760206040516000805160206148d48339815191528152f35b346103885760208060031936011261038857611bee613fb9565b6001600160a01b03811691908215610c7157611c1190611c0c6142fa565b614280565b610e2b577f4e3eede475de92d3e23765b737dbb67646352b3328c1a437d7f089766d7be751906000805160206149148339815191528060005260008252604060002084600052825260ff6040600020541615610ddb57600052600481526040600020610dd0815461478b565b34610388576020366003190112610388576004356001600160401b03811161038857611cad903690600401613f63565b6040518181809351602081930191611cc492614027565b81016002815203602001902060405180611cde81846140a0565b03611ce99082613f42565b6040519182611cfb81600184016140a0565b03611d069084613f42565b60405180611d1781600285016140a0565b03611d229082613f42565b6040519182611d3481600384016140a0565b03611d3f9084613f42565b60048101546005820154604051949185611d5c81600687016140a0565b03611d679087613f42565b60078401546040516001600160a01b0397909391881692909184611d8e8160088a016140a0565b03611d999086613f42565b6040519586611dab8160098b016140a0565b03611db69088613f42565b600a88015497600b0154986040519c8d9c8d6102009081815201611dd991614136565b8d810360208f0152611dea91614136565b8c810360408e0152611dfb91614136565b8b810360608d0152611e0c91614136565b9160808b015260a08a015288810360c08a0152611e2891614136565b9060e0880152868103610100880152611e4091614136565b858103610120870152611e5291614136565b9281166101408501528060a01c60ff1615156101608501528060a81c60ff1615156101808501528060b01c60ff1615156101a085015260b81c60ff1615156101c08401526101e08301520390f35b346103885760003660031901126103885760206040516000805160206148748339815191528152f35b3461038857611ed73661415b565b336000908152600080516020614854833981519152602090815260409091205491929160ff16156106a757604051600160ff600a855193858181890196611f1f81838a614027565b81016002815203019020015460b01c16151514611f9f5791600a611f7361147f937fa9de1934279a83f8cfaaecf6a7002ac10aeaea244c8c763f3752f3fc4c3e631d95604051809381928751928391614027565b8101600281520301902001600160b01b60ff60b01b19825416179055604051918291339542918461475d565b5061066d60405192839263c817400d60e01b845260048401526024830190614136565b346103885760208060031936011261038857611fdc613fb9565b6001600160a01b03811691908215610c7157611fff90611ffa6142fa565b614218565b610e2b577f4a02edd19f09212e54b2ac85d7d3a4a2e3fbf424e6710c3f817d9b4cecc9cdb3906000805160206148f48339815191528060005260008252604060002084600052825260ff6040600020541615610ddb57600052600481526040600020610dd0815461478b565b346103885760c0366003190112610388576004356001600160401b0381116103885761209b903690600401613f63565b6024356001600160401b038111610388576120ba903690600401613f63565b906064356001600160401b038111610388576120da903690600401613f63565b9060a4356001600160401b038111610388576120fa903690600401613f63565b3360009081527fbb3fcc25fbffa12ea463b3505377899a4d5ddb4858b9c7bd36764686d9425b36602052604090205490929060ff16156106a75781511561318b578051156106835783511561317957604435156131675760843515801561315b575b613149576050608435111561312f5782511561311d5760015461217e8161478b565b6001556040516121c6607482602081019460206121a18b88815193849201614027565b8201903360601b60208301524260348301526054820152036054810184520182613f42565b51902092604051936121d785613f0c565b600a8552602036818701378451156131075760306020860153845160011015613107576078602186015360005b6004811061307457505061225960216040518096885161222b816020850160208d01614027565b8201602d60f81b602082015261224a8251809360208785019101614027565b01036001810187520185613f42565b60405190816102008101106001600160401b0361020084011117612a14576102008201604052848252836020830152826040830152856060830152604435608083015260843560a083015260c08201523360e08201526040516122bb81613f0c565b600381526252617760e81b60208201526101008201526040516122dd81613f0c565b600d81526c26b4b734b7339021b2b73a32b960991b6020820152610120820152336101408201526000610160820152600061018082015260006101a082015260006101c0820152426101e082015260405160208186516123408183858b01614027565b810160028152030190209080518051906001600160401b038211612a1457819061236a8554614066565b601f8111613042575b50602090601f8311600114612fd657600092612fcb575b50508160011b916000199060031b1c19161782555b60208101518051906001600160401b038211612a145781906123c46001860154614066565b601f8111612f96575b50602090601f8311600114612f2457600092612f19575b50508160011b916000199060031b1c19161760018301555b60408101518051906001600160401b038211612a145781906124216002860154614066565b601f8111612ee4575b50602090601f8311600114612e7257600092612e67575b50508160011b916000199060031b1c19161760028301555b60608101518051906001600160401b038211612a1457819061247e6003860154614066565b601f8111612e32575b50602090601f8311600114612dc057600092612db5575b50508160011b916000199060031b1c19161760038301555b6080810151600483015560a0810151600583015560c08101518051906001600160401b038211612a145781906124ef6006860154614066565b601f8111612d80575b50602090601f8311600114612d0e57600092612d03575b50508160011b916000199060031b1c19161760068301555b60e08101516007830180546001600160a01b0319166001600160a01b03929092169190911790556101008101518051906001600160401b038211612a145781906125746008860154614066565b601f8111612cce575b50602090601f8311600114612c5c57600092612c51575b50508160011b916000199060031b1c19161760088301555b6101208101518051906001600160401b038211612a14576125d06009850154614066565b601f8111612c1c575b50602090601f8311600114612ba6579180600b94926101e094600092612b9b575b50508160011b916000199060031b1c19161760098501555b600a840160018060a01b036101408301511681549060ff60a01b610160850151151560a01b1660ff60a81b610180860151151560a81b169060ff60b01b6101a0870151151560b01b169260ff60b81b6101c0880151151560b81b16946001600160401b0360c01b16171717171790550151910155604051602081855161269b8183858a01614027565b81016003815203019020936040519467027b934b3b4b71d160c51b60208701526126e360288785516126d38184840160208a01614027565b8101036008810189520187613f42565b604051956126f087613ef1565b8587526040516126ff81613f0c565b600a815269149959da5cdd195c995960b21b602082015260208801526040870152336060870152426080870152805468010000000000000000811015612a145761274e9160018201815561404a565b612b855785518051906001600160401b038211612a145781906127718454614066565b601f8111612b53575b50602090601f8311600114612ae757600092612adc575b50508160011b916000199060031b1c19161781555b60208601518051906001600160401b038211612a145781906127cb6001850154614066565b601f8111612aa7575b50602090601f8311600114612a3557600092612a2a575b50508160011b916000199060031b1c19161760018201555b60408601519586516001600160401b038111612a14576128266002840154614066565b601f81116129d4575b506020601f821160011461293357926004608061062e94846128f398957f73c819068ba25b88a32cb91f9b552ab50d9cccb7c4abdeb2a04f44373b7153939a986129249e600092612928575b50508160011b916000199060031b1c19161760028501555b6003840160018060a01b036060830151166bffffffffffffffffffffffff60a01b82541617905501519101556128e56040519660e088526128d760e089018a614136565b9088820360208a0152614136565b908682036040880152614136565b91604435608082015260843560a08201524260c08201528033930390a2604051918291602083526020830190614136565b0390f35b015190508e8061287b565b6002840160005260206000209860005b601f19841681106129bc5750608061062e946001856129249d7f73c819068ba25b88a32cb91f9b552ab50d9cccb7c4abdeb2a04f44373b7153939b99966004966128f39c99601f198116106129a3575b505050811b016002850155612893565b015160001960f88460031b161c191690558e8080612993565b828201518b556001909a019960209283019201612943565b612a0490600285016000526020600020601f840160051c81019160208510612a0a575b601f0160051c0190614746565b8861282f565b90915081906129f7565b634e487b7160e01b600052604160045260246000fd5b0151905088806127eb565b9250600184016000526020600020906000935b601f1984168510612a8c576001945083601f19811610612a73575b505050811b016001820155612803565b015160001960f88460031b161c19169055888080612a63565b81810151835560209485019460019093019290910190612a48565b612ad690600186016000526020600020601f850160051c81019160208610612a0a57601f0160051c0190614746565b896127d4565b015190508880612791565b9250836000526020600020906000935b601f1984168510612b38576001945083601f19811610612b1f575b505050811b0181556127a6565b015160001960f88460031b161c19169055888080612b12565b81810151835560209485019460019093019290910190612af7565b612b7f90856000526020600020601f850160051c81019160208610612a0a57601f0160051c0190614746565b8961277a565b634e487b7160e01b600052600060045260246000fd5b015190508a806125fa565b906009850160005260206000209160005b601f1985168110612c04575092600b94926001926101e09583601f19811610612beb575b505050811b016009850155612612565b015160001960f88460031b161c191690558a8080612bdb565b91926020600181928685015181550194019201612bb7565b612c4b90600986016000526020600020601f850160051c81019160208610612a0a57601f0160051c0190614746565b886125d9565b015190508880612594565b9250600885016000526020600020906000935b601f1984168510612cb3576001945083601f19811610612c9a575b505050811b0160088301556125ac565b015160001960f88460031b161c19169055888080612c8a565b81810151835560209485019460019093019290910190612c6f565b612cfd90600887016000526020600020601f850160051c81019160208610612a0a57601f0160051c0190614746565b8961257d565b01519050888061250f565b9250600685016000526020600020906000935b601f1984168510612d65576001945083601f19811610612d4c575b505050811b016006830155612527565b015160001960f88460031b161c19169055888080612d3c565b81810151835560209485019460019093019290910190612d21565b612daf90600687016000526020600020601f850160051c81019160208610612a0a57601f0160051c0190614746565b896124f8565b01519050888061249e565b9250600385016000526020600020906000935b601f1984168510612e17576001945083601f19811610612dfe575b505050811b0160038301556124b6565b015160001960f88460031b161c19169055888080612dee565b81810151835560209485019460019093019290910190612dd3565b612e6190600387016000526020600020601f850160051c81019160208610612a0a57601f0160051c0190614746565b89612487565b015190508880612441565b9250600285016000526020600020906000935b601f1984168510612ec9576001945083601f19811610612eb0575b505050811b016002830155612459565b015160001960f88460031b161c19169055888080612ea0565b81810151835560209485019460019093019290910190612e85565b612f1390600287016000526020600020601f850160051c81019160208610612a0a57601f0160051c0190614746565b8961242a565b0151905088806123e4565b9250600185016000526020600020906000935b601f1984168510612f7b576001945083601f19811610612f62575b505050811b0160018301556123fc565b015160001960f88460031b161c19169055888080612f52565b81810151835560209485019460019093019290910190612f37565b612fc590600187016000526020600020601f850160051c81019160208610612a0a57601f0160051c0190614746565b896123cd565b01519050888061238a565b9250846000526020600020906000935b601f1984168510613027576001945083601f1981161061300e575b505050811b01825561239f565b015160001960f88460031b161c19169055888080613001565b81810151835560209485019460019093019290910190612fe6565b61306e90866000526020600020601f850160051c81019160208610612a0a57601f0160051c0190614746565b89612373565b60208110156131075781811a90600f613091818460041c166147d2565b908260011b9360028486048114851517156130f1578581018091116130f1576130c16130c89460001a918c614639565b53166147d2565b9160039081018091116130f1576130e66130ec9360001a9189614639565b5361478b565b612204565b634e487b7160e01b600052601160045260246000fd5b634e487b7160e01b600052603260045260246000fd5b60405163bfccc8e960e01b8152600490fd5b60405163d05db01960e01b81526084356004820152602490fd5b604051633abe7db760e21b8152600490fd5b5060646084351161215c565b60405163fd83f8d960e01b8152600490fd5b60405163a765e58f60e01b8152600490fd5b604051630ac6e45360e31b8152600490fd5b34610388576020366003190112610388576004356131b96142fa565b8060005260056020526131d0604060002054614066565b1561325b5780600052600560205260406000206131ed8154614066565b908161321d575b33837fb62b4625d861d22f151c9471030dc9e30c533959a9fd858de54e4516c7de6b5c600080a3005b81601f600093116001146132355750555b81806131f4565b908083918252613254601f60208420940160051c840160018501614746565b555561322e565b604051636204cd4760e11b8152600490fd5b346103885760208060031936011261038857600435903315610c71576132923361419e565b8015613348575b8015613339575b156133275781600052600581526132bb604060002054614066565b1561325b578161330c92604051600181527fb83b3daf76c6ba71cc471e690f576fa1c4e51025b27973e36dfb39aec6c01c17843392a3600052600581526133136040600020604051938480926140a0565b0383613f42565b612924604051928284938452830190614136565b60405163127ac4a160e21b8152600490fd5b5061334333614243565b6132a0565b5061335233614218565b613299565b3461038857604036600319011261038857613370613fcf565b336001600160a01b0382160361338c57610d24906004356145c5565b60405162461bcd60e51b815260206004820152602f60248201527f416363657373436f6e74726f6c3a2063616e206f6e6c792072656e6f756e636560448201526e103937b632b9903337b91039b2b63360891b6064820152608490fd5b34610388576040366003190112610388576004356001600160401b03811161038857613419903690600401613f63565b6134356020602435928160405193828580945193849201614027565b810160038152030190208054821015610388576134bd916134559161404a565b50604051906134688261330c81846140a0565b60405161347c816111a781600186016140a0565b6134d9604051613493816111a781600288016140a0565b6134cb600460018060a01b036003870154169501549360405197889760a0895260a0890190614136565b908782036020890152614136565b908582036040870152614136565b91606084015260808301520390f35b3461038857602036600319011261038857613501613fb9565b6001600160a01b031660009081527fbb3fcc25fbffa12ea463b3505377899a4d5ddb4858b9c7bd36764686d9425b36602090815260409182902054915160ff9092161515825290f35b346103885761355836613fe5565b6135606142fa565b6135698261419e565b156103765761030c7f125f88db22967983b401f70f6804d47f43cb545fcb725d0b335fe7d43d9b4a4a916000805160206148d483398151915280600052602090600082526104016001604060002001546144c6565b34610388576040366003190112610388576004356135da613fcf565b8160005260006020526135f46001604060002001546144c6565b81600052600060205260406000209060018060a01b0316908160005260205260ff604060002054161561362357005b8160005260006020526040600020816000526020526040600020600160ff1982541617905533917f2f8788117e7eff1d82e926ec794901d17c78024a50270940304540a733656f0d600080a4005b346103885760203660031901126103885760043560005260006020526020600160406000200154604051908152f35b3461038857602080600319360112610388576004356001600160401b038111610388576136d1903690600401613f63565b906000805160206148b483398151915260005260008152604060002033600052815260ff918260406000205416156106a75760405181519383830194613718818488614027565b8201906001816002938481528588600a97889303019020015460a01c161515146139b357600080526000855260406000203360005285528060406000205416156106a7576111a761378b6040518781806137768c8b51928391614027565b810187815203019020604051928380926140a0565b85815191012084519081882014908115916139aa575b506117605780836040518781806137bc8c8b51928391614027565b810187815203019020015460b01c168061397f575b1561395d57604051606081527f10f4ba4c7bb6f0c442f54585004a6e24440bea5c2d2e6f36b688e3e624762e2261380b6060830187614136565b916b54726164696e67526561647960a01b88828503948582850152600c81520152426040820152604033930190a2808360405187818061384f8c8b51928391614027565b810187815203019020015460b01c1690836040518781806138748c8b51928391614027565b810187815203019020015460b81c1681613955575b501561393357837ffed1001c142a7ab386454a2f7d78b013ba7ff40595d10c128f2fb6463ccd7b7a94956138f79284604051848189516138ca818389614027565b81018581520301902001805460ff60a01b1916600160a01b17905560405186519094859382908590614027565b8201908152030190200180546001600160a01b03191633179055604080518181529161392591830190614136565b9242908201528033930390a2005b6040516348cddbdb60e11b8152600481018590528061066d6024820186614136565b905086613889565b6040516348cddbdb60e11b8152600481018690528061066d6024820187614136565b5080836040518781806139968c8b51928391614027565b810187815203019020015460b81c166137d1565b905015876137a1565b604051632072bb0160e11b8152600481018690528061066d6024820187614136565b3461038857602080600319360112610388576139ef613fb9565b6001600160a01b03811691908215610c7157613a1290613a0d6142fa565b6141db565b610e2b577ff8ed9ac482b0f7c12999b3f157f758f84e39cd339fa301ea203823ac29e97505906000805160206148b48339815191528060005260008252604060002084600052825260ff6040600020541615610ddb57600052600481526040600020610dd0815461478b565b346103885760208060031936011261038857613a98613fb9565b6001600160a01b03811691908215610c7157613abb90613ab66142fa565b61419e565b610e2b577f593f046317558c2857b92915c62c99f2d2108f7bc6f1e1b3c5376cd559abf559906000805160206148d48339815191528060005260008252604060002084600052825260ff6040600020541615610ddb57600052600481526040600020610dd0815461478b565b34610388576040366003190112610388576001600160401b036004356024803583811161038857613b5c903690600401613f63565b33600090815260008051602061485483398151915260209081526040909120549194916000805160206148f48339815191529060ff1615613cea5750845115613cd85783600052600581526040600020928551928311613cc45750613bc18354614066565b601f8111613c94575b5080601f8311600114613c2d575081929394600092613c22575b50508160011b916000199060031b1c19161790555b33907f7c17cbcab67b0d27c81330fe9e0350d15d98a0fca31c1a16e1b16af9a5430e2b600080a3005b015190508480613be4565b90601f198316958460005282600020926000905b888210613c7c57505083600195969710613c63575b505050811b019055613bf9565b015160001960f88460031b161c19169055848080613c56565b80600185968294968601518155019501930190613c41565b613cbe908460005282600020601f850160051c810191848610612a0a57601f0160051c0190614746565b85613bca565b634e487b7160e01b60009081526041600452fd5b6040516319b7eb6b60e01b8152600490fd5b909150613cf633614657565b90604051613d0381613f27565b60428152838101916060368437815115613e8957603083538151600190811015613e7457607860218401536041905b808211613e1b575050613dd957604861066d93613dae93613dbd9360405195869376020b1b1b2b9b9a1b7b73a3937b61d1030b1b1b7bab73a1604d1b8a860152613d85815180928c603789019101614027565b8401917001034b99036b4b9b9b4b733903937b6329607d1b603784015251809386840190614027565b01036028810184520182613f42565b60405193849362461bcd60e51b85526004850152830190614136565b606485856040519162461bcd60e51b83528160048401528201527f537472696e67733a20686578206c656e67746820696e73756666696369656e746044820152fd5b9091600f8116906010821015613e5f57613e59916f181899199a1a9b1b9c1cb0b131b232b360811b901a613e4f8587614639565b5360041c9261464a565b90613d32565b88634e487b7160e01b60005260326004526000fd5b86634e487b7160e01b60005260326004526000fd5b85634e487b7160e01b60005260326004526000fd5b34610388576020366003190112610388576004359063ffffffff60e01b821680920361038857602091637965db0b60e01b8114908115613ee0575b5015158152f35b6301ffc9a760e01b14905083613ed9565b60a081019081106001600160401b03821117612a1457604052565b604081019081106001600160401b03821117612a1457604052565b608081019081106001600160401b03821117612a1457604052565b90601f801991011681019081106001600160401b03821117612a1457604052565b81601f82011215610388578035906001600160401b038211612a145760405192613f97601f8401601f191660200185613f42565b8284526020838301011161038857816000926020809301838601378301015290565b600435906001600160a01b038216820361038857565b602435906001600160a01b038216820361038857565b906040600319830112610388576004356001600160a01b03811681036103885791602435906001600160401b0382116103885761402491600401613f63565b90565b60005b83811061403a5750506000910152565b818101518382015260200161402a565b8054821015613107576000526005602060002091020190600090565b90600182811c92168015614096575b602083101461408057565b634e487b7160e01b600052602260045260246000fd5b91607f1691614075565b90600092918054916140b183614066565b91828252600193848116908160001461411357506001146140d3575b50505050565b90919394506000526020928360002092846000945b8386106140ff5750505050010190388080806140cd565b8054858701830152940193859082016140e8565b9294505050602093945060ff191683830152151560051b010190388080806140cd565b9060209161414f81518092818552858086019101614027565b601f01601f1916010190565b906040600319830112610388576001600160401b03600435818111610388578361418791600401613f63565b926024359182116103885761402491600401613f63565b6001600160a01b031660009081527fbb3fcc25fbffa12ea463b3505377899a4d5ddb4858b9c7bd36764686d9425b36602052604090205460ff1690565b6001600160a01b031660009081527ff3fa603c74bfe2a4719960e47343678c3dc690d2b27a2295acc6fc430833aaf9602052604090205460ff1690565b6001600160a01b03166000908152600080516020614854833981519152602052604090205460ff1690565b6001600160a01b031660009081527facfff8a39fb957d9d1c8e3ef9f08385e3fcf7bb23ab7ba0ad0f8df93dbde6a68602052604090205460ff1690565b6001600160a01b031660009081527f4130a4caca6023b0ba21488ee680ce5c3df22860b1cd8b02cd2a0bcb0de98851602052604090205460ff1690565b6001600160a01b031660009081527fbce5fd3347e0dc338dcc0e895534dd4af2740eec95f56cd4ca4b4b2ada357ca0602052604090205460ff1690565b3360009081527fad3228b676f7d3cd4284a5443f17f1962b36e491b30a40b2405849e597ba5fb5602090815260408083205490929060ff161561433c57505050565b61434533614657565b908084519061435382613f27565b604282528482019260603685378251156144b25760308453825160019081101561449e5790607860218501536041915b8083116144445750505061440257604861066d9386936143e6936143d7985198899376020b1b1b2b9b9a1b7b73a3937b61d1030b1b1b7bab73a1604d1b8a860152613d85815180928c603789019101614027565b01036028810187520185613f42565b5192839262461bcd60e51b845260048401526024830190614136565b60648486519062461bcd60e51b825280600483015260248201527f537472696e67733a20686578206c656e67746820696e73756666696369656e746044820152fd5b909192600f8116601081101561448a5761448391906f181899199a1a9b1b9c1cb0b131b232b360811b901a6144798688614639565b5360041c9361464a565b9190614383565b634e487b7160e01b84526032600452602484fd5b634e487b7160e01b82526032600452602482fd5b634e487b7160e01b81526032600452602490fd5b600090808252602090828252604092838120338252835260ff8482205416156144ef5750505050565b6144f833614657565b9184519061450582613f27565b604282528482019260603685378251156144b25760308453825160019081101561449e5790607860218501536041915b8083116145895750505061440257604861066d9386936143e6936143d7985198899376020b1b1b2b9b9a1b7b73a3937b61d1030b1b1b7bab73a1604d1b8a860152613d85815180928c603789019101614027565b909192600f8116601081101561448a576145be91906f181899199a1a9b1b9c1cb0b131b232b360811b901a6144798688614639565b9190614535565b9060009180835282602052604083209160018060a01b03169182845260205260ff6040842054166145f557505050565b80835282602052604083208284526020526040832060ff1981541690557ff6391f5c32d9c69d2a47ea670b442974b53935d1edc7fd64eb21e047a839171b339380a4565b908151811015613107570160200190565b80156130f1576000190190565b60405190606082018281106001600160401b03821117612a1457604052602a82526020820160403682378251156131075760309053815160019081101561310757607860218401536029905b8082116146f75750506146b35790565b606460405162461bcd60e51b815260206004820152602060248201527f537472696e67733a20686578206c656e67746820696e73756666696369656e746044820152fd5b9091600f81169060108210156147315761472b916f181899199a1a9b1b9c1cb0b131b232b360811b901a613e4f8587614639565b906146a3565b60246000634e487b7160e01b81526032600452fd5b818110614751575050565b60008155600101614746565b93929161478690614778604093606088526060880190614136565b908682036020880152614136565b930152565b60001981146130f15760010190565b6001600160401b038111612a145760051b60200190565b8051156131075760200190565b80518210156131075760209160051b010190565b60009060ff16600a8110156147fe57603091500160ff81116130f15760f81b6001600160f81b03191690565b60610160ff811161483f5760ff6009199116019060ff821161482b575060f81b6001600160f81b03191690565b634e487b7160e01b81526011600452602490fd5b634e487b7160e01b82526011600452602482fdfe0d2d6a5d08cb5d871289c0a3ca855d9da72909a111c24cce2d5c2b34a20daa54ddaa901e2fe3bda354fe0ede2785152d5c109282a613fe024a056a3e66c41bb3273dcf2136c7d8ef632bb8ef13dbca69a8f36fa620c7468671b3153d46a211c0f8cd32ed93fc2f9fc78152a14807c9609af3d99c5fe4dc6b106a801aaddfe90ea952726ef2588ad078edf35b066f7c7406e207cb0003bbaba8cb53eba9553e7259a1c48e5837ad7a7f3dcedcbe129bf3249ec4fbf651fd4f5e2600ead39fe2f5a977e1a3444218ff332edf735c56487bbe59922b15c88777d443eb8b78020f4da2646970667358221220aca036b12d37c148789e1be29f76370098e1d19facb1b9339960799f9fa76fcc64736f6c634300081400332f8788117e7eff1d82e926ec794901d17c78024a50270940304540a733656f0d",
  "devdoc": {
    "events": {
      "RoleAdminChanged(bytes32,bytes32,bytes32)": {
        "details": "Emitted when `newAdminRole` is set as ``role``'s admin role, replacing `previousAdminRole` `DEFAULT_ADMIN_ROLE` is the starting admin for all roles, despite {RoleAdminChanged} not being emitted signaling this. _Available since v3.1._"
      },
      "RoleGranted(bytes32,address,address)": {
        "details": "Emitted when `account` is granted `role`. `sender` is the account that originated the contract call, an admin role bearer except when using {AccessControl-_setupRole}."
      },
      "RoleRevoked(bytes32,address,address)": {
        "details": "Emitted when `account` is revoked `role`. `sender` is the account that originated the contract call:   - if using `revokeRole`, it is the admin role bearer   - if using `renounceRole`, it is the role bearer (i.e. `account`)"
      }
    },
    "kind": "dev",
    "methods": {
      "_auditMineral(string,string)": {
        "details": "only the auditor can audit mineralDetails.Logs audit report on every successful audit.",
        "params": {
          "mineralId": "The ID of the mineral under audition.",
          "report": "The audit status report of the mineral under audition."
        }
      },
      "addSensitiveData(uint256,string)": {
        "details": "Adds sensitive data to the system (only authorized roles)",
        "params": {
          "dataId": "The unique identifier for the data",
          "encryptedContent": "The encrypted content content of the data"
        }
      },
      "checkAuditAndInspectionStatus(string)": {
        "details": "checks audit and inspection status",
        "params": {
          "mineralId": "The ID of the mineral to check for audit and inspection status Returns (isValid, isInspected) statuses of both audit and inspection of mineral according to mineralId"
        }
      },
      "deleteSensitiveData(uint256)": {
        "details": "Deletes sensitive data (Only admin or authorized roles)",
        "params": {
          "dataId": "The unique identifier for the data"
        }
      },
      "getAllRoleCounts()": {
        "details": "Returns all role counts in a single call",
        "returns": {
          "auditorCount": "Number of auditors",
          "buyerCount": "Number of buyers",
          "inspectorCount": "Number of inspectors",
          "minerCount": "Number of miners",
          "refinerCount": "Number of refiners",
          "transporterCount": "Number of transporters"
        }
      },
      "getRoleAdmin(bytes32)": {
        "details": "Returns the admin role that controls `role`. See {grantRole} and {revokeRole}. To change a role's admin, use {_setRoleAdmin}."
      },
      "getRoleMemberCount(bytes32)": {
        "details": "Returns the number of accounts that have a specific role",
        "params": {
          "role": "The role to query member count for"
        },
        "returns": {
          "count": "The number of accounts with the role"
        }
      },
      "getRolesForAddress(address)": {
        "details": "Returns all roles assigned to a given address",
        "params": {
          "account": "The address to check roles for"
        },
        "returns": {
          "roles": "An array of role names the address has"
        }
      },
      "getSensitiveData(uint256)": {
        "details": "Retrieves sensitive data (Only authorized roles)",
        "params": {
          "dataId": "The unique identifier for the data"
        },
        "returns": {
          "_0": "The encrypted data content"
        }
      },
      "grantRole(bytes32,address)": {
        "details": "Grants `role` to `account`. If `account` had not been already granted `role`, emits a {RoleGranted} event. Requirements: - the caller must have ``role``'s admin role. May emit a {RoleGranted} event."
      },
      "hasMinerRole(address)": {
        "details": "Roles helper functionschecks if an account has a specific role",
        "params": {
          "account": "The address of the account to checked with role association"
        }
      },
      "hasRole(bytes32,address)": {
        "details": "Returns `true` if `account` has been granted `role`."
      },
      "inspectMineral(string,string)": {
        "details": "only the inspector can inspect mineralDetailsLogs audit report on every successful inspection",
        "params": {
          "mineralId": "The ID of the mineral under inspection",
          "report": "The inspection status report of the mineral under inspection"
        }
      },
      "isMineralRegistered(string)": {
        "details": "checks if a mineral with the given ID is registered",
        "params": {
          "mineralId": "the ID of the mineral to check"
        },
        "returns": {
          "_0": "A boolean indicating whether the mineral is registered or not"
        }
      },
      "purchaseMineral(string)": {
        "details": "Only the buyer can purchase mineralDetails",
        "params": {
          "mineralId": "The ID of the mineral under purchase"
        }
      },
      "refineMineral(string,string)": {
        "details": "only the refiner can refiner a mineral",
        "params": {
          "mineralId": "The ID of the mineral under refinery"
        }
      },
      "registerMineral(string,string,uint256,string,uint256,string)": {
        "details": "Register a new mineral - only by miner.Every mineral is assigned a unique mineralId.",
        "params": {
          "_mineralType": "The type of a mineral.",
          "_name": "Mineral name.",
          "_origin": "Mineral Origin.",
          "_purityPercentage": "Mineral purity in percentage.",
          "_storageConditions": "Mineral Storage conditions.",
          "_weight": "Mineral weight in uint256."
        }
      },
      "renounceRole(bytes32,address)": {
        "details": "Revokes `role` from the calling account. Roles are often managed via {grantRole} and {revokeRole}: this function's purpose is to provide a mechanism for accounts to lose their privileges if they are compromised (such as when a trusted device is misplaced). If the calling account had been revoked `role`, emits a {RoleRevoked} event. Requirements: - the caller must be `account`. May emit a {RoleRevoked} event."
      },
      "revokeRole(bytes32,address)": {
        "details": "Revokes `role` from `account`. If `account` had been granted `role`, emits a {RoleRevoked} event. Requirements: - the caller must have ``role``'s admin role. May emit a {RoleRevoked} event."
      },
      "supportsInterface(bytes4)": {
        "details": "See {IERC165-supportsInterface}."
      },
      "transferMineral(string,address,string,string)": {
        "details": "only the transporter can transport mineralDetails",
        "params": {
          "_destination": "The Destination area of the mineral(string)",
          "_origin": "The Original location of the mineral under transportation",
          "_receivingParty": "The address of the destination portal",
          "mineralId": "The ID of the mineral under transportation"
        }
      }
    },
    "version": 1
  },
  "userdoc": {
    "events": {
      "DataAccessAttempt(address,uint256,bool)": {
        "notice": "Events for logging access attemps"
      }
    },
    "kind": "user",
    "methods": {
      "_auditMineral(string,string)": {
        "notice": "Emits MineralAudited event."
      },
      "addSensitiveData(uint256,string)": {
        "notice": "Emits DataAdded event on successful addition of sensitive data"
      },
      "inspectMineral(string,string)": {
        "notice": "Emits MineralInspected event on successful inspection"
      },
      "purchaseMineral(string)": {
        "notice": "Emits MineralPurchased event on successful purchase"
      },
      "refineMineral(string,string)": {
        "notice": "Emits MineralRefined event on successfl refining process"
      },
      "registerMineral(string,string,uint256,string,uint256,string)": {
        "notice": "Emits MineralRegistered event on successful registration."
      },
      "transferMineral(string,address,string,string)": {
        "notice": "Emits MineralTransported on successful transportation"
      }
    },
    "version": 1
  },
  "storageLayout": {
    "storage": [
      {
        "astId": 24,
        "contract": "contracts/core/PrivacyGuard.sol:PrivacyGuard",
        "label": "_roles",
        "offset": 0,
        "slot": "0",
        "type": "t_mapping(t_bytes32,t_struct(RoleData)19_storage)"
      },
      {
        "astId": 3677,
        "contract": "contracts/core/PrivacyGuard.sol:PrivacyGuard",
        "label": "nonce",
        "offset": 0,
        "slot": "1",
        "type": "t_uint256"
      },
      {
        "astId": 3682,
        "contract": "contracts/core/PrivacyGuard.sol:PrivacyGuard",
        "label": "mineralDetails",
        "offset": 0,
        "slot": "2",
        "type": "t_mapping(t_string_memory_ptr,t_struct(MineralDetails)3659_storage)"
      },
      {
        "astId": 3688,
        "contract": "contracts/core/PrivacyGuard.sol:PrivacyGuard",
        "label": "mineralHistories",
        "offset": 0,
        "slot": "3",
        "type": "t_mapping(t_string_memory_ptr,t_array(t_struct(MineralHistory)3670_storage)dyn_storage)"
      },
      {
        "astId": 3692,
        "contract": "contracts/core/PrivacyGuard.sol:PrivacyGuard",
        "label": "roleMemberCount",
        "offset": 0,
        "slot": "4",
        "type": "t_mapping(t_bytes32,t_uint256)"
      },
      {
        "astId": 3233,
        "contract": "contracts/core/PrivacyGuard.sol:PrivacyGuard",
        "label": "encryptedData",
        "offset": 0,
        "slot": "5",
        "type": "t_mapping(t_uint256,t_string_storage)"
      }
    ],
    "types": {
      "t_address": {
        "encoding": "inplace",
        "label": "address",
        "numberOfBytes": "20"
      },
      "t_array(t_struct(MineralHistory)3670_storage)dyn_storage": {
        "base": "t_struct(MineralHistory)3670_storage",
        "encoding": "dynamic_array",
        "label": "struct RolesManager.MineralHistory[]",
        "numberOfBytes": "32"
      },
      "t_bool": {
        "encoding": "inplace",
        "label": "bool",
        "numberOfBytes": "1"
      },
      "t_bytes32": {
        "encoding": "inplace",
        "label": "bytes32",
        "numberOfBytes": "32"
      },
      "t_mapping(t_address,t_bool)": {
        "encoding": "mapping",
        "key": "t_address",
        "label": "mapping(address => bool)",
        "numberOfBytes": "32",
        "value": "t_bool"
      },
      "t_mapping(t_bytes32,t_struct(RoleData)19_storage)": {
        "encoding": "mapping",
        "key": "t_bytes32",
        "label": "mapping(bytes32 => struct AccessControl.RoleData)",
        "numberOfBytes": "32",
        "value": "t_struct(RoleData)19_storage"
      },
      "t_mapping(t_bytes32,t_uint256)": {
        "encoding": "mapping",
        "key": "t_bytes32",
        "label": "mapping(bytes32 => uint256)",
        "numberOfBytes": "32",
        "value": "t_uint256"
      },
      "t_mapping(t_string_memory_ptr,t_array(t_struct(MineralHistory)3670_storage)dyn_storage)": {
        "encoding": "mapping",
        "key": "t_string_memory_ptr",
        "label": "mapping(string => struct RolesManager.MineralHistory[])",
        "numberOfBytes": "32",
        "value": "t_array(t_struct(MineralHistory)3670_storage)dyn_storage"
      },
      "t_mapping(t_string_memory_ptr,t_struct(MineralDetails)3659_storage)": {
        "encoding": "mapping",
        "key": "t_string_memory_ptr",
        "label": "mapping(string => struct RolesManager.MineralDetails)",
        "numberOfBytes": "32",
        "value": "t_struct(MineralDetails)3659_storage"
      },
      "t_mapping(t_uint256,t_string_storage)": {
        "encoding": "mapping",
        "key": "t_uint256",
        "label": "mapping(uint256 => string)",
        "numberOfBytes": "32",
        "value": "t_string_storage"
      },
      "t_string_memory_ptr": {
        "encoding": "bytes",
        "label": "string",
        "numberOfBytes": "32"
      },
      "t_string_storage": {
        "encoding": "bytes",
        "label": "string",
        "numberOfBytes": "32"
      },
      "t_struct(MineralDetails)3659_storage": {
        "encoding": "inplace",
        "label": "struct RolesManager.MineralDetails",
        "members": [
          {
            "astId": 3628,
            "contract": "contracts/core/PrivacyGuard.sol:PrivacyGuard",
            "label": "id",
            "offset": 0,
            "slot": "0",
            "type": "t_string_storage"
          },
          {
            "astId": 3630,
            "contract": "contracts/core/PrivacyGuard.sol:PrivacyGuard",
            "label": "name",
            "offset": 0,
            "slot": "1",
            "type": "t_string_storage"
          },
          {
            "astId": 3632,
            "contract": "contracts/core/PrivacyGuard.sol:PrivacyGuard",
            "label": "origin",
            "offset": 0,
            "slot": "2",
            "type": "t_string_storage"
          },
          {
            "astId": 3634,
            "contract": "contracts/core/PrivacyGuard.sol:PrivacyGuard",
            "label": "mineralType",
            "offset": 0,
            "slot": "3",
            "type": "t_string_storage"
          },
          {
            "astId": 3636,
            "contract": "contracts/core/PrivacyGuard.sol:PrivacyGuard",
            "label": "weight",
            "offset": 0,
            "slot": "4",
            "type": "t_uint256"
          },
          {
            "astId": 3638,
            "contract": "contracts/core/PrivacyGuard.sol:PrivacyGuard",
            "label": "purityPercentage",
            "offset": 0,
            "slot": "5",
            "type": "t_uint256"
          },
          {
            "astId": 3640,
            "contract": "contracts/core/PrivacyGuard.sol:PrivacyGuard",
            "label": "storageConditions",
            "offset": 0,
            "slot": "6",
            "type": "t_string_storage"
          },
          {
            "astId": 3642,
            "contract": "contracts/core/PrivacyGuard.sol:PrivacyGuard",
            "label": "registeredBy",
            "offset": 0,
            "slot": "7",
            "type": "t_address"
          },
          {
            "astId": 3644,
            "contract": "contracts/core/PrivacyGuard.sol:PrivacyGuard",
            "label": "currentStatus",
            "offset": 0,
            "slot": "8",
            "type": "t_string_storage"
          },
          {
            "astId": 3646,
            "contract": "contracts/core/PrivacyGuard.sol:PrivacyGuard",
            "label": "currentLocation",
            "offset": 0,
            "slot": "9",
            "type": "t_string_storage"
          },
          {
            "astId": 3648,
            "contract": "contracts/core/PrivacyGuard.sol:PrivacyGuard",
            "label": "currentHandler",
            "offset": 0,
            "slot": "10",
            "type": "t_address"
          },
          {
            "astId": 3650,
            "contract": "contracts/core/PrivacyGuard.sol:PrivacyGuard",
            "label": "isPurchased",
            "offset": 20,
            "slot": "10",
            "type": "t_bool"
          },
          {
            "astId": 3652,
            "contract": "contracts/core/PrivacyGuard.sol:PrivacyGuard",
            "label": "isRefined",
            "offset": 21,
            "slot": "10",
            "type": "t_bool"
          },
          {
            "astId": 3654,
            "contract": "contracts/core/PrivacyGuard.sol:PrivacyGuard",
            "label": "isAudited",
            "offset": 22,
            "slot": "10",
            "type": "t_bool"
          },
          {
            "astId": 3656,
            "contract": "contracts/core/PrivacyGuard.sol:PrivacyGuard",
            "label": "isInspected",
            "offset": 23,
            "slot": "10",
            "type": "t_bool"
          },
          {
            "astId": 3658,
            "contract": "contracts/core/PrivacyGuard.sol:PrivacyGuard",
            "label": "timestamp",
            "offset": 0,
            "slot": "11",
            "type": "t_uint256"
          }
        ],
        "numberOfBytes": "384"
      },
      "t_struct(MineralHistory)3670_storage": {
        "encoding": "inplace",
        "label": "struct RolesManager.MineralHistory",
        "members": [
          {
            "astId": 3661,
            "contract": "contracts/core/PrivacyGuard.sol:PrivacyGuard",
            "label": "id",
            "offset": 0,
            "slot": "0",
            "type": "t_string_storage"
          },
          {
            "astId": 3663,
            "contract": "contracts/core/PrivacyGuard.sol:PrivacyGuard",
            "label": "fieldChanged",
            "offset": 0,
            "slot": "1",
            "type": "t_string_storage"
          },
          {
            "astId": 3665,
            "contract": "contracts/core/PrivacyGuard.sol:PrivacyGuard",
            "label": "newValue",
            "offset": 0,
            "slot": "2",
            "type": "t_string_storage"
          },
          {
            "astId": 3667,
            "contract": "contracts/core/PrivacyGuard.sol:PrivacyGuard",
            "label": "updatedBy",
            "offset": 0,
            "slot": "3",
            "type": "t_address"
          },
          {
            "astId": 3669,
            "contract": "contracts/core/PrivacyGuard.sol:PrivacyGuard",
            "label": "timestamp",
            "offset": 0,
            "slot": "4",
            "type": "t_uint256"
          }
        ],
        "numberOfBytes": "160"
      },
      "t_struct(RoleData)19_storage": {
        "encoding": "inplace",
        "label": "struct AccessControl.RoleData",
        "members": [
          {
            "astId": 16,
            "contract": "contracts/core/PrivacyGuard.sol:PrivacyGuard",
            "label": "members",
            "offset": 0,
            "slot": "0",
            "type": "t_mapping(t_address,t_bool)"
          },
          {
            "astId": 18,
            "contract": "contracts/core/PrivacyGuard.sol:PrivacyGuard",
            "label": "adminRole",
            "offset": 0,
            "slot": "1",
            "type": "t_bytes32"
          }
        ],
        "numberOfBytes": "64"
      },
      "t_uint256": {
        "encoding": "inplace",
        "label": "uint256",
        "numberOfBytes": "32"
      }
    }
  }
}