{
  "address": "0xe9566c469A372964287f16473E5125f6889ED01e",
  "abi": [
    {
      "inputs": [
        {
          "internalType": "address",
          "name": "_rolesManager",
          "type": "address"
        },
        {
          "internalType": "address",
          "name": "_mineralRegistry",
          "type": "address"
        },
        {
          "internalType": "address",
          "name": "_privacyGuard",
          "type": "address"
        },
        {
          "internalType": "address",
          "name": "_tokenization",
          "type": "address"
        },
        {
          "internalType": "address",
          "name": "_transactionLog",
          "type": "address"
        },
        {
          "internalType": "address",
          "name": "_logisticsManager",
          "type": "address"
        }
      ],
      "stateMutability": "nonpayable",
      "type": "constructor"
    },
    {
      "inputs": [
        {
          "internalType": "address",
          "name": "caller",
          "type": "address"
        },
        {
          "internalType": "bytes32",
          "name": "role",
          "type": "bytes32"
        }
      ],
      "name": "AddressDoesNotHaveRequiredRole",
      "type": "error"
    },
    {
      "inputs": [
        {
          "internalType": "address",
          "name": "caller",
          "type": "address"
        }
      ],
      "name": "DisputeResolution__AlreadyVoted",
      "type": "error"
    },
    {
      "inputs": [
        {
          "internalType": "uint256",
          "name": "disputeId",
          "type": "uint256"
        }
      ],
      "name": "DisputeResolution__DisputeEscalated_UnableToVote",
      "type": "error"
    },
    {
      "inputs": [
        {
          "internalType": "uint256",
          "name": "disputeId",
          "type": "uint256"
        }
      ],
      "name": "DisputeResolution__DisputeNotEscalated",
      "type": "error"
    },
    {
      "inputs": [
        {
          "internalType": "uint256",
          "name": "disputeId",
          "type": "uint256"
        }
      ],
      "name": "DisputeResolution__DisputeStatusNotPending",
      "type": "error"
    },
    {
      "inputs": [],
      "name": "DisputeResolution__DisputeStatusNotPendingOrEscalated",
      "type": "error"
    },
    {
      "inputs": [],
      "name": "DisputeResolution__InvalidDisputeDefendantAddress",
      "type": "error"
    },
    {
      "inputs": [],
      "name": "DisputeResolution__InvalidDisputeDetails",
      "type": "error"
    },
    {
      "inputs": [],
      "name": "DisputeResolution__InvalidDisputeEvidence",
      "type": "error"
    },
    {
      "inputs": [],
      "name": "DisputeResolution__InvalidDisputeIdOrNotFound",
      "type": "error"
    },
    {
      "inputs": [],
      "name": "DisputeResolution__InvalidMineralIdOrNotFound",
      "type": "error"
    },
    {
      "inputs": [],
      "name": "DisputeResolution__InvalidResolutionDetails",
      "type": "error"
    },
    {
      "inputs": [
        {
          "internalType": "address",
          "name": "caller",
          "type": "address"
        }
      ],
      "name": "DisputeResolution__NotEligibleToVote",
      "type": "error"
    },
    {
      "inputs": [],
      "name": "DisputeResolution__VotingPeriodStillActive",
      "type": "error"
    },
    {
      "inputs": [
        {
          "internalType": "address",
          "name": "token",
          "type": "address"
        },
        {
          "internalType": "uint256",
          "name": "tokenAmount",
          "type": "uint256"
        }
      ],
      "name": "ERC20TokenTransferFailed",
      "type": "error"
    },
    {
      "inputs": [
        {
          "internalType": "address",
          "name": "caller",
          "type": "address"
        }
      ],
      "name": "InsufficientPermissionsToPerformAction",
      "type": "error"
    },
    {
      "inputs": [],
      "name": "InvalidAccountAddress",
      "type": "error"
    },
    {
      "inputs": [
        {
          "internalType": "string",
          "name": "mineralId",
          "type": "string"
        }
      ],
      "name": "InvalidMineralIdOrNotFound",
      "type": "error"
    },
    {
      "inputs": [],
      "name": "InvalidPaymentMethods",
      "type": "error"
    },
    {
      "inputs": [
        {
          "internalType": "string",
          "name": "currentStatus",
          "type": "string"
        },
        {
          "internalType": "string",
          "name": "attemptedStatus",
          "type": "string"
        }
      ],
      "name": "InvalidTransportStateTransition",
      "type": "error"
    },
    {
      "inputs": [
        {
          "internalType": "string",
          "name": "mineralId",
          "type": "string"
        }
      ],
      "name": "MineralNotMarketReady",
      "type": "error"
    },
    {
      "inputs": [
        {
          "internalType": "string",
          "name": "mineralId",
          "type": "string"
        }
      ],
      "name": "MineralNotReadyToTrade",
      "type": "error"
    },
    {
      "inputs": [],
      "name": "MineralRegistry__InvalidMineralDestination",
      "type": "error"
    },
    {
      "inputs": [],
      "name": "MineralRegistry__InvalidMineralDetails",
      "type": "error"
    },
    {
      "inputs": [
        {
          "internalType": "string",
          "name": "mineralId",
          "type": "string"
        }
      ],
      "name": "MineralRegistry__InvalidMineralIdOrNotFound",
      "type": "error"
    },
    {
      "inputs": [],
      "name": "MineralRegistry__InvalidMineralLocation",
      "type": "error"
    },
    {
      "inputs": [],
      "name": "MineralRegistry__InvalidMineralName",
      "type": "error"
    },
    {
      "inputs": [],
      "name": "MineralRegistry__InvalidMineralOrigin",
      "type": "error"
    },
    {
      "inputs": [],
      "name": "MineralRegistry__InvalidMineralPurityPercentage",
      "type": "error"
    },
    {
      "inputs": [],
      "name": "MineralRegistry__InvalidMineralStatus",
      "type": "error"
    },
    {
      "inputs": [],
      "name": "MineralRegistry__InvalidMineralStorageConditions",
      "type": "error"
    },
    {
      "inputs": [],
      "name": "MineralRegistry__InvalidMineralType",
      "type": "error"
    },
    {
      "inputs": [],
      "name": "MineralRegistry__InvalidMineralWeight",
      "type": "error"
    },
    {
      "inputs": [],
      "name": "MineralRegistry__InvalidReceivingPartyAddress",
      "type": "error"
    },
    {
      "inputs": [],
      "name": "MineralRegistry__MineralAlreadyAudited",
      "type": "error"
    },
    {
      "inputs": [],
      "name": "MineralRegistry__MineralAlreadyInspected",
      "type": "error"
    },
    {
      "inputs": [],
      "name": "MineralRegistry__MineralAlreadyPurchased",
      "type": "error"
    },
    {
      "inputs": [],
      "name": "MineralRegistry__MineralNotAudited",
      "type": "error"
    },
    {
      "inputs": [],
      "name": "MineralRegistry__MineralNotInspected",
      "type": "error"
    },
    {
      "inputs": [
        {
          "internalType": "string",
          "name": "mineralId",
          "type": "string"
        }
      ],
      "name": "MineralRegistry__MineralNotRegistered",
      "type": "error"
    },
    {
      "inputs": [],
      "name": "MineralWarehouse__ETHTransferFailed",
      "type": "error"
    },
    {
      "inputs": [],
      "name": "MineralWarehouse__IncorrectETHAmount",
      "type": "error"
    },
    {
      "inputs": [],
      "name": "MineralWarehouse__InvalidETHPrice",
      "type": "error"
    },
    {
      "inputs": [],
      "name": "MineralWarehouse__InvalidMineralPrice",
      "type": "error"
    },
    {
      "inputs": [],
      "name": "MineralWarehouse__InvalidNumberOfPrices",
      "type": "error"
    },
    {
      "inputs": [
        {
          "internalType": "address",
          "name": "tokenAddress",
          "type": "address"
        }
      ],
      "name": "MineralWarehouse__InvalidTokenAddress",
      "type": "error"
    },
    {
      "inputs": [],
      "name": "MineralWarehouse__InvalidTokenPrice",
      "type": "error"
    },
    {
      "inputs": [
        {
          "internalType": "string",
          "name": "mineralId",
          "type": "string"
        }
      ],
      "name": "MineralWarehouse__MineralAlreadySold",
      "type": "error"
    },
    {
      "inputs": [
        {
          "internalType": "string",
          "name": "mineralId",
          "type": "string"
        }
      ],
      "name": "MineralWarehouse__MineralNotFoundInWarehouse",
      "type": "error"
    },
    {
      "inputs": [
        {
          "internalType": "string",
          "name": "mineralId",
          "type": "string"
        }
      ],
      "name": "MineralWarehouse__MineralNotMarketReady",
      "type": "error"
    },
    {
      "inputs": [
        {
          "internalType": "string",
          "name": "mineralId",
          "type": "string"
        }
      ],
      "name": "MineralWarehouse__MineralNotRefined",
      "type": "error"
    },
    {
      "inputs": [],
      "name": "MineralWarehouse__MismatchedArrays",
      "type": "error"
    },
    {
      "inputs": [
        {
          "internalType": "address",
          "name": "tokenAddress",
          "type": "address"
        }
      ],
      "name": "MineralWarehouse__TokenNotAccepted",
      "type": "error"
    },
    {
      "inputs": [
        {
          "internalType": "address",
          "name": "tokenAddress",
          "type": "address"
        }
      ],
      "name": "MineralWarehouse__UnacceptedToken",
      "type": "error"
    },
    {
      "inputs": [
        {
          "internalType": "address[]",
          "name": "tokenAddresses",
          "type": "address[]"
        }
      ],
      "name": "MineralWarehouse__UnacceptedTokens",
      "type": "error"
    },
    {
      "inputs": [
        {
          "internalType": "address",
          "name": "seller",
          "type": "address"
        }
      ],
      "name": "MineralWarehouse__UnauthorizedSeller",
      "type": "error"
    },
    {
      "inputs": [
        {
          "internalType": "string",
          "name": "mineralId",
          "type": "string"
        },
        {
          "internalType": "address",
          "name": "caller",
          "type": "address"
        }
      ],
      "name": "NotAssignedTransporter",
      "type": "error"
    },
    {
      "inputs": [],
      "name": "RolesManager__AccountAlreadyHasRole",
      "type": "error"
    },
    {
      "inputs": [],
      "name": "RolesManager__AccountDoesNotHaveRole",
      "type": "error"
    },
    {
      "inputs": [],
      "name": "RolesManager__InvalidAddress",
      "type": "error"
    },
    {
      "inputs": [],
      "name": "RolesManager__InvalidMineralDestination",
      "type": "error"
    },
    {
      "inputs": [],
      "name": "RolesManager__InvalidMineralIdOrNotFound",
      "type": "error"
    },
    {
      "inputs": [],
      "name": "RolesManager__InvalidMineralName",
      "type": "error"
    },
    {
      "inputs": [],
      "name": "RolesManager__InvalidMineralOrigin",
      "type": "error"
    },
    {
      "inputs": [],
      "name": "RolesManager__InvalidMineralPurityPercentage",
      "type": "error"
    },
    {
      "inputs": [],
      "name": "RolesManager__InvalidMineralStorageConditions",
      "type": "error"
    },
    {
      "inputs": [],
      "name": "RolesManager__InvalidMineralType",
      "type": "error"
    },
    {
      "inputs": [],
      "name": "RolesManager__InvalidMineralWeight",
      "type": "error"
    },
    {
      "inputs": [],
      "name": "RolesManager__InvalidReceivingPartyAddress",
      "type": "error"
    },
    {
      "inputs": [],
      "name": "RolesManager__InvalidRole",
      "type": "error"
    },
    {
      "inputs": [
        {
          "internalType": "string",
          "name": "mineralId",
          "type": "string"
        }
      ],
      "name": "RolesManager__MineralAlreadyAudited",
      "type": "error"
    },
    {
      "inputs": [
        {
          "internalType": "string",
          "name": "mineralId",
          "type": "string"
        }
      ],
      "name": "RolesManager__MineralAlreadyInspected",
      "type": "error"
    },
    {
      "inputs": [
        {
          "internalType": "string",
          "name": "mineralId",
          "type": "string"
        }
      ],
      "name": "RolesManager__MineralAlreadyPurchased",
      "type": "error"
    },
    {
      "inputs": [
        {
          "internalType": "string",
          "name": "mineralId",
          "type": "string"
        }
      ],
      "name": "RolesManager__MineralAlreadyRefined",
      "type": "error"
    },
    {
      "inputs": [
        {
          "internalType": "string",
          "name": "mineralId",
          "type": "string"
        }
      ],
      "name": "RolesManager__MineralNotMarketReady",
      "type": "error"
    },
    {
      "inputs": [
        {
          "internalType": "uint256",
          "name": "purityPercentage",
          "type": "uint256"
        }
      ],
      "name": "RolesManager__MineralPurityPercentageTooLowToRegister",
      "type": "error"
    },
    {
      "inputs": [
        {
          "internalType": "address",
          "name": "caller",
          "type": "address"
        }
      ],
      "name": "RolesManager__NotTheAssignedBuyer",
      "type": "error"
    },
    {
      "inputs": [
        {
          "internalType": "string",
          "name": "mineralId",
          "type": "string"
        }
      ],
      "name": "SupplychainValidator__InvalidMineralIdOrNotFound",
      "type": "error"
    },
    {
      "inputs": [],
      "name": "SupplychainValidator__InvalidMineralOwnershipChain",
      "type": "error"
    },
    {
      "inputs": [],
      "name": "SupplychainValidator__InvalidMineralTransactionHistory",
      "type": "error"
    },
    {
      "inputs": [
        {
          "internalType": "uint256",
          "name": "tokenId",
          "type": "uint256"
        },
        {
          "internalType": "address",
          "name": "caller",
          "type": "address"
        }
      ],
      "name": "Tokenization__CallerNotMineralTokenOwner",
      "type": "error"
    },
    {
      "inputs": [
        {
          "internalType": "uint256",
          "name": "tokenId",
          "type": "uint256"
        }
      ],
      "name": "Tokenization__InvalidTokenId",
      "type": "error"
    },
    {
      "inputs": [
        {
          "internalType": "uint256",
          "name": "tokenId",
          "type": "uint256"
        }
      ],
      "name": "Tokenization__InvalidTokenIdOrNotFound",
      "type": "error"
    },
    {
      "inputs": [
        {
          "internalType": "uint256",
          "name": "tokenId",
          "type": "uint256"
        }
      ],
      "name": "Tokenization__TokenAlreadyExists",
      "type": "error"
    },
    {
      "inputs": [
        {
          "internalType": "uint256",
          "name": "tokenId",
          "type": "uint256"
        }
      ],
      "name": "Tokenization__TokenIsAlreadyMinted",
      "type": "error"
    },
    {
      "inputs": [
        {
          "internalType": "uint256",
          "name": "index",
          "type": "uint256"
        }
      ],
      "name": "TransactionLog__InvalidOperationIndex",
      "type": "error"
    },
    {
      "inputs": [],
      "name": "TransactionLog__InvalidOperationType",
      "type": "error"
    },
    {
      "inputs": [
        {
          "internalType": "uint256",
          "name": "transactionId",
          "type": "uint256"
        }
      ],
      "name": "TransactionLog__InvalidTransactionIdOrNotFound",
      "type": "error"
    },
    {
      "inputs": [
        {
          "internalType": "string",
          "name": "mineralId",
          "type": "string"
        }
      ],
      "name": "TransportRequestAlreadyExists",
      "type": "error"
    },
    {
      "anonymous": false,
      "inputs": [
        {
          "indexed": true,
          "internalType": "address",
          "name": "assignee",
          "type": "address"
        },
        {
          "indexed": false,
          "internalType": "uint256",
          "name": "timestamp",
          "type": "uint256"
        }
      ],
      "name": "AdminRoleAssigned",
      "type": "event"
    },
    {
      "anonymous": false,
      "inputs": [
        {
          "indexed": true,
          "internalType": "address",
          "name": "revokee",
          "type": "address"
        },
        {
          "indexed": false,
          "internalType": "string",
          "name": "reason",
          "type": "string"
        },
        {
          "indexed": false,
          "internalType": "uint256",
          "name": "timestamp",
          "type": "uint256"
        }
      ],
      "name": "AdminRoleRevoked",
      "type": "event"
    },
    {
      "anonymous": false,
      "inputs": [
        {
          "indexed": true,
          "internalType": "address",
          "name": "assignee",
          "type": "address"
        },
        {
          "indexed": false,
          "internalType": "uint256",
          "name": "timestamp",
          "type": "uint256"
        }
      ],
      "name": "AuditorRoleAssigned",
      "type": "event"
    },
    {
      "anonymous": false,
      "inputs": [
        {
          "indexed": true,
          "internalType": "address",
          "name": "revokee",
          "type": "address"
        },
        {
          "indexed": false,
          "internalType": "string",
          "name": "reason",
          "type": "string"
        },
        {
          "indexed": false,
          "internalType": "uint256",
          "name": "timestamp",
          "type": "uint256"
        }
      ],
      "name": "AuditorRoleRevoked",
      "type": "event"
    },
    {
      "anonymous": false,
      "inputs": [
        {
          "indexed": true,
          "internalType": "address",
          "name": "assignee",
          "type": "address"
        },
        {
          "indexed": false,
          "internalType": "uint256",
          "name": "timestamp",
          "type": "uint256"
        }
      ],
      "name": "BuyerRoleAssigned",
      "type": "event"
    },
    {
      "anonymous": false,
      "inputs": [
        {
          "indexed": true,
          "internalType": "address",
          "name": "revokee",
          "type": "address"
        },
        {
          "indexed": false,
          "internalType": "string",
          "name": "reason",
          "type": "string"
        },
        {
          "indexed": false,
          "internalType": "uint256",
          "name": "timestamp",
          "type": "uint256"
        }
      ],
      "name": "BuyerRoleRevoked",
      "type": "event"
    },
    {
      "anonymous": false,
      "inputs": [
        {
          "indexed": true,
          "internalType": "address",
          "name": "assignee",
          "type": "address"
        },
        {
          "indexed": false,
          "internalType": "uint256",
          "name": "timestamp",
          "type": "uint256"
        }
      ],
      "name": "InspectorRoleAssigned",
      "type": "event"
    },
    {
      "anonymous": false,
      "inputs": [
        {
          "indexed": true,
          "internalType": "address",
          "name": "revokee",
          "type": "address"
        },
        {
          "indexed": false,
          "internalType": "string",
          "name": "reason",
          "type": "string"
        },
        {
          "indexed": false,
          "internalType": "uint256",
          "name": "timestamp",
          "type": "uint256"
        }
      ],
      "name": "InspectorRoleRevoked",
      "type": "event"
    },
    {
      "anonymous": false,
      "inputs": [
        {
          "indexed": true,
          "internalType": "address",
          "name": "assignee",
          "type": "address"
        },
        {
          "indexed": false,
          "internalType": "uint256",
          "name": "timestamp",
          "type": "uint256"
        }
      ],
      "name": "MinerRoleAssigned",
      "type": "event"
    },
    {
      "anonymous": false,
      "inputs": [
        {
          "indexed": true,
          "internalType": "address",
          "name": "revokee",
          "type": "address"
        },
        {
          "indexed": false,
          "internalType": "string",
          "name": "reason",
          "type": "string"
        },
        {
          "indexed": false,
          "internalType": "uint256",
          "name": "timestamp",
          "type": "uint256"
        }
      ],
      "name": "MinerRoleRevoked",
      "type": "event"
    },
    {
      "anonymous": false,
      "inputs": [
        {
          "indexed": false,
          "internalType": "string",
          "name": "mineralId",
          "type": "string"
        },
        {
          "indexed": false,
          "internalType": "string",
          "name": "status",
          "type": "string"
        },
        {
          "indexed": true,
          "internalType": "address",
          "name": "auditor",
          "type": "address"
        },
        {
          "indexed": false,
          "internalType": "uint256",
          "name": "auditedAt",
          "type": "uint256"
        }
      ],
      "name": "MineralAudited",
      "type": "event"
    },
    {
      "anonymous": false,
      "inputs": [
        {
          "indexed": false,
          "internalType": "string",
          "name": "mineralId",
          "type": "string"
        },
        {
          "indexed": false,
          "internalType": "string",
          "name": "mineralStatus",
          "type": "string"
        },
        {
          "indexed": true,
          "internalType": "address",
          "name": "inspector",
          "type": "address"
        },
        {
          "indexed": false,
          "internalType": "uint256",
          "name": "inspectedAt",
          "type": "uint256"
        }
      ],
      "name": "MineralInspected",
      "type": "event"
    },
    {
      "anonymous": false,
      "inputs": [
        {
          "indexed": false,
          "internalType": "string",
          "name": "mineralId",
          "type": "string"
        },
        {
          "indexed": true,
          "internalType": "address",
          "name": "buyer",
          "type": "address"
        },
        {
          "indexed": false,
          "internalType": "uint256",
          "name": "purchasedAt",
          "type": "uint256"
        }
      ],
      "name": "MineralPurchased",
      "type": "event"
    },
    {
      "anonymous": false,
      "inputs": [
        {
          "indexed": false,
          "internalType": "string",
          "name": "mineralId",
          "type": "string"
        },
        {
          "indexed": true,
          "internalType": "address",
          "name": "ApprovedBy",
          "type": "address"
        },
        {
          "indexed": false,
          "internalType": "string",
          "name": "status",
          "type": "string"
        },
        {
          "indexed": false,
          "internalType": "uint256",
          "name": "inspectionDate",
          "type": "uint256"
        }
      ],
      "name": "MineralReadyToTrade",
      "type": "event"
    },
    {
      "anonymous": false,
      "inputs": [
        {
          "indexed": false,
          "internalType": "string",
          "name": "mineralId",
          "type": "string"
        },
        {
          "indexed": false,
          "internalType": "string",
          "name": "refineryReport",
          "type": "string"
        },
        {
          "indexed": true,
          "internalType": "address",
          "name": "refiner",
          "type": "address"
        },
        {
          "indexed": false,
          "internalType": "uint256",
          "name": "refinedAt",
          "type": "uint256"
        }
      ],
      "name": "MineralRefined",
      "type": "event"
    },
    {
      "anonymous": false,
      "inputs": [
        {
          "indexed": false,
          "internalType": "string",
          "name": "mineralId",
          "type": "string"
        },
        {
          "indexed": false,
          "internalType": "string",
          "name": "mineralName",
          "type": "string"
        },
        {
          "indexed": false,
          "internalType": "string",
          "name": "mineralType",
          "type": "string"
        },
        {
          "indexed": false,
          "internalType": "string",
          "name": "origin",
          "type": "string"
        },
        {
          "indexed": false,
          "internalType": "uint256",
          "name": "weight",
          "type": "uint256"
        },
        {
          "indexed": false,
          "internalType": "uint256",
          "name": "purityPercentage",
          "type": "uint256"
        },
        {
          "indexed": true,
          "internalType": "address",
          "name": "miner",
          "type": "address"
        },
        {
          "indexed": false,
          "internalType": "uint256",
          "name": "registeredAt",
          "type": "uint256"
        }
      ],
      "name": "MineralRegistered",
      "type": "event"
    },
    {
      "anonymous": false,
      "inputs": [
        {
          "indexed": false,
          "internalType": "string",
          "name": "mineralId",
          "type": "string"
        },
        {
          "indexed": true,
          "internalType": "address",
          "name": "transporter",
          "type": "address"
        },
        {
          "indexed": false,
          "internalType": "address",
          "name": "receivingParty",
          "type": "address"
        },
        {
          "indexed": false,
          "internalType": "string",
          "name": "origin",
          "type": "string"
        },
        {
          "indexed": false,
          "internalType": "string",
          "name": "destination",
          "type": "string"
        },
        {
          "indexed": false,
          "internalType": "uint256",
          "name": "transportedAt",
          "type": "uint256"
        }
      ],
      "name": "MineralTransported",
      "type": "event"
    },
    {
      "anonymous": false,
      "inputs": [
        {
          "indexed": true,
          "internalType": "address",
          "name": "actor",
          "type": "address"
        },
        {
          "indexed": false,
          "internalType": "string",
          "name": "operation",
          "type": "string"
        },
        {
          "indexed": false,
          "internalType": "uint256",
          "name": "timestamp",
          "type": "uint256"
        }
      ],
      "name": "OperationValidated",
      "type": "event"
    },
    {
      "anonymous": false,
      "inputs": [
        {
          "indexed": true,
          "internalType": "address",
          "name": "assignee",
          "type": "address"
        },
        {
          "indexed": false,
          "internalType": "uint256",
          "name": "timestamp",
          "type": "uint256"
        }
      ],
      "name": "RefinerRoleAssigned",
      "type": "event"
    },
    {
      "anonymous": false,
      "inputs": [
        {
          "indexed": true,
          "internalType": "address",
          "name": "revokee",
          "type": "address"
        },
        {
          "indexed": false,
          "internalType": "string",
          "name": "reason",
          "type": "string"
        },
        {
          "indexed": false,
          "internalType": "uint256",
          "name": "timestamp",
          "type": "uint256"
        }
      ],
      "name": "RefinerRoleRevoked",
      "type": "event"
    },
    {
      "anonymous": false,
      "inputs": [
        {
          "indexed": true,
          "internalType": "bytes32",
          "name": "role",
          "type": "bytes32"
        },
        {
          "indexed": true,
          "internalType": "bytes32",
          "name": "previousAdminRole",
          "type": "bytes32"
        },
        {
          "indexed": true,
          "internalType": "bytes32",
          "name": "newAdminRole",
          "type": "bytes32"
        }
      ],
      "name": "RoleAdminChanged",
      "type": "event"
    },
    {
      "anonymous": false,
      "inputs": [
        {
          "indexed": true,
          "internalType": "address",
          "name": "account",
          "type": "address"
        },
        {
          "indexed": true,
          "internalType": "bytes32",
          "name": "role",
          "type": "bytes32"
        },
        {
          "indexed": false,
          "internalType": "uint256",
          "name": "roleAssignedAt",
          "type": "uint256"
        }
      ],
      "name": "RoleAssigned",
      "type": "event"
    },
    {
      "anonymous": false,
      "inputs": [
        {
          "indexed": true,
          "internalType": "bytes32",
          "name": "role",
          "type": "bytes32"
        },
        {
          "indexed": true,
          "internalType": "address",
          "name": "account",
          "type": "address"
        },
        {
          "indexed": true,
          "internalType": "address",
          "name": "sender",
          "type": "address"
        }
      ],
      "name": "RoleGranted",
      "type": "event"
    },
    {
      "anonymous": false,
      "inputs": [
        {
          "indexed": true,
          "internalType": "bytes32",
          "name": "role",
          "type": "bytes32"
        },
        {
          "indexed": true,
          "internalType": "address",
          "name": "account",
          "type": "address"
        },
        {
          "indexed": true,
          "internalType": "address",
          "name": "sender",
          "type": "address"
        }
      ],
      "name": "RoleRevoked",
      "type": "event"
    },
    {
      "anonymous": false,
      "inputs": [
        {
          "indexed": false,
          "internalType": "bytes32",
          "name": "role",
          "type": "bytes32"
        },
        {
          "indexed": false,
          "internalType": "address",
          "name": "account",
          "type": "address"
        },
        {
          "indexed": false,
          "internalType": "address",
          "name": "revoker",
          "type": "address"
        },
        {
          "indexed": false,
          "internalType": "uint256",
          "name": "roleRevokedAt",
          "type": "uint256"
        }
      ],
      "name": "RoleRevoked",
      "type": "event"
    },
    {
      "anonymous": false,
      "inputs": [
        {
          "indexed": true,
          "internalType": "address",
          "name": "validator",
          "type": "address"
        },
        {
          "indexed": false,
          "internalType": "bool",
          "name": "isValid",
          "type": "bool"
        },
        {
          "indexed": false,
          "internalType": "string",
          "name": "mineralId",
          "type": "string"
        }
      ],
      "name": "SupplychainValidated",
      "type": "event"
    },
    {
      "anonymous": false,
      "inputs": [
        {
          "indexed": true,
          "internalType": "address",
          "name": "assignee",
          "type": "address"
        },
        {
          "indexed": false,
          "internalType": "uint256",
          "name": "timestamp",
          "type": "uint256"
        }
      ],
      "name": "TransporterRoleAssigned",
      "type": "event"
    },
    {
      "anonymous": false,
      "inputs": [
        {
          "indexed": true,
          "internalType": "address",
          "name": "revokee",
          "type": "address"
        },
        {
          "indexed": false,
          "internalType": "string",
          "name": "reason",
          "type": "string"
        },
        {
          "indexed": false,
          "internalType": "uint256",
          "name": "timestamp",
          "type": "uint256"
        }
      ],
      "name": "TransporterRoleRevoked",
      "type": "event"
    },
    {
      "inputs": [],
      "name": "AUDITOR_ROLE",
      "outputs": [
        {
          "internalType": "bytes32",
          "name": "",
          "type": "bytes32"
        }
      ],
      "stateMutability": "view",
      "type": "function"
    },
    {
      "inputs": [],
      "name": "BUYER_ROLE",
      "outputs": [
        {
          "internalType": "bytes32",
          "name": "",
          "type": "bytes32"
        }
      ],
      "stateMutability": "view",
      "type": "function"
    },
    {
      "inputs": [],
      "name": "DEFAULT_ADMIN_ROLE",
      "outputs": [
        {
          "internalType": "bytes32",
          "name": "",
          "type": "bytes32"
        }
      ],
      "stateMutability": "view",
      "type": "function"
    },
    {
      "inputs": [],
      "name": "INSPECTOR_ROLE",
      "outputs": [
        {
          "internalType": "bytes32",
          "name": "",
          "type": "bytes32"
        }
      ],
      "stateMutability": "view",
      "type": "function"
    },
    {
      "inputs": [],
      "name": "MINER_ROLE",
      "outputs": [
        {
          "internalType": "bytes32",
          "name": "",
          "type": "bytes32"
        }
      ],
      "stateMutability": "view",
      "type": "function"
    },
    {
      "inputs": [],
      "name": "REFINER_ROLE",
      "outputs": [
        {
          "internalType": "bytes32",
          "name": "",
          "type": "bytes32"
        }
      ],
      "stateMutability": "view",
      "type": "function"
    },
    {
      "inputs": [],
      "name": "TRANSPORTER_ROLE",
      "outputs": [
        {
          "internalType": "bytes32",
          "name": "",
          "type": "bytes32"
        }
      ],
      "stateMutability": "view",
      "type": "function"
    },
    {
      "inputs": [
        {
          "internalType": "string",
          "name": "mineralId",
          "type": "string"
        },
        {
          "internalType": "string",
          "name": "report",
          "type": "string"
        }
      ],
      "name": "_auditMineral",
      "outputs": [],
      "stateMutability": "nonpayable",
      "type": "function"
    },
    {
      "inputs": [
        {
          "internalType": "address",
          "name": "account",
          "type": "address"
        }
      ],
      "name": "assignAuditor",
      "outputs": [],
      "stateMutability": "nonpayable",
      "type": "function"
    },
    {
      "inputs": [
        {
          "internalType": "address",
          "name": "account",
          "type": "address"
        }
      ],
      "name": "assignBuyer",
      "outputs": [],
      "stateMutability": "nonpayable",
      "type": "function"
    },
    {
      "inputs": [
        {
          "internalType": "address",
          "name": "account",
          "type": "address"
        }
      ],
      "name": "assignInspector",
      "outputs": [],
      "stateMutability": "nonpayable",
      "type": "function"
    },
    {
      "inputs": [
        {
          "internalType": "address",
          "name": "account",
          "type": "address"
        }
      ],
      "name": "assignMiner",
      "outputs": [],
      "stateMutability": "nonpayable",
      "type": "function"
    },
    {
      "inputs": [
        {
          "internalType": "address",
          "name": "account",
          "type": "address"
        }
      ],
      "name": "assignRefiner",
      "outputs": [],
      "stateMutability": "nonpayable",
      "type": "function"
    },
    {
      "inputs": [
        {
          "internalType": "address",
          "name": "account",
          "type": "address"
        }
      ],
      "name": "assignTransporter",
      "outputs": [],
      "stateMutability": "nonpayable",
      "type": "function"
    },
    {
      "inputs": [
        {
          "internalType": "string",
          "name": "mineralId",
          "type": "string"
        }
      ],
      "name": "checkAuditAndInspectionStatus",
      "outputs": [
        {
          "internalType": "bool",
          "name": "isAudited",
          "type": "bool"
        },
        {
          "internalType": "bool",
          "name": "isInspected",
          "type": "bool"
        }
      ],
      "stateMutability": "nonpayable",
      "type": "function"
    },
    {
      "inputs": [],
      "name": "getAllRoleCounts",
      "outputs": [
        {
          "internalType": "uint256",
          "name": "minerCount",
          "type": "uint256"
        },
        {
          "internalType": "uint256",
          "name": "refinerCount",
          "type": "uint256"
        },
        {
          "internalType": "uint256",
          "name": "transporterCount",
          "type": "uint256"
        },
        {
          "internalType": "uint256",
          "name": "auditorCount",
          "type": "uint256"
        },
        {
          "internalType": "uint256",
          "name": "inspectorCount",
          "type": "uint256"
        },
        {
          "internalType": "uint256",
          "name": "buyerCount",
          "type": "uint256"
        }
      ],
      "stateMutability": "view",
      "type": "function"
    },
    {
      "inputs": [
        {
          "internalType": "string",
          "name": "mineralId",
          "type": "string"
        }
      ],
      "name": "getMineralHistory",
      "outputs": [
        {
          "components": [
            {
              "internalType": "string",
              "name": "id",
              "type": "string"
            },
            {
              "internalType": "string",
              "name": "fieldChanged",
              "type": "string"
            },
            {
              "internalType": "string",
              "name": "newValue",
              "type": "string"
            },
            {
              "internalType": "address",
              "name": "updatedBy",
              "type": "address"
            },
            {
              "internalType": "uint256",
              "name": "timestamp",
              "type": "uint256"
            }
          ],
          "internalType": "struct RolesManager.MineralHistory[]",
          "name": "",
          "type": "tuple[]"
        }
      ],
      "stateMutability": "view",
      "type": "function"
    },
    {
      "inputs": [
        {
          "internalType": "bytes32",
          "name": "role",
          "type": "bytes32"
        }
      ],
      "name": "getRoleAdmin",
      "outputs": [
        {
          "internalType": "bytes32",
          "name": "",
          "type": "bytes32"
        }
      ],
      "stateMutability": "view",
      "type": "function"
    },
    {
      "inputs": [
        {
          "internalType": "bytes32",
          "name": "role",
          "type": "bytes32"
        }
      ],
      "name": "getRoleMemberCount",
      "outputs": [
        {
          "internalType": "uint256",
          "name": "count",
          "type": "uint256"
        }
      ],
      "stateMutability": "view",
      "type": "function"
    },
    {
      "inputs": [
        {
          "internalType": "address",
          "name": "account",
          "type": "address"
        }
      ],
      "name": "getRolesForAddress",
      "outputs": [
        {
          "internalType": "string[]",
          "name": "roles",
          "type": "string[]"
        }
      ],
      "stateMutability": "view",
      "type": "function"
    },
    {
      "inputs": [
        {
          "internalType": "bytes32",
          "name": "role",
          "type": "bytes32"
        },
        {
          "internalType": "address",
          "name": "account",
          "type": "address"
        }
      ],
      "name": "grantRole",
      "outputs": [],
      "stateMutability": "nonpayable",
      "type": "function"
    },
    {
      "inputs": [
        {
          "internalType": "address",
          "name": "account",
          "type": "address"
        }
      ],
      "name": "hasAdminRole",
      "outputs": [
        {
          "internalType": "bool",
          "name": "",
          "type": "bool"
        }
      ],
      "stateMutability": "view",
      "type": "function"
    },
    {
      "inputs": [
        {
          "internalType": "address",
          "name": "account",
          "type": "address"
        }
      ],
      "name": "hasAuditorRole",
      "outputs": [
        {
          "internalType": "bool",
          "name": "",
          "type": "bool"
        }
      ],
      "stateMutability": "view",
      "type": "function"
    },
    {
      "inputs": [
        {
          "internalType": "address",
          "name": "account",
          "type": "address"
        }
      ],
      "name": "hasBuyerRole",
      "outputs": [
        {
          "internalType": "bool",
          "name": "",
          "type": "bool"
        }
      ],
      "stateMutability": "view",
      "type": "function"
    },
    {
      "inputs": [
        {
          "internalType": "address",
          "name": "account",
          "type": "address"
        }
      ],
      "name": "hasInspectorRole",
      "outputs": [
        {
          "internalType": "bool",
          "name": "",
          "type": "bool"
        }
      ],
      "stateMutability": "view",
      "type": "function"
    },
    {
      "inputs": [
        {
          "internalType": "address",
          "name": "account",
          "type": "address"
        }
      ],
      "name": "hasMinerRole",
      "outputs": [
        {
          "internalType": "bool",
          "name": "",
          "type": "bool"
        }
      ],
      "stateMutability": "view",
      "type": "function"
    },
    {
      "inputs": [
        {
          "internalType": "address",
          "name": "account",
          "type": "address"
        }
      ],
      "name": "hasRefinerRole",
      "outputs": [
        {
          "internalType": "bool",
          "name": "",
          "type": "bool"
        }
      ],
      "stateMutability": "view",
      "type": "function"
    },
    {
      "inputs": [
        {
          "internalType": "bytes32",
          "name": "role",
          "type": "bytes32"
        },
        {
          "internalType": "address",
          "name": "account",
          "type": "address"
        }
      ],
      "name": "hasRole",
      "outputs": [
        {
          "internalType": "bool",
          "name": "",
          "type": "bool"
        }
      ],
      "stateMutability": "view",
      "type": "function"
    },
    {
      "inputs": [
        {
          "internalType": "address",
          "name": "account",
          "type": "address"
        }
      ],
      "name": "hasTransporterRole",
      "outputs": [
        {
          "internalType": "bool",
          "name": "",
          "type": "bool"
        }
      ],
      "stateMutability": "view",
      "type": "function"
    },
    {
      "inputs": [
        {
          "internalType": "string",
          "name": "mineralId",
          "type": "string"
        },
        {
          "internalType": "string",
          "name": "report",
          "type": "string"
        }
      ],
      "name": "inspectMineral",
      "outputs": [],
      "stateMutability": "nonpayable",
      "type": "function"
    },
    {
      "inputs": [
        {
          "internalType": "string",
          "name": "mineralId",
          "type": "string"
        }
      ],
      "name": "isMineralRegistered",
      "outputs": [
        {
          "internalType": "bool",
          "name": "",
          "type": "bool"
        }
      ],
      "stateMutability": "nonpayable",
      "type": "function"
    },
    {
      "inputs": [
        {
          "internalType": "string",
          "name": "mineralId",
          "type": "string"
        }
      ],
      "name": "logValidationResult",
      "outputs": [
        {
          "internalType": "bool",
          "name": "",
          "type": "bool"
        },
        {
          "internalType": "string",
          "name": "",
          "type": "string"
        }
      ],
      "stateMutability": "nonpayable",
      "type": "function"
    },
    {
      "inputs": [
        {
          "internalType": "string",
          "name": "",
          "type": "string"
        }
      ],
      "name": "mineralDetails",
      "outputs": [
        {
          "internalType": "string",
          "name": "id",
          "type": "string"
        },
        {
          "internalType": "string",
          "name": "name",
          "type": "string"
        },
        {
          "internalType": "string",
          "name": "origin",
          "type": "string"
        },
        {
          "internalType": "string",
          "name": "mineralType",
          "type": "string"
        },
        {
          "internalType": "uint256",
          "name": "weight",
          "type": "uint256"
        },
        {
          "internalType": "uint256",
          "name": "purityPercentage",
          "type": "uint256"
        },
        {
          "internalType": "string",
          "name": "storageConditions",
          "type": "string"
        },
        {
          "internalType": "address",
          "name": "registeredBy",
          "type": "address"
        },
        {
          "internalType": "string",
          "name": "currentStatus",
          "type": "string"
        },
        {
          "internalType": "string",
          "name": "currentLocation",
          "type": "string"
        },
        {
          "internalType": "address",
          "name": "currentHandler",
          "type": "address"
        },
        {
          "internalType": "bool",
          "name": "isPurchased",
          "type": "bool"
        },
        {
          "internalType": "bool",
          "name": "isRefined",
          "type": "bool"
        },
        {
          "internalType": "bool",
          "name": "isAudited",
          "type": "bool"
        },
        {
          "internalType": "bool",
          "name": "isInspected",
          "type": "bool"
        },
        {
          "internalType": "uint256",
          "name": "timestamp",
          "type": "uint256"
        }
      ],
      "stateMutability": "view",
      "type": "function"
    },
    {
      "inputs": [
        {
          "internalType": "string",
          "name": "",
          "type": "string"
        },
        {
          "internalType": "uint256",
          "name": "",
          "type": "uint256"
        }
      ],
      "name": "mineralHistories",
      "outputs": [
        {
          "internalType": "string",
          "name": "id",
          "type": "string"
        },
        {
          "internalType": "string",
          "name": "fieldChanged",
          "type": "string"
        },
        {
          "internalType": "string",
          "name": "newValue",
          "type": "string"
        },
        {
          "internalType": "address",
          "name": "updatedBy",
          "type": "address"
        },
        {
          "internalType": "uint256",
          "name": "timestamp",
          "type": "uint256"
        }
      ],
      "stateMutability": "view",
      "type": "function"
    },
    {
      "inputs": [
        {
          "internalType": "string",
          "name": "mineralId",
          "type": "string"
        }
      ],
      "name": "purchaseMineral",
      "outputs": [],
      "stateMutability": "nonpayable",
      "type": "function"
    },
    {
      "inputs": [
        {
          "internalType": "string",
          "name": "mineralId",
          "type": "string"
        },
        {
          "internalType": "string",
          "name": "report",
          "type": "string"
        }
      ],
      "name": "refineMineral",
      "outputs": [],
      "stateMutability": "nonpayable",
      "type": "function"
    },
    {
      "inputs": [
        {
          "internalType": "string",
          "name": "_name",
          "type": "string"
        },
        {
          "internalType": "string",
          "name": "_mineralType",
          "type": "string"
        },
        {
          "internalType": "uint256",
          "name": "_weight",
          "type": "uint256"
        },
        {
          "internalType": "string",
          "name": "_origin",
          "type": "string"
        },
        {
          "internalType": "uint256",
          "name": "_purityPercentage",
          "type": "uint256"
        },
        {
          "internalType": "string",
          "name": "_storageConditions",
          "type": "string"
        }
      ],
      "name": "registerMineral",
      "outputs": [
        {
          "internalType": "string",
          "name": "",
          "type": "string"
        }
      ],
      "stateMutability": "nonpayable",
      "type": "function"
    },
    {
      "inputs": [
        {
          "internalType": "bytes32",
          "name": "role",
          "type": "bytes32"
        },
        {
          "internalType": "address",
          "name": "account",
          "type": "address"
        }
      ],
      "name": "renounceRole",
      "outputs": [],
      "stateMutability": "nonpayable",
      "type": "function"
    },
    {
      "inputs": [
        {
          "internalType": "address",
          "name": "account",
          "type": "address"
        },
        {
          "internalType": "string",
          "name": "reason",
          "type": "string"
        }
      ],
      "name": "revokeAuditor",
      "outputs": [],
      "stateMutability": "nonpayable",
      "type": "function"
    },
    {
      "inputs": [
        {
          "internalType": "address",
          "name": "account",
          "type": "address"
        },
        {
          "internalType": "string",
          "name": "reason",
          "type": "string"
        }
      ],
      "name": "revokeBuyer",
      "outputs": [],
      "stateMutability": "nonpayable",
      "type": "function"
    },
    {
      "inputs": [
        {
          "internalType": "address",
          "name": "account",
          "type": "address"
        },
        {
          "internalType": "string",
          "name": "reason",
          "type": "string"
        }
      ],
      "name": "revokeInspector",
      "outputs": [],
      "stateMutability": "nonpayable",
      "type": "function"
    },
    {
      "inputs": [
        {
          "internalType": "address",
          "name": "account",
          "type": "address"
        },
        {
          "internalType": "string",
          "name": "reason",
          "type": "string"
        }
      ],
      "name": "revokeMiner",
      "outputs": [],
      "stateMutability": "nonpayable",
      "type": "function"
    },
    {
      "inputs": [
        {
          "internalType": "address",
          "name": "account",
          "type": "address"
        },
        {
          "internalType": "string",
          "name": "reason",
          "type": "string"
        }
      ],
      "name": "revokeRefiner",
      "outputs": [],
      "stateMutability": "nonpayable",
      "type": "function"
    },
    {
      "inputs": [
        {
          "internalType": "bytes32",
          "name": "role",
          "type": "bytes32"
        },
        {
          "internalType": "address",
          "name": "account",
          "type": "address"
        }
      ],
      "name": "revokeRole",
      "outputs": [],
      "stateMutability": "nonpayable",
      "type": "function"
    },
    {
      "inputs": [
        {
          "internalType": "address",
          "name": "account",
          "type": "address"
        },
        {
          "internalType": "string",
          "name": "reason",
          "type": "string"
        }
      ],
      "name": "revokeTransporter",
      "outputs": [],
      "stateMutability": "nonpayable",
      "type": "function"
    },
    {
      "inputs": [
        {
          "internalType": "bytes32",
          "name": "",
          "type": "bytes32"
        }
      ],
      "name": "roleMemberCount",
      "outputs": [
        {
          "internalType": "uint256",
          "name": "",
          "type": "uint256"
        }
      ],
      "stateMutability": "view",
      "type": "function"
    },
    {
      "inputs": [
        {
          "internalType": "bytes4",
          "name": "interfaceId",
          "type": "bytes4"
        }
      ],
      "name": "supportsInterface",
      "outputs": [
        {
          "internalType": "bool",
          "name": "",
          "type": "bool"
        }
      ],
      "stateMutability": "view",
      "type": "function"
    },
    {
      "inputs": [
        {
          "internalType": "string",
          "name": "mineralId",
          "type": "string"
        },
        {
          "internalType": "address",
          "name": "_receivingParty",
          "type": "address"
        },
        {
          "internalType": "string",
          "name": "_origin",
          "type": "string"
        },
        {
          "internalType": "string",
          "name": "_destination",
          "type": "string"
        }
      ],
      "name": "transferMineral",
      "outputs": [],
      "stateMutability": "nonpayable",
      "type": "function"
    },
    {
      "inputs": [
        {
          "internalType": "string",
          "name": "mineralId",
          "type": "string"
        },
        {
          "internalType": "address",
          "name": "inspector",
          "type": "address"
        }
      ],
      "name": "validateInspectionOperation",
      "outputs": [],
      "stateMutability": "nonpayable",
      "type": "function"
    },
    {
      "inputs": [
        {
          "internalType": "string",
          "name": "mineralId",
          "type": "string"
        }
      ],
      "name": "validateMiningOperation",
      "outputs": [],
      "stateMutability": "nonpayable",
      "type": "function"
    },
    {
      "inputs": [
        {
          "internalType": "string",
          "name": "mineralId",
          "type": "string"
        },
        {
          "internalType": "address",
          "name": "buyer",
          "type": "address"
        }
      ],
      "name": "validatePurchaseOperation",
      "outputs": [],
      "stateMutability": "nonpayable",
      "type": "function"
    },
    {
      "inputs": [
        {
          "internalType": "string",
          "name": "mineralId",
          "type": "string"
        }
      ],
      "name": "validateRefiningOperation",
      "outputs": [],
      "stateMutability": "nonpayable",
      "type": "function"
    },
    {
      "inputs": [
        {
          "internalType": "string",
          "name": "mineralId",
          "type": "string"
        }
      ],
      "name": "validateSupplychain",
      "outputs": [
        {
          "internalType": "bool",
          "name": "isValid",
          "type": "bool"
        },
        {
          "internalType": "string",
          "name": "validationReason",
          "type": "string"
        }
      ],
      "stateMutability": "nonpayable",
      "type": "function"
    },
    {
      "inputs": [
        {
          "internalType": "string",
          "name": "mineralId",
          "type": "string"
        },
        {
          "internalType": "address",
          "name": "to",
          "type": "address"
        }
      ],
      "name": "validateTransportationOperation",
      "outputs": [],
      "stateMutability": "nonpayable",
      "type": "function"
    }
  ],
  "transactionHash": "0x2e87dda5969b8c6ccdd3924697d00505658202bebf0a2b2a17dd65faa8483504",
  "args": [
    "0x67580b5841b0305329A925a38880e7C23208d0CA",
    "0xB2B9627d52DA8e87057F9cB74C87F13D6C610381",
    "0x03F3FABEc0EA3618625fb3af7EcBb471B530c810",
    "0x269334D3c3Fb7967E160909245a1efdC3052C685",
    "0x152085d5181117f7565AfC9ec70e0E668b7216B3",
    "0xF0F3B11F9e04fA03A321486012C28a98939439eC"
  ],
  "numDeployments": 1,
  "solcInputHash": "7c3d72a177373b46b126c9cb9d71da65",
  "bytecode": "0x6080346200067a57601f62005c9138819003918201601f191683019291906001600160401b038411838510176200067f578160c092849260409687528339810103126200067a57620000518162000695565b9060206200006181830162000695565b916200006f85820162000695565b906200007e6060820162000695565b936200009b60a0620000936080850162000695565b930162000695565b93434201804211620006645760019081556000808052808352898120338252835260ff808b83205416156200062d575b8180526004908185528b8320805490600019918281146200061a5786019055838052828652848d8520558c514281527f458ea7e03b3466b3cf9bc2d66ddea8b11fe9469982816f42666888e6c8c6e664873392a27fa952726ef2588ad078edf35b066f7c7406e207cb0003bbaba8cb53eba9553e728085528487528d852033865287528d852054831615620005e3575b8085528387528d85208054838114620004f457870190558452828652848d8520558c514281527f593f046317558c2857b92915c62c99f2d2108f7bc6f1e1b3c5376cd559abf559873392a27f59a1c48e5837ad7a7f3dcedcbe129bf3249ec4fbf651fd4f5e2600ead39fe2f58085528487528d852033865287528d852054831615620005ac575b8085528387528d85208054838114620004f457870190558452828652848d8520558c514281527f4a02edd19f09212e54b2ac85d7d3a4a2e3fbf424e6710c3f817d9b4cecc9cdb3873392a27f273dcf2136c7d8ef632bb8ef13dbca69a8f36fa620c7468671b3153d46a211c08085528487528d852033865287528d85205483161562000575575b8085528387528d85208054838114620004f457870190558452828652848d8520558c514281527f49cc27c2a068c01cf703c3923dfc679109b5f6c27bd1f61b542c159e3a73e092873392a27ff8cd32ed93fc2f9fc78152a14807c9609af3d99c5fe4dc6b106a801aaddfe90e8085528487528d852033865287528d8520548316156200053e575b8085528387528d85208054838114620004f457870190558452828652848d8520558c514281527ff8ed9ac482b0f7c12999b3f157f758f84e39cd339fa301ea203823ac29e97505873392a27fa977e1a3444218ff332edf735c56487bbe59922b15c88777d443eb8b78020f4d8085528487528d852033865287528d85205483161562000507575b8085528387528d85208054838114620004f457870190558452828652848d8520558c514281527f4e3eede475de92d3e23765b737dbb67646352b3328c1a437d7f089766d7be751873392a27fddaa901e2fe3bda354fe0ede2785152d5c109282a613fe024a056a3e66c41bb3918285528487528d852033865287528d8520541615620004bd575b8184528286528c8420908154908114620004aa57850190558252835289902055875142815233917f964e50cb3bdb84c00a30f56ae15d538d23dc6db14f891d7d819761b161e990a691a260018060a01b03948580948180948160018060a01b03199b168b6005541617600555168960065416176006551687600754161760075516856008541617600855168360095416176009551690600a541617600a55516155c69081620006ab8239f35b634e487b7160e01b855260118452602485fd5b8184528386528c842033855286528c84208560ff1982541617905533338360008051602062005c718339815191528780a4620003fe565b634e487b7160e01b875260118652602487fd5b8085528487528d852033865287528d85208660ff1982541617905533338260008051602062005c718339815191528880a462000377565b8085528487528d852033865287528d85208660ff1982541617905533338260008051602062005c718339815191528880a4620002f0565b8085528487528d852033865287528d85208660ff1982541617905533338260008051602062005c718339815191528880a462000269565b8085528487528d852033865287528d85208660ff1982541617905533338260008051602062005c718339815191528880a4620001e2565b8085528487528d852033865287528d85208660ff1982541617905533338260008051602062005c718339815191528880a46200015b565b634e487b7160e01b865260118552602486fd5b8180528184528a822033835284528a82208360ff1982541617905533338360008051602062005c718339815191528180a4620000cb565b634e487b7160e01b600052601160045260246000fd5b600080fd5b634e487b7160e01b600052604160045260246000fd5b51906001600160a01b03821682036200067a5756fe608080604052600436101561001357600080fd5b600090813560e01c90816301ffc9a714614252575080630958fc2d146141af5780630dacad2e1461410c578063126ee33814613df8578063248a9ca314613dcc5780632f2ff15d14613d1e578063309514df14613cac57806331bc398914613c635780633499c3a214613c0f57806335ba620714613b0657806336568abe14613a735780633a7adea51461285f578063480d1dd3146127bc5780634e2a3109146126c05780634eabbe77146126975780635aee1b15146124715780636377741d146123855780636394f6e61461235c5780636e1d616e1461233357806370e22e42146122df57806375a2b0d4146120fb57806379451cd7146120d25780637a01a1da146120a95780637ae9c16014611fa45780637cde2b9914611ea8578063826fe0f514611c7a5780638850845f14611c265780638cfa6e8914611af657806391d1485414611aab57806399691194146119a75780639b188dd614611935578063a217fddf14611919578063a917601b14611871578063aae1857414611684578063abaa536f1461162d578063ac1bce1b146114ab578063ac851dfd14611466578063b6ba1ca71461143c578063b9c5b8331461137b578063beae461514611324578063c148f5171461125f578063c395fcb314611216578063ca15c8731461112d578063cc82b09014611016578063d547741f14610fd6578063d98b1c0e14610e89578063de7ce39114610e32578063df422bf21461093d578063e3a3c52214610914578063e438fdf8146108a2578063f17f3523146106af578063f5716a851461063d578063fc1032eb146104fd5763ff40c3fc1461027357600080fd5b346104fa57610281366145ef565b906000805160206154b183398151915283526020918383526040842033600052835260ff60406000205416156104e2576102ba82614c98565b1580156104d9575b6104b157600854604051632f581fdf60e21b8152600481018590528593926001600160a01b03928316918681806102fc602482018961446c565b0381865afa9081156104a6578691610470575b50823b1561046c57604051632142170760e11b81523360048201526001600160a01b0392909216602483015260448201529084908290606490829084905af190811561046157849161044d575b505060095416803b156104495760405163132a174d60e21b815233600482015260606024820152600e60648201526d2a3930b739b837b93a30ba34b7b760911b608482015291839183918290849082906103c79060a483015b8381036003190160448501529061446c565b03925af1801561043e57610426575b50506000805160206154f18339815191526040516040815261041760408201604090600e81526d2a3930b739b837b93a30ba34b7b760911b60208201520190565b9242908201528033930390a280f35b61042f90614320565b61043a5781386103d6565b5080fd5b6040513d84823e3d90fd5b8280fd5b61045690614320565b61044957823861035c565b6040513d86823e3d90fd5b8580fd5b809650878092503d831161049f575b6104898183614384565b8101031261049a578694513861030f565b600080fd5b503d61047f565b6040513d88823e3d90fd5b50906104d5604051928392631a599d5b60e01b84526004840152602483019061446c565b0390fd5b508151156102c2565b604051630568555f60e41b8152336004820152602490fd5b80fd5b50346104fa5761050c36614407565b61051461479e565b61051d826146aa565b1561062b576105c07f93e936184fad9f80c7000aa987f91be0cd621bacde11839fdc7139f3d9c2407b9160008051602061555183398151915280865260209086825261056f6001604089200154614993565b600081815280835260408082206001600160a01b0390981680835297845290205460ff166105de575b865260048152604086208054806105cc575b505060405192839260408452604084019061446c565b9042908301520390a280f35b6105d590614b17565b905538806105aa565b80600052600082526040600020866000528252604060002060ff1981541690553386827ff6391f5c32d9c69d2a47ea670b442974b53935d1edc7fd64eb21e047a839171b600080a4610598565b604051632ac1560560e21b8152600490fd5b50346104fa5761064c36614407565b61065461479e565b61065d826146e7565b1561062b576105c07f4614600adaea632b1e4c381ad24471dab7b587dca104c8dd4da76bc64f19716f9160008051602061557183398151915280865260209086825261056f6001604089200154614993565b50346104fa5760803660031901126104fa576001600160401b03600435818111610449576106e19036906004016143c0565b906106ea6142bd565b60443582811161089e576107029036906004016143c0565b9160643590811161089e5761071b9036906004016143c0565b916000805160206154b183398151915285526020918583526040862033600052835260ff60406000205416156104e2576001600160a01b0316801561088c5781511561087a5783511561086857604051600160ff600a8851938781818c019661078581838a614449565b81016002815203019020015460a01c1615151461084657927f55b00b3c29344a545244b18d70b135e423405427088bd5425f13d690b82310b4949261082892600a6107e084610836988b604051938492839251928391614449565b8101600281520301902001336bffffffffffffffffffffffff60a01b8254161790556108176040519860a08a5260a08a019061446c565b92880152868203604088015261446c565b90848203606086015261446c565b914260808201528033930390a280f35b604051632072bb0160e11b815260048101859052806104d5602482018961446c565b604051635dbef47560e01b8152600490fd5b6040516326813e6f60e01b8152600490fd5b60405163bea3fd2f60e01b8152600490fd5b8480fd5b50346104fa576108b136614407565b6108b961479e565b6108c282614761565b1561062b576105c07f352e14c53d161e2481e65145b53265d1608f979a93a06df66d4c99b2a84ddc63916000805160206154d183398151915280865260209086825261056f6001604089200154614993565b50346104fa57806003193601126104fa5760206040516000805160206154d18339815191528152f35b50346104fa5760208060031936011261043a576001600160a01b036109606142a7565b168015610e205782908380528383526040842081600052835260ff8060406000205416610e17575b60008051602061553183398151915291828652858552604086208160005285528160406000205416610e07575b600080516020615571833981519152808752868652604087208260005286528260406000205416610df7575b6000805160206154b1833981519152808852878752604088208360005287528360406000205416610de7575b600080516020615551833981519152808952888852604089208460005288528460406000205416610dd7575b6000805160206154d183398151915291828a5289895260408a208560005289528560406000205416610dc7575b60008051602061551183398151915293848b528a8a5260408b20866000528a528660406000205416610db7575b610a9c89614c60565b98610aaa6040519a8b614384565b808a52610ab9601f1991614c60565b018a8c5b8b838210610da757505050508a978b80528b8b5260408c20876000528b528760406000205416610d6c575b8b528a8a5260408b20866000528a528660406000205416610d2f575b8a5289895260408a208560005289528560406000205416610cf0575b8952888852604089208460005288528460406000205416610cad575b8852878752604088208360005287528360406000205416610c6e575b8752868652604087208260005286528260406000205416610c2d575b86528585526040862090600052845260406000205416610bea575b506040805183815282518185018190529093600582901b850183019381019285015b828710610bbe5785850386f35b909192938280610bda600193603f198a8203018652885161446c565b9601920196019592919092610bb1565b610c2690604051610bfa81614333565b6005815264212aaca2a960d91b85820152610c158285614c84565b52610c208184614c84565b50614c51565b5038610b8f565b92610c6890604051610c3e81614333565b600981526824a729a822a1aa27a960b91b88820152610c5d8288614c84565b52610c208187614c84565b92610b74565b93610ca790604051610c7f81614333565b600781526620aaa224aa27a960c91b89820152610c9c8289614c84565b52610c208188614c84565b93610b58565b94610cea90604051610cbe81614333565b600b81526a2a2920a729a827a92a22a960a91b8a820152610cdf828a614c84565b52610c208189614c84565b94610b3c565b95610d2990604051610d0181614333565b60078152662922a324a722a960c91b8b820152610d1e828b614c84565b52610c20818a614c84565b95610b20565b96610d6690604051610d4081614333565b600581526426a4a722a960d91b8c820152610d5b828c614c84565b52610c20818b614c84565b96610b04565b9750604051610d7a81614333565b600581526420a226a4a760d91b8b820152610d948a614c77565b52610d9e89614c77565b50600197610ae8565b8282606092010152018b90610abd565b97610dc190614c51565b97610a93565b96610dd190614c51565b96610a66565b95610de190614c51565b95610a39565b94610df190614c51565b94610a0d565b93610e0190614c51565b936109e1565b92610e1190614c51565b926109b5565b60019250610988565b60405163200db56f60e11b8152600490fd5b50346104fa5760203660031901126104fa576040610e4e6142a7565b91600080516020615571833981519152815280602052209060018060a01b0316600052602052602060ff604060002054166040519015158152f35b50346104fa57610e98366145ef565b6000805160206154d1833981519152835282602052604083203360005260205260ff60406000205416156104e257610ecf82614c98565b158015610fcd575b610fab5760095483916001600160a01b0391821691823b15610fa757610f479284928360405180968195829463132a174d60e21b845216998a600484015260606024840152600a60648401526924b739b832b1ba34b7b760b11b608484015260a0604484015260a483019061446c565b03925af1801561043e57610f93575b50506000805160206154f1833981519152608060405160408152600960408201526824b739b832b1ba37b960b91b6060820152426020820152a280f35b610f9c90614320565b61043a578138610f56565b8380fd5b604051631a599d5b60e01b815260206004820152806104d5602482018561446c565b50815115610ed7565b50346104fa5760403660031901126104fa57611013600435610ff66142bd565b908084528360205261100e6001604086200154614993565b614a92565b80f35b50346104fa5760208060031936011261043a576110316142a7565b6001600160a01b03811691908215610e20576110549061104f61479e565b614761565b61111b577f49cc27c2a068c01cf703c3923dfc679109b5f6c27bd1f61b542c159e3a73e092906000805160206154d18339815191528060005260008252604060002084600052825260ff60406000205416156110cb575b845260048152604084206110bf8154614c51565b9055604051428152a280f35b806000526000825260406000208460005282526040600020600160ff198254161790553384827f2f8788117e7eff1d82e926ec794901d17c78024a50270940304540a733656f0d600080a46110ab565b6040516314726de560e21b8152600490fd5b50346104fa5760203660031901126104fa57600435600080516020615531833981519152811480156111ff575b80156111e8575b80156111d1575b80156111ba575b80156111a3575b15611191578160409160209352600483522054604051908152f35b604051636b9c461160e01b8152600490fd5b506000805160206155118339815191528114611176565b506000805160206154d1833981519152811461116f565b506000805160206155518339815191528114611168565b506000805160206154b18339815191528114611161565b50600080516020615571833981519152811461115a565b50346104fa5760203660031901126104fa5760406112326142a7565b9180805280602052209060018060a01b0316600052602052602060ff604060002054166040519015158152f35b50346104fa5760203660031901126104fa576004356001600160401b03811161043a576112909036906004016143c0565b8051158015611314575b6112ef576112a781614e02565b917f519db7059c719f6bb8d56c2768c9dcdcb55b2e489fdc3a585449acb3ad499e58604051806112d933948683614491565b0390a26112eb60405192839283614491565b0390f35b60405163788cb7c360e11b8152602060048201529081906104d590602483019061446c565b5061131e81614c98565b1561129a565b50346104fa5760203660031901126104fa5760406113406142a7565b91600080516020615511833981519152815280602052209060018060a01b0316600052602052602060ff604060002054166040519015158152f35b50346104fa57806003193601126104fa578060008051602061553183398151915260c09252600460205260408120549060008051602061557183398151915281526040812054906000805160206154b18339815191528152604081205460008051602061555183398151915282526040822054906000805160206154d18339815191528352604080842054936000805160206155118339815191528152205493604051958652602086015260408501526060840152608083015260a0820152f35b50346104fa5760203660031901126104fa5760406020916004358152600483522054604051908152f35b50346104fa5760203660031901126104fa57600435906001600160401b0382116104fa5760206114a161149c36600486016143c0565b614c98565b6040519015158152f35b50346104fa57600319906020368301126104fa576004356001600160401b03811161043a576114de9036906004016143c0565b91600080516020615571833981519152825281602052604082203360005260205260ff60406000205416156104e25761151683614c98565b158015611624575b61160257600954919283926001600160a01b031691823b156115fd5760405163132a174d60e21b8152336004820152606060248201526008606482015267526566696e696e6760c01b60848201529284928492839185918391611590919060a484015b9184830301604485015261446c565b03925af1801561043e576115e9575b50604051604081526000805160206154f18339815191526115d9604083016040906008815267526566696e696e6760c01b60208201520190565b914260208201528033930390a280f35b6115f290614320565b6104fa57803861159f565b505050fd5b604051631a599d5b60e01b815260206004820152806104d5602482018661446c565b5082511561151e565b50346104fa5760203660031901126104fa5760406116496142a7565b91600080516020615551833981519152815280602052209060018060a01b0316600052602052602060ff604060002054166040519015158152f35b50346104fa57611693366145ef565b9060008051602061551183398151915283526020918383526040842033600052835260ff60406000205416156104e2576116cc82614c98565b158015611868575b6104b157600854604051632f581fdf60e21b8152600481018590528593926001600160a01b039283169186818061170e602482018961446c565b0381865afa9081156104a6578691611837575b50823b1561046c57604051632142170760e11b81523360048201526001600160a01b0392909216602483015260448201529084908290606490829084905af1908115610461578491611823575b505060095416803b156104495760405163132a174d60e21b8152336004820152606060248201526008606482015267507572636861736560c01b608482015291839183918290849082906117c59060a483016103b5565b03925af1801561043e5761180f575b50506000805160206154f183398151915260405160408152610417604082016040906008815267507572636861736560c01b60208201520190565b61181890614320565b61043a5781386117d4565b61182c90614320565b61044957823861176e565b809650878092503d8311611861575b6118508183614384565b8101031261049a5786945138611721565b503d611846565b508151156116d4565b50346104fa5760208060031936011261043a5761188c6142a7565b6001600160a01b03811691908215610e20576118af906118aa61479e565b614724565b61111b577f964e50cb3bdb84c00a30f56ae15d538d23dc6db14f891d7d819761b161e990a6906000805160206154b18339815191528060005260008252604060002084600052825260ff60406000205416156110cb57845260048152604084206110bf8154614c51565b50346104fa57806003193601126104fa57602090604051908152f35b50346104fa5761194436614407565b61194c61479e565b6119558261466d565b1561062b576105c07f69e94e373f69f3f945457a07b335722310788af9cd459a33df6f72cc9e9640439160008051602061551183398151915280865260209086825261056f6001604089200154614993565b50346104fa576119b6366145ac565b906000805160206154d1833981519152835260208381526040842033600052815260ff60406000205416156104e257604051600160ff600a855193858181890196611a0281838a614449565b81016002815203019020015460b81c16151514611a885791600a611a56611a82937f3a9eebd240f4c9f631531ebc672c4c040de483b868ccebe8a3a1fdad70cde0d995604051809381928751928391614449565b8101600281520301902001600160b81b60ff60b81b198254161790556040519182913395429184614c23565b0390a280f35b506104d5604051928392636f5f944160e11b84526004840152602483019061446c565b50346104fa5760403660031901126104fa576040611ac76142bd565b91600435815280602052209060018060a01b0316600052602052602060ff604060002054166040519015158152f35b50346104fa5760031960203682011261043a576004356001600160401b03811161044957611b289036906004016143c0565b906000805160206155318339815191528352826020526040832033845260205260ff604084205416156104e257611b5e82614c98565b158015611c1d575b610fab576009548391906001600160a01b0316803b156104495760405163132a174d60e21b81523360048201526060602482015260066064820152654d696e696e6760d01b6084820152938492839185918391611bc7919060a48401611581565b03925af1801561043e57611c0e575b50604051604081526000805160206154f18339815191526115d96040830160409060068152654d696e696e6760d01b60208201520190565b611c1790614320565b38611bd6565b50815115611b66565b50346104fa5760203660031901126104fa5760ff6040602092611c476142a7565b6000805160206154d183398151915282528185528282206001600160a01b03909116825284522054604051911615158152f35b50346104fa5760208060031936011261043a576004356001600160401b03811161044957611cac9036906004016143c0565b604051815191611ce2611ce985830194611cc7818688614449565b84019386816002968781520301902060405192838092614516565b0382614384565b8481519101208151908185201490811591611e9f575b50611e8d578490611d1860405194859251928391614449565b83019284816003958681520301902091825490611d3482614c60565b94611d426040519687614384565b82865286860191829585528785209185935b858510611e0957505050505050604051928484019085855251809152604084019460408260051b8601019392955b828710611d8f5785850386f35b909192938280600192603f19898203018552875190611dde611dcc611dbc845160a080865285019061446c565b858501518482038786015261446c565b6040840151838203604085015261446c565b916060868060a01b038183015116908301526080809101519101529601920196019592919092611d82565b60058a60019260409c9b999c51611e1f81614305565b604051611e3081611ce2818c614516565b8152604051611e4581611ce281898d01614516565b83820152604051611e5c81611ce2818b8d01614516565b6040820152848060a01b03868901541660608201526004880154608082015281520194019401939298959798611d54565b6040516329d7b10b60e11b8152600490fd5b90501538611cff565b50346104fa57611eb7366145ac565b906000805160206155718339815191528352602083815260408420338552815260ff604085205416156104e257604051600160ff600a855193858181890196611f0181838a614449565b81016002815203019020015460a81c16151514611f815791600a611f55611a82937fa214f45af6d86b0d5ff7bb48f888cf4205e4a383da35fcbebfdbd9bd8e6d5a7c95604051809381928751928391614449565b8101600281520301902001600160a81b60ff60a81b198254161790556040519182913395429184614c23565b506104d560405192839263701203b760e01b84526004840152602483019061446c565b50346104fa57611fb336614407565b611fbb61479e565b611fc482614724565b1561062b576105c07f71577b91708c73ee54b43c6709958ff42e4bcc084910648ce7c3d16928b51d52916000805160206154b18339815191528086526020908682526120166001604089200154614993565b80875286825260408088206001600160a01b0390971680895296835287205460ff1661206357865260048152604086208054806105cc57505060405192839260408452604084019061446c565b808752868252604080882087895283528720805460ff191690553386827ff6391f5c32d9c69d2a47ea670b442974b53935d1edc7fd64eb21e047a839171b8a80a4610598565b50346104fa57806003193601126104fa5760206040516000805160206155118339815191528152f35b50346104fa57806003193601126104fa5760206040516000805160206155718339815191528152f35b50346104fa5760208060031936011261043a576004356001600160401b03811161044957604061213160ff9236906004016143c0565b938080528084528181203382528452205416156104e257604051611ce261217b845192848181880195612165818389614449565b8101600281520301902060405192838092614516565b82815191012083519081832014908115916122d6575b50611e8d5760ff600a604051848187516121ac818389614449565b81016002815203019020015460b01c16806122aa575b15612287579060ff600a61226883604096958751606081527f10f4ba4c7bb6f0c442f54585004a6e24440bea5c2d2e6f36b688e3e624762e22612208606083018a61446c565b916b54726164696e67526561647960a01b85828503948582850152600c81520152428b8201528a33930190a28484895184818b51612247818389614449565b81016002815203019020015460b01c16968851938492839251928391614449565b81016002815203019020015460b81c1683519215158352151590820152f35b506104d56040519283926348cddbdb60e11b84526004840152602483019061446c565b5060ff600a604051848187516122c1818389614449565b81016002815203019020015460b81c166121c2565b90501538612191565b50346104fa5760203660031901126104fa5760ff60406020926123006142a7565b6000805160206154b183398151915282528185528282206001600160a01b03909116825284522054604051911615158152f35b50346104fa57806003193601126104fa5760206040516000805160206155518339815191528152f35b50346104fa57806003193601126104fa5760206040516000805160206155318339815191528152f35b50346104fa5760208060031936011261043a576123a06142a7565b6001600160a01b03811691908215610e20576123c3906123be61479e565b6146e7565b61111b577f4e3eede475de92d3e23765b737dbb67646352b3328c1a437d7f089766d7be7519060008051602061557183398151915280855284825260408520848652825260ff6040862054161561242857845260048152604084206110bf8154614c51565b808552848252604080862085875283528520805460ff191660011790553384827f2f8788117e7eff1d82e926ec794901d17c78024a50270940304540a733656f0d8880a46110ab565b50346104fa5760203660031901126104fa57600435906001600160401b0382116104fa57506124a49036906004016143c0565b60405181818093516020819301916124bb92614449565b810160028152036020019020604051806124d58184614516565b036124e09082614384565b60405191826124f28160018401614516565b036124fd9084614384565b6040518061250e8160028501614516565b036125199082614384565b604051918261252b8160038401614516565b036125369084614384565b600481015460058201546040519491856125538160068701614516565b0361255e9087614384565b60078401546040516001600160a01b03979093918816929091846125858160088a01614516565b036125909086614384565b60405195866125a28160098b01614516565b036125ad9088614384565b600a88015497600b0154986040519c8d9c8d61020090818152016125d09161446c565b8d810360208f01526125e19161446c565b8c810360408e01526125f29161446c565b8b810360608d01526126039161446c565b9160808b015260a08a015288810360c08a015261261f9161446c565b9060e08801528681036101008801526126379161446c565b8581036101208701526126499161446c565b9281166101408501528060a01c60ff1615156101608501528060a81c60ff1615156101808501528060b01c60ff1615156101a085015260b81c60ff1615156101c08401526101e08301520390f35b50346104fa57806003193601126104fa5760206040516000805160206154b18339815191528152f35b50346104fa576126cf366145ac565b906000805160206155518339815191528352602083815260408420338552815260ff604085205416156104e257604051600160ff600a85519385818189019661271981838a614449565b81016002815203019020015460b01c161515146127995791600a61276d611a82937fa9de1934279a83f8cfaaecf6a7002ac10aeaea244c8c763f3752f3fc4c3e631d95604051809381928751928391614449565b8101600281520301902001600160b01b60ff60b01b198254161790556040519182913395429184614c23565b506104d560405192839263c817400d60e01b84526004840152602483019061446c565b50346104fa5760208060031936011261043a576127d76142a7565b6001600160a01b03811691908215610e20576127fa906127f561479e565b6146aa565b61111b577f4a02edd19f09212e54b2ac85d7d3a4a2e3fbf424e6710c3f817d9b4cecc9cdb39060008051602061555183398151915280855284825260408520848652825260ff6040862054161561242857845260048152604084206110bf8154614c51565b50346104fa5760c03660031901126104fa576004356001600160401b03811161043a576128909036906004016143c0565b6024356001600160401b038111610449576128af9036906004016143c0565b906064356001600160401b038111610fa7576128cf9036906004016143c0565b60a4356001600160401b03811161089e576128ee9036906004016143c0565b926000805160206155318339815191528552846020526040852033865260205260ff604086205416156104e257825115613a615781511561087a57805115613a4f5760443515613a3d57608435158015613a31575b613a1f5760506084351115613a05578351156139f35760015461296581614c51565b6001556040516129ab60748260208101948651612986818860208b01614449565b8201903360601b60208301524260348301526054820152036054810184520182614384565b51902093604051946129bc86614333565b600a8652602036818801378551156139df57603060208701538551600110156139df5760786021870153865b60048110613924575050612a3d602160405180978551612a0f816020850160208a01614449565b8201602d60f81b6020820152612a2e8251809360208785019101614449565b01036001810188520186614384565b60405190612a4a826142d3565b858252846020830152836040830152826060830152604435608083015260843560a083015260c08201523360e0820152604051612a8681614333565b600381526252617760e81b6020820152610100820152604051612aa881614333565b600d81526c26b4b734b7339021b2b73a32b960991b6020820152610120820152336101408201528561016082015285610180820152856101a0820152856101c0820152426101e08201526040516020818751612b078183858c01614449565b810160028152030190209080518051906001600160401b0382116132b2578190612b3185546144dc565b601f81116138d7575b50602090601f831160011461386e578a92613863575b50508160011b916000199060031b1c19161782555b60208101518051906001600160401b0382116132b2578190612b8a60018601546144dc565b601f8111613813575b50602090601f83116001146137a4578a92613799575b50508160011b916000199060031b1c19161760018301555b60408101518051906001600160401b0382116132b2578190612be660028601546144dc565b601f8111613749575b50602090601f83116001146136da578a926136cf575b50508160011b916000199060031b1c19161760028301555b60608101518051906001600160401b0382116132b2578190612c4260038601546144dc565b601f811161367f575b50602090601f8311600114613610578a92613605575b50508160011b916000199060031b1c19161760038301555b6080810151600483015560a0810151600583015560c08101518051906001600160401b0382116132b2578190612cb260068601546144dc565b601f81116135b5575b50602090601f8311600114613546578a9261353b575b50508160011b916000199060031b1c19161760068301555b60e08101516007830180546001600160a01b0319166001600160a01b03929092169190911790556101008101518051906001600160401b0382116132b2578190612d3660088601546144dc565b601f81116134eb575b50602090601f831160011461347c578a92613471575b50508160011b916000199060031b1c19161760088301555b6101208101518051906001600160401b0382116132b257612d9160098501546144dc565b601f811161342d575b50602090601f83116001146133ba579180600b94926101e0948c926133af575b50508160011b916000199060031b1c19161760098501555b600a840160018060a01b036101408301511681549060ff60a01b610160850151151560a01b1660ff60a81b610180860151151560a81b169060ff60b01b6101a0870151151560b01b169260ff60b81b6101c0880151151560b81b16946001600160401b0360c01b161717171717905501519101556040516020818651612e5b8183858b01614449565b810160038152030190206040519067027b934b3b4b71d160c51b6020830152612ea26028838651612e928184840160208b01614449565b8101036008810185520183614384565b60405191612eaf83614305565b868352604051612ebe81614333565b600a815269149959da5cdd195c995960b21b6020820152602084015260408301523360608301524260808301528054906801000000000000000082101561339b5790612f0f916001820181556144aa565b9190916133875780518051906001600160401b0382116132b2578190612f3585546144dc565b601f811161333a575b50602090601f83116001146132d1578a926132c6575b50508160011b916000199060031b1c19161782555b60208101518051906001600160401b0382116132b2578190612f8e60018601546144dc565b601f8111613262575b50602090601f83116001146131f3578a926131e8575b50508160011b916000199060031b1c19161760018301555b6040810151968751906001600160401b0382116131d457612fe960028501546144dc565b601f8111613190575b50602090601f83116001146130f257608061082894846130b698957f73c819068ba25b88a32cb91f9b552ab50d9cccb7c4abdeb2a04f44373b7153939a98956112eb9e600496926130e7575b50508160011b916000199060031b1c19161760028501555b6003840160018060a01b036060830151166bffffffffffffffffffffffff60a01b82541617905501519101556130a86040519660e0885261309a60e089018a61446c565b9088820360208a015261446c565b90868203604088015261446c565b91604435608082015260843560a08201524260c08201528033930390a260405191829160208352602083019061446c565b01519050388061303e565b98600285018a5260208a20995b601f198416811061317857506080610828946001856112eb9d7f73c819068ba25b88a32cb91f9b552ab50d9cccb7c4abdeb2a04f44373b7153939b99966004966130b69c99601f1981161061315f575b505050811b016002850155613056565b015160001960f88460031b161c1916905538808061314f565b828201518b556001909a0199602092830192016130ff565b60028501825260208220601f840160051c8101602085106131cd575b601f830160051c820181106131c2575050612ff2565b8381556001016131ac565b50806131ac565b634e487b7160e01b81526041600452602490fd5b015190503880612fad565b9250600185018a5260208a20908a935b601f1984168510613247576001945083601f1981161061322e575b505050811b016001830155612fc5565b015160001960f88460031b161c1916905538808061321e565b81810151835560209485019460019093019290910190613203565b909150600185018a5260208a20601f840160051c8101602085106132ab575b90849392915b601f830160051c8201811061329d575050612f97565b8c8155859450600101613287565b5080613281565b634e487b7160e01b89526041600452602489fd5b015190503880612f54565b9250848a5260208a20908a935b601f198416851061331f576001945083601f19811610613306575b505050811b018255612f69565b015160001960f88460031b161c191690553880806132f9565b818101518355602094850194600190930192909101906132de565b909150848a5260208a20601f840160051c810160208510613380575b90849392915b601f830160051c82018110613372575050612f3e565b8c815585945060010161335c565b5080613356565b634e487b7160e01b87526004879052602487fd5b634e487b7160e01b88526041600452602488fd5b015190503880612dba565b90600985018a5260208a20918a5b601f1985168110613415575092600b94926001926101e09583601f198116106133fc575b505050811b016009850155612dd2565b015160001960f88460031b161c191690553880806133ec565b919260206001819286850151815501940192016133c8565b600985018a5260208a20601f840160051c81016020851061346a575b601f830160051c8201811061345f575050612d9a565b8b8155600101613449565b5080613449565b015190503880612d55565b9250600885018a5260208a20908a935b601f19841685106134d0576001945083601f198116106134b7575b505050811b016008830155612d6d565b015160001960f88460031b161c191690553880806134a7565b8181015183556020948501946001909301929091019061348c565b909150600885018a5260208a20601f840160051c810160208510613534575b90849392915b601f830160051c82018110613526575050612d3f565b8c8155859450600101613510565b508061350a565b015190503880612cd1565b9250600685018a5260208a20908a935b601f198416851061359a576001945083601f19811610613581575b505050811b016006830155612ce9565b015160001960f88460031b161c19169055388080613571565b81810151835560209485019460019093019290910190613556565b909150600685018a5260208a20601f840160051c8101602085106135fe575b90849392915b601f830160051c820181106135f0575050612cbb565b8c81558594506001016135da565b50806135d4565b015190503880612c61565b9250600385018a5260208a20908a935b601f1984168510613664576001945083601f1981161061364b575b505050811b016003830155612c79565b015160001960f88460031b161c1916905538808061363b565b81810151835560209485019460019093019290910190613620565b909150600385018a5260208a20601f840160051c8101602085106136c8575b90849392915b601f830160051c820181106136ba575050612c4b565b8c81558594506001016136a4565b508061369e565b015190503880612c05565b9250600285018a5260208a20908a935b601f198416851061372e576001945083601f19811610613715575b505050811b016002830155612c1d565b015160001960f88460031b161c19169055388080613705565b818101518355602094850194600190930192909101906136ea565b909150600285018a5260208a20601f840160051c810160208510613792575b90849392915b601f830160051c82018110613784575050612bef565b8c815585945060010161376e565b5080613768565b015190503880612ba9565b9250600185018a5260208a20908a935b601f19841685106137f8576001945083601f198116106137df575b505050811b016001830155612bc1565b015160001960f88460031b161c191690553880806137cf565b818101518355602094850194600190930192909101906137b4565b909150600185018a5260208a20601f840160051c81016020851061385c575b90849392915b601f830160051c8201811061384e575050612b93565b8c8155859450600101613838565b5080613832565b015190503880612b50565b9250848a5260208a20908a935b601f19841685106138bc576001945083601f198116106138a3575b505050811b018255612b65565b015160001960f88460031b161c19169055388080613896565b8181015183556020948501946001909301929091019061387b565b909150848a5260208a20601f840160051c81016020851061391d575b90849392915b601f830160051c8201811061390f575050612b3a565b8c81558594506001016138f9565b50806138f3565b60208110156139cb5781811a600f613940818360041c16614d1e565b918360011b926002908585048214861517156139b7578482018092116139b7579061397361397a9493928e1a918d614b06565b5316614d1e565b60039182018092116139a3579061399861399e93928b1a918a614b06565b53614c51565b6129e8565b634e487b7160e01b8a52601160045260248afd5b634e487b7160e01b8d52601160045260248dfd5b634e487b7160e01b88526032600452602488fd5b634e487b7160e01b87526032600452602487fd5b60405163bfccc8e960e01b8152600490fd5b60405163d05db01960e01b81526084356004820152602490fd5b604051633abe7db760e21b8152600490fd5b50606460843511612943565b60405163fd83f8d960e01b8152600490fd5b60405163a765e58f60e01b8152600490fd5b604051630ac6e45360e31b8152600490fd5b50346104fa5760403660031901126104fa57613a8d6142bd565b336001600160a01b03821603613aa95761101390600435614a92565b60405162461bcd60e51b815260206004820152602f60248201527f416363657373436f6e74726f6c3a2063616e206f6e6c792072656e6f756e636560448201526e103937b632b9903337b91039b2b63360891b6064820152608490fd5b50346104fa5760403660031901126104fa576004356001600160401b03811161043a57613b379036906004016143c0565b90613b546020602435938160405193828580945193849201614449565b810160038152030190209081548310156104fa57613be4613b7584846144aa565b5060405190613b8f82613b888184614516565b0383614384565b604051613ba381611ce28160018601614516565b613c00604051613bba81611ce28160028801614516565b613bf2600460018060a01b036003870154169501549360405197889760a0895260a089019061446c565b90878203602089015261446c565b90858203604087015261446c565b91606084015260808301520390f35b50346104fa5760203660031901126104fa5760ff6040602092613c306142a7565b60008051602061553183398151915282528185528282206001600160a01b03909116825284522054604051911615158152f35b50346104fa5760203660031901126104fa57600435906001600160401b0382116104fa57613c9c613c9736600485016143c0565b614e02565b906112eb60405192839283614491565b50346104fa57613cbb36614407565b613cc361479e565b613ccc82614630565b1561062b576105c07f125f88db22967983b401f70f6804d47f43cb545fcb725d0b335fe7d43d9b4a4a916000805160206155318339815191528086526020908682526120166001604089200154614993565b50346104fa5760403660031901126104fa57600435613d3b6142bd565b81835282602052613d526001604085200154614993565b818352602083815260408085206001600160a01b039093168086529290915283205460ff1615613d80578280f35b818352826020526040832081845260205260408320600160ff1982541617905533917f2f8788117e7eff1d82e926ec794901d17c78024a50270940304540a733656f0d8480a438808280f35b50346104fa5760203660031901126104fa57600160406020926004358152808452200154604051908152f35b50346104fa5760208060031936011261043a576004356001600160401b03811161044957613e2a9036906004016143c0565b600080516020615511833981519152835282825260408320338452825260ff80604085205416156104e2576040519082519084840191613e6b818585614449565b8301906001816002938481528689600a98899303019020015460a01c161515146140ea5786805286865260408720338852865280604088205416156104e257611ce2613ed760405188818951613ec281838b614449565b81018781520301902060405192838092614516565b86815191012085519081852014908115916140e1575b50611e8d57808460405188818951613f0681838b614449565b810187815203019020015460b01c16806140b8575b1561409657604051606081527f10f4ba4c7bb6f0c442f54585004a6e24440bea5c2d2e6f36b688e3e624762e22613f55606083018861446c565b916b54726164696e67526561647960a01b89828503948582850152600c81520152426040820152604033930190a2808460405188818951613f9781838b614449565b810187815203019020015460b01c16908460405188818951613fba81838b614449565b810187815203019020015460b81c168161408e575b501561406c5784839261403e927ffed1001c142a7ab386454a2f7d78b013ba7ff40595d10c128f2fb6463ccd7b7a969560405184818951614011818389614449565b81018581520301902001805460ff60a01b1916600160a01b17905560405186519094859382908590614449565b8201908152030190200180546001600160a01b0319163317905560408051818152916104179183019061446c565b6040516348cddbdb60e11b815260048101869052806104d5602482018761446c565b905038613fcf565b6040516348cddbdb60e11b815260048101879052806104d5602482018861446c565b508084604051888189516140cd81838b614449565b810187815203019020015460b81c16613f1b565b90501538613eed565b604051632072bb0160e11b815260048101879052806104d5602482018861446c565b50346104fa5760208060031936011261043a576141276142a7565b6001600160a01b03811691908215610e205761414a9061414561479e565b61466d565b61111b577ff8ed9ac482b0f7c12999b3f157f758f84e39cd339fa301ea203823ac29e975059060008051602061551183398151915280855284825260408520848652825260ff6040862054161561242857845260048152604084206110bf8154614c51565b50346104fa5760208060031936011261043a576141ca6142a7565b6001600160a01b03811691908215610e20576141ed906141e861479e565b614630565b61111b577f593f046317558c2857b92915c62c99f2d2108f7bc6f1e1b3c5376cd559abf5599060008051602061553183398151915280855284825260408520848652825260ff6040862054161561242857845260048152604084206110bf8154614c51565b90503461043a57602036600319011261043a5760043563ffffffff60e01b81168091036104495760209250637965db0b60e01b8114908115614296575b5015158152f35b6301ffc9a760e01b1490503861428f565b600435906001600160a01b038216820361049a57565b602435906001600160a01b038216820361049a57565b61020081019081106001600160401b038211176142ef57604052565b634e487b7160e01b600052604160045260246000fd5b60a081019081106001600160401b038211176142ef57604052565b6001600160401b0381116142ef57604052565b604081019081106001600160401b038211176142ef57604052565b606081019081106001600160401b038211176142ef57604052565b608081019081106001600160401b038211176142ef57604052565b90601f801991011681019081106001600160401b038211176142ef57604052565b6001600160401b0381116142ef57601f01601f191660200190565b81601f8201121561049a578035906143d7826143a5565b926143e56040519485614384565b8284526020838301011161049a57816000926020809301838601378301015290565b90604060031983011261049a576004356001600160a01b038116810361049a5791602435906001600160401b03821161049a57614446916004016143c0565b90565b60005b83811061445c5750506000910152565b818101518382015260200161444c565b9060209161448581518092818552858086019101614449565b601f01601f1916010190565b604090614446939215158152816020820152019061446c565b80548210156144c6576000526005602060002091020190600090565b634e487b7160e01b600052603260045260246000fd5b90600182811c9216801561450c575b60208310146144f657565b634e487b7160e01b600052602260045260246000fd5b91607f16916144eb565b9060009291805491614527836144dc565b9182825260019384811690816000146145895750600114614549575b50505050565b90919394506000526020928360002092846000945b838610614575575050505001019038808080614543565b80548587018301529401938590820161455e565b9294505050602093945060ff191683830152151560051b01019038808080614543565b90604060031983011261049a576001600160401b0360043581811161049a57836145d8916004016143c0565b9260243591821161049a57614446916004016143c0565b604060031982011261049a57600435906001600160401b03821161049a57614619916004016143c0565b906024356001600160a01b038116810361049a5790565b6001600160a01b031660009081527fbb3fcc25fbffa12ea463b3505377899a4d5ddb4858b9c7bd36764686d9425b36602052604090205460ff1690565b6001600160a01b031660009081527ff3fa603c74bfe2a4719960e47343678c3dc690d2b27a2295acc6fc430833aaf9602052604090205460ff1690565b6001600160a01b031660009081527f0d2d6a5d08cb5d871289c0a3ca855d9da72909a111c24cce2d5c2b34a20daa54602052604090205460ff1690565b6001600160a01b031660009081527f4130a4caca6023b0ba21488ee680ce5c3df22860b1cd8b02cd2a0bcb0de98851602052604090205460ff1690565b6001600160a01b031660009081527fbce5fd3347e0dc338dcc0e895534dd4af2740eec95f56cd4ca4b4b2ada357ca0602052604090205460ff1690565b6001600160a01b031660009081527facfff8a39fb957d9d1c8e3ef9f08385e3fcf7bb23ab7ba0ad0f8df93dbde6a68602052604090205460ff1690565b3360009081527fad3228b676f7d3cd4284a5443f17f1962b36e491b30a40b2405849e597ba5fb5602090815260408083205490929060ff16156147e057505050565b6147e933614b3a565b90808451906147f782614369565b6042825284820192606036853782511561497f5760308453825160019081101561496b5790607860218501536041915b808311614911575050506148cf5760486104d59386936148b3936148a4985198899376020b1b1b2b9b9a1b7b73a3937b61d1030b1b1b7bab73a1604d1b8a86015261487b815180928c603789019101614449565b8401917001034b99036b4b9b9b4b733903937b6329607d1b603784015251809386840190614449565b01036028810187520185614384565b5192839262461bcd60e51b84526004840152602483019061446c565b60648486519062461bcd60e51b825280600483015260248201527f537472696e67733a20686578206c656e67746820696e73756666696369656e746044820152fd5b909192600f811660108110156149575761495091906f181899199a1a9b1b9c1cb0b131b232b360811b901a6149468688614b06565b5360041c93614b17565b9190614827565b634e487b7160e01b84526032600452602484fd5b634e487b7160e01b82526032600452602482fd5b634e487b7160e01b81526032600452602490fd5b600090808252602090828252604092838120338252835260ff8482205416156149bc5750505050565b6149c533614b3a565b918451906149d282614369565b6042825284820192606036853782511561497f5760308453825160019081101561496b5790607860218501536041915b808311614a56575050506148cf5760486104d59386936148b3936148a4985198899376020b1b1b2b9b9a1b7b73a3937b61d1030b1b1b7bab73a1604d1b8a86015261487b815180928c603789019101614449565b909192600f8116601081101561495757614a8b91906f181899199a1a9b1b9c1cb0b131b232b360811b901a6149468688614b06565b9190614a02565b9060009180835282602052604083209160018060a01b03169182845260205260ff604084205416614ac257505050565b80835282602052604083208284526020526040832060ff1981541690557ff6391f5c32d9c69d2a47ea670b442974b53935d1edc7fd64eb21e047a839171b339380a4565b9081518110156144c6570160200190565b8015614b24576000190190565b634e487b7160e01b600052601160045260246000fd5b60405190614b478261434e565b602a82526020820160403682378251156144c6576030905381516001908110156144c657607860218401536029905b808211614bca575050614b865790565b606460405162461bcd60e51b815260206004820152602060248201527f537472696e67733a20686578206c656e67746820696e73756666696369656e746044820152fd5b9091600f8116906010821015614c0e57614c08916f181899199a1a9b1b9c1cb0b131b232b360811b901a614bfe8587614b06565b5360041c92614b17565b90614b76565b60246000634e487b7160e01b81526032600452fd5b939291614c4c90614c3e60409360608852606088019061446c565b90868203602088015261446c565b930152565b6000198114614b245760010190565b6001600160401b0381116142ef5760051b60200190565b8051156144c65760200190565b80518210156144c65760209160051b010190565b805115614cf957604051611ce2614cbd83519260208181870195612165818389614449565b60208151910120908251902003614cd45750600190565b6040516311bb0bc960e31b8152602060048201529081906104d590602483019061446c565b60405163f855236d60e01b8152602060048201529081906104d590602483019061446c565b60009060ff16600a811015614d4a57603091500160ff8111614b245760f81b6001600160f81b03191690565b60610160ff8111614d8b5760ff6009199116019060ff8211614d77575060f81b6001600160f81b03191690565b634e487b7160e01b81526011600452602490fd5b634e487b7160e01b82526011600452602482fd5b81601f8201121561049a578051614db5816143a5565b92614dc36040519485614384565b8184526020828401011161049a576144469160208085019101614449565b51906001600160a01b038216820361049a57565b5190811515820361049a57565b60065460405163a672d98760e01b815260206004820152906001600160a01b031660008280614e34602482018761446c565b0381845afa91821561523c5760009261530d575b5060408051631d68ac3560e21b81526020600482015291829081600081614e72602482018a61446c565b03925af190811561523c576000906000926152c5575b50156152865715615248576000614ec79260018060a01b03600954166040518080968194630fe7932160e31b835260206004840152602483019061446c565b03915afa91821561523c576000926150a6575b5081511561504d5761014081015182516001600160a01b0390911692815b614fab57505060e001516001600160a01b03908116911603614f4957600190604051614f2381614333565b6016815275537570706c79636861696e2069732056616c6964212160501b602082015290565b600090604051614f588161434e565b603f81527f4f776e65727368697020636861696e20646f6573206e6f74206c65616420626160208201527f636b20746f20746865206f726967696e616c2072656769737472616e74212100604082015290565b90926000198401848111614b2457614fc39083614c84565b51604081015190916001600160a01b03918216911603614ffb57602001516001600160a01b031692614ff490614b17565b9081614ef8565b5050505060009060405161500e8161434e565b602981527f496e76616c6964206f776e65727368697020636861696e20696e207472616e73602082015268616374696f6e73212160b81b604082015290565b505060009060405161505e8161434e565b603281527f4e6f207472616e73616374696f6e20686973746f727920666f756e6420666f72602082015271081cdc1958da599a5959081b5a5b995c985b60721b604082015290565b9091503d806000833e6150b98183614384565b602082828101031261049a5781516001600160401b03811161049a57818301601f82850101121561049a5780830151906150f282614c60565b936151006040519586614384565b828552602085019084810160208560051b85840101011161049a57602083820101915b60208560051b85840101018310615141575050505050509038614eda565b8251906001600160401b03821161049a5760c0838601830188850103601f19011261049a57604051918260c08101106001600160401b0360c0850111176142ef5760c0830160409081528487018201602081015185526151a19101614de1565b60208401526151b66060828887010101614de1565b60408401526080818786010101516001600160401b03811161049a576151e89060208a870191848a8901010101614d9f565b6060840152838601810160a0810151608085015260c00151916001600160401b03831161049a5760209361522a8594938580958d8a01928c8b01010101614d9f565b60a08201528152019301929050615123565b6040513d6000823e3d90fd5b505060009060405161525981614333565b601a81527f4d696e6572616c206973206e6f7420696e737065637465642121000000000000602082015290565b50505060009060405161529881614333565b601881527f4d696e6572616c206973206e6f74206175646974656421210000000000000000602082015290565b9150506040813d604011615305575b816152e160409383614384565b8101031261049a576152fe60206152f783614df5565b9201614df5565b9038614e88565b3d91506152d4565b9091503d806000833e6153208183614384565b810160208282031261049a5781516001600160401b039283821161049a5701906102008282031261049a5760405192615358846142d3565b825181811161049a578261536d918501614d9f565b8452602083015181811161049a5782615387918501614d9f565b6020850152604083015181811161049a57826153a4918501614d9f565b6040850152606083015181811161049a57826153c1918501614d9f565b60608501526080830151608085015260a083015160a085015260c083015181811161049a57826153f2918501614d9f565b60c085015261540360e08401614de1565b60e08501526101008084015182811161049a5783615422918601614d9f565b90850152610120918284015191821161049a57615440918401614d9f565b90830152610140615452818301614de1565b90830152610160615464818301614df5565b90830152610180615476818301614df5565b908301526101a0615488818301614df5565b908301526101c061549a818301614df5565b908301526101e080910151908201529038614e4856feddaa901e2fe3bda354fe0ede2785152d5c109282a613fe024a056a3e66c41bb3273dcf2136c7d8ef632bb8ef13dbca69a8f36fa620c7468671b3153d46a211c0e79ff94798edc2ecc7df6ab28cddd17159206249cadadb34568ee57ca9ee4e35f8cd32ed93fc2f9fc78152a14807c9609af3d99c5fe4dc6b106a801aaddfe90ea952726ef2588ad078edf35b066f7c7406e207cb0003bbaba8cb53eba9553e7259a1c48e5837ad7a7f3dcedcbe129bf3249ec4fbf651fd4f5e2600ead39fe2f5a977e1a3444218ff332edf735c56487bbe59922b15c88777d443eb8b78020f4da2646970667358221220e204848913fef894b448a8a913d194d8609dafc4d7e149ea3e7024dbc300767964736f6c634300081400332f8788117e7eff1d82e926ec794901d17c78024a50270940304540a733656f0d",
  "devdoc": {
    "events": {
      "OperationValidated(address,string,uint256)": {
        "details": "Events for traceability"
      },
      "RoleAdminChanged(bytes32,bytes32,bytes32)": {
        "details": "Emitted when `newAdminRole` is set as ``role``'s admin role, replacing `previousAdminRole` `DEFAULT_ADMIN_ROLE` is the starting admin for all roles, despite {RoleAdminChanged} not being emitted signaling this. _Available since v3.1._"
      },
      "RoleGranted(bytes32,address,address)": {
        "details": "Emitted when `account` is granted `role`. `sender` is the account that originated the contract call, an admin role bearer except when using {AccessControl-_setupRole}."
      },
      "RoleRevoked(bytes32,address,address)": {
        "details": "Emitted when `account` is revoked `role`. `sender` is the account that originated the contract call:   - if using `revokeRole`, it is the admin role bearer   - if using `renounceRole`, it is the role bearer (i.e. `account`)"
      }
    },
    "kind": "dev",
    "methods": {
      "_auditMineral(string,string)": {
        "details": "only the auditor can audit mineralDetails.Logs audit report on every successful audit.",
        "params": {
          "mineralId": "The ID of the mineral under audition.",
          "report": "The audit status report of the mineral under audition."
        }
      },
      "checkAuditAndInspectionStatus(string)": {
        "details": "checks audit and inspection status",
        "params": {
          "mineralId": "The ID of the mineral to check for audit and inspection status Returns (isValid, isInspected) statuses of both audit and inspection of mineral according to mineralId"
        }
      },
      "getAllRoleCounts()": {
        "details": "Returns all role counts in a single call",
        "returns": {
          "auditorCount": "Number of auditors",
          "buyerCount": "Number of buyers",
          "inspectorCount": "Number of inspectors",
          "minerCount": "Number of miners",
          "refinerCount": "Number of refiners",
          "transporterCount": "Number of transporters"
        }
      },
      "getRoleAdmin(bytes32)": {
        "details": "Returns the admin role that controls `role`. See {grantRole} and {revokeRole}. To change a role's admin, use {_setRoleAdmin}."
      },
      "getRoleMemberCount(bytes32)": {
        "details": "Returns the number of accounts that have a specific role",
        "params": {
          "role": "The role to query member count for"
        },
        "returns": {
          "count": "The number of accounts with the role"
        }
      },
      "getRolesForAddress(address)": {
        "details": "Returns all roles assigned to a given address",
        "params": {
          "account": "The address to check roles for"
        },
        "returns": {
          "roles": "An array of role names the address has"
        }
      },
      "grantRole(bytes32,address)": {
        "details": "Grants `role` to `account`. If `account` had not been already granted `role`, emits a {RoleGranted} event. Requirements: - the caller must have ``role``'s admin role. May emit a {RoleGranted} event."
      },
      "hasMinerRole(address)": {
        "details": "Roles helper functionschecks if an account has a specific role",
        "params": {
          "account": "The address of the account to checked with role association"
        }
      },
      "hasRole(bytes32,address)": {
        "details": "Returns `true` if `account` has been granted `role`."
      },
      "inspectMineral(string,string)": {
        "details": "only the inspector can inspect mineralDetailsLogs audit report on every successful inspection",
        "params": {
          "mineralId": "The ID of the mineral under inspection",
          "report": "The inspection status report of the mineral under inspection"
        }
      },
      "isMineralRegistered(string)": {
        "details": "checks if a mineral with the given ID is registered",
        "params": {
          "mineralId": "the ID of the mineral to check"
        },
        "returns": {
          "_0": "A boolean indicating whether the mineral is registered or not"
        }
      },
      "logValidationResult(string)": {
        "details": "Logs validation results for specified mineral",
        "params": {
          "mineralId": "The ID of the mineral to validate"
        }
      },
      "purchaseMineral(string)": {
        "details": "Only the buyer can purchase mineralDetails",
        "params": {
          "mineralId": "The ID of the mineral under purchase"
        }
      },
      "refineMineral(string,string)": {
        "details": "only the refiner can refiner a mineral",
        "params": {
          "mineralId": "The ID of the mineral under refinery"
        }
      },
      "registerMineral(string,string,uint256,string,uint256,string)": {
        "details": "Register a new mineral - only by miner.Every mineral is assigned a unique mineralId.",
        "params": {
          "_mineralType": "The type of a mineral.",
          "_name": "Mineral name.",
          "_origin": "Mineral Origin.",
          "_purityPercentage": "Mineral purity in percentage.",
          "_storageConditions": "Mineral Storage conditions.",
          "_weight": "Mineral weight in uint256."
        }
      },
      "renounceRole(bytes32,address)": {
        "details": "Revokes `role` from the calling account. Roles are often managed via {grantRole} and {revokeRole}: this function's purpose is to provide a mechanism for accounts to lose their privileges if they are compromised (such as when a trusted device is misplaced). If the calling account had been revoked `role`, emits a {RoleRevoked} event. Requirements: - the caller must be `account`. May emit a {RoleRevoked} event."
      },
      "revokeRole(bytes32,address)": {
        "details": "Revokes `role` from `account`. If `account` had been granted `role`, emits a {RoleRevoked} event. Requirements: - the caller must have ``role``'s admin role. May emit a {RoleRevoked} event."
      },
      "supportsInterface(bytes4)": {
        "details": "See {IERC165-supportsInterface}."
      },
      "transferMineral(string,address,string,string)": {
        "details": "only the transporter can transport mineralDetails",
        "params": {
          "_destination": "The Destination area of the mineral(string)",
          "_origin": "The Original location of the mineral under transportation",
          "_receivingParty": "The address of the destination portal",
          "mineralId": "The ID of the mineral under transportation"
        }
      },
      "validateInspectionOperation(string,address)": {
        "details": "validates Inspection operation"
      },
      "validateMiningOperation(string)": {
        "details": "validates mining operation"
      },
      "validatePurchaseOperation(string,address)": {
        "details": "validate purchase operation"
      },
      "validateRefiningOperation(string)": {
        "details": "validates refining operation"
      },
      "validateSupplychain(string)": {
        "details": "Validates the supply chain of a mineral",
        "params": {
          "mineralId": "The ID of the mineral to validate"
        },
        "returns": {
          "isValid": "Indicates whether the supply chain is valid",
          "validationReason": "A string describing the validation result"
        }
      },
      "validateTransportationOperation(string,address)": {
        "details": "validates transportation operation"
      }
    },
    "version": 1
  },
  "userdoc": {
    "kind": "user",
    "methods": {
      "_auditMineral(string,string)": {
        "notice": "Emits MineralAudited event."
      },
      "inspectMineral(string,string)": {
        "notice": "Emits MineralInspected event on successful inspection"
      },
      "logValidationResult(string)": {
        "notice": "Emits SupplychainValidated, an event with the validation reason of the mineral supplychain"
      },
      "purchaseMineral(string)": {
        "notice": "Emits MineralPurchased event on successful purchase"
      },
      "refineMineral(string,string)": {
        "notice": "Emits MineralRefined event on successfl refining process"
      },
      "registerMineral(string,string,uint256,string,uint256,string)": {
        "notice": "Emits MineralRegistered event on successful registration."
      },
      "transferMineral(string,address,string,string)": {
        "notice": "Emits MineralTransported on successful transportation"
      },
      "validateInspectionOperation(string,address)": {
        "notice": "Emits OperationValidated event on successfl validataion"
      },
      "validateMiningOperation(string)": {
        "notice": "Emits OperationValidated event fon successful operation validation"
      },
      "validatePurchaseOperation(string,address)": {
        "notice": "Emits OperationValidated event on success validation"
      },
      "validateRefiningOperation(string)": {
        "notice": "Emits OperationValidated even on successful validation"
      },
      "validateTransportationOperation(string,address)": {
        "notice": "Emits OperationValidated even on successful validation"
      }
    },
    "version": 1
  },
  "storageLayout": {
    "storage": [
      {
        "astId": 24,
        "contract": "contracts/core/SupplychainValidator.sol:SupplychainValidator",
        "label": "_roles",
        "offset": 0,
        "slot": "0",
        "type": "t_mapping(t_bytes32,t_struct(RoleData)19_storage)"
      },
      {
        "astId": 3677,
        "contract": "contracts/core/SupplychainValidator.sol:SupplychainValidator",
        "label": "nonce",
        "offset": 0,
        "slot": "1",
        "type": "t_uint256"
      },
      {
        "astId": 3682,
        "contract": "contracts/core/SupplychainValidator.sol:SupplychainValidator",
        "label": "mineralDetails",
        "offset": 0,
        "slot": "2",
        "type": "t_mapping(t_string_memory_ptr,t_struct(MineralDetails)3659_storage)"
      },
      {
        "astId": 3688,
        "contract": "contracts/core/SupplychainValidator.sol:SupplychainValidator",
        "label": "mineralHistories",
        "offset": 0,
        "slot": "3",
        "type": "t_mapping(t_string_memory_ptr,t_array(t_struct(MineralHistory)3670_storage)dyn_storage)"
      },
      {
        "astId": 3692,
        "contract": "contracts/core/SupplychainValidator.sol:SupplychainValidator",
        "label": "roleMemberCount",
        "offset": 0,
        "slot": "4",
        "type": "t_mapping(t_bytes32,t_uint256)"
      },
      {
        "astId": 5526,
        "contract": "contracts/core/SupplychainValidator.sol:SupplychainValidator",
        "label": "rolesManager",
        "offset": 0,
        "slot": "5",
        "type": "t_contract(RolesManager)5505"
      },
      {
        "astId": 5529,
        "contract": "contracts/core/SupplychainValidator.sol:SupplychainValidator",
        "label": "mineralRegistry",
        "offset": 0,
        "slot": "6",
        "type": "t_contract(MineralRegistry)9760"
      },
      {
        "astId": 5532,
        "contract": "contracts/core/SupplychainValidator.sol:SupplychainValidator",
        "label": "privacyGuard",
        "offset": 0,
        "slot": "7",
        "type": "t_contract(PrivacyGuard)3390"
      },
      {
        "astId": 5535,
        "contract": "contracts/core/SupplychainValidator.sol:SupplychainValidator",
        "label": "tokenization",
        "offset": 0,
        "slot": "8",
        "type": "t_contract(Tokenization)10833"
      },
      {
        "astId": 5538,
        "contract": "contracts/core/SupplychainValidator.sol:SupplychainValidator",
        "label": "transactionLog",
        "offset": 0,
        "slot": "9",
        "type": "t_contract(TransactionLog)7082"
      },
      {
        "astId": 5541,
        "contract": "contracts/core/SupplychainValidator.sol:SupplychainValidator",
        "label": "logisticsManager",
        "offset": 0,
        "slot": "10",
        "type": "t_contract(LogisticsManager)7538"
      }
    ],
    "types": {
      "t_address": {
        "encoding": "inplace",
        "label": "address",
        "numberOfBytes": "20"
      },
      "t_array(t_struct(MineralHistory)3670_storage)dyn_storage": {
        "base": "t_struct(MineralHistory)3670_storage",
        "encoding": "dynamic_array",
        "label": "struct RolesManager.MineralHistory[]",
        "numberOfBytes": "32"
      },
      "t_bool": {
        "encoding": "inplace",
        "label": "bool",
        "numberOfBytes": "1"
      },
      "t_bytes32": {
        "encoding": "inplace",
        "label": "bytes32",
        "numberOfBytes": "32"
      },
      "t_contract(LogisticsManager)7538": {
        "encoding": "inplace",
        "label": "contract LogisticsManager",
        "numberOfBytes": "20"
      },
      "t_contract(MineralRegistry)9760": {
        "encoding": "inplace",
        "label": "contract MineralRegistry",
        "numberOfBytes": "20"
      },
      "t_contract(PrivacyGuard)3390": {
        "encoding": "inplace",
        "label": "contract PrivacyGuard",
        "numberOfBytes": "20"
      },
      "t_contract(RolesManager)5505": {
        "encoding": "inplace",
        "label": "contract RolesManager",
        "numberOfBytes": "20"
      },
      "t_contract(Tokenization)10833": {
        "encoding": "inplace",
        "label": "contract Tokenization",
        "numberOfBytes": "20"
      },
      "t_contract(TransactionLog)7082": {
        "encoding": "inplace",
        "label": "contract TransactionLog",
        "numberOfBytes": "20"
      },
      "t_mapping(t_address,t_bool)": {
        "encoding": "mapping",
        "key": "t_address",
        "label": "mapping(address => bool)",
        "numberOfBytes": "32",
        "value": "t_bool"
      },
      "t_mapping(t_bytes32,t_struct(RoleData)19_storage)": {
        "encoding": "mapping",
        "key": "t_bytes32",
        "label": "mapping(bytes32 => struct AccessControl.RoleData)",
        "numberOfBytes": "32",
        "value": "t_struct(RoleData)19_storage"
      },
      "t_mapping(t_bytes32,t_uint256)": {
        "encoding": "mapping",
        "key": "t_bytes32",
        "label": "mapping(bytes32 => uint256)",
        "numberOfBytes": "32",
        "value": "t_uint256"
      },
      "t_mapping(t_string_memory_ptr,t_array(t_struct(MineralHistory)3670_storage)dyn_storage)": {
        "encoding": "mapping",
        "key": "t_string_memory_ptr",
        "label": "mapping(string => struct RolesManager.MineralHistory[])",
        "numberOfBytes": "32",
        "value": "t_array(t_struct(MineralHistory)3670_storage)dyn_storage"
      },
      "t_mapping(t_string_memory_ptr,t_struct(MineralDetails)3659_storage)": {
        "encoding": "mapping",
        "key": "t_string_memory_ptr",
        "label": "mapping(string => struct RolesManager.MineralDetails)",
        "numberOfBytes": "32",
        "value": "t_struct(MineralDetails)3659_storage"
      },
      "t_string_memory_ptr": {
        "encoding": "bytes",
        "label": "string",
        "numberOfBytes": "32"
      },
      "t_string_storage": {
        "encoding": "bytes",
        "label": "string",
        "numberOfBytes": "32"
      },
      "t_struct(MineralDetails)3659_storage": {
        "encoding": "inplace",
        "label": "struct RolesManager.MineralDetails",
        "members": [
          {
            "astId": 3628,
            "contract": "contracts/core/SupplychainValidator.sol:SupplychainValidator",
            "label": "id",
            "offset": 0,
            "slot": "0",
            "type": "t_string_storage"
          },
          {
            "astId": 3630,
            "contract": "contracts/core/SupplychainValidator.sol:SupplychainValidator",
            "label": "name",
            "offset": 0,
            "slot": "1",
            "type": "t_string_storage"
          },
          {
            "astId": 3632,
            "contract": "contracts/core/SupplychainValidator.sol:SupplychainValidator",
            "label": "origin",
            "offset": 0,
            "slot": "2",
            "type": "t_string_storage"
          },
          {
            "astId": 3634,
            "contract": "contracts/core/SupplychainValidator.sol:SupplychainValidator",
            "label": "mineralType",
            "offset": 0,
            "slot": "3",
            "type": "t_string_storage"
          },
          {
            "astId": 3636,
            "contract": "contracts/core/SupplychainValidator.sol:SupplychainValidator",
            "label": "weight",
            "offset": 0,
            "slot": "4",
            "type": "t_uint256"
          },
          {
            "astId": 3638,
            "contract": "contracts/core/SupplychainValidator.sol:SupplychainValidator",
            "label": "purityPercentage",
            "offset": 0,
            "slot": "5",
            "type": "t_uint256"
          },
          {
            "astId": 3640,
            "contract": "contracts/core/SupplychainValidator.sol:SupplychainValidator",
            "label": "storageConditions",
            "offset": 0,
            "slot": "6",
            "type": "t_string_storage"
          },
          {
            "astId": 3642,
            "contract": "contracts/core/SupplychainValidator.sol:SupplychainValidator",
            "label": "registeredBy",
            "offset": 0,
            "slot": "7",
            "type": "t_address"
          },
          {
            "astId": 3644,
            "contract": "contracts/core/SupplychainValidator.sol:SupplychainValidator",
            "label": "currentStatus",
            "offset": 0,
            "slot": "8",
            "type": "t_string_storage"
          },
          {
            "astId": 3646,
            "contract": "contracts/core/SupplychainValidator.sol:SupplychainValidator",
            "label": "currentLocation",
            "offset": 0,
            "slot": "9",
            "type": "t_string_storage"
          },
          {
            "astId": 3648,
            "contract": "contracts/core/SupplychainValidator.sol:SupplychainValidator",
            "label": "currentHandler",
            "offset": 0,
            "slot": "10",
            "type": "t_address"
          },
          {
            "astId": 3650,
            "contract": "contracts/core/SupplychainValidator.sol:SupplychainValidator",
            "label": "isPurchased",
            "offset": 20,
            "slot": "10",
            "type": "t_bool"
          },
          {
            "astId": 3652,
            "contract": "contracts/core/SupplychainValidator.sol:SupplychainValidator",
            "label": "isRefined",
            "offset": 21,
            "slot": "10",
            "type": "t_bool"
          },
          {
            "astId": 3654,
            "contract": "contracts/core/SupplychainValidator.sol:SupplychainValidator",
            "label": "isAudited",
            "offset": 22,
            "slot": "10",
            "type": "t_bool"
          },
          {
            "astId": 3656,
            "contract": "contracts/core/SupplychainValidator.sol:SupplychainValidator",
            "label": "isInspected",
            "offset": 23,
            "slot": "10",
            "type": "t_bool"
          },
          {
            "astId": 3658,
            "contract": "contracts/core/SupplychainValidator.sol:SupplychainValidator",
            "label": "timestamp",
            "offset": 0,
            "slot": "11",
            "type": "t_uint256"
          }
        ],
        "numberOfBytes": "384"
      },
      "t_struct(MineralHistory)3670_storage": {
        "encoding": "inplace",
        "label": "struct RolesManager.MineralHistory",
        "members": [
          {
            "astId": 3661,
            "contract": "contracts/core/SupplychainValidator.sol:SupplychainValidator",
            "label": "id",
            "offset": 0,
            "slot": "0",
            "type": "t_string_storage"
          },
          {
            "astId": 3663,
            "contract": "contracts/core/SupplychainValidator.sol:SupplychainValidator",
            "label": "fieldChanged",
            "offset": 0,
            "slot": "1",
            "type": "t_string_storage"
          },
          {
            "astId": 3665,
            "contract": "contracts/core/SupplychainValidator.sol:SupplychainValidator",
            "label": "newValue",
            "offset": 0,
            "slot": "2",
            "type": "t_string_storage"
          },
          {
            "astId": 3667,
            "contract": "contracts/core/SupplychainValidator.sol:SupplychainValidator",
            "label": "updatedBy",
            "offset": 0,
            "slot": "3",
            "type": "t_address"
          },
          {
            "astId": 3669,
            "contract": "contracts/core/SupplychainValidator.sol:SupplychainValidator",
            "label": "timestamp",
            "offset": 0,
            "slot": "4",
            "type": "t_uint256"
          }
        ],
        "numberOfBytes": "160"
      },
      "t_struct(RoleData)19_storage": {
        "encoding": "inplace",
        "label": "struct AccessControl.RoleData",
        "members": [
          {
            "astId": 16,
            "contract": "contracts/core/SupplychainValidator.sol:SupplychainValidator",
            "label": "members",
            "offset": 0,
            "slot": "0",
            "type": "t_mapping(t_address,t_bool)"
          },
          {
            "astId": 18,
            "contract": "contracts/core/SupplychainValidator.sol:SupplychainValidator",
            "label": "adminRole",
            "offset": 0,
            "slot": "1",
            "type": "t_bytes32"
          }
        ],
        "numberOfBytes": "64"
      },
      "t_uint256": {
        "encoding": "inplace",
        "label": "uint256",
        "numberOfBytes": "32"
      }
    }
  }
}