{
  "address": "0x269334D3c3Fb7967E160909245a1efdC3052C685",
  "abi": [
    {
      "inputs": [],
      "stateMutability": "nonpayable",
      "type": "constructor"
    },
    {
      "inputs": [
        {
          "internalType": "address",
          "name": "caller",
          "type": "address"
        },
        {
          "internalType": "bytes32",
          "name": "role",
          "type": "bytes32"
        }
      ],
      "name": "AddressDoesNotHaveRequiredRole",
      "type": "error"
    },
    {
      "inputs": [
        {
          "internalType": "address",
          "name": "caller",
          "type": "address"
        }
      ],
      "name": "DisputeResolution__AlreadyVoted",
      "type": "error"
    },
    {
      "inputs": [
        {
          "internalType": "uint256",
          "name": "disputeId",
          "type": "uint256"
        }
      ],
      "name": "DisputeResolution__DisputeEscalated_UnableToVote",
      "type": "error"
    },
    {
      "inputs": [
        {
          "internalType": "uint256",
          "name": "disputeId",
          "type": "uint256"
        }
      ],
      "name": "DisputeResolution__DisputeNotEscalated",
      "type": "error"
    },
    {
      "inputs": [
        {
          "internalType": "uint256",
          "name": "disputeId",
          "type": "uint256"
        }
      ],
      "name": "DisputeResolution__DisputeStatusNotPending",
      "type": "error"
    },
    {
      "inputs": [],
      "name": "DisputeResolution__DisputeStatusNotPendingOrEscalated",
      "type": "error"
    },
    {
      "inputs": [],
      "name": "DisputeResolution__InvalidDisputeDefendantAddress",
      "type": "error"
    },
    {
      "inputs": [],
      "name": "DisputeResolution__InvalidDisputeDetails",
      "type": "error"
    },
    {
      "inputs": [],
      "name": "DisputeResolution__InvalidDisputeEvidence",
      "type": "error"
    },
    {
      "inputs": [],
      "name": "DisputeResolution__InvalidDisputeIdOrNotFound",
      "type": "error"
    },
    {
      "inputs": [],
      "name": "DisputeResolution__InvalidMineralIdOrNotFound",
      "type": "error"
    },
    {
      "inputs": [],
      "name": "DisputeResolution__InvalidResolutionDetails",
      "type": "error"
    },
    {
      "inputs": [
        {
          "internalType": "address",
          "name": "caller",
          "type": "address"
        }
      ],
      "name": "DisputeResolution__NotEligibleToVote",
      "type": "error"
    },
    {
      "inputs": [],
      "name": "DisputeResolution__VotingPeriodStillActive",
      "type": "error"
    },
    {
      "inputs": [
        {
          "internalType": "address",
          "name": "token",
          "type": "address"
        },
        {
          "internalType": "uint256",
          "name": "tokenAmount",
          "type": "uint256"
        }
      ],
      "name": "ERC20TokenTransferFailed",
      "type": "error"
    },
    {
      "inputs": [
        {
          "internalType": "address",
          "name": "caller",
          "type": "address"
        }
      ],
      "name": "InsufficientPermissionsToPerformAction",
      "type": "error"
    },
    {
      "inputs": [],
      "name": "InvalidAccountAddress",
      "type": "error"
    },
    {
      "inputs": [
        {
          "internalType": "string",
          "name": "mineralId",
          "type": "string"
        }
      ],
      "name": "InvalidMineralIdOrNotFound",
      "type": "error"
    },
    {
      "inputs": [],
      "name": "InvalidPaymentMethods",
      "type": "error"
    },
    {
      "inputs": [
        {
          "internalType": "string",
          "name": "currentStatus",
          "type": "string"
        },
        {
          "internalType": "string",
          "name": "attemptedStatus",
          "type": "string"
        }
      ],
      "name": "InvalidTransportStateTransition",
      "type": "error"
    },
    {
      "inputs": [
        {
          "internalType": "string",
          "name": "mineralId",
          "type": "string"
        }
      ],
      "name": "MineralNotMarketReady",
      "type": "error"
    },
    {
      "inputs": [
        {
          "internalType": "string",
          "name": "mineralId",
          "type": "string"
        }
      ],
      "name": "MineralNotReadyToTrade",
      "type": "error"
    },
    {
      "inputs": [],
      "name": "MineralRegistry__InvalidMineralDestination",
      "type": "error"
    },
    {
      "inputs": [],
      "name": "MineralRegistry__InvalidMineralDetails",
      "type": "error"
    },
    {
      "inputs": [
        {
          "internalType": "string",
          "name": "mineralId",
          "type": "string"
        }
      ],
      "name": "MineralRegistry__InvalidMineralIdOrNotFound",
      "type": "error"
    },
    {
      "inputs": [],
      "name": "MineralRegistry__InvalidMineralLocation",
      "type": "error"
    },
    {
      "inputs": [],
      "name": "MineralRegistry__InvalidMineralName",
      "type": "error"
    },
    {
      "inputs": [],
      "name": "MineralRegistry__InvalidMineralOrigin",
      "type": "error"
    },
    {
      "inputs": [],
      "name": "MineralRegistry__InvalidMineralPurityPercentage",
      "type": "error"
    },
    {
      "inputs": [],
      "name": "MineralRegistry__InvalidMineralStatus",
      "type": "error"
    },
    {
      "inputs": [],
      "name": "MineralRegistry__InvalidMineralStorageConditions",
      "type": "error"
    },
    {
      "inputs": [],
      "name": "MineralRegistry__InvalidMineralType",
      "type": "error"
    },
    {
      "inputs": [],
      "name": "MineralRegistry__InvalidMineralWeight",
      "type": "error"
    },
    {
      "inputs": [],
      "name": "MineralRegistry__InvalidReceivingPartyAddress",
      "type": "error"
    },
    {
      "inputs": [],
      "name": "MineralRegistry__MineralAlreadyAudited",
      "type": "error"
    },
    {
      "inputs": [],
      "name": "MineralRegistry__MineralAlreadyInspected",
      "type": "error"
    },
    {
      "inputs": [],
      "name": "MineralRegistry__MineralAlreadyPurchased",
      "type": "error"
    },
    {
      "inputs": [],
      "name": "MineralRegistry__MineralNotAudited",
      "type": "error"
    },
    {
      "inputs": [],
      "name": "MineralRegistry__MineralNotInspected",
      "type": "error"
    },
    {
      "inputs": [
        {
          "internalType": "string",
          "name": "mineralId",
          "type": "string"
        }
      ],
      "name": "MineralRegistry__MineralNotRegistered",
      "type": "error"
    },
    {
      "inputs": [],
      "name": "MineralWarehouse__ETHTransferFailed",
      "type": "error"
    },
    {
      "inputs": [],
      "name": "MineralWarehouse__IncorrectETHAmount",
      "type": "error"
    },
    {
      "inputs": [],
      "name": "MineralWarehouse__InvalidETHPrice",
      "type": "error"
    },
    {
      "inputs": [],
      "name": "MineralWarehouse__InvalidMineralPrice",
      "type": "error"
    },
    {
      "inputs": [],
      "name": "MineralWarehouse__InvalidNumberOfPrices",
      "type": "error"
    },
    {
      "inputs": [
        {
          "internalType": "address",
          "name": "tokenAddress",
          "type": "address"
        }
      ],
      "name": "MineralWarehouse__InvalidTokenAddress",
      "type": "error"
    },
    {
      "inputs": [],
      "name": "MineralWarehouse__InvalidTokenPrice",
      "type": "error"
    },
    {
      "inputs": [
        {
          "internalType": "string",
          "name": "mineralId",
          "type": "string"
        }
      ],
      "name": "MineralWarehouse__MineralAlreadySold",
      "type": "error"
    },
    {
      "inputs": [
        {
          "internalType": "string",
          "name": "mineralId",
          "type": "string"
        }
      ],
      "name": "MineralWarehouse__MineralNotFoundInWarehouse",
      "type": "error"
    },
    {
      "inputs": [
        {
          "internalType": "string",
          "name": "mineralId",
          "type": "string"
        }
      ],
      "name": "MineralWarehouse__MineralNotMarketReady",
      "type": "error"
    },
    {
      "inputs": [
        {
          "internalType": "string",
          "name": "mineralId",
          "type": "string"
        }
      ],
      "name": "MineralWarehouse__MineralNotRefined",
      "type": "error"
    },
    {
      "inputs": [],
      "name": "MineralWarehouse__MismatchedArrays",
      "type": "error"
    },
    {
      "inputs": [
        {
          "internalType": "address",
          "name": "tokenAddress",
          "type": "address"
        }
      ],
      "name": "MineralWarehouse__TokenNotAccepted",
      "type": "error"
    },
    {
      "inputs": [
        {
          "internalType": "address",
          "name": "tokenAddress",
          "type": "address"
        }
      ],
      "name": "MineralWarehouse__UnacceptedToken",
      "type": "error"
    },
    {
      "inputs": [
        {
          "internalType": "address[]",
          "name": "tokenAddresses",
          "type": "address[]"
        }
      ],
      "name": "MineralWarehouse__UnacceptedTokens",
      "type": "error"
    },
    {
      "inputs": [
        {
          "internalType": "address",
          "name": "seller",
          "type": "address"
        }
      ],
      "name": "MineralWarehouse__UnauthorizedSeller",
      "type": "error"
    },
    {
      "inputs": [
        {
          "internalType": "string",
          "name": "mineralId",
          "type": "string"
        },
        {
          "internalType": "address",
          "name": "caller",
          "type": "address"
        }
      ],
      "name": "NotAssignedTransporter",
      "type": "error"
    },
    {
      "inputs": [],
      "name": "RolesManager__AccountAlreadyHasRole",
      "type": "error"
    },
    {
      "inputs": [],
      "name": "RolesManager__AccountDoesNotHaveRole",
      "type": "error"
    },
    {
      "inputs": [],
      "name": "RolesManager__InvalidAddress",
      "type": "error"
    },
    {
      "inputs": [],
      "name": "RolesManager__InvalidMineralDestination",
      "type": "error"
    },
    {
      "inputs": [],
      "name": "RolesManager__InvalidMineralIdOrNotFound",
      "type": "error"
    },
    {
      "inputs": [],
      "name": "RolesManager__InvalidMineralName",
      "type": "error"
    },
    {
      "inputs": [],
      "name": "RolesManager__InvalidMineralOrigin",
      "type": "error"
    },
    {
      "inputs": [],
      "name": "RolesManager__InvalidMineralPurityPercentage",
      "type": "error"
    },
    {
      "inputs": [],
      "name": "RolesManager__InvalidMineralStorageConditions",
      "type": "error"
    },
    {
      "inputs": [],
      "name": "RolesManager__InvalidMineralType",
      "type": "error"
    },
    {
      "inputs": [],
      "name": "RolesManager__InvalidMineralWeight",
      "type": "error"
    },
    {
      "inputs": [],
      "name": "RolesManager__InvalidReceivingPartyAddress",
      "type": "error"
    },
    {
      "inputs": [],
      "name": "RolesManager__InvalidRole",
      "type": "error"
    },
    {
      "inputs": [
        {
          "internalType": "string",
          "name": "mineralId",
          "type": "string"
        }
      ],
      "name": "RolesManager__MineralAlreadyAudited",
      "type": "error"
    },
    {
      "inputs": [
        {
          "internalType": "string",
          "name": "mineralId",
          "type": "string"
        }
      ],
      "name": "RolesManager__MineralAlreadyInspected",
      "type": "error"
    },
    {
      "inputs": [
        {
          "internalType": "string",
          "name": "mineralId",
          "type": "string"
        }
      ],
      "name": "RolesManager__MineralAlreadyPurchased",
      "type": "error"
    },
    {
      "inputs": [
        {
          "internalType": "string",
          "name": "mineralId",
          "type": "string"
        }
      ],
      "name": "RolesManager__MineralAlreadyRefined",
      "type": "error"
    },
    {
      "inputs": [
        {
          "internalType": "string",
          "name": "mineralId",
          "type": "string"
        }
      ],
      "name": "RolesManager__MineralNotMarketReady",
      "type": "error"
    },
    {
      "inputs": [
        {
          "internalType": "uint256",
          "name": "purityPercentage",
          "type": "uint256"
        }
      ],
      "name": "RolesManager__MineralPurityPercentageTooLowToRegister",
      "type": "error"
    },
    {
      "inputs": [
        {
          "internalType": "address",
          "name": "caller",
          "type": "address"
        }
      ],
      "name": "RolesManager__NotTheAssignedBuyer",
      "type": "error"
    },
    {
      "inputs": [
        {
          "internalType": "string",
          "name": "mineralId",
          "type": "string"
        }
      ],
      "name": "SupplychainValidator__InvalidMineralIdOrNotFound",
      "type": "error"
    },
    {
      "inputs": [],
      "name": "SupplychainValidator__InvalidMineralOwnershipChain",
      "type": "error"
    },
    {
      "inputs": [],
      "name": "SupplychainValidator__InvalidMineralTransactionHistory",
      "type": "error"
    },
    {
      "inputs": [
        {
          "internalType": "uint256",
          "name": "tokenId",
          "type": "uint256"
        },
        {
          "internalType": "address",
          "name": "caller",
          "type": "address"
        }
      ],
      "name": "Tokenization__CallerNotMineralTokenOwner",
      "type": "error"
    },
    {
      "inputs": [
        {
          "internalType": "uint256",
          "name": "tokenId",
          "type": "uint256"
        }
      ],
      "name": "Tokenization__InvalidTokenId",
      "type": "error"
    },
    {
      "inputs": [
        {
          "internalType": "uint256",
          "name": "tokenId",
          "type": "uint256"
        }
      ],
      "name": "Tokenization__InvalidTokenIdOrNotFound",
      "type": "error"
    },
    {
      "inputs": [
        {
          "internalType": "uint256",
          "name": "tokenId",
          "type": "uint256"
        }
      ],
      "name": "Tokenization__TokenAlreadyExists",
      "type": "error"
    },
    {
      "inputs": [
        {
          "internalType": "uint256",
          "name": "tokenId",
          "type": "uint256"
        }
      ],
      "name": "Tokenization__TokenIsAlreadyMinted",
      "type": "error"
    },
    {
      "inputs": [
        {
          "internalType": "uint256",
          "name": "index",
          "type": "uint256"
        }
      ],
      "name": "TransactionLog__InvalidOperationIndex",
      "type": "error"
    },
    {
      "inputs": [],
      "name": "TransactionLog__InvalidOperationType",
      "type": "error"
    },
    {
      "inputs": [
        {
          "internalType": "uint256",
          "name": "transactionId",
          "type": "uint256"
        }
      ],
      "name": "TransactionLog__InvalidTransactionIdOrNotFound",
      "type": "error"
    },
    {
      "inputs": [
        {
          "internalType": "string",
          "name": "mineralId",
          "type": "string"
        }
      ],
      "name": "TransportRequestAlreadyExists",
      "type": "error"
    },
    {
      "anonymous": false,
      "inputs": [
        {
          "indexed": true,
          "internalType": "address",
          "name": "assignee",
          "type": "address"
        },
        {
          "indexed": false,
          "internalType": "uint256",
          "name": "timestamp",
          "type": "uint256"
        }
      ],
      "name": "AdminRoleAssigned",
      "type": "event"
    },
    {
      "anonymous": false,
      "inputs": [
        {
          "indexed": true,
          "internalType": "address",
          "name": "revokee",
          "type": "address"
        },
        {
          "indexed": false,
          "internalType": "string",
          "name": "reason",
          "type": "string"
        },
        {
          "indexed": false,
          "internalType": "uint256",
          "name": "timestamp",
          "type": "uint256"
        }
      ],
      "name": "AdminRoleRevoked",
      "type": "event"
    },
    {
      "anonymous": false,
      "inputs": [
        {
          "indexed": true,
          "internalType": "address",
          "name": "owner",
          "type": "address"
        },
        {
          "indexed": true,
          "internalType": "address",
          "name": "approved",
          "type": "address"
        },
        {
          "indexed": true,
          "internalType": "uint256",
          "name": "tokenId",
          "type": "uint256"
        }
      ],
      "name": "Approval",
      "type": "event"
    },
    {
      "anonymous": false,
      "inputs": [
        {
          "indexed": true,
          "internalType": "address",
          "name": "owner",
          "type": "address"
        },
        {
          "indexed": true,
          "internalType": "address",
          "name": "operator",
          "type": "address"
        },
        {
          "indexed": false,
          "internalType": "bool",
          "name": "approved",
          "type": "bool"
        }
      ],
      "name": "ApprovalForAll",
      "type": "event"
    },
    {
      "anonymous": false,
      "inputs": [
        {
          "indexed": true,
          "internalType": "address",
          "name": "assignee",
          "type": "address"
        },
        {
          "indexed": false,
          "internalType": "uint256",
          "name": "timestamp",
          "type": "uint256"
        }
      ],
      "name": "AuditorRoleAssigned",
      "type": "event"
    },
    {
      "anonymous": false,
      "inputs": [
        {
          "indexed": true,
          "internalType": "address",
          "name": "revokee",
          "type": "address"
        },
        {
          "indexed": false,
          "internalType": "string",
          "name": "reason",
          "type": "string"
        },
        {
          "indexed": false,
          "internalType": "uint256",
          "name": "timestamp",
          "type": "uint256"
        }
      ],
      "name": "AuditorRoleRevoked",
      "type": "event"
    },
    {
      "anonymous": false,
      "inputs": [
        {
          "indexed": true,
          "internalType": "address",
          "name": "assignee",
          "type": "address"
        },
        {
          "indexed": false,
          "internalType": "uint256",
          "name": "timestamp",
          "type": "uint256"
        }
      ],
      "name": "BuyerRoleAssigned",
      "type": "event"
    },
    {
      "anonymous": false,
      "inputs": [
        {
          "indexed": true,
          "internalType": "address",
          "name": "revokee",
          "type": "address"
        },
        {
          "indexed": false,
          "internalType": "string",
          "name": "reason",
          "type": "string"
        },
        {
          "indexed": false,
          "internalType": "uint256",
          "name": "timestamp",
          "type": "uint256"
        }
      ],
      "name": "BuyerRoleRevoked",
      "type": "event"
    },
    {
      "anonymous": false,
      "inputs": [
        {
          "indexed": true,
          "internalType": "address",
          "name": "assignee",
          "type": "address"
        },
        {
          "indexed": false,
          "internalType": "uint256",
          "name": "timestamp",
          "type": "uint256"
        }
      ],
      "name": "InspectorRoleAssigned",
      "type": "event"
    },
    {
      "anonymous": false,
      "inputs": [
        {
          "indexed": true,
          "internalType": "address",
          "name": "revokee",
          "type": "address"
        },
        {
          "indexed": false,
          "internalType": "string",
          "name": "reason",
          "type": "string"
        },
        {
          "indexed": false,
          "internalType": "uint256",
          "name": "timestamp",
          "type": "uint256"
        }
      ],
      "name": "InspectorRoleRevoked",
      "type": "event"
    },
    {
      "anonymous": false,
      "inputs": [
        {
          "indexed": true,
          "internalType": "uint256",
          "name": "tokenId",
          "type": "uint256"
        }
      ],
      "name": "MetadataUpdated",
      "type": "event"
    },
    {
      "anonymous": false,
      "inputs": [
        {
          "indexed": true,
          "internalType": "address",
          "name": "assignee",
          "type": "address"
        },
        {
          "indexed": false,
          "internalType": "uint256",
          "name": "timestamp",
          "type": "uint256"
        }
      ],
      "name": "MinerRoleAssigned",
      "type": "event"
    },
    {
      "anonymous": false,
      "inputs": [
        {
          "indexed": true,
          "internalType": "address",
          "name": "revokee",
          "type": "address"
        },
        {
          "indexed": false,
          "internalType": "string",
          "name": "reason",
          "type": "string"
        },
        {
          "indexed": false,
          "internalType": "uint256",
          "name": "timestamp",
          "type": "uint256"
        }
      ],
      "name": "MinerRoleRevoked",
      "type": "event"
    },
    {
      "anonymous": false,
      "inputs": [
        {
          "indexed": false,
          "internalType": "string",
          "name": "mineralId",
          "type": "string"
        },
        {
          "indexed": false,
          "internalType": "string",
          "name": "status",
          "type": "string"
        },
        {
          "indexed": true,
          "internalType": "address",
          "name": "auditor",
          "type": "address"
        },
        {
          "indexed": false,
          "internalType": "uint256",
          "name": "auditedAt",
          "type": "uint256"
        }
      ],
      "name": "MineralAudited",
      "type": "event"
    },
    {
      "anonymous": false,
      "inputs": [
        {
          "indexed": false,
          "internalType": "string",
          "name": "mineralId",
          "type": "string"
        },
        {
          "indexed": false,
          "internalType": "string",
          "name": "mineralStatus",
          "type": "string"
        },
        {
          "indexed": true,
          "internalType": "address",
          "name": "inspector",
          "type": "address"
        },
        {
          "indexed": false,
          "internalType": "uint256",
          "name": "inspectedAt",
          "type": "uint256"
        }
      ],
      "name": "MineralInspected",
      "type": "event"
    },
    {
      "anonymous": false,
      "inputs": [
        {
          "indexed": false,
          "internalType": "string",
          "name": "mineralId",
          "type": "string"
        },
        {
          "indexed": true,
          "internalType": "address",
          "name": "buyer",
          "type": "address"
        },
        {
          "indexed": false,
          "internalType": "uint256",
          "name": "purchasedAt",
          "type": "uint256"
        }
      ],
      "name": "MineralPurchased",
      "type": "event"
    },
    {
      "anonymous": false,
      "inputs": [
        {
          "indexed": false,
          "internalType": "string",
          "name": "mineralId",
          "type": "string"
        },
        {
          "indexed": true,
          "internalType": "address",
          "name": "ApprovedBy",
          "type": "address"
        },
        {
          "indexed": false,
          "internalType": "string",
          "name": "status",
          "type": "string"
        },
        {
          "indexed": false,
          "internalType": "uint256",
          "name": "inspectionDate",
          "type": "uint256"
        }
      ],
      "name": "MineralReadyToTrade",
      "type": "event"
    },
    {
      "anonymous": false,
      "inputs": [
        {
          "indexed": false,
          "internalType": "string",
          "name": "mineralId",
          "type": "string"
        },
        {
          "indexed": false,
          "internalType": "string",
          "name": "refineryReport",
          "type": "string"
        },
        {
          "indexed": true,
          "internalType": "address",
          "name": "refiner",
          "type": "address"
        },
        {
          "indexed": false,
          "internalType": "uint256",
          "name": "refinedAt",
          "type": "uint256"
        }
      ],
      "name": "MineralRefined",
      "type": "event"
    },
    {
      "anonymous": false,
      "inputs": [
        {
          "indexed": false,
          "internalType": "string",
          "name": "mineralId",
          "type": "string"
        },
        {
          "indexed": false,
          "internalType": "string",
          "name": "mineralName",
          "type": "string"
        },
        {
          "indexed": false,
          "internalType": "string",
          "name": "mineralType",
          "type": "string"
        },
        {
          "indexed": false,
          "internalType": "string",
          "name": "origin",
          "type": "string"
        },
        {
          "indexed": false,
          "internalType": "uint256",
          "name": "weight",
          "type": "uint256"
        },
        {
          "indexed": false,
          "internalType": "uint256",
          "name": "purityPercentage",
          "type": "uint256"
        },
        {
          "indexed": true,
          "internalType": "address",
          "name": "miner",
          "type": "address"
        },
        {
          "indexed": false,
          "internalType": "uint256",
          "name": "registeredAt",
          "type": "uint256"
        }
      ],
      "name": "MineralRegistered",
      "type": "event"
    },
    {
      "anonymous": false,
      "inputs": [
        {
          "indexed": false,
          "internalType": "string",
          "name": "mineralId",
          "type": "string"
        },
        {
          "indexed": true,
          "internalType": "address",
          "name": "transporter",
          "type": "address"
        },
        {
          "indexed": false,
          "internalType": "address",
          "name": "receivingParty",
          "type": "address"
        },
        {
          "indexed": false,
          "internalType": "string",
          "name": "origin",
          "type": "string"
        },
        {
          "indexed": false,
          "internalType": "string",
          "name": "destination",
          "type": "string"
        },
        {
          "indexed": false,
          "internalType": "uint256",
          "name": "transportedAt",
          "type": "uint256"
        }
      ],
      "name": "MineralTransported",
      "type": "event"
    },
    {
      "anonymous": false,
      "inputs": [
        {
          "indexed": true,
          "internalType": "uint256",
          "name": "tokenId",
          "type": "uint256"
        },
        {
          "indexed": false,
          "internalType": "string",
          "name": "mineralId",
          "type": "string"
        },
        {
          "indexed": true,
          "internalType": "address",
          "name": "to",
          "type": "address"
        }
      ],
      "name": "Minted",
      "type": "event"
    },
    {
      "anonymous": false,
      "inputs": [
        {
          "indexed": true,
          "internalType": "address",
          "name": "assignee",
          "type": "address"
        },
        {
          "indexed": false,
          "internalType": "uint256",
          "name": "timestamp",
          "type": "uint256"
        }
      ],
      "name": "RefinerRoleAssigned",
      "type": "event"
    },
    {
      "anonymous": false,
      "inputs": [
        {
          "indexed": true,
          "internalType": "address",
          "name": "revokee",
          "type": "address"
        },
        {
          "indexed": false,
          "internalType": "string",
          "name": "reason",
          "type": "string"
        },
        {
          "indexed": false,
          "internalType": "uint256",
          "name": "timestamp",
          "type": "uint256"
        }
      ],
      "name": "RefinerRoleRevoked",
      "type": "event"
    },
    {
      "anonymous": false,
      "inputs": [
        {
          "indexed": true,
          "internalType": "uint256",
          "name": "tokenId",
          "type": "uint256"
        },
        {
          "indexed": false,
          "internalType": "string",
          "name": "reason",
          "type": "string"
        }
      ],
      "name": "Revoked",
      "type": "event"
    },
    {
      "anonymous": false,
      "inputs": [
        {
          "indexed": true,
          "internalType": "bytes32",
          "name": "role",
          "type": "bytes32"
        },
        {
          "indexed": true,
          "internalType": "bytes32",
          "name": "previousAdminRole",
          "type": "bytes32"
        },
        {
          "indexed": true,
          "internalType": "bytes32",
          "name": "newAdminRole",
          "type": "bytes32"
        }
      ],
      "name": "RoleAdminChanged",
      "type": "event"
    },
    {
      "anonymous": false,
      "inputs": [
        {
          "indexed": true,
          "internalType": "address",
          "name": "account",
          "type": "address"
        },
        {
          "indexed": true,
          "internalType": "bytes32",
          "name": "role",
          "type": "bytes32"
        },
        {
          "indexed": false,
          "internalType": "uint256",
          "name": "roleAssignedAt",
          "type": "uint256"
        }
      ],
      "name": "RoleAssigned",
      "type": "event"
    },
    {
      "anonymous": false,
      "inputs": [
        {
          "indexed": true,
          "internalType": "bytes32",
          "name": "role",
          "type": "bytes32"
        },
        {
          "indexed": true,
          "internalType": "address",
          "name": "account",
          "type": "address"
        },
        {
          "indexed": true,
          "internalType": "address",
          "name": "sender",
          "type": "address"
        }
      ],
      "name": "RoleGranted",
      "type": "event"
    },
    {
      "anonymous": false,
      "inputs": [
        {
          "indexed": true,
          "internalType": "bytes32",
          "name": "role",
          "type": "bytes32"
        },
        {
          "indexed": true,
          "internalType": "address",
          "name": "account",
          "type": "address"
        },
        {
          "indexed": true,
          "internalType": "address",
          "name": "sender",
          "type": "address"
        }
      ],
      "name": "RoleRevoked",
      "type": "event"
    },
    {
      "anonymous": false,
      "inputs": [
        {
          "indexed": false,
          "internalType": "bytes32",
          "name": "role",
          "type": "bytes32"
        },
        {
          "indexed": false,
          "internalType": "address",
          "name": "account",
          "type": "address"
        },
        {
          "indexed": false,
          "internalType": "address",
          "name": "revoker",
          "type": "address"
        },
        {
          "indexed": false,
          "internalType": "uint256",
          "name": "roleRevokedAt",
          "type": "uint256"
        }
      ],
      "name": "RoleRevoked",
      "type": "event"
    },
    {
      "anonymous": false,
      "inputs": [
        {
          "indexed": true,
          "internalType": "address",
          "name": "from",
          "type": "address"
        },
        {
          "indexed": true,
          "internalType": "address",
          "name": "to",
          "type": "address"
        },
        {
          "indexed": true,
          "internalType": "uint256",
          "name": "tokenId",
          "type": "uint256"
        }
      ],
      "name": "Transfer",
      "type": "event"
    },
    {
      "anonymous": false,
      "inputs": [
        {
          "indexed": true,
          "internalType": "uint256",
          "name": "tokenId",
          "type": "uint256"
        },
        {
          "indexed": true,
          "internalType": "address",
          "name": "from",
          "type": "address"
        },
        {
          "indexed": true,
          "internalType": "address",
          "name": "to",
          "type": "address"
        }
      ],
      "name": "Transferred",
      "type": "event"
    },
    {
      "anonymous": false,
      "inputs": [
        {
          "indexed": true,
          "internalType": "address",
          "name": "assignee",
          "type": "address"
        },
        {
          "indexed": false,
          "internalType": "uint256",
          "name": "timestamp",
          "type": "uint256"
        }
      ],
      "name": "TransporterRoleAssigned",
      "type": "event"
    },
    {
      "anonymous": false,
      "inputs": [
        {
          "indexed": true,
          "internalType": "address",
          "name": "revokee",
          "type": "address"
        },
        {
          "indexed": false,
          "internalType": "string",
          "name": "reason",
          "type": "string"
        },
        {
          "indexed": false,
          "internalType": "uint256",
          "name": "timestamp",
          "type": "uint256"
        }
      ],
      "name": "TransporterRoleRevoked",
      "type": "event"
    },
    {
      "anonymous": false,
      "inputs": [
        {
          "indexed": true,
          "internalType": "uint256",
          "name": "tokenId",
          "type": "uint256"
        }
      ],
      "name": "Updated",
      "type": "event"
    },
    {
      "inputs": [],
      "name": "AUDITOR_ROLE",
      "outputs": [
        {
          "internalType": "bytes32",
          "name": "",
          "type": "bytes32"
        }
      ],
      "stateMutability": "view",
      "type": "function"
    },
    {
      "inputs": [],
      "name": "BUYER_ROLE",
      "outputs": [
        {
          "internalType": "bytes32",
          "name": "",
          "type": "bytes32"
        }
      ],
      "stateMutability": "view",
      "type": "function"
    },
    {
      "inputs": [],
      "name": "DEFAULT_ADMIN_ROLE",
      "outputs": [
        {
          "internalType": "bytes32",
          "name": "",
          "type": "bytes32"
        }
      ],
      "stateMutability": "view",
      "type": "function"
    },
    {
      "inputs": [],
      "name": "INSPECTOR_ROLE",
      "outputs": [
        {
          "internalType": "bytes32",
          "name": "",
          "type": "bytes32"
        }
      ],
      "stateMutability": "view",
      "type": "function"
    },
    {
      "inputs": [],
      "name": "MINER_ROLE",
      "outputs": [
        {
          "internalType": "bytes32",
          "name": "",
          "type": "bytes32"
        }
      ],
      "stateMutability": "view",
      "type": "function"
    },
    {
      "inputs": [],
      "name": "MINTER_ROLE",
      "outputs": [
        {
          "internalType": "bytes32",
          "name": "",
          "type": "bytes32"
        }
      ],
      "stateMutability": "view",
      "type": "function"
    },
    {
      "inputs": [],
      "name": "REFINER_ROLE",
      "outputs": [
        {
          "internalType": "bytes32",
          "name": "",
          "type": "bytes32"
        }
      ],
      "stateMutability": "view",
      "type": "function"
    },
    {
      "inputs": [],
      "name": "TRANSPORTER_ROLE",
      "outputs": [
        {
          "internalType": "bytes32",
          "name": "",
          "type": "bytes32"
        }
      ],
      "stateMutability": "view",
      "type": "function"
    },
    {
      "inputs": [
        {
          "internalType": "string",
          "name": "mineralId",
          "type": "string"
        },
        {
          "internalType": "string",
          "name": "report",
          "type": "string"
        }
      ],
      "name": "_auditMineral",
      "outputs": [],
      "stateMutability": "nonpayable",
      "type": "function"
    },
    {
      "inputs": [
        {
          "internalType": "address",
          "name": "to",
          "type": "address"
        },
        {
          "internalType": "uint256",
          "name": "tokenId",
          "type": "uint256"
        }
      ],
      "name": "approve",
      "outputs": [],
      "stateMutability": "nonpayable",
      "type": "function"
    },
    {
      "inputs": [
        {
          "internalType": "address",
          "name": "account",
          "type": "address"
        }
      ],
      "name": "assignAuditor",
      "outputs": [],
      "stateMutability": "nonpayable",
      "type": "function"
    },
    {
      "inputs": [
        {
          "internalType": "address",
          "name": "account",
          "type": "address"
        }
      ],
      "name": "assignBuyer",
      "outputs": [],
      "stateMutability": "nonpayable",
      "type": "function"
    },
    {
      "inputs": [
        {
          "internalType": "address",
          "name": "account",
          "type": "address"
        }
      ],
      "name": "assignInspector",
      "outputs": [],
      "stateMutability": "nonpayable",
      "type": "function"
    },
    {
      "inputs": [
        {
          "internalType": "address",
          "name": "account",
          "type": "address"
        }
      ],
      "name": "assignMiner",
      "outputs": [],
      "stateMutability": "nonpayable",
      "type": "function"
    },
    {
      "inputs": [
        {
          "internalType": "address",
          "name": "account",
          "type": "address"
        }
      ],
      "name": "assignRefiner",
      "outputs": [],
      "stateMutability": "nonpayable",
      "type": "function"
    },
    {
      "inputs": [
        {
          "internalType": "address",
          "name": "account",
          "type": "address"
        }
      ],
      "name": "assignTransporter",
      "outputs": [],
      "stateMutability": "nonpayable",
      "type": "function"
    },
    {
      "inputs": [
        {
          "internalType": "address",
          "name": "owner",
          "type": "address"
        }
      ],
      "name": "balanceOf",
      "outputs": [
        {
          "internalType": "uint256",
          "name": "",
          "type": "uint256"
        }
      ],
      "stateMutability": "view",
      "type": "function"
    },
    {
      "inputs": [
        {
          "internalType": "string",
          "name": "mineralId",
          "type": "string"
        }
      ],
      "name": "checkAuditAndInspectionStatus",
      "outputs": [
        {
          "internalType": "bool",
          "name": "isAudited",
          "type": "bool"
        },
        {
          "internalType": "bool",
          "name": "isInspected",
          "type": "bool"
        }
      ],
      "stateMutability": "nonpayable",
      "type": "function"
    },
    {
      "inputs": [],
      "name": "getAllRoleCounts",
      "outputs": [
        {
          "internalType": "uint256",
          "name": "minerCount",
          "type": "uint256"
        },
        {
          "internalType": "uint256",
          "name": "refinerCount",
          "type": "uint256"
        },
        {
          "internalType": "uint256",
          "name": "transporterCount",
          "type": "uint256"
        },
        {
          "internalType": "uint256",
          "name": "auditorCount",
          "type": "uint256"
        },
        {
          "internalType": "uint256",
          "name": "inspectorCount",
          "type": "uint256"
        },
        {
          "internalType": "uint256",
          "name": "buyerCount",
          "type": "uint256"
        }
      ],
      "stateMutability": "view",
      "type": "function"
    },
    {
      "inputs": [
        {
          "internalType": "uint256",
          "name": "tokenId",
          "type": "uint256"
        }
      ],
      "name": "getApproved",
      "outputs": [
        {
          "internalType": "address",
          "name": "",
          "type": "address"
        }
      ],
      "stateMutability": "view",
      "type": "function"
    },
    {
      "inputs": [
        {
          "internalType": "string",
          "name": "mineralId",
          "type": "string"
        }
      ],
      "name": "getMineralHistory",
      "outputs": [
        {
          "components": [
            {
              "internalType": "string",
              "name": "id",
              "type": "string"
            },
            {
              "internalType": "string",
              "name": "fieldChanged",
              "type": "string"
            },
            {
              "internalType": "string",
              "name": "newValue",
              "type": "string"
            },
            {
              "internalType": "address",
              "name": "updatedBy",
              "type": "address"
            },
            {
              "internalType": "uint256",
              "name": "timestamp",
              "type": "uint256"
            }
          ],
          "internalType": "struct RolesManager.MineralHistory[]",
          "name": "",
          "type": "tuple[]"
        }
      ],
      "stateMutability": "view",
      "type": "function"
    },
    {
      "inputs": [
        {
          "internalType": "bytes32",
          "name": "role",
          "type": "bytes32"
        }
      ],
      "name": "getRoleAdmin",
      "outputs": [
        {
          "internalType": "bytes32",
          "name": "",
          "type": "bytes32"
        }
      ],
      "stateMutability": "view",
      "type": "function"
    },
    {
      "inputs": [
        {
          "internalType": "bytes32",
          "name": "role",
          "type": "bytes32"
        }
      ],
      "name": "getRoleMemberCount",
      "outputs": [
        {
          "internalType": "uint256",
          "name": "count",
          "type": "uint256"
        }
      ],
      "stateMutability": "view",
      "type": "function"
    },
    {
      "inputs": [
        {
          "internalType": "address",
          "name": "account",
          "type": "address"
        }
      ],
      "name": "getRolesForAddress",
      "outputs": [
        {
          "internalType": "string[]",
          "name": "roles",
          "type": "string[]"
        }
      ],
      "stateMutability": "view",
      "type": "function"
    },
    {
      "inputs": [
        {
          "internalType": "uint256",
          "name": "tokenId",
          "type": "uint256"
        }
      ],
      "name": "getTokenDetails",
      "outputs": [
        {
          "internalType": "uint256",
          "name": "id",
          "type": "uint256"
        },
        {
          "internalType": "string",
          "name": "mineralId",
          "type": "string"
        },
        {
          "internalType": "string",
          "name": "details",
          "type": "string"
        },
        {
          "internalType": "bool",
          "name": "isMinted",
          "type": "bool"
        },
        {
          "internalType": "bool",
          "name": "isAudited",
          "type": "bool"
        },
        {
          "internalType": "bool",
          "name": "isInspected",
          "type": "bool"
        },
        {
          "internalType": "bool",
          "name": "isPurchased",
          "type": "bool"
        },
        {
          "internalType": "address",
          "name": "owner",
          "type": "address"
        }
      ],
      "stateMutability": "view",
      "type": "function"
    },
    {
      "inputs": [
        {
          "internalType": "string",
          "name": "mineralId",
          "type": "string"
        }
      ],
      "name": "getTokenIdByMineralId",
      "outputs": [
        {
          "internalType": "uint256",
          "name": "",
          "type": "uint256"
        }
      ],
      "stateMutability": "view",
      "type": "function"
    },
    {
      "inputs": [
        {
          "internalType": "bytes32",
          "name": "role",
          "type": "bytes32"
        },
        {
          "internalType": "address",
          "name": "account",
          "type": "address"
        }
      ],
      "name": "grantRole",
      "outputs": [],
      "stateMutability": "nonpayable",
      "type": "function"
    },
    {
      "inputs": [
        {
          "internalType": "address",
          "name": "account",
          "type": "address"
        }
      ],
      "name": "hasAdminRole",
      "outputs": [
        {
          "internalType": "bool",
          "name": "",
          "type": "bool"
        }
      ],
      "stateMutability": "view",
      "type": "function"
    },
    {
      "inputs": [
        {
          "internalType": "address",
          "name": "account",
          "type": "address"
        }
      ],
      "name": "hasAuditorRole",
      "outputs": [
        {
          "internalType": "bool",
          "name": "",
          "type": "bool"
        }
      ],
      "stateMutability": "view",
      "type": "function"
    },
    {
      "inputs": [
        {
          "internalType": "address",
          "name": "account",
          "type": "address"
        }
      ],
      "name": "hasBuyerRole",
      "outputs": [
        {
          "internalType": "bool",
          "name": "",
          "type": "bool"
        }
      ],
      "stateMutability": "view",
      "type": "function"
    },
    {
      "inputs": [
        {
          "internalType": "address",
          "name": "account",
          "type": "address"
        }
      ],
      "name": "hasInspectorRole",
      "outputs": [
        {
          "internalType": "bool",
          "name": "",
          "type": "bool"
        }
      ],
      "stateMutability": "view",
      "type": "function"
    },
    {
      "inputs": [
        {
          "internalType": "address",
          "name": "account",
          "type": "address"
        }
      ],
      "name": "hasMinerRole",
      "outputs": [
        {
          "internalType": "bool",
          "name": "",
          "type": "bool"
        }
      ],
      "stateMutability": "view",
      "type": "function"
    },
    {
      "inputs": [
        {
          "internalType": "address",
          "name": "account",
          "type": "address"
        }
      ],
      "name": "hasRefinerRole",
      "outputs": [
        {
          "internalType": "bool",
          "name": "",
          "type": "bool"
        }
      ],
      "stateMutability": "view",
      "type": "function"
    },
    {
      "inputs": [
        {
          "internalType": "bytes32",
          "name": "role",
          "type": "bytes32"
        },
        {
          "internalType": "address",
          "name": "account",
          "type": "address"
        }
      ],
      "name": "hasRole",
      "outputs": [
        {
          "internalType": "bool",
          "name": "",
          "type": "bool"
        }
      ],
      "stateMutability": "view",
      "type": "function"
    },
    {
      "inputs": [
        {
          "internalType": "address",
          "name": "account",
          "type": "address"
        }
      ],
      "name": "hasTransporterRole",
      "outputs": [
        {
          "internalType": "bool",
          "name": "",
          "type": "bool"
        }
      ],
      "stateMutability": "view",
      "type": "function"
    },
    {
      "inputs": [
        {
          "internalType": "string",
          "name": "mineralId",
          "type": "string"
        },
        {
          "internalType": "string",
          "name": "report",
          "type": "string"
        }
      ],
      "name": "inspectMineral",
      "outputs": [],
      "stateMutability": "nonpayable",
      "type": "function"
    },
    {
      "inputs": [
        {
          "internalType": "address",
          "name": "owner",
          "type": "address"
        },
        {
          "internalType": "address",
          "name": "operator",
          "type": "address"
        }
      ],
      "name": "isApprovedForAll",
      "outputs": [
        {
          "internalType": "bool",
          "name": "",
          "type": "bool"
        }
      ],
      "stateMutability": "view",
      "type": "function"
    },
    {
      "inputs": [
        {
          "internalType": "string",
          "name": "mineralId",
          "type": "string"
        }
      ],
      "name": "isMineralRegistered",
      "outputs": [
        {
          "internalType": "bool",
          "name": "",
          "type": "bool"
        }
      ],
      "stateMutability": "nonpayable",
      "type": "function"
    },
    {
      "inputs": [
        {
          "internalType": "string",
          "name": "",
          "type": "string"
        }
      ],
      "name": "mineralDetails",
      "outputs": [
        {
          "internalType": "string",
          "name": "id",
          "type": "string"
        },
        {
          "internalType": "string",
          "name": "name",
          "type": "string"
        },
        {
          "internalType": "string",
          "name": "origin",
          "type": "string"
        },
        {
          "internalType": "string",
          "name": "mineralType",
          "type": "string"
        },
        {
          "internalType": "uint256",
          "name": "weight",
          "type": "uint256"
        },
        {
          "internalType": "uint256",
          "name": "purityPercentage",
          "type": "uint256"
        },
        {
          "internalType": "string",
          "name": "storageConditions",
          "type": "string"
        },
        {
          "internalType": "address",
          "name": "registeredBy",
          "type": "address"
        },
        {
          "internalType": "string",
          "name": "currentStatus",
          "type": "string"
        },
        {
          "internalType": "string",
          "name": "currentLocation",
          "type": "string"
        },
        {
          "internalType": "address",
          "name": "currentHandler",
          "type": "address"
        },
        {
          "internalType": "bool",
          "name": "isPurchased",
          "type": "bool"
        },
        {
          "internalType": "bool",
          "name": "isRefined",
          "type": "bool"
        },
        {
          "internalType": "bool",
          "name": "isAudited",
          "type": "bool"
        },
        {
          "internalType": "bool",
          "name": "isInspected",
          "type": "bool"
        },
        {
          "internalType": "uint256",
          "name": "timestamp",
          "type": "uint256"
        }
      ],
      "stateMutability": "view",
      "type": "function"
    },
    {
      "inputs": [
        {
          "internalType": "string",
          "name": "",
          "type": "string"
        },
        {
          "internalType": "uint256",
          "name": "",
          "type": "uint256"
        }
      ],
      "name": "mineralHistories",
      "outputs": [
        {
          "internalType": "string",
          "name": "id",
          "type": "string"
        },
        {
          "internalType": "string",
          "name": "fieldChanged",
          "type": "string"
        },
        {
          "internalType": "string",
          "name": "newValue",
          "type": "string"
        },
        {
          "internalType": "address",
          "name": "updatedBy",
          "type": "address"
        },
        {
          "internalType": "uint256",
          "name": "timestamp",
          "type": "uint256"
        }
      ],
      "stateMutability": "view",
      "type": "function"
    },
    {
      "inputs": [
        {
          "internalType": "string",
          "name": "",
          "type": "string"
        }
      ],
      "name": "mineralToToken",
      "outputs": [
        {
          "internalType": "uint256",
          "name": "",
          "type": "uint256"
        }
      ],
      "stateMutability": "view",
      "type": "function"
    },
    {
      "inputs": [
        {
          "internalType": "address",
          "name": "to",
          "type": "address"
        },
        {
          "internalType": "string",
          "name": "mineralId",
          "type": "string"
        },
        {
          "internalType": "string",
          "name": "details",
          "type": "string"
        }
      ],
      "name": "mintToken",
      "outputs": [],
      "stateMutability": "nonpayable",
      "type": "function"
    },
    {
      "inputs": [],
      "name": "name",
      "outputs": [
        {
          "internalType": "string",
          "name": "",
          "type": "string"
        }
      ],
      "stateMutability": "view",
      "type": "function"
    },
    {
      "inputs": [
        {
          "internalType": "uint256",
          "name": "tokenId",
          "type": "uint256"
        }
      ],
      "name": "ownerOf",
      "outputs": [
        {
          "internalType": "address",
          "name": "",
          "type": "address"
        }
      ],
      "stateMutability": "view",
      "type": "function"
    },
    {
      "inputs": [
        {
          "internalType": "string",
          "name": "mineralId",
          "type": "string"
        }
      ],
      "name": "purchaseMineral",
      "outputs": [],
      "stateMutability": "nonpayable",
      "type": "function"
    },
    {
      "inputs": [
        {
          "internalType": "string",
          "name": "mineralId",
          "type": "string"
        },
        {
          "internalType": "string",
          "name": "report",
          "type": "string"
        }
      ],
      "name": "refineMineral",
      "outputs": [],
      "stateMutability": "nonpayable",
      "type": "function"
    },
    {
      "inputs": [
        {
          "internalType": "string",
          "name": "_name",
          "type": "string"
        },
        {
          "internalType": "string",
          "name": "_mineralType",
          "type": "string"
        },
        {
          "internalType": "uint256",
          "name": "_weight",
          "type": "uint256"
        },
        {
          "internalType": "string",
          "name": "_origin",
          "type": "string"
        },
        {
          "internalType": "uint256",
          "name": "_purityPercentage",
          "type": "uint256"
        },
        {
          "internalType": "string",
          "name": "_storageConditions",
          "type": "string"
        }
      ],
      "name": "registerMineral",
      "outputs": [
        {
          "internalType": "string",
          "name": "",
          "type": "string"
        }
      ],
      "stateMutability": "nonpayable",
      "type": "function"
    },
    {
      "inputs": [
        {
          "internalType": "bytes32",
          "name": "role",
          "type": "bytes32"
        },
        {
          "internalType": "address",
          "name": "account",
          "type": "address"
        }
      ],
      "name": "renounceRole",
      "outputs": [],
      "stateMutability": "nonpayable",
      "type": "function"
    },
    {
      "inputs": [
        {
          "internalType": "address",
          "name": "account",
          "type": "address"
        },
        {
          "internalType": "string",
          "name": "reason",
          "type": "string"
        }
      ],
      "name": "revokeAuditor",
      "outputs": [],
      "stateMutability": "nonpayable",
      "type": "function"
    },
    {
      "inputs": [
        {
          "internalType": "address",
          "name": "account",
          "type": "address"
        },
        {
          "internalType": "string",
          "name": "reason",
          "type": "string"
        }
      ],
      "name": "revokeBuyer",
      "outputs": [],
      "stateMutability": "nonpayable",
      "type": "function"
    },
    {
      "inputs": [
        {
          "internalType": "address",
          "name": "account",
          "type": "address"
        },
        {
          "internalType": "string",
          "name": "reason",
          "type": "string"
        }
      ],
      "name": "revokeInspector",
      "outputs": [],
      "stateMutability": "nonpayable",
      "type": "function"
    },
    {
      "inputs": [
        {
          "internalType": "address",
          "name": "account",
          "type": "address"
        },
        {
          "internalType": "string",
          "name": "reason",
          "type": "string"
        }
      ],
      "name": "revokeMiner",
      "outputs": [],
      "stateMutability": "nonpayable",
      "type": "function"
    },
    {
      "inputs": [
        {
          "internalType": "address",
          "name": "account",
          "type": "address"
        },
        {
          "internalType": "string",
          "name": "reason",
          "type": "string"
        }
      ],
      "name": "revokeRefiner",
      "outputs": [],
      "stateMutability": "nonpayable",
      "type": "function"
    },
    {
      "inputs": [
        {
          "internalType": "bytes32",
          "name": "role",
          "type": "bytes32"
        },
        {
          "internalType": "address",
          "name": "account",
          "type": "address"
        }
      ],
      "name": "revokeRole",
      "outputs": [],
      "stateMutability": "nonpayable",
      "type": "function"
    },
    {
      "inputs": [
        {
          "internalType": "uint256",
          "name": "tokenId",
          "type": "uint256"
        },
        {
          "internalType": "string",
          "name": "reason",
          "type": "string"
        }
      ],
      "name": "revokeToken",
      "outputs": [],
      "stateMutability": "nonpayable",
      "type": "function"
    },
    {
      "inputs": [
        {
          "internalType": "address",
          "name": "account",
          "type": "address"
        },
        {
          "internalType": "string",
          "name": "reason",
          "type": "string"
        }
      ],
      "name": "revokeTransporter",
      "outputs": [],
      "stateMutability": "nonpayable",
      "type": "function"
    },
    {
      "inputs": [
        {
          "internalType": "bytes32",
          "name": "",
          "type": "bytes32"
        }
      ],
      "name": "roleMemberCount",
      "outputs": [
        {
          "internalType": "uint256",
          "name": "",
          "type": "uint256"
        }
      ],
      "stateMutability": "view",
      "type": "function"
    },
    {
      "inputs": [
        {
          "internalType": "address",
          "name": "from",
          "type": "address"
        },
        {
          "internalType": "address",
          "name": "to",
          "type": "address"
        },
        {
          "internalType": "uint256",
          "name": "tokenId",
          "type": "uint256"
        }
      ],
      "name": "safeTransferFrom",
      "outputs": [],
      "stateMutability": "nonpayable",
      "type": "function"
    },
    {
      "inputs": [
        {
          "internalType": "address",
          "name": "from",
          "type": "address"
        },
        {
          "internalType": "address",
          "name": "to",
          "type": "address"
        },
        {
          "internalType": "uint256",
          "name": "tokenId",
          "type": "uint256"
        },
        {
          "internalType": "bytes",
          "name": "data",
          "type": "bytes"
        }
      ],
      "name": "safeTransferFrom",
      "outputs": [],
      "stateMutability": "nonpayable",
      "type": "function"
    },
    {
      "inputs": [
        {
          "internalType": "address",
          "name": "operator",
          "type": "address"
        },
        {
          "internalType": "bool",
          "name": "approved",
          "type": "bool"
        }
      ],
      "name": "setApprovalForAll",
      "outputs": [],
      "stateMutability": "nonpayable",
      "type": "function"
    },
    {
      "inputs": [
        {
          "internalType": "bytes4",
          "name": "interfaceId",
          "type": "bytes4"
        }
      ],
      "name": "supportsInterface",
      "outputs": [
        {
          "internalType": "bool",
          "name": "",
          "type": "bool"
        }
      ],
      "stateMutability": "view",
      "type": "function"
    },
    {
      "inputs": [],
      "name": "symbol",
      "outputs": [
        {
          "internalType": "string",
          "name": "",
          "type": "string"
        }
      ],
      "stateMutability": "view",
      "type": "function"
    },
    {
      "inputs": [
        {
          "internalType": "uint256",
          "name": "tokenId",
          "type": "uint256"
        }
      ],
      "name": "tokenURI",
      "outputs": [
        {
          "internalType": "string",
          "name": "",
          "type": "string"
        }
      ],
      "stateMutability": "view",
      "type": "function"
    },
    {
      "inputs": [
        {
          "internalType": "address",
          "name": "from",
          "type": "address"
        },
        {
          "internalType": "address",
          "name": "to",
          "type": "address"
        },
        {
          "internalType": "uint256",
          "name": "tokenId",
          "type": "uint256"
        }
      ],
      "name": "transferFrom",
      "outputs": [],
      "stateMutability": "nonpayable",
      "type": "function"
    },
    {
      "inputs": [
        {
          "internalType": "string",
          "name": "mineralId",
          "type": "string"
        },
        {
          "internalType": "address",
          "name": "_receivingParty",
          "type": "address"
        },
        {
          "internalType": "string",
          "name": "_origin",
          "type": "string"
        },
        {
          "internalType": "string",
          "name": "_destination",
          "type": "string"
        }
      ],
      "name": "transferMineral",
      "outputs": [],
      "stateMutability": "nonpayable",
      "type": "function"
    },
    {
      "inputs": [
        {
          "internalType": "uint256",
          "name": "tokenId",
          "type": "uint256"
        },
        {
          "internalType": "address",
          "name": "newOwner",
          "type": "address"
        }
      ],
      "name": "transferOwnership",
      "outputs": [],
      "stateMutability": "nonpayable",
      "type": "function"
    },
    {
      "inputs": [
        {
          "internalType": "uint256",
          "name": "tokenId",
          "type": "uint256"
        },
        {
          "internalType": "string",
          "name": "newDetails",
          "type": "string"
        }
      ],
      "name": "updateMetadata",
      "outputs": [],
      "stateMutability": "nonpayable",
      "type": "function"
    },
    {
      "inputs": [
        {
          "internalType": "uint256",
          "name": "tokenId",
          "type": "uint256"
        },
        {
          "internalType": "string",
          "name": "",
          "type": "string"
        },
        {
          "internalType": "bool",
          "name": "audited",
          "type": "bool"
        },
        {
          "internalType": "bool",
          "name": "inspected",
          "type": "bool"
        },
        {
          "internalType": "bool",
          "name": "purchased",
          "type": "bool"
        }
      ],
      "name": "updateToken",
      "outputs": [],
      "stateMutability": "nonpayable",
      "type": "function"
    }
  ],
  "transactionHash": "0x2f80a4072a29f15c4dc223042c6dd6b5ed926e46994f977b784199094453654c",
  "args": [],
  "numDeployments": 1,
  "solcInputHash": "7c3d72a177373b46b126c9cb9d71da65",
  "bytecode": "0x608034620008d0576040906001600160401b039080830182811182821017620008ba578352600c815260206b26b4b732b930b62a37b5b2b760a11b81830152835184810181811085821117620008ba5785526004938482526326aa25a760e11b838301528351818111620008a5576000928354916001968784811c941680156200089a575b8785101462000887578190601f9485811162000834575b508790858311600114620007d0578792620007c4575b5050600019600383901b1c191690871b1784555b8051928311620007b15785548681811c91168015620007a6575b868210146200079357908183859493116200073e575b5085918311600114620006da578492620006ce575b5050600019600383901b1c191690841b1783555b434201804211620006bb576007556200013733620008d5565b808052600a808352838683205585514281527f458ea7e03b3466b3cf9bc2d66ddea8b11fe9469982816f42666888e6c8c6e664843392a27fa952726ef2588ad078edf35b066f7c7406e207cb0003bbaba8cb53eba9553e72928383526006808252878420338552825260ff908189862054161562000684575b85855283835288852080546000199791908881146200055e57890190558552838352868986205588514281527f593f046317558c2857b92915c62c99f2d2108f7bc6f1e1b3c5376cd559abf559843392a27f59a1c48e5837ad7a7f3dcedcbe129bf3249ec4fbf651fd4f5e2600ead39fe2f58086528184528986203387528452828a87205416156200064d575b80865284845289862080548881146200055e57890190558552838352868986205588514281527f4a02edd19f09212e54b2ac85d7d3a4a2e3fbf424e6710c3f817d9b4cecc9cdb3843392a27f273dcf2136c7d8ef632bb8ef13dbca69a8f36fa620c7468671b3153d46a211c08086528184528986203387528452828a872054161562000616575b80865284845289862080548881146200055e57890190558552838352868986205588514281527f49cc27c2a068c01cf703c3923dfc679109b5f6c27bd1f61b542c159e3a73e092843392a27ff8cd32ed93fc2f9fc78152a14807c9609af3d99c5fe4dc6b106a801aaddfe90e8086528184528986203387528452828a8720541615620005df575b80865284845289862080548881146200055e57890190558552838352868986205588514281527ff8ed9ac482b0f7c12999b3f157f758f84e39cd339fa301ea203823ac29e97505843392a27fa977e1a3444218ff332edf735c56487bbe59922b15c88777d443eb8b78020f4d8086528184528986203387528452828a8720541615620005a8575b80865284845289862080548881146200055e57890190558552838352868986205588514281527f4e3eede475de92d3e23765b737dbb67646352b3328c1a437d7f089766d7be751843392a27fddaa901e2fe3bda354fe0ede2785152d5c109282a613fe024a056a3e66c41bb38086528184528986203387528452828a872054161562000571575b80865284845289862080548881146200055e57890190558552838352868986205588514281527f964e50cb3bdb84c00a30f56ae15d538d23dc6db14f891d7d819761b161e990a6843392a286600b55620004b333620008d5565b7ff0887ba65ee2024ea881d91b74c2450ef19e1557f03bed3ea9f16b037cbe2dc991828652818452898620338752845289862054161562000527575b508352528481209384549283146200051457505001905551615ca790816200098f8239f35b634e487b7160e01b825260119052602490fd5b818552825287842033855282528784208660ff19825416179055333382600080516020620066368339815191528780a438620004ef565b634e487b7160e01b885260118b52602488fd5b80865281845289862033875284528986208860ff19825416179055333382600080516020620066368339815191528980a462000459565b80865281845289862033875284528986208860ff19825416179055333382600080516020620066368339815191528980a4620003d2565b80865281845289862033875284528986208860ff19825416179055333382600080516020620066368339815191528980a46200034b565b80865281845289862033875284528986208860ff19825416179055333382600080516020620066368339815191528980a4620002c4565b80865281845289862033875284528986208860ff19825416179055333382600080516020620066368339815191528980a46200023d565b85855280835288852033865283528885208760ff19825416179055333387600080516020620066368339815191528880a4620001b0565b634e487b7160e01b825260118552602482fd5b0151905038806200010a565b8685528585208794509190601f198416865b888282106200072757505084116200070d575b505050811b0183556200011e565b015160001960f88460031b161c19169055388080620006ff565b8385015186558a97909501949384019301620006ec565b909192508685528585208380860160051c82019288871062000789575b9186958a929594930160051c01915b8281106200077a575050620000f5565b8781558695508991016200076a565b925081926200075b565b634e487b7160e01b855260228852602485fd5b90607f1690620000df565b634e487b7160e01b845260418752602484fd5b015190503880620000b1565b8780528888208a94509190601f198416895b8b8282106200081d575050841162000803575b505050811b018455620000c5565b015160001960f88460031b161c19169055388080620007f5565b8385015186558d97909501949384019301620007e2565b9091508680528787208580850160051c8201928a86106200087d575b918b91869594930160051c01915b8281106200086e5750506200009b565b8981558594508b91016200085e565b9250819262000850565b634e487b7160e01b865260228952602486fd5b93607f169362000084565b604186634e487b7160e01b6000525260246000fd5b634e487b7160e01b600052604160045260246000fd5b600080fd5b6001600160a01b031660008181527f54cdd369e4e8a8515e52ca72ec816c2101831ad1f18bf44102ed171459c9b4f8602052604081205490919060ff161562000950575b50808052600a602052604081208054909160001982146200093c57506001019055565b634e487b7160e01b81526011600452602490fd5b81805260066020526040822081835260205260408220600160ff19825416179055339082600080516020620066368339815191528180a4386200091956fe608080604052600436101561001357600080fd5b60003560e01c90816301ffc9a714614a315750806306fdde031461498e578063081812fc146149705780630958fc2d146148c7578063095ea7b31461474d5780630dacad2e146146a4578063126ee3381461436f57806323b872dd1461434b578063248a9ca31461431c57806329507f73146141fc5780632e689c3f14613d015780632f2ff15d14613c4e578063309514df14613bda5780633499c3a214613b7857806335ba620714613a7257806336568abe146139e05780633a7adea514612ae05780633cd0b75f146129ab57806342842e0e14612983578063480d1dd3146128da5780634e2a3109146127cf5780634eabbe77146127a657806353c8388e1461261857806354902c75146125bc5780635aee1b15146123995780636352211e146123695780636377741d146122c05780636394f6e6146122975780636e1d616e1461226e57806370a08231146121d757806370e22e421461217557806375a2b0d414611fa157806379451cd714611f785780637a01a1da14611f4f5780637ae9c16014611edb5780637cde2b9914611dd0578063826fe0f514611bc35780638850845f14611b6157806391d1485414611b1457806395d89b4114611a3557806399691194146119255780639b188dd6146118b1578063a217fddf14611895578063a22cb465146117c3578063a917601b1461171a578063abaa536f146116b8578063ac851dfd146115ed578063b6ba1ca7146115c1578063b88d4fde14611562578063b9c5b8331461143d578063bd607f7c146113c4578063beae461514611362578063c1e037281461124c578063c395fcb3146111ea578063c87b56dd14611176578063ca15c8731461108c578063cc82b09014610f75578063d539139314610f3a578063d547741f14610ef9578063de7ce39114610e97578063df422bf21461097b578063e3a3c52214610952578063e438fdf8146108de578063e985e9c514610888578063f17f352314610680578063f5716a851461060c578063fc1032eb146104c85763feee971a1461030b57600080fd5b346104c35760a03660031901126104c3576004356024356001600160401b0381116104c35761033e903690600401614c5c565b505060443580151581036104c3576064359081151582036104c35760843580151581036104c3576104389261040d906001600160a01b038061037f8861534f565b16903382149081156104af575b508015610489575b61039e9150615afb565b85600052600c6020526103e1600260406000200194855460a01c906000146104815760ff166002175b855460ff60a01b191660a09190911b60ff60a01b16178555565b835460a01c90156104795760ff166004175b835460ff60a01b191660a09190911b60ff60a01b16178355565b815460a01c901561045f57815460ff60a01b191660ff9190911660081760a01b60ff60a01b16179055565b7f208509800c5cb9707f116ef96a1d456499ab9fa3c8edc1cdf381fe5216d5b173600080a2005b815460ff60a01b191660a09190911b60f760a01b16179055565b60fb166103f3565b60fd166103c7565b50600052600560205260406000203360005260205261039e60ff60406000205416610394565b3391506104bb89615372565b16143861038c565b600080fd5b346104c3576104d636614c89565b6104de614f98565b6104e782614ea4565b156105fa576105907f93e936184fad9f80c7000aa987f91be0cd621bacde11839fdc7139f3d9c2407b91600080516020615c32833981519152806000526020906006825261053c60016040600020015461518d565b60008181526006835260408082206001600160a01b0390981680835297845290205460ff166105ad575b600052600a8152604060002080548061059b575b5050604051928392604084526040840190614ad9565b9042908301520390a2005b6105a4906157f2565b9055858061057a565b80600052600682526040600020866000528252604060002060ff1981541690553386827ff6391f5c32d9c69d2a47ea670b442974b53935d1edc7fd64eb21e047a839171b600080a4610566565b604051632ac1560560e21b8152600490fd5b346104c35761061a36614c89565b610622614f98565b61062b82614ee1565b156105fa576105907f4614600adaea632b1e4c381ad24471dab7b587dca104c8dd4da76bc64f19716f91600080516020615c52833981519152806000526020906006825261053c60016040600020015461518d565b346104c35760803660031901126104c3576001600160401b036004358181116104c3576106b1903690600401614c09565b906106ba614b14565b906044358181116104c3576106d3903690600401614c09565b906064359081116104c3576106ec903690600401614c09565b90600080516020615bb283398151915260005260209260068452604060002033600052845260ff6040600020541615610870576001600160a01b0316801561085e5781511561084c5782511561083a57604051600160ff600a8851938881818c019661075981838a614ab6565b81016008815203019020015460a01c16151514610814579361080593926107f792600a6107b4847f55b00b3c29344a545244b18d70b135e423405427088bd5425f13d690b82310b4998b604051938492839251928391614ab6565b8101600881520301902001336001600160601b0360a01b8254161790556107e66040519860a08a5260a08a0190614ad9565b928801528682036040880152614ad9565b908482036060860152614ad9565b914260808201528033930390a2005b604051632072bb0160e11b815260048101869052806108366024820189614ad9565b0390fd5b604051635dbef47560e01b8152600490fd5b6040516326813e6f60e01b8152600490fd5b60405163bea3fd2f60e01b8152600490fd5b604051630568555f60e41b8152336004820152602490fd5b346104c35760403660031901126104c3576108a1614afe565b6108a9614b14565b9060018060a01b03809116600052600560205260406000209116600052602052602060ff604060002054166040519015158152f35b346104c3576108ec36614c89565b6108f4614f98565b6108fd82614f5b565b156105fa576105907f352e14c53d161e2481e65145b53265d1608f979a93a06df66d4c99b2a84ddc6391600080516020615bd2833981519152806000526020906006825261053c60016040600020015461518d565b346104c35760003660031901126104c3576020604051600080516020615bd28339815191528152f35b346104c3576020806003193601126104c3576001600160a01b0361099d614afe565b168015610e855760009060008052600690818452604060002081600052845260ff908160406000205416610e7c575b600080516020615c12833981519152928360005280865260406000208260005286528260406000205416610e6c575b600080516020615c528339815191528060005281875260406000208360005287528360406000205416610e5c575b600080516020615bb28339815191528060005282885260406000208460005288528460406000205416610e4c575b600080516020615c328339815191528060005283895260406000208560005289528560406000205416610e3c575b600080516020615bd28339815191529182600052848a526040600020866000528a528660406000205416610e2c575b600080516020615bf28339815191529384600052858b526040600020876000528b528760406000205416610e1c575b610aec8a615993565b99610afa6040519b8c614b96565b808b52610b09601f1991615993565b018b8b60005b838110610e0b575050505060009860008052868c526040600020886000528c528860406000205416610dd0575b600052858b526040600020876000528b528760406000205416610d93575b600052848a526040600020866000528a528660406000205416610d54575b60005283895260406000208560005289528560406000205416610d11575b60005282885260406000208460005288528460406000205416610cd2575b60005281875260406000208360005287528360406000205416610c91575b6000528552604060002090600052845260406000205416610c4e575b506040519082820192808352815180945260408301938160408260051b8601019301916000955b828710610c225785850386f35b909192938280610c3e600193603f198a82030186528851614ad9565b9601920196019592919092610c15565b610c8a90604051610c5e81614b60565b6005815264212aaca2a960d91b85820152610c7982856159b7565b52610c8481846159b7565b50615984565b5082610bee565b93610ccc90604051610ca281614b60565b600981526824a729a822a1aa27a960b91b89820152610cc182896159b7565b52610c8481886159b7565b93610bd2565b94610d0b90604051610ce381614b60565b600781526620aaa224aa27a960c91b8a820152610d00828a6159b7565b52610c8481896159b7565b94610bb4565b95610d4e90604051610d2281614b60565b600b81526a2a2920a729a827a92a22a960a91b8b820152610d43828b6159b7565b52610c84818a6159b7565b95610b96565b96610d8d90604051610d6581614b60565b60078152662922a324a722a960c91b8c820152610d82828c6159b7565b52610c84818b6159b7565b96610b78565b97610dca90604051610da481614b60565b600581526426a4a722a960d91b8d820152610dbf828d6159b7565b52610c84818c6159b7565b97610b5a565b9850604051610dde81614b60565b600581526420a226a4a760d91b8c820152610df88b6159aa565b52610e028a6159aa565b50600198610b3c565b606083828194010152018c90610b0f565b98610e2690615984565b98610ae3565b97610e3690615984565b97610ab4565b96610e4690615984565b96610a85565b95610e5690615984565b95610a57565b94610e6690615984565b94610a29565b93610e7690615984565b936109fb565b600193506109cc565b60405163200db56f60e11b8152600490fd5b346104c35760203660031901126104c357610eb0614afe565b6001600160a01b031660009081527fca035b5fe9e485e185862b3d823a27c51239e882434fc92f4e9813290cdcda23602090815260409182902054915160ff9092161515825290f35b346104c35760403660031901126104c357610f38600435610f18614b14565b90806000526006602052610f3360016040600020015461518d565b61528d565b005b346104c35760003660031901126104c35760206040517ff0887ba65ee2024ea881d91b74c2450ef19e1557f03bed3ea9f16b037cbe2dc98152f35b346104c3576020806003193601126104c357610f8f614afe565b6001600160a01b03811691908215610e8557610fb290610fad614f98565b614f5b565b61107a577f49cc27c2a068c01cf703c3923dfc679109b5f6c27bd1f61b542c159e3a73e09290600080516020615bd28339815191528060005260068252604060002084600052825260ff604060002054161561102a575b600052600a8152604060002061101f8154615984565b9055604051428152a2005b806000526006825260406000208460005282526040600020600160ff198254161790553384827f2f8788117e7eff1d82e926ec794901d17c78024a50270940304540a733656f0d600080a4611009565b6040516314726de560e21b8152600490fd5b346104c35760203660031901126104c357600435600080516020615c128339815191528114801561115f575b8015611148575b8015611131575b801561111a575b8015611103575b156110f157600052600a6020526020604060002054604051908152f35b604051636b9c461160e01b8152600490fd5b50600080516020615bf283398151915281146110d4565b50600080516020615bd283398151915281146110cd565b50600080516020615c3283398151915281146110c6565b50600080516020615bb283398151915281146110bf565b50600080516020615c5283398151915281146110b8565b346104c35760203660031901126104c3576004356000908152600c60205260409020600201546111b0906001600160a01b03161515615303565b60006040516111be81614b7b565b526111e66040516111ce81614b7b565b60008152604051918291602083526020830190614ad9565b0390f35b346104c35760203660031901126104c357611203614afe565b6001600160a01b031660009081527f54cdd369e4e8a8515e52ca72ec816c2101831ad1f18bf44102ed171459c9b4f8602090815260409182902054915160ff9092161515825290f35b346104c35760203660031901126104c3576004356000818152600c6020526040902060020154611286906001600160a01b03161515615b32565b80600052600c6020526040600020906040516112a181614b2a565b6040516112b9816112b28187614d1e565b0382614b96565b81526002604051936112d9856112d28160018501614d1e565b0386614b96565b8460208401520154600861132f60018060a01b0383169283604086015260a01c9360ff85166060820152519561132160405197889788526101008060208a0152880190614ad9565b908682036040880152614ad9565b926001811615156060860152600281161515608086015260048116151560a086015216151560c084015260e08301520390f35b346104c35760203660031901126104c35761137b614afe565b6001600160a01b031660009081527fbb37dc583cabdec48fe00fe8c624c62f51ef5512543d57db4979b66daa6ec34a602090815260409182902054915160ff9092161515825290f35b346104c35760203660031901126104c3576004356001600160401b0381116104c35760206113f781923690600401614c5c565b9190826040519384928337600d90820190815203019020546000818152600c6020526040902060020154611435906001600160a01b03161515615b32565b604051908152f35b346104c35760003660031901126104c357600a60209081527f3c262eea85e30be6a8514764bbc3c57d2458a53d482ccec22849f39a3664cdd9547f701354baf5fc0042f9efd6d9f70560ee4ca4abc2c70e828283ca93ea6f67b33c547ff70d81a1e8770ae7ad501c118ed085c1337509b81d6ba7dc03b47c7cf1b034f0547f473e73b9f26a9fd92c793dcefb649a4d1c3311083b769d9ee0cb0b4281562409547f2a9d1069eeb67f67cc187d821eca67b4b2564e0248958345303d890243b2b23f54600080516020615bf28339815191526000527f6123944ea9aa8fcd3876e0f59e0e450a46abe6fe31f4aed8033c2800f585cc63546040805196875296860194909452948401919091526060830152608082019290925260a081019190915260c090f35b346104c35760803660031901126104c35761157b614afe565b611583614b14565b606435916001600160401b0383116104c357366023840112156104c3576115b7610f38933690602481600401359101614bd2565b9160443591615415565b346104c35760203660031901126104c357600435600052600a6020526020604060002054604051908152f35b346104c3576020806003193601126104c3576004356001600160401b0381116104c35761161e903690600401614c09565b805115611695576040516112b2611658835192858181870195611642818389614ab6565b8101600881520301902060405192838092614d1e565b838151910120908251902003611672575060405160018152f35b906108366040519283926311bb0bc960e31b845260048401526024830190614ad9565b9061083660405192839263f855236d60e01b845260048401526024830190614ad9565b346104c35760203660031901126104c3576116d1614afe565b6001600160a01b031660009081527f242ea55e8d2c4ef0e59404c6dcfea3779f40e53603acb1ace99e5296fe40e3de602090815260409182902054915160ff9092161515825290f35b346104c3576020806003193601126104c357611734614afe565b6001600160a01b03811691908215610e855761175790611752614f98565b614f1e565b61107a577f964e50cb3bdb84c00a30f56ae15d538d23dc6db14f891d7d819761b161e990a690600080516020615bb28339815191528060005260068252604060002084600052825260ff604060002054161561102a57600052600a8152604060002061101f8154615984565b346104c35760403660031901126104c3576117dc614afe565b602435908115158092036104c3576001600160a01b03169033821461185057336000526005602052604060002082600052602052604060002060ff1981541660ff83161790556040519081527f17307eab39ab6107e8899845ad3d59bd9653f200f220920489ca2b5937696c3160203392a3005b60405162461bcd60e51b815260206004820152601960248201527f4552433732313a20617070726f766520746f2063616c6c6572000000000000006044820152606490fd5b346104c35760003660031901126104c357602060405160008152f35b346104c3576118bf36614c89565b6118c7614f98565b6118d082614e67565b156105fa576105907f69e94e373f69f3f945457a07b335722310788af9cd459a33df6f72cc9e96404391600080516020615bf2833981519152806000526020906006825261053c60016040600020015461518d565b346104c35761193336614de7565b3360009081527f82185bb4be848e6312a435728ac1c9ae8846484253027baf02ec8ff1c18b0311602090815260409091205491929160ff161561087057604051600160ff600a85519385818189019661198d81838a614ab6565b81016008815203019020015460b81c16151514611a125791600a6119e1611a0d937f3a9eebd240f4c9f631531ebc672c4c040de483b868ccebe8a3a1fdad70cde0d995604051809381928751928391614ab6565b8101600881520301902001600160b81b60ff60b81b198254161790556040519182913395429184615956565b0390a2005b50610836604051928392636f5f944160e11b845260048401526024830190614ad9565b346104c35760003660031901126104c35760405160006001805490611a5982614ce4565b80855291818116908115611aed5750600114611a94575b6111e684611a8081860382614b96565b604051918291602083526020830190614ad9565b600081815292507fb10e2d527612073b26eecdfd717e6a320cf44b4afac2b0732d9fcbe2b7fa0cf65b828410611ad5575050508101602001611a8082611a70565b80546020858701810191909152909301928101611abd565b60ff191660208087019190915292151560051b85019092019250611a809150839050611a70565b346104c35760403660031901126104c357611b2d614b14565b600435600052600660205260406000209060018060a01b0316600052602052602060ff604060002054166040519015158152f35b346104c35760203660031901126104c357611b7a614afe565b6001600160a01b031660009081527f82185bb4be848e6312a435728ac1c9ae8846484253027baf02ec8ff1c18b0311602090815260409182902054915160ff9092161515825290f35b346104c3576020806003193601126104c3576004356001600160401b0381116104c357611bf4903690600401614c09565b604051906112b2611c1282519385818186019661164281838a614ab6565b8381519101208151908184201490811591611dc7575b50611db557611c44918391604051938492839251928391614ab6565b8101600981520301902090815491611c5b83615993565b92611c696040519485614b96565b8084528284018092600052836000206000915b838310611d315750505050604051918083019381845251809452604083019360408160051b85010192916000955b828710611cb75785850386f35b909192938280600192603f19898203018552875190611d06611cf4611ce4845160a0808652850190614ad9565b8585015184820387860152614ad9565b60408401518382036040850152614ad9565b916060868060a01b038183015116908301526080809101519101529601920196019592919092611caa565b600586600192604099989951611d4681614b45565b604051611d57816112b2818a614d1e565b8152604051611d6c816112b281898b01614d1e565b83820152604051611d84816112b28160028b01614d1e565b6040820152848060a01b03600387015416606082015260048601546080820152815201920192019190959495611c7c565b6040516329d7b10b60e11b8152600490fd5b90501584611c28565b346104c357611dde36614de7565b3360009081527fca035b5fe9e485e185862b3d823a27c51239e882434fc92f4e9813290cdcda23602090815260409091205491929160ff161561087057604051600160ff600a855193858181890196611e3881838a614ab6565b81016008815203019020015460a81c16151514611eb85791600a611e8c611a0d937fa214f45af6d86b0d5ff7bb48f888cf4205e4a383da35fcbebfdbd9bd8e6d5a7c95604051809381928751928391614ab6565b8101600881520301902001600160a81b60ff60a81b198254161790556040519182913395429184615956565b5061083660405192839263701203b760e01b845260048401526024830190614ad9565b346104c357611ee936614c89565b611ef1614f98565b611efa82614f1e565b156105fa576105907f71577b91708c73ee54b43c6709958ff42e4bcc084910648ce7c3d16928b51d5291600080516020615bb2833981519152806000526020906006825261053c60016040600020015461518d565b346104c35760003660031901126104c3576020604051600080516020615bf28339815191528152f35b346104c35760003660031901126104c3576020604051600080516020615c528339815191528152f35b346104c3576020806003193601126104c3576004356001600160401b0381116104c357611fd2903690600401614c09565b906000805260068152604060002033600052815260ff6040600020541615610870576040516112b2612011845192848181880195611642818389614ab6565b828151910120835190818320149081159161216c575b50611db55760ff600a60405184818751612042818389614ab6565b81016008815203019020015460b01c1680612140575b1561211d579060ff600a6120fe83604096958751606081527f10f4ba4c7bb6f0c442f54585004a6e24440bea5c2d2e6f36b688e3e624762e2261209e606083018a614ad9565b916b54726164696e67526561647960a01b85828503948582850152600c81520152428b8201528a33930190a28484895184818b516120dd818389614ab6565b81016008815203019020015460b01c16968851938492839251928391614ab6565b81016008815203019020015460b81c1683519215158352151590820152f35b506108366040519283926348cddbdb60e11b845260048401526024830190614ad9565b5060ff600a60405184818751612157818389614ab6565b81016008815203019020015460b81c16612058565b90501584612027565b346104c35760203660031901126104c35761218e614afe565b6001600160a01b031660009081527ff3c994667eb080af4dc238df2ebbc27a8b635b22c13280cb411b8fdd8cb4f786602090815260409182902054915160ff9092161515825290f35b346104c35760203660031901126104c3576001600160a01b036121f8614afe565b1680156122175760005260036020526020604060002054604051908152f35b60405162461bcd60e51b815260206004820152602960248201527f4552433732313a2061646472657373207a65726f206973206e6f7420612076616044820152683634b21037bbb732b960b91b6064820152608490fd5b346104c35760003660031901126104c3576020604051600080516020615c328339815191528152f35b346104c35760003660031901126104c3576020604051600080516020615c128339815191528152f35b346104c3576020806003193601126104c3576122da614afe565b6001600160a01b03811691908215610e85576122fd906122f8614f98565b614ee1565b61107a577f4e3eede475de92d3e23765b737dbb67646352b3328c1a437d7f089766d7be75190600080516020615c528339815191528060005260068252604060002084600052825260ff604060002054161561102a57600052600a8152604060002061101f8154615984565b346104c35760203660031901126104c357602061238760043561534f565b6040516001600160a01b039091168152f35b346104c35760203660031901126104c3576004356001600160401b0381116104c3576123c9903690600401614c09565b60405181818093516020819301916123e092614ab6565b810160088152036020019020604051806123fa8184614d1e565b036124059082614b96565b60405191826124178160018401614d1e565b036124229084614b96565b604051806124338160028501614d1e565b0361243e9082614b96565b60405191826124508160038401614d1e565b0361245b9084614b96565b600481015460058201546040519491856124788160068701614d1e565b036124839087614b96565b60078401546040516001600160a01b03979093918816929091846124aa8160088a01614d1e565b036124b59086614b96565b60405195866124c78160098b01614d1e565b036124d29088614b96565b600a88015497600b0154986040519c8d9c8d61020090818152016124f591614ad9565b8d810360208f015261250691614ad9565b8c810360408e015261251791614ad9565b8b810360608d015261252891614ad9565b9160808b015260a08a015288810360c08a015261254491614ad9565b9060e088015286810361010088015261255c91614ad9565b85810361012087015261256e91614ad9565b9281166101408501528060a01c60ff1615156101608501528060a81c60ff1615156101808501528060b01c60ff1615156101a085015260b81c60ff1615156101c08401526101e08301520390f35b346104c35760203660031901126104c3576004356001600160401b0381116104c35761260560206125f281933690600401614c09565b8160405193828580945193849201614ab6565b8101600d81520301902054604051908152f35b346104c35761262636614db4565b6001600160a01b03806126388561534f565b1690338214908115612792575b50801561276c575b6126579150615afb565b82600052602090600c825260019182604060002001936001600160401b0383116127565761268f836126898754614ce4565b8761590f565b600091601f84116001146126f057509282939183926000946126e5575b50501b916000199060031b1c19161790555b7f9428dcbe773ffde983d366e27dc72d5f9be6e309154036dd48f60fbc0784be68600080a2005b0135925086806126ac565b9183601f1981168760005284600020946000905b8883831061273c5750505010612722575b505050811b0190556126be565b0135600019600384901b60f8161c19169055848080612715565b868601358855909601959384019387935090810190612704565b634e487b7160e01b600052604160045260246000fd5b50600052600560205260406000203360005260205261265760ff6040600020541661264d565b33915061279e86615372565b161485612645565b346104c35760003660031901126104c3576020604051600080516020615bb28339815191528152f35b346104c3576127dd36614de7565b3360009081527f242ea55e8d2c4ef0e59404c6dcfea3779f40e53603acb1ace99e5296fe40e3de602090815260409091205491929160ff161561087057604051600160ff600a85519385818189019661283781838a614ab6565b81016008815203019020015460b01c161515146128b75791600a61288b611a0d937fa9de1934279a83f8cfaaecf6a7002ac10aeaea244c8c763f3752f3fc4c3e631d95604051809381928751928391614ab6565b8101600881520301902001600160b01b60ff60b01b198254161790556040519182913395429184615956565b5061083660405192839263c817400d60e01b845260048401526024830190614ad9565b346104c3576020806003193601126104c3576128f4614afe565b6001600160a01b03811691908215610e855761291790612912614f98565b614ea4565b61107a577f4a02edd19f09212e54b2ac85d7d3a4a2e3fbf424e6710c3f817d9b4cecc9cdb390600080516020615c328339815191528060005260068252604060002084600052825260ff604060002054161561102a57600052600a8152604060002061101f8154615984565b346104c357610f3861299436614c27565b90604051926129a284614b7b565b60008452615415565b346104c3577f09e41d39f5fbe80f71bc2f0a44e937a0ee3dff62dd07f191a8a461a339891a036129da36614db4565b9060008094939452600c6020600681526040600020336000528152612a0660ff60406000205416615a4c565b6000868152600c6020526040902060020154612a2c906001600160a01b03161515615b32565b612a358661534f565b50856000612a428261534f565b82825260048452604080832080546001600160a01b03199081169091556001600160a01b0390921680845260038652818420805485190190558484526002865290832080549092169091557fddf252ad1be2c89b69c2b068fc378daa952ba7f163c4a11628f55a4df523b3ef8280a4526000600260408220612ac381615b68565b612acf60018201615b68565b0155611a0d60405192839283615a87565b346104c35760c03660031901126104c3576004356001600160401b0381116104c357612b10903690600401614c09565b6024356001600160401b0381116104c357612b2f903690600401614c09565b906064356001600160401b0381116104c357612b4f903690600401614c09565b9060a4356001600160401b0381116104c357612b6f903690600401614c09565b3360009081527feb11c4dffcd603b187030b5bf07e2a291164160a644644e9264774fce81d0e7f602052604090205490929060ff1615610870578151156139ce5780511561084c578351156139bc57604435156139aa5760843515801561399e575b61398c57605060843511156139725782511561396057600754612bf381615984565b600755604051612c3b60748260208101946020612c168b88815193849201614ab6565b8201903360601b60208301524260348301526054820152036054810184520182614b96565b5190209260405193612c4c85614b60565b600a85526020368187013784511561394a576030602086015384516001101561394a576078602186015360005b600481106138b7575050612cce602160405180968851612ca0816020850160208d01614ab6565b8201602d60f81b6020820152612cbf8251809360208785019101614ab6565b01036001810187520185614b96565b60405190816102008101106001600160401b0361020084011117612756576102008201604052848252836020830152826040830152856060830152604435608083015260843560a083015260c08201523360e0820152604051612d3081614b60565b600381526252617760e81b6020820152610100820152604051612d5281614b60565b600d81526c26b4b734b7339021b2b73a32b960991b6020820152610120820152336101408201526000610160820152600061018082015260006101a082015260006101c0820152426101e08201526040516020818651612db58183858b01614ab6565b810160088152030190209080518051906001600160401b038211612756578190612de3826126898754614ce4565b602090601f831160011461384b57600092613840575b50508160011b916000199060031b1c19161782555b60208101518051906001600160401b038211612756578190612e4082612e376001880154614ce4565b6001880161590f565b602090601f83116001146137ce576000926137c3575b50508160011b916000199060031b1c19161760018301555b60408101518051906001600160401b038211612756578190612ea082612e976002880154614ce4565b6002880161590f565b602090601f831160011461375157600092613746575b50508160011b916000199060031b1c19161760028301555b60608101518051906001600160401b038211612756578190612f0082612ef76003880154614ce4565b6003880161590f565b602090601f83116001146136d4576000926136c9575b50508160011b916000199060031b1c19161760038301555b6080810151600483015560a0810151600583015560c08101518051906001600160401b038211612756578190612f7482612f6b6006880154614ce4565b6006880161590f565b602090601f83116001146136575760009261364c575b50508160011b916000199060031b1c19161760068301555b60e08101516007830180546001600160a01b0319166001600160a01b03929092169190911790556101008101518051906001600160401b038211612756578190612ffc82612ff36008880154614ce4565b6008880161590f565b602090601f83116001146135da576000926135cf575b50508160011b916000199060031b1c19161760088301555b6101208101518051906001600160401b0382116127565761305b826130526009870154614ce4565b6009870161590f565b602090601f8311600114613559579180600b94926101e09460009261354e575b50508160011b916000199060031b1c19161760098501555b600a840160018060a01b036101408301511681549060ff60a01b610160850151151560a01b1660ff60a81b610180860151151560a81b169060ff60b01b6101a0870151151560b01b169260ff60b81b6101c0880151151560b81b16946001600160401b0360c01b16171717171790550151910155604051602081855161311c8183858a01614ab6565b81016009815203019020936040519467027b934b3b4b71d160c51b602087015261316460288785516131548184840160208a01614ab6565b8101036008810189520187614b96565b6040519561317187614b45565b85875260405161318081614b60565b600a815269149959da5cdd195c995960b21b602082015260208801526040870152336060870152426080870152805468010000000000000000811015612756576131cf91600182018155614cc8565b6135385785518051906001600160401b0382116127565781906131fc826131f68654614ce4565b8661590f565b602090601f83116001146134cc576000926134c1575b50508160011b916000199060031b1c19161781555b60208601518051906001600160401b038211612756578190613259826132506001870154614ce4565b6001870161590f565b602090601f831160011461344f57600092613444575b50508160011b916000199060031b1c19161760018201555b60408601519586516001600160401b038111612756576132b7816132ae6002860154614ce4565b6002860161590f565b6020601f82116001146133a35792600460806107f7948461336798957f73c819068ba25b88a32cb91f9b552ab50d9cccb7c4abdeb2a04f44373b7153939a986111e69e600092613398575b50508160011b916000199060031b1c19161760028501555b6003840160018060a01b036060830151166001600160601b0360a01b82541617905501519101556113216040519660e0885261335960e089018a614ad9565b9088820360208a0152614ad9565b91604435608082015260843560a08201524260c08201528033930390a2604051918291602083526020830190614ad9565b015190508e80613302565b6002840160005260206000209860005b601f198416811061342c575060806107f7946001856111e69d7f73c819068ba25b88a32cb91f9b552ab50d9cccb7c4abdeb2a04f44373b7153939b99966004966133679c99601f19811610613413575b505050811b01600285015561331a565b015160001960f88460031b161c191690558e8080613403565b828201518b556001909a0199602092830192016133b3565b01519050888061326f565b9250600184016000526020600020906000935b601f19841685106134a6576001945083601f1981161061348d575b505050811b016001820155613287565b015160001960f88460031b161c1916905588808061347d565b81810151835560209485019460019093019290910190613462565b015190508880613212565b9250836000526020600020906000935b601f198416851061351d576001945083601f19811610613504575b505050811b018155613227565b015160001960f88460031b161c191690558880806134f7565b818101518355602094850194600190930192909101906134dc565b634e487b7160e01b600052600060045260246000fd5b015190508a8061307b565b906009850160005260206000209160005b601f19851681106135b7575092600b94926001926101e09583601f1981161061359e575b505050811b016009850155613093565b015160001960f88460031b161c191690558a808061358e565b9192602060018192868501518155019401920161356a565b015190508880613012565b9250600885016000526020600020906000935b601f1984168510613631576001945083601f19811610613618575b505050811b01600883015561302a565b015160001960f88460031b161c19169055888080613608565b818101518355602094850194600190930192909101906135ed565b015190508880612f8a565b9250600685016000526020600020906000935b601f19841685106136ae576001945083601f19811610613695575b505050811b016006830155612fa2565b015160001960f88460031b161c19169055888080613685565b8181015183556020948501946001909301929091019061366a565b015190508880612f16565b9250600385016000526020600020906000935b601f198416851061372b576001945083601f19811610613712575b505050811b016003830155612f2e565b015160001960f88460031b161c19169055888080613702565b818101518355602094850194600190930192909101906136e7565b015190508880612eb6565b9250600285016000526020600020906000935b601f19841685106137a8576001945083601f1981161061378f575b505050811b016002830155612ece565b015160001960f88460031b161c1916905588808061377f565b81810151835560209485019460019093019290910190613764565b015190508880612e56565b9250600185016000526020600020906000935b601f1984168510613825576001945083601f1981161061380c575b505050811b016001830155612e6e565b015160001960f88460031b161c191690558880806137fc565b818101518355602094850194600190930192909101906137e1565b015190508880612df9565b9250846000526020600020906000935b601f198416851061389c576001945083601f19811610613883575b505050811b018255612e0e565b015160001960f88460031b161c19169055888080613876565b8181015183556020948501946001909301929091019061385b565b602081101561394a5781811a90600f6138d4818460041c166159cb565b908260011b936002848604811485151715613934578581018091116139345761390461390b9460001a918c6157e1565b53166159cb565b9160039081018091116139345761392961392f9360001a91896157e1565b53615984565b612c79565b634e487b7160e01b600052601160045260246000fd5b634e487b7160e01b600052603260045260246000fd5b60405163bfccc8e960e01b8152600490fd5b60405163d05db01960e01b81526084356004820152602490fd5b604051633abe7db760e21b8152600490fd5b50606460843511612bd1565b60405163fd83f8d960e01b8152600490fd5b60405163a765e58f60e01b8152600490fd5b604051630ac6e45360e31b8152600490fd5b346104c35760403660031901126104c3576139f9614b14565b336001600160a01b03821603613a1557610f389060043561528d565b60405162461bcd60e51b815260206004820152602f60248201527f416363657373436f6e74726f6c3a2063616e206f6e6c792072656e6f756e636560448201526e103937b632b9903337b91039b2b63360891b6064820152608490fd5b346104c35760403660031901126104c3576004356001600160401b0381116104c357613aa2903690600401614c09565b613abe6020602435928160405193828580945193849201614ab6565b8101600981520301902080548210156104c357613b4d91613ade91614cc8565b5060405190613af882613af18184614d1e565b0383614b96565b604051613b0c816112b28160018601614d1e565b613b69604051613b23816112b28160028801614d1e565b613b5b600460018060a01b036003870154169501549360405197889760a0895260a0890190614ad9565b908782036020890152614ad9565b908582036040870152614ad9565b91606084015260808301520390f35b346104c35760203660031901126104c357613b91614afe565b6001600160a01b031660009081527feb11c4dffcd603b187030b5bf07e2a291164160a644644e9264774fce81d0e7f602090815260409182902054915160ff9092161515825290f35b346104c357613be836614c89565b613bf0614f98565b613bf982614e2a565b156105fa576105907f125f88db22967983b401f70f6804d47f43cb545fcb725d0b335fe7d43d9b4a4a91600080516020615c12833981519152806000526020906006825261053c60016040600020015461518d565b346104c35760403660031901126104c357600435613c6a614b14565b816000526006602052613c8460016040600020015461518d565b81600052600660205260406000209060018060a01b0316908160005260205260ff6040600020541615613cb357005b8160005260066020526040600020816000526020526040600020600160ff1982541617905533917f2f8788117e7eff1d82e926ec794901d17c78024a50270940304540a733656f0d600080a4005b346104c35760603660031901126104c357613d1a614afe565b6024906001600160401b039082358281116104c357613d3d903690600401614c5c565b906044358481116104c357613d56903690600401614c5c565b3360009081527f8b6c17971091f14c72dc9926ac25eeb209486d91b49eb570e570d5ecdb8327a7602052604090205491959091613d959060ff16615a4c565b600b5494613da286615984565b600b556000868152600c60205260409020600201546001600160a01b03166141cf5760405185858237602081878101600d8152030190205461419d576001600160a01b0316958615614159576000868152600c6020526040902060020154613ebf9190613e1b906001600160a01b031615155b15615aaf565b6000878152600c6020526040902060020154613e41906001600160a01b03161515613e15565b8760005260036020526040600020600181540190558660005260026020526040600020886001600160601b0360a01b82541617905560405193878960007fddf252ad1be2c89b69c2b068fc378daa952ba7f163c4a11628f55a4df523b3ef8180a4613eab85614b2a565b613eb6368888614bd2565b85523691614bd2565b90602083019182523360408401526001606084015285600052600c6020526040600020918351805190838211614144578190613f0582613eff8854614ce4565b8861590f565b602090601f83116001146140de576000926140d3575b50508160011b916000199060031b1c19161783555b519788519182116140bf5750613f5681613f4d6001850154614ce4565b6001850161590f565b6020601f8211600114614022576002613fec94938360ff946060947fc1177815a22ab58cdf6e40a80dfe322e9d00b7977bd78634869752fed8082f569b9c9d600092614017575b50508160011b916000199060031b1c19161760018201555b60408501519101805492909401516001600160a81b03199092166001600160a01b039190911617911660a01b60ff60a01b16179055565b8360405183838237602081858101600d8152030190205561401260405192839283615a87565b0390a3005b015190508d80613f9d565b6001830160005260206000209860005b601f19841681106140a75750613fec94936001847fc1177815a22ab58cdf6e40a80dfe322e9d00b7977bd78634869752fed8082f569a9b9c60609560029560ff98601f1981161061408e575b505050811b016001820155613fb5565b015160001960f88460031b161c191690558d808061407e565b828201518b556001909a019960209283019201614032565b634e487b7160e01b60009081526041600452fd5b015190508b80613f1b565b6000878152602081209350601f198516905b81811061412c5750908460019594939210614113575b505050811b018355613f30565b015160001960f88460031b161c191690558b8080614106565b929360206001819287860151815501950193016140f0565b8a634e487b7160e01b60005260416004526000fd5b60405162461bcd60e51b8152602060048201819052818a01527f4552433732313a206d696e7420746f20746865207a65726f20616464726573736044820152606490fd5b60405162461bcd60e51b815260206004820152600b818a01526a135a5b995c985b155cd95960aa1b6044820152606490fd5b60405162461bcd60e51b8152602060048201526006818a01526545786973747360d01b6044820152606490fd5b346104c35760403660031901126104c357600435614218614b14565b3360009081527fbb37dc583cabdec48fe00fe8c624c62f51ef5512543d57db4979b66daa6ec34a60205260409020549091906142569060ff16615a4c565b61425f8161534f565b6001600160a01b03808216929161429390839086903387148015614309575b80156142e0575b61428e90615afb565b615568565b81600052600c6020526002604060002001931692836001600160601b0360a01b8254161790557f0ea8df787dde63a7bdc34d17097adf25749a3521f660e92dabdff8d6ee91d18a600080a4005b5086600052600560205260406000203360005260205261428e60ff604060002054169050614285565b50338561431585615372565b161461427e565b346104c35760203660031901126104c35760043560005260066020526020600160406000200154604051908152f35b346104c357610f3861435c36614c27565b9161428e61436a84336154a0565b6153b3565b346104c3576020806003193601126104c3576004356001600160401b0381116104c3576143a0903690600401614c09565b90600080516020615bf283398151915260005260068152604060002033600052815260ff9182604060002054161561087057604051815193838301946143e7818488614ab6565b8201906001816008938481528588600a97889303019020015460a01c161515146146825760008052600685526040600020336000528552806040600020541615610870576112b261445a6040518781806144458c8b51928391614ab6565b81018781520301902060405192838092614d1e565b8581519101208451908188201490811591614679575b50611db557808360405187818061448b8c8b51928391614ab6565b810187815203019020015460b01c168061464e575b1561462c57604051606081527f10f4ba4c7bb6f0c442f54585004a6e24440bea5c2d2e6f36b688e3e624762e226144da6060830187614ad9565b916b54726164696e67526561647960a01b88828503948582850152600c81520152426040820152604033930190a2808360405187818061451e8c8b51928391614ab6565b810187815203019020015460b01c1690836040518781806145438c8b51928391614ab6565b810187815203019020015460b81c1681614624575b501561460257837ffed1001c142a7ab386454a2f7d78b013ba7ff40595d10c128f2fb6463ccd7b7a94956145c6928460405184818951614599818389614ab6565b81018581520301902001805460ff60a01b1916600160a01b17905560405186519094859382908590614ab6565b8201908152030190200180546001600160a01b0319163317905560408051818152916145f491830190614ad9565b9242908201528033930390a2005b6040516348cddbdb60e11b815260048101859052806108366024820186614ad9565b905086614558565b6040516348cddbdb60e11b815260048101869052806108366024820187614ad9565b5080836040518781806146658c8b51928391614ab6565b810187815203019020015460b81c166144a0565b90501587614470565b604051632072bb0160e11b815260048101869052806108366024820187614ad9565b346104c3576020806003193601126104c3576146be614afe565b6001600160a01b03811691908215610e85576146e1906146dc614f98565b614e67565b61107a577ff8ed9ac482b0f7c12999b3f157f758f84e39cd339fa301ea203823ac29e9750590600080516020615bf28339815191528060005260068252604060002084600052825260ff604060002054161561102a57600052600a8152604060002061101f8154615984565b346104c35760403660031901126104c357614766614afe565b602435906001600160a01b03808061477d8561534f565b1692169180831461487857803314908115614853575b50156147e857600083815260046020526040902080546001600160a01b031916831790556147c08361534f565b167f8c5be1e5ebec7d5bd14f71427d1e84f3dd0314c0f7b2291e5b200ac8c7c3b925600080a4005b60405162461bcd60e51b815260206004820152603d60248201527f4552433732313a20617070726f76652063616c6c6572206973206e6f7420746f60448201527f6b656e206f776e6572206f7220617070726f76656420666f7220616c6c0000006064820152608490fd5b9050600052600560205260406000203360005260205260ff6040600020541684614793565b60405162461bcd60e51b815260206004820152602160248201527f4552433732313a20617070726f76616c20746f2063757272656e74206f776e656044820152603960f91b6064820152608490fd5b346104c3576020806003193601126104c3576148e1614afe565b6001600160a01b03811691908215610e8557614904906148ff614f98565b614e2a565b61107a577f593f046317558c2857b92915c62c99f2d2108f7bc6f1e1b3c5376cd559abf55990600080516020615c128339815191528060005260068252604060002084600052825260ff604060002054161561102a57600052600a8152604060002061101f8154615984565b346104c35760203660031901126104c3576020612387600435615372565b346104c35760003660031901126104c357604051600080546149af81614ce4565b80845290600190818116908115611aed57506001146149d8576111e684611a8081860382614b96565b600080805292507f290decd9548b62a8d60345a988386fc84ba6bc95484008f6362f93160ef3e5635b828410614a19575050508101602001611a8082611a70565b80546020858701810191909152909301928101614a01565b346104c35760203660031901126104c3576004359063ffffffff60e01b82168092036104c357602091637965db0b60e01b8114908115614a73575b5015158152f35b6380ac58cd60e01b811491508115614aa5575b8115614a94575b5083614a6c565b6301ffc9a760e01b14905083614a8d565b635b5e139f60e01b81149150614a86565b60005b838110614ac95750506000910152565b8181015183820152602001614ab9565b90602091614af281518092818552858086019101614ab6565b601f01601f1916010190565b600435906001600160a01b03821682036104c357565b602435906001600160a01b03821682036104c357565b608081019081106001600160401b0382111761275657604052565b60a081019081106001600160401b0382111761275657604052565b604081019081106001600160401b0382111761275657604052565b602081019081106001600160401b0382111761275657604052565b90601f801991011681019081106001600160401b0382111761275657604052565b6001600160401b03811161275657601f01601f191660200190565b929192614bde82614bb7565b91614bec6040519384614b96565b8294818452818301116104c3578281602093846000960137010152565b9080601f830112156104c357816020614c2493359101614bd2565b90565b60609060031901126104c3576001600160a01b039060043582811681036104c3579160243590811681036104c3579060443590565b9181601f840112156104c3578235916001600160401b0383116104c357602083818601950101116104c357565b9060406003198301126104c3576004356001600160a01b03811681036104c35791602435906001600160401b0382116104c357614c2491600401614c09565b805482101561394a576000526005602060002091020190600090565b90600182811c92168015614d14575b6020831014614cfe57565b634e487b7160e01b600052602260045260246000fd5b91607f1691614cf3565b9060009291805491614d2f83614ce4565b918282526001938481169081600014614d915750600114614d51575b50505050565b90919394506000526020928360002092846000945b838610614d7d575050505001019038808080614d4b565b805485870183015294019385908201614d66565b9294505050602093945060ff191683830152151560051b01019038808080614d4b565b9060406003198301126104c35760043591602435906001600160401b0382116104c357614de391600401614c5c565b9091565b9060406003198301126104c3576001600160401b036004358181116104c35783614e1391600401614c09565b926024359182116104c357614c2491600401614c09565b6001600160a01b031660009081527feb11c4dffcd603b187030b5bf07e2a291164160a644644e9264774fce81d0e7f602052604090205460ff1690565b6001600160a01b031660009081527fbb37dc583cabdec48fe00fe8c624c62f51ef5512543d57db4979b66daa6ec34a602052604090205460ff1690565b6001600160a01b031660009081527f242ea55e8d2c4ef0e59404c6dcfea3779f40e53603acb1ace99e5296fe40e3de602052604090205460ff1690565b6001600160a01b031660009081527fca035b5fe9e485e185862b3d823a27c51239e882434fc92f4e9813290cdcda23602052604090205460ff1690565b6001600160a01b031660009081527ff3c994667eb080af4dc238df2ebbc27a8b635b22c13280cb411b8fdd8cb4f786602052604090205460ff1690565b6001600160a01b031660009081527f82185bb4be848e6312a435728ac1c9ae8846484253027baf02ec8ff1c18b0311602052604090205460ff1690565b3360009081527f54cdd369e4e8a8515e52ca72ec816c2101831ad1f18bf44102ed171459c9b4f8602090815260408083205490929060ff1615614fda57505050565b614fe3336157ff565b9080845190614ff182614b2a565b60428252848201926060368537825115615179576030845382516001908110156151655790607860218501536041915b80831161510b575050506150c95760486108369386936150ad9361509e985198899376020b1b1b2b9b9a1b7b73a3937b61d1030b1b1b7bab73a1604d1b8a860152615075815180928c603789019101614ab6565b8401917001034b99036b4b9b9b4b733903937b6329607d1b603784015251809386840190614ab6565b01036028810187520185614b96565b5192839262461bcd60e51b845260048401526024830190614ad9565b60648486519062461bcd60e51b825280600483015260248201527f537472696e67733a20686578206c656e67746820696e73756666696369656e746044820152fd5b909192600f811660108110156151515761514a91906f181899199a1a9b1b9c1cb0b131b232b360811b901a61514086886157e1565b5360041c936157f2565b9190615021565b634e487b7160e01b84526032600452602484fd5b634e487b7160e01b82526032600452602482fd5b634e487b7160e01b81526032600452602490fd5b60009080825260209060068252604092838120338252835260ff8482205416156151b75750505050565b6151c0336157ff565b918451906151cd82614b2a565b60428252848201926060368537825115615179576030845382516001908110156151655790607860218501536041915b808311615251575050506150c95760486108369386936150ad9361509e985198899376020b1b1b2b9b9a1b7b73a3937b61d1030b1b1b7bab73a1604d1b8a860152615075815180928c603789019101614ab6565b909192600f811660108110156151515761528691906f181899199a1a9b1b9c1cb0b131b232b360811b901a61514086886157e1565b91906151fd565b906000918083526006602052604083209160018060a01b03169182845260205260ff6040842054166152be57505050565b8083526006602052604083208284526020526040832060ff1981541690557ff6391f5c32d9c69d2a47ea670b442974b53935d1edc7fd64eb21e047a839171b339380a4565b1561530a57565b60405162461bcd60e51b815260206004820152601860248201527f4552433732313a20696e76616c696420746f6b656e20494400000000000000006044820152606490fd5b6000908152600260205260409020546001600160a01b0316614c24811515615303565b6000818152600c6020526040902060020154615398906001600160a01b03161515615303565b6000908152600460205260409020546001600160a01b031690565b156153ba57565b60405162461bcd60e51b815260206004820152602d60248201527f4552433732313a2063616c6c6572206973206e6f7420746f6b656e206f776e6560448201526c1c881bdc88185c1c1c9bdd9959609a1b6064820152608490fd5b9061543993929161542961436a84336154a0565b615434838383615568565b615679565b1561544057565b60405162461bcd60e51b815260206004820152603260248201527f4552433732313a207472616e7366657220746f206e6f6e20455243373231526560448201527131b2b4bb32b91034b6b83632b6b2b73a32b960711b6064820152608490fd5b906001600160a01b0380806154b48461534f565b169316918383149384156154e7575b5083156154d1575b50505090565b6154dd91929350615372565b16143880806154cb565b909350600052600560205260406000208260005260205260ff6040600020541692386154c3565b1561551557565b60405162461bcd60e51b815260206004820152602560248201527f4552433732313a207472616e736665722066726f6d20696e636f72726563742060448201526437bbb732b960d91b6064820152608490fd5b90615590916155768461534f565b6001600160a01b039391841692849290918316841461550e565b1691821561562857816155ad916155a68661534f565b161461550e565b7fddf252ad1be2c89b69c2b068fc378daa952ba7f163c4a11628f55a4df523b3ef60008481526004602052604081206001600160601b0360a01b9081815416905583825260036020526040822060001981540190558482526040822060018154019055858252600260205284604083209182541617905580a4565b60405162461bcd60e51b8152602060048201526024808201527f4552433732313a207472616e7366657220746f20746865207a65726f206164646044820152637265737360e01b6064820152608490fd5b92939190803b156157d7576156cb946040518092630a85bd0160e11b9485835233600484015260018060a01b03809816602484015260448301526080606483015281806020998a956084830190614ad9565b03916000988991165af1849181615793575b50615782575050503d60001461577a573d6156f781614bb7565b906157056040519283614b96565b81528091833d92013e5b805191826157775760405162461bcd60e51b815260206004820152603260248201527f4552433732313a207472616e7366657220746f206e6f6e20455243373231526560448201527131b2b4bb32b91034b6b83632b6b2b73a32b960711b6064820152608490fd5b01fd5b50606061570f565b6001600160e01b0319161492509050565b9091508581813d83116157d0575b6157ab8183614b96565b810103126157cc57516001600160e01b0319811681036157cc5790386156dd565b8480fd5b503d6157a1565b5050915050600190565b90815181101561394a570160200190565b8015613934576000190190565b60405190606082018281106001600160401b0382111761275657604052602a825260208201604036823782511561394a5760309053815160019081101561394a57607860218401536029905b80821161589f57505061585b5790565b606460405162461bcd60e51b815260206004820152602060248201527f537472696e67733a20686578206c656e67746820696e73756666696369656e746044820152fd5b9091600f81169060108210156158e3576158dd916f181899199a1a9b1b9c1cb0b131b232b360811b901a6158d385876157e1565b5360041c926157f2565b9061584b565b60246000634e487b7160e01b81526032600452fd5b818110615903575050565b600081556001016158f8565b9190601f811161591e57505050565b61594a926000526020600020906020601f840160051c8301931061594c575b601f0160051c01906158f8565b565b909150819061593d565b93929161597f90615971604093606088526060880190614ad9565b908682036020880152614ad9565b930152565b60001981146139345760010190565b6001600160401b0381116127565760051b60200190565b80511561394a5760200190565b805182101561394a5760209160051b010190565b60009060ff16600a8110156159f757603091500160ff81116139345760f81b6001600160f81b03191690565b60610160ff8111615a385760ff6009199116019060ff8211615a24575060f81b6001600160f81b03191690565b634e487b7160e01b81526011600452602490fd5b634e487b7160e01b82526011600452602482fd5b15615a5357565b60405162461bcd60e51b815260206004820152600c60248201526b155b985d5d1a1bdc9a5e995960a21b6044820152606490fd5b90918060409360208452816020850152848401376000828201840152601f01601f1916010190565b15615ab657565b60405162461bcd60e51b815260206004820152601c60248201527f4552433732313a20746f6b656e20616c7265616479206d696e746564000000006044820152606490fd5b15615b0257565b60405162461bcd60e51b81526020600482015260086024820152672737ba27bbb732b960c11b6044820152606490fd5b15615b3957565b60405162461bcd60e51b8152602060048201526007602482015266125b9d985b1a5960ca1b6044820152606490fd5b615b728154614ce4565b9081615b7c575050565b81601f60009311600114615b8e575055565b908083918252615bad601f60208420940160051c8401600185016158f8565b555556feddaa901e2fe3bda354fe0ede2785152d5c109282a613fe024a056a3e66c41bb3273dcf2136c7d8ef632bb8ef13dbca69a8f36fa620c7468671b3153d46a211c0f8cd32ed93fc2f9fc78152a14807c9609af3d99c5fe4dc6b106a801aaddfe90ea952726ef2588ad078edf35b066f7c7406e207cb0003bbaba8cb53eba9553e7259a1c48e5837ad7a7f3dcedcbe129bf3249ec4fbf651fd4f5e2600ead39fe2f5a977e1a3444218ff332edf735c56487bbe59922b15c88777d443eb8b78020f4da2646970667358221220df284e779e407413873363eaaebcb85942ae42c5067e346e966fdb44f5f8c4bf64736f6c634300081400332f8788117e7eff1d82e926ec794901d17c78024a50270940304540a733656f0d",
  "devdoc": {
    "events": {
      "Approval(address,address,uint256)": {
        "details": "Emitted when `owner` enables `approved` to manage the `tokenId` token."
      },
      "ApprovalForAll(address,address,bool)": {
        "details": "Emitted when `owner` enables or disables (`approved`) `operator` to manage all of its assets."
      },
      "RoleAdminChanged(bytes32,bytes32,bytes32)": {
        "details": "Emitted when `newAdminRole` is set as ``role``'s admin role, replacing `previousAdminRole` `DEFAULT_ADMIN_ROLE` is the starting admin for all roles, despite {RoleAdminChanged} not being emitted signaling this. _Available since v3.1._"
      },
      "RoleGranted(bytes32,address,address)": {
        "details": "Emitted when `account` is granted `role`. `sender` is the account that originated the contract call, an admin role bearer except when using {AccessControl-_setupRole}."
      },
      "RoleRevoked(bytes32,address,address)": {
        "details": "Emitted when `account` is revoked `role`. `sender` is the account that originated the contract call:   - if using `revokeRole`, it is the admin role bearer   - if using `renounceRole`, it is the role bearer (i.e. `account`)"
      },
      "Transfer(address,address,uint256)": {
        "details": "Emitted when `tokenId` token is transferred from `from` to `to`."
      }
    },
    "kind": "dev",
    "methods": {
      "_auditMineral(string,string)": {
        "details": "only the auditor can audit mineralDetails.Logs audit report on every successful audit.",
        "params": {
          "mineralId": "The ID of the mineral under audition.",
          "report": "The audit status report of the mineral under audition."
        }
      },
      "approve(address,uint256)": {
        "details": "See {IERC721-approve}."
      },
      "balanceOf(address)": {
        "details": "See {IERC721-balanceOf}."
      },
      "checkAuditAndInspectionStatus(string)": {
        "details": "checks audit and inspection status",
        "params": {
          "mineralId": "The ID of the mineral to check for audit and inspection status Returns (isValid, isInspected) statuses of both audit and inspection of mineral according to mineralId"
        }
      },
      "getAllRoleCounts()": {
        "details": "Returns all role counts in a single call",
        "returns": {
          "auditorCount": "Number of auditors",
          "buyerCount": "Number of buyers",
          "inspectorCount": "Number of inspectors",
          "minerCount": "Number of miners",
          "refinerCount": "Number of refiners",
          "transporterCount": "Number of transporters"
        }
      },
      "getApproved(uint256)": {
        "details": "See {IERC721-getApproved}."
      },
      "getRoleAdmin(bytes32)": {
        "details": "Returns the admin role that controls `role`. See {grantRole} and {revokeRole}. To change a role's admin, use {_setRoleAdmin}."
      },
      "getRoleMemberCount(bytes32)": {
        "details": "Returns the number of accounts that have a specific role",
        "params": {
          "role": "The role to query member count for"
        },
        "returns": {
          "count": "The number of accounts with the role"
        }
      },
      "getRolesForAddress(address)": {
        "details": "Returns all roles assigned to a given address",
        "params": {
          "account": "The address to check roles for"
        },
        "returns": {
          "roles": "An array of role names the address has"
        }
      },
      "grantRole(bytes32,address)": {
        "details": "Grants `role` to `account`. If `account` had not been already granted `role`, emits a {RoleGranted} event. Requirements: - the caller must have ``role``'s admin role. May emit a {RoleGranted} event."
      },
      "hasMinerRole(address)": {
        "details": "Roles helper functionschecks if an account has a specific role",
        "params": {
          "account": "The address of the account to checked with role association"
        }
      },
      "hasRole(bytes32,address)": {
        "details": "Returns `true` if `account` has been granted `role`."
      },
      "inspectMineral(string,string)": {
        "details": "only the inspector can inspect mineralDetailsLogs audit report on every successful inspection",
        "params": {
          "mineralId": "The ID of the mineral under inspection",
          "report": "The inspection status report of the mineral under inspection"
        }
      },
      "isApprovedForAll(address,address)": {
        "details": "See {IERC721-isApprovedForAll}."
      },
      "isMineralRegistered(string)": {
        "details": "checks if a mineral with the given ID is registered",
        "params": {
          "mineralId": "the ID of the mineral to check"
        },
        "returns": {
          "_0": "A boolean indicating whether the mineral is registered or not"
        }
      },
      "name()": {
        "details": "See {IERC721Metadata-name}."
      },
      "ownerOf(uint256)": {
        "details": "See {IERC721-ownerOf}."
      },
      "purchaseMineral(string)": {
        "details": "Only the buyer can purchase mineralDetails",
        "params": {
          "mineralId": "The ID of the mineral under purchase"
        }
      },
      "refineMineral(string,string)": {
        "details": "only the refiner can refiner a mineral",
        "params": {
          "mineralId": "The ID of the mineral under refinery"
        }
      },
      "registerMineral(string,string,uint256,string,uint256,string)": {
        "details": "Register a new mineral - only by miner.Every mineral is assigned a unique mineralId.",
        "params": {
          "_mineralType": "The type of a mineral.",
          "_name": "Mineral name.",
          "_origin": "Mineral Origin.",
          "_purityPercentage": "Mineral purity in percentage.",
          "_storageConditions": "Mineral Storage conditions.",
          "_weight": "Mineral weight in uint256."
        }
      },
      "renounceRole(bytes32,address)": {
        "details": "Revokes `role` from the calling account. Roles are often managed via {grantRole} and {revokeRole}: this function's purpose is to provide a mechanism for accounts to lose their privileges if they are compromised (such as when a trusted device is misplaced). If the calling account had been revoked `role`, emits a {RoleRevoked} event. Requirements: - the caller must be `account`. May emit a {RoleRevoked} event."
      },
      "revokeRole(bytes32,address)": {
        "details": "Revokes `role` from `account`. If `account` had been granted `role`, emits a {RoleRevoked} event. Requirements: - the caller must have ``role``'s admin role. May emit a {RoleRevoked} event."
      },
      "safeTransferFrom(address,address,uint256)": {
        "details": "See {IERC721-safeTransferFrom}."
      },
      "safeTransferFrom(address,address,uint256,bytes)": {
        "details": "See {IERC721-safeTransferFrom}."
      },
      "setApprovalForAll(address,bool)": {
        "details": "See {IERC721-setApprovalForAll}."
      },
      "symbol()": {
        "details": "See {IERC721Metadata-symbol}."
      },
      "tokenURI(uint256)": {
        "details": "See {IERC721Metadata-tokenURI}."
      },
      "transferFrom(address,address,uint256)": {
        "details": "See {IERC721-transferFrom}."
      },
      "transferMineral(string,address,string,string)": {
        "details": "only the transporter can transport mineralDetails",
        "params": {
          "_destination": "The Destination area of the mineral(string)",
          "_origin": "The Original location of the mineral under transportation",
          "_receivingParty": "The address of the destination portal",
          "mineralId": "The ID of the mineral under transportation"
        }
      }
    },
    "version": 1
  },
  "userdoc": {
    "kind": "user",
    "methods": {
      "_auditMineral(string,string)": {
        "notice": "Emits MineralAudited event."
      },
      "inspectMineral(string,string)": {
        "notice": "Emits MineralInspected event on successful inspection"
      },
      "purchaseMineral(string)": {
        "notice": "Emits MineralPurchased event on successful purchase"
      },
      "refineMineral(string,string)": {
        "notice": "Emits MineralRefined event on successfl refining process"
      },
      "registerMineral(string,string,uint256,string,uint256,string)": {
        "notice": "Emits MineralRegistered event on successful registration."
      },
      "transferMineral(string,address,string,string)": {
        "notice": "Emits MineralTransported on successful transportation"
      }
    },
    "version": 1
  },
  "storageLayout": {
    "storage": [
      {
        "astId": 557,
        "contract": "contracts/tokens/Tokenization.sol:Tokenization",
        "label": "_name",
        "offset": 0,
        "slot": "0",
        "type": "t_string_storage"
      },
      {
        "astId": 559,
        "contract": "contracts/tokens/Tokenization.sol:Tokenization",
        "label": "_symbol",
        "offset": 0,
        "slot": "1",
        "type": "t_string_storage"
      },
      {
        "astId": 563,
        "contract": "contracts/tokens/Tokenization.sol:Tokenization",
        "label": "_owners",
        "offset": 0,
        "slot": "2",
        "type": "t_mapping(t_uint256,t_address)"
      },
      {
        "astId": 567,
        "contract": "contracts/tokens/Tokenization.sol:Tokenization",
        "label": "_balances",
        "offset": 0,
        "slot": "3",
        "type": "t_mapping(t_address,t_uint256)"
      },
      {
        "astId": 571,
        "contract": "contracts/tokens/Tokenization.sol:Tokenization",
        "label": "_tokenApprovals",
        "offset": 0,
        "slot": "4",
        "type": "t_mapping(t_uint256,t_address)"
      },
      {
        "astId": 577,
        "contract": "contracts/tokens/Tokenization.sol:Tokenization",
        "label": "_operatorApprovals",
        "offset": 0,
        "slot": "5",
        "type": "t_mapping(t_address,t_mapping(t_address,t_bool))"
      },
      {
        "astId": 24,
        "contract": "contracts/tokens/Tokenization.sol:Tokenization",
        "label": "_roles",
        "offset": 0,
        "slot": "6",
        "type": "t_mapping(t_bytes32,t_struct(RoleData)19_storage)"
      },
      {
        "astId": 3677,
        "contract": "contracts/tokens/Tokenization.sol:Tokenization",
        "label": "nonce",
        "offset": 0,
        "slot": "7",
        "type": "t_uint256"
      },
      {
        "astId": 3682,
        "contract": "contracts/tokens/Tokenization.sol:Tokenization",
        "label": "mineralDetails",
        "offset": 0,
        "slot": "8",
        "type": "t_mapping(t_string_memory_ptr,t_struct(MineralDetails)3659_storage)"
      },
      {
        "astId": 3688,
        "contract": "contracts/tokens/Tokenization.sol:Tokenization",
        "label": "mineralHistories",
        "offset": 0,
        "slot": "9",
        "type": "t_mapping(t_string_memory_ptr,t_array(t_struct(MineralHistory)3670_storage)dyn_storage)"
      },
      {
        "astId": 3692,
        "contract": "contracts/tokens/Tokenization.sol:Tokenization",
        "label": "roleMemberCount",
        "offset": 0,
        "slot": "10",
        "type": "t_mapping(t_bytes32,t_uint256)"
      },
      {
        "astId": 10306,
        "contract": "contracts/tokens/Tokenization.sol:Tokenization",
        "label": "nextTokenId",
        "offset": 0,
        "slot": "11",
        "type": "t_uint256"
      },
      {
        "astId": 10311,
        "contract": "contracts/tokens/Tokenization.sol:Tokenization",
        "label": "_tokens",
        "offset": 0,
        "slot": "12",
        "type": "t_mapping(t_uint256,t_struct(MineralToken)10303_storage)"
      },
      {
        "astId": 10315,
        "contract": "contracts/tokens/Tokenization.sol:Tokenization",
        "label": "mineralToToken",
        "offset": 0,
        "slot": "13",
        "type": "t_mapping(t_string_memory_ptr,t_uint256)"
      }
    ],
    "types": {
      "t_address": {
        "encoding": "inplace",
        "label": "address",
        "numberOfBytes": "20"
      },
      "t_array(t_struct(MineralHistory)3670_storage)dyn_storage": {
        "base": "t_struct(MineralHistory)3670_storage",
        "encoding": "dynamic_array",
        "label": "struct RolesManager.MineralHistory[]",
        "numberOfBytes": "32"
      },
      "t_bool": {
        "encoding": "inplace",
        "label": "bool",
        "numberOfBytes": "1"
      },
      "t_bytes32": {
        "encoding": "inplace",
        "label": "bytes32",
        "numberOfBytes": "32"
      },
      "t_mapping(t_address,t_bool)": {
        "encoding": "mapping",
        "key": "t_address",
        "label": "mapping(address => bool)",
        "numberOfBytes": "32",
        "value": "t_bool"
      },
      "t_mapping(t_address,t_mapping(t_address,t_bool))": {
        "encoding": "mapping",
        "key": "t_address",
        "label": "mapping(address => mapping(address => bool))",
        "numberOfBytes": "32",
        "value": "t_mapping(t_address,t_bool)"
      },
      "t_mapping(t_address,t_uint256)": {
        "encoding": "mapping",
        "key": "t_address",
        "label": "mapping(address => uint256)",
        "numberOfBytes": "32",
        "value": "t_uint256"
      },
      "t_mapping(t_bytes32,t_struct(RoleData)19_storage)": {
        "encoding": "mapping",
        "key": "t_bytes32",
        "label": "mapping(bytes32 => struct AccessControl.RoleData)",
        "numberOfBytes": "32",
        "value": "t_struct(RoleData)19_storage"
      },
      "t_mapping(t_bytes32,t_uint256)": {
        "encoding": "mapping",
        "key": "t_bytes32",
        "label": "mapping(bytes32 => uint256)",
        "numberOfBytes": "32",
        "value": "t_uint256"
      },
      "t_mapping(t_string_memory_ptr,t_array(t_struct(MineralHistory)3670_storage)dyn_storage)": {
        "encoding": "mapping",
        "key": "t_string_memory_ptr",
        "label": "mapping(string => struct RolesManager.MineralHistory[])",
        "numberOfBytes": "32",
        "value": "t_array(t_struct(MineralHistory)3670_storage)dyn_storage"
      },
      "t_mapping(t_string_memory_ptr,t_struct(MineralDetails)3659_storage)": {
        "encoding": "mapping",
        "key": "t_string_memory_ptr",
        "label": "mapping(string => struct RolesManager.MineralDetails)",
        "numberOfBytes": "32",
        "value": "t_struct(MineralDetails)3659_storage"
      },
      "t_mapping(t_string_memory_ptr,t_uint256)": {
        "encoding": "mapping",
        "key": "t_string_memory_ptr",
        "label": "mapping(string => uint256)",
        "numberOfBytes": "32",
        "value": "t_uint256"
      },
      "t_mapping(t_uint256,t_address)": {
        "encoding": "mapping",
        "key": "t_uint256",
        "label": "mapping(uint256 => address)",
        "numberOfBytes": "32",
        "value": "t_address"
      },
      "t_mapping(t_uint256,t_struct(MineralToken)10303_storage)": {
        "encoding": "mapping",
        "key": "t_uint256",
        "label": "mapping(uint256 => struct Tokenization.MineralToken)",
        "numberOfBytes": "32",
        "value": "t_struct(MineralToken)10303_storage"
      },
      "t_string_memory_ptr": {
        "encoding": "bytes",
        "label": "string",
        "numberOfBytes": "32"
      },
      "t_string_storage": {
        "encoding": "bytes",
        "label": "string",
        "numberOfBytes": "32"
      },
      "t_struct(MineralDetails)3659_storage": {
        "encoding": "inplace",
        "label": "struct RolesManager.MineralDetails",
        "members": [
          {
            "astId": 3628,
            "contract": "contracts/tokens/Tokenization.sol:Tokenization",
            "label": "id",
            "offset": 0,
            "slot": "0",
            "type": "t_string_storage"
          },
          {
            "astId": 3630,
            "contract": "contracts/tokens/Tokenization.sol:Tokenization",
            "label": "name",
            "offset": 0,
            "slot": "1",
            "type": "t_string_storage"
          },
          {
            "astId": 3632,
            "contract": "contracts/tokens/Tokenization.sol:Tokenization",
            "label": "origin",
            "offset": 0,
            "slot": "2",
            "type": "t_string_storage"
          },
          {
            "astId": 3634,
            "contract": "contracts/tokens/Tokenization.sol:Tokenization",
            "label": "mineralType",
            "offset": 0,
            "slot": "3",
            "type": "t_string_storage"
          },
          {
            "astId": 3636,
            "contract": "contracts/tokens/Tokenization.sol:Tokenization",
            "label": "weight",
            "offset": 0,
            "slot": "4",
            "type": "t_uint256"
          },
          {
            "astId": 3638,
            "contract": "contracts/tokens/Tokenization.sol:Tokenization",
            "label": "purityPercentage",
            "offset": 0,
            "slot": "5",
            "type": "t_uint256"
          },
          {
            "astId": 3640,
            "contract": "contracts/tokens/Tokenization.sol:Tokenization",
            "label": "storageConditions",
            "offset": 0,
            "slot": "6",
            "type": "t_string_storage"
          },
          {
            "astId": 3642,
            "contract": "contracts/tokens/Tokenization.sol:Tokenization",
            "label": "registeredBy",
            "offset": 0,
            "slot": "7",
            "type": "t_address"
          },
          {
            "astId": 3644,
            "contract": "contracts/tokens/Tokenization.sol:Tokenization",
            "label": "currentStatus",
            "offset": 0,
            "slot": "8",
            "type": "t_string_storage"
          },
          {
            "astId": 3646,
            "contract": "contracts/tokens/Tokenization.sol:Tokenization",
            "label": "currentLocation",
            "offset": 0,
            "slot": "9",
            "type": "t_string_storage"
          },
          {
            "astId": 3648,
            "contract": "contracts/tokens/Tokenization.sol:Tokenization",
            "label": "currentHandler",
            "offset": 0,
            "slot": "10",
            "type": "t_address"
          },
          {
            "astId": 3650,
            "contract": "contracts/tokens/Tokenization.sol:Tokenization",
            "label": "isPurchased",
            "offset": 20,
            "slot": "10",
            "type": "t_bool"
          },
          {
            "astId": 3652,
            "contract": "contracts/tokens/Tokenization.sol:Tokenization",
            "label": "isRefined",
            "offset": 21,
            "slot": "10",
            "type": "t_bool"
          },
          {
            "astId": 3654,
            "contract": "contracts/tokens/Tokenization.sol:Tokenization",
            "label": "isAudited",
            "offset": 22,
            "slot": "10",
            "type": "t_bool"
          },
          {
            "astId": 3656,
            "contract": "contracts/tokens/Tokenization.sol:Tokenization",
            "label": "isInspected",
            "offset": 23,
            "slot": "10",
            "type": "t_bool"
          },
          {
            "astId": 3658,
            "contract": "contracts/tokens/Tokenization.sol:Tokenization",
            "label": "timestamp",
            "offset": 0,
            "slot": "11",
            "type": "t_uint256"
          }
        ],
        "numberOfBytes": "384"
      },
      "t_struct(MineralHistory)3670_storage": {
        "encoding": "inplace",
        "label": "struct RolesManager.MineralHistory",
        "members": [
          {
            "astId": 3661,
            "contract": "contracts/tokens/Tokenization.sol:Tokenization",
            "label": "id",
            "offset": 0,
            "slot": "0",
            "type": "t_string_storage"
          },
          {
            "astId": 3663,
            "contract": "contracts/tokens/Tokenization.sol:Tokenization",
            "label": "fieldChanged",
            "offset": 0,
            "slot": "1",
            "type": "t_string_storage"
          },
          {
            "astId": 3665,
            "contract": "contracts/tokens/Tokenization.sol:Tokenization",
            "label": "newValue",
            "offset": 0,
            "slot": "2",
            "type": "t_string_storage"
          },
          {
            "astId": 3667,
            "contract": "contracts/tokens/Tokenization.sol:Tokenization",
            "label": "updatedBy",
            "offset": 0,
            "slot": "3",
            "type": "t_address"
          },
          {
            "astId": 3669,
            "contract": "contracts/tokens/Tokenization.sol:Tokenization",
            "label": "timestamp",
            "offset": 0,
            "slot": "4",
            "type": "t_uint256"
          }
        ],
        "numberOfBytes": "160"
      },
      "t_struct(MineralToken)10303_storage": {
        "encoding": "inplace",
        "label": "struct Tokenization.MineralToken",
        "members": [
          {
            "astId": 10296,
            "contract": "contracts/tokens/Tokenization.sol:Tokenization",
            "label": "mineralId",
            "offset": 0,
            "slot": "0",
            "type": "t_string_storage"
          },
          {
            "astId": 10298,
            "contract": "contracts/tokens/Tokenization.sol:Tokenization",
            "label": "details",
            "offset": 0,
            "slot": "1",
            "type": "t_string_storage"
          },
          {
            "astId": 10300,
            "contract": "contracts/tokens/Tokenization.sol:Tokenization",
            "label": "owner",
            "offset": 0,
            "slot": "2",
            "type": "t_address"
          },
          {
            "astId": 10302,
            "contract": "contracts/tokens/Tokenization.sol:Tokenization",
            "label": "flags",
            "offset": 20,
            "slot": "2",
            "type": "t_uint8"
          }
        ],
        "numberOfBytes": "96"
      },
      "t_struct(RoleData)19_storage": {
        "encoding": "inplace",
        "label": "struct AccessControl.RoleData",
        "members": [
          {
            "astId": 16,
            "contract": "contracts/tokens/Tokenization.sol:Tokenization",
            "label": "members",
            "offset": 0,
            "slot": "0",
            "type": "t_mapping(t_address,t_bool)"
          },
          {
            "astId": 18,
            "contract": "contracts/tokens/Tokenization.sol:Tokenization",
            "label": "adminRole",
            "offset": 0,
            "slot": "1",
            "type": "t_bytes32"
          }
        ],
        "numberOfBytes": "64"
      },
      "t_uint256": {
        "encoding": "inplace",
        "label": "uint256",
        "numberOfBytes": "32"
      },
      "t_uint8": {
        "encoding": "inplace",
        "label": "uint8",
        "numberOfBytes": "1"
      }
    }
  }
}